:020000040800F2
:1000000030040020C10100085B1600085D060008EE
:1000100059160008AB0200084D200008000000003F
:10002000000000000000000000000000291E000881
:10003000A1030008000000005D160008011F000871
:10004000DB010008DB010008DB010008DB01000820
:10005000DB010008DB010008DB010008DB01000810
:10006000DB010008DB010008DB010008DB01000800
:10007000DB010008DB010008DB010008DB010008F0
:10008000DB010008DB010008DB010008DB010008E0
:10009000DB010008DB010008DB010008DB010008D0
:1000A000DB010008DB010008DB010008DB010008C0
:1000B000DB010008DB010008DB010008DB010008B0
:1000C000DB010008DB010008DB010008DB010008A0
:1000D000DB010008DB010008DB010008DB01000890
:1000E000DB010008DB010008DB010008DB01000880
:1000F000DB010008DB010008DB010008DB01000870
:10010000DB010008DB010008DB010008DB0100085F
:10011000DB010008DB010008DB010008DB0100084F
:10012000DB010008DB010008DB010008DB0100083F
:10013000DB010008DB010008DB010008DB0100082F
:10014000DB010008DB010008DB010008DB0100081F
:10015000DB010008DB010008DB010008DB0100080F
:10016000DB010008DB010008DB010008DB010008FF
:10017000DB010008DB010008DB010008DB010008EF
:10018000DB010008DB010008DB010008DB010008DF
:10019000DB010008DB010008DB010008DB010008CF
:1001A000DB010008DB010008DB010008DFF80CD0F0
:1001B00000F04AF8004800474925000830040020B4
:1001C0000648804706480047FEE7FEE7FEE7FEE7F1
:1001D000FEE7FEE7FEE7FEE7FEE7FEE7051F000895
:1001E000AD0100082DE9F05F0546002092469B46D0
:1001F00088460646814640241BE02846414647463D
:10020000224600F042F853465A46C01A914110D394
:1002100011461846224600F029F82D1A67EB01080E
:100220004F4622460120002100F020F817EB00097C
:100230004E41201EA4F10104DFDC484631462A4627
:100240004346BDE8F09F0000064C074D06E0E0681D
:1002500040F0010394E8070098471034AC42F6D30D
:10026000FFF7A8FF7437000894370008202A04DB42
:10027000203A00FA02F1002070479140C2F12003B9
:1002800020FA03F3194390407047202A04DB203AF8
:1002900021FA02F00021704721FA02F3D040C2F1A6
:1002A00020029140084319467047FEE710B501212E
:1002B000CC05204601F0F8F92046BDE810400021A9
:1002C00001F0F2B901460020024A52680A4200D009
:1002D0000120704700B0024030B500242A4B196855
:1002E0002A4A114019601968026811431960596B54
:1002F00021F007015963596B426811435963416802
:10030000002928D001292DD0022930D0032933D04B
:10031000C1680A010169090244692403856821430F
:1003200015430D43996B0D439D638169D963196C26
:100330006FF30D011964196CC26911431964818C42
:1003400009045A6C02F040425A645A6C006A024333
:100350000A435A6430BDC1680A02018A0904047D57
:100360002406DBE7C1680A02018A0904D6E7C168EE
:100370004A010169C902D1E7C1684A0101698902DC
:100380004469E403CAE7000000B00240FCE0FCFF5F
:100390000248016841F001010160704700B002406D
:1003A0007047000070B586B00121084601F06EF973
:1003B0000121102001F094F91E4E07220A21304637
:1003C00000F03AF907220921304600F035F90024FF
:1003D0008DF8164001208DF8170002258DF8145075
:1003E000410204918DF8155004A9304600F0E6F85A
:1003F0008DF814506802049004A9304600F0DEF82D
:100400004FF4E1300090ADF80440ADF80640ADF88F
:100410000840ADF80C400C20ADF80A00064C6946C7
:10042000204601F0B1FD0121204601F099FD06B002
:1004300070BD0000000002400010014001B502E064
:100440000098401E009000980028F9D108BD0022B5
:100450004FF0204310280AD0B0F5807F09D0B0F5C6
:10046000805F09D0D3F85801814309D107E0586E65
:10047000FAE7D3F88400F7E7D3F8A400F4E7012201
:1004800010467047D0E9001211438268C068521EBE
:10049000520142EA402001430148016070470000D8
:1004A000500100A070B50468A100A1F1C041D1F8CD
:1004B0004011CE0BF603D0E901121143D0E903231A
:1004C0001A4311434269C36911438269056A1143A2
:1004D0001943426A2943114331434FF02046002C0F
:1004E0003CD0D6F840416FF30E042B432243134314
:1004F000C6F8403102689200A2F1C042C2F8401131
:10050000016871B38900A1F1C041D1F8481101F02F
:100510007043816A0A684C68521E641E42EA0414E1
:100520008A68521E44EA02240A8A521E44EA02429F
:100530001A43D6F8483103F07043CC68898A641EA8
:100540002403491E44EA01511943C6F848110068C2
:100550008000A0F1C040C0F8482170BDC6F840112D
:10056000CEE7FFE7D6F8481101F07041806A0268D3
:100570004368521E5B1E42EA03138268521E43EA1E
:100580000223C268521E43EA0233028A521E43EA21
:100590000243828A007E521E43EA0252401E42EA11
:1005A00000600843C6F8480170BD000002490A68AF
:1005B00042EA400008607047540100A02DE9F04174
:1005C000002201274FF0030C07FA02F50B682B40BD
:1005D000AB422CD1066853000CFA03F4A643066024
:1005E0000E79D0F800809E4046EA080606600E7933
:1005F000012E01D0022E12D18668A64386604E7964
:10060000D0F808809E4046EA080686604668AE43F9
:10061000466045688E799640B6B235434560C568F8
:10062000A543C560CC799C40C3681C43C460521C80
:10063000102AC9D3BDE8F08110B54B07DB0E9A40F4
:10064000C90800EB8100016A0F249C40A1430162AC
:10065000016A1143016210BD01837047FEE700008B
:10066000F0B58BB00446E50A04F01F07C4F3451645
:10067000FFF71CFE4FF440300190022002900496D8
:100680000397059520040012000E06900C4C60683C
:100690000790002008904FF44070099040F25650A7
:1006A0000A9001A8FFF718FEFFF772FE0220FFF77D
:1006B00009FE0028FAD0208800F056FC0BB0F0BDEF
:1006C00014000020F0B5074600240B4D40F25656AA
:1006D00008E020222146384600F010F8E8688088BB
:1006E000204484B2B44205D2E8688188081980B2F7
:1006F0008842EED2F0BD00001400002010B4203A71
:10070000D3B2054AD2681468D2885A4304EB420235
:1007100010BC00F025B80000140000202DE9F041C5
:1007200080460D4600240D4E40F2565708E0214603
:100730004046FFF7E3FFF0688088204484B26D1CD8
:10074000BC4208D22A78002A05D0F06881880819AE
:1007500080B28842EBD2BDE8F08100001400002096
:100760002DE9F043002540F6AC235843DFF878909C
:10077000D9F804C0D9F80C7030E0002326E00C262C
:10078000B4FBF6F6F6004FF0800808FA06F832F8E7
:10079000156048FA03F818EA060F01D10C2C08D9A5
:1007A0004FF0010808FA03F816EA080F07D10C2CDD
:1007B00005D90CEB4106B9F80240345204E00CEBC9
:1007C0004106B9F800403452491C5B1CBC889C426D
:1007D000D5D8BB88C91A01F256516D1CFB88AB42B3
:1007E000CBD8BDE8F0830000140000202DE9F043D1
:1007F00052420023022404EB42041B4D2F886E68F2
:10080000CD1840F2AB28A0EB020C05FB08F50CEB71
:10081000450826F8187000EB020808EB450526F895
:100820001570CD1A40F2AB2905FB09F508EB450818
:1008300026F818700CEB450526F8157025469D42E4
:1008400008DC5B1C04EB4304641CDA4202D19542D1
:1008500000DC0025954203DD521C04EB4204641CBD
:10086000002ACDDDBDE8F083140000202DE9F74F0C
:100870000746884602980321A1EB40060024029D0A
:100880004FF6FF7935E09DB109EA4502A8EB050A6C
:10089000381B93461FFA8AF180B2012300F074F8E6
:1008A00038195A461FFA8AF180B2012300F06CF819
:1008B0009CB109EA4402A8EB040A781B93461FFA8C
:1008C0008AF180B2012300F05FF878195A461FFAC6
:1008D0008AF180B2012300F057F8002E03DA06EB0C
:1008E0008406B61D04E0601B06EB80060A366D1E0A
:1008F000641CAC42C7D9029A03B041463846BDE8F1
:10090000F04FFFF773BF00002DE9F0478AB015469E
:100910009946DFF87080B8F80040E60A04F01F0737
:10092000C4F3451A40F2AB22514300EB4100D8F822
:10093000041001EB4004FFF7B9FC4FF44030009085
:1009400002200190CDF80CA0029704960F2005908C
:100950000694A5F2565040420790CDF82090099594
:100960006846FFF7B9FCFFF713FD0220FFF7AAFC6A
:100970000028FAD0B8F8000000F0F6FA0AB0BDE896
:10098000F0870000140000202DE9F0438BB01446DE
:10099000994640F2AB22514300EB410119484268AD
:1009A00002EB41050088C60A00F01F07C0F3451896
:1009B000FFF77CFC4FF44030019002200290CDF80C
:1009C0001080039705960F20069007950120B9F136
:1009D000000F11D040F25551089109940A9001A8D6
:1009E000FFF77AFCFFF7D4FC0220FFF76BFC00282E
:1009F000FAD00BB0BDE8F0830021089109900A9469
:100A0000EDE70000140000202DE9F04106460D46F8
:100A100017461C4600233A4629463046FFF7B4FFE6
:100A2000281981B200233A463046FFF7ADFF012373
:100A3000224629463046FFF7A7FFF01922462946ED
:100A4000BDE8F04180B20123FFF79EBF2DE9F84FCA
:100A500084460F460026A2EB0C00002801DCACEB1C
:100A6000020000B2D91B002900DCF91A09B20FFA02
:100A70008CF43DB24FF0FF3A624503D34FF00108CA
:100A8000C14601E0D046D146BB4203D34FF0010A34
:100A9000D34600E0D346884209DB4FF00008C34646
:100AA00000EBD072521013B20091074622E04FF0D3
:100AB0000009CA4601EBD172521013B200900F46E2
:100AC00018E02946204600F0CBFD0098184403B2F8
:100AD000BB4207DBD81B03B204EB080004B205EBF2
:100AE0000A0005B204EB090004B205EB0B0005B2E5
:100AF000761C36B2BE42E4DDBDE8F88F2DE9FC5F1E
:100B0000012140F2FF1000F0C1FD4FF00408CDF8C4
:100B1000008002208DF805008DF8040000208DF87B
:100B200006008DF807006946AA48FFF747FD0E2228
:100B30000221A848FFF780FD4FF00809CDF800908A
:100B40006946A448FFF73AFD0E220321A148FFF7AA
:100B500073FD4FF4807ACDF800A069469D48FFF7F9
:100B60002DFD0E2208219B48FFF766FD012400940D
:100B700069469948FFF722FD092200219648FFF7B0
:100B80005BFD4FF4006BCDF800B069469348FFF76A
:100B900015FD0E220B219148FFF74EFD200300901A
:100BA00069468E48FFF70AFD0E220C218B48FFF79D
:100BB00043FD0220009069468748FFF7FFFC0922A9
:100BC00001218548FFF738FD402500956946844896
:100BD000FFF7F4FC0E2206218148FFF72DFD2020AF
:100BE000009069467F48FFF7E9FC0E2205217D4809
:100BF000FFF722FD009569467A48FFF7DFFC0E22D9
:100C000006217848FFF718FD600300906946714897
:100C1000FFF7D4FC0E220D216E48FFF70DFDA60252
:100C2000009669466E48FFF7C9FC09220A216C4804
:100C3000FFF702FDE003009069466648FFF7BEFC3F
:100C40000E220F216348FFF7F7FC009469466648BF
:100C5000FFF7B4FC0E2200216348FFF7EDFC80276C
:100C6000009769466148FFF7A9FC0E2207215F48FB
:100C7000FFF7E2FCCDF8008069465B48FFF79EFC79
:100C80000E2202215848FFF7D7FC4FF01008CDF88C
:100C9000008069465348FFF791FC0E220421514819
:100CA000FFF7CAFC2003009069464D48FFF786FC19
:100CB0000E220C214A48FFF7BFFC00954C4D6946B7
:100CC0002846FFF77BFC0E2206212846FFF7B4FCDE
:100CD000CDF800B069464248FFF770FC0E220B21A8
:100CE0003F48FFF7A9FCCDF8008069463E48FFF772
:100CF00065FC0E2204213C48FFF79EFCCDF80090D5
:100D000069463648FFF75AFC0E2203213348FFF7A5
:100D100093FCCDF800A069462F48FFF74FFC0E2248
:100D200008212D48FFF788FC4FF40079CDF800909A
:100D300069462948FFF742FC0E2209212648FFF7A1
:100D40007BFC009769462648FFF738FC0E220721F6
:100D50002348FFF771FC009669462348FFF72EFCF5
:100D60000E220A212048FFF767FCCDF80090694663
:100D70001D48FFF723FC0E2209211B48FFF75CFCEE
:100D800000961C4E69463046FFF718FC0E220A21D9
:100D90003046FFF751FCCDF8008002208DF80500A9
:100DA0008DF8044000208DF806008DF80740694654
:100DB0002846FFF703FC009769462846FFF7FEFB2D
:100DC00010212846FFF748FC80212846FFF744FC05
:100DD000BDE8FC9F001C02400004024000000240ED
:100DE00000180240001002400020024000080240AB
:100DF000000C0240001402400148C0687047000027
:100E00001400002000B58FB00121880600F068FCB6
:100E10000121C80500F03AFCFFF770FE00F0C2FEA9
:100E2000002000900190029003900C900D900E9085
:100E3000042207214FF4D27000F0DEFC4FF4803022
:100E400000F0CAFC012000F0D1FC3D2000F0A8FC1D
:100E50000028FAD02F2004900420059059200690F5
:100E60000A20079040F2AF50089040F20A300990F3
:100E700040F2D3500A9040F20D300B90684600F0DB
:100E800037FB0FB000BD000030B591B05A20019083
:100E900040F2AF5002900B20039040F20A300490D1
:100EA00003240594FF2006900020079008900990E5
:100EB0000A904FF480600B9005200C9040F6AF2014
:100EC0000E90C01E0F90200210904FF050400D90D9
:100ED000134D01A9284600F06DFB059411490D91B1
:100EE00061020B9107210C910D4C01A98034204621
:100EF00000F060FB012000F0A9FB0121284600F072
:100F00004DFB0021204600F049FB012000F09EFB34
:100F1000054800F011F8012000F0DAFA11B030BDF8
:100F200084680140000420D024000020014A108081
:100F300051807047140000200149C86070470000CC
:100F4000140000200649002804D00648486001200B
:100F5000886070474FF050404860002088607047BC
:100F600014000020000420D00149088070470000D0
:100F70001400002010B509498968002908D00146ED
:100F8000074800F009FBBDE81040012000F05EBBFF
:100F900001460348803800F0FFFAF4E7140000200F
:100FA000046901402DE9F04F99B0D84D2878401CD4
:100FB00028700020FFF7C6FFFF20FFF7DBFF4FF48C
:100FC00000463046FFF74CFB4FF6FF743146204693
:100FD000FFF7ACFFCE48FFF7AFFFFFF70DFFC0886C
:100FE000CCA1FFF79BFBFFF707FFC088CFA104EA66
:100FF0004000FFF793FBFFF7FFFEC088D2A100EB94
:10100000400080B2FFF78AFBFFF7F6FEC088D7A149
:1010100004EA8000FFF782FBFFF7EEFEC088DBA149
:1010200000EB800080B2FFF779FBFFF7E5FEC08898
:10103000E3A100EB400004EA4000FFF76FFB2A78D1
:10104000E8A1684601F014F8FFF7D6FEC088C0EBAF
:10105000C00080B2FFF736FBFFF7CEFEC0886946BE
:10106000C0EBC00080B2FFF759FB48F21F0A5046A0
:10107000FFF77AFFFFF7C0FEC08804EAC000FFF761
:1010800021FBFFF7B9FEC088DFA104EAC000FFF72B
:1010900045FB4FF47C4731463846FFF747FFFA23BC
:1010A00040F2EE28424619463220FFF7CFFC4FF4BB
:1010B00096752B46424629463220FFF7C7FC48F278
:1010C000E03831464046FFF731FF4FF4C8794B46D0
:1010D0004A46FA212846FFF7B9FC68004B4602460B
:1010E000FA21FFF7B3FC6FF07F4B5846FFF7A6F9E4
:1010F00031463046FFF71AFF4FF40E7340F2565256
:10110000C8210020FFF700FC00F0D0FD5046FFF79B
:101110002BFFFFF771FEC08804EAC000FFF7D2FA88
:10112000FFF76AFEC088BBA104EAC000FFF7F6FA29
:1011300031463846FFF7FAFEC8226423FA211046EA
:10114000FFF762FC31464046FFF7F0FE4FF4AF79FF
:101150003223C822FA214846FFF756FC3146504652
:10116000FFF7E4FEC823322249461846FFF74CFC3D
:101170005846FFF763F931463046FFF7D7FE4FF484
:101180000E7340F25652C8210020FFF7BDFB5046B7
:10119000FFF7EAFEFFF730FEC08804EAC000FFF761
:1011A00091FAFFF729FEC0889DA104EAC000FFF76D
:1011B000B5FA31463846FFF7B9FEC8226423FA2152
:1011C0001046FFF7A1FB31464046FFF7AFFE322342
:1011D000C822FA214846FFF797FB31465046FFF7F1
:1011E000A5FEC823322249461846FFF78DFB584614
:1011F000FFF724F931463046FFF798FE4FF40E739F
:1012000040F25652C8210020FFF77EFB5046FFF700
:10121000ABFEFFF7F1FDC08804EAC000FFF752FA09
:10122000FFF7EAFDC08882A104EAC000FFF776FA62
:1012300039463846FFF77AFE32224946C820FFF782
:10124000D5FA41464046FFF771FE4B2249464846D3
:10125000FFF7CCFA5846FFF7F1F831463046FFF772
:1012600065FE4FF40E7340F25652C8210020FFF77E
:101270004BFB5046FFF778FEFFF7BEFDC08804EA3F
:10128000C000FFF71FFAFFF7B7FDC0886CA104EAA2
:10129000C000FFF743FA31463846FFF747FE3222D7
:1012A00049462846FFF7E2FA31464046FFF73EFE40
:1012B0004B2249464FF4E170FFF7D8FA5846FFF742
:1012C000BDF831463046FFF731FE4FF40E7340F261
:1012D0005652C8210020FFF717FBFFF78DFDC0888D
:1012E00004EAC000FFF7EEF95846FFF7A7F83146C9
:1012F0003046FFF71BFE4FF40E7340F25652C821E2
:101300000020FFF701FB19B0BDE8F08F10000020AE
:1013100024000020424820352E3020696E6368206A
:101320004C434420706172613A000000496D61676E
:1013300065207265736F6C7574696F6E3A38303002
:101340007834383020707800546F7563682070618D
:10135000643A3520706F696E7420746F756368200D
:10136000737570706F72746564000000557365204A
:1013700053544D33322D4C54444320646972656399
:10138000746564206472697665722C006E6F2065E6
:10139000787465726E206C6364206472697665721D
:1013A000206E65656465642C5247423838382C32AB
:1013B0003462697473206461746120627573000023
:1013C000546F7563682070616420757365204949A6
:1013D0004320746F20636F6D6D756E696361746512
:1013E00000000000446973706C61792076616C754F
:1013F000652064656D6F3A2074657374436F756E14
:1014000074203D202564200044726177206C696E51
:10141000653A00004472617720526563743A0000B7
:10142000447261772046756C6C20526563743A0093
:101430004472617720636972636C653A0000000052
:10144000447261772066756C6C20636972636C65A9
:101450003A0000002DE9FC410121802000F016F93E
:101460004FF48064009401208DF8040000218DF871
:1014700006108DF807008DF805100C4F69463846A8
:10148000FFF79CF86600009669463846FFF796F825
:10149000A500009569463846FFF790F803481830D4
:1014A000048006800580BDE8FC810000001C02402D
:1014B0000649002804D0086840F001000860704721
:1014C000086820F0010008607047000018680140BB
:1014D0000649002804D0086840F48030086070474E
:1014E000086820F4803008607047000018680140E8
:1014F00030B5264A136826490B401360038A1B0443
:10150000146845692C431C431460121D13680B407A
:101510001360038B1B041468C5692C431C431460BF
:10152000121D13680B401360038C1B041468456A7A
:101530002C431C431460121D13680B401360018D73
:1015400009041368C46A23430B431360111D0A681E
:10155000104B1A400A60D0E900231A43D0E9023444
:1015600023431A430B681A430A60416B0A02018E37
:101570000B04064924310C6804F07F440C600C68AD
:10158000806B134304431C430C6030BD086801406A
:1015900000F800F08F88FE0F41617047002904D0E9
:1015A000016841F0010101607047016821F001010B
:1015B0000160704770B58A881204436803F4704371
:1015C00043600B68134343608A891204836803F401
:1015D000704383608B6813438360026922F00702C3
:1015E00002610A690261CA6913020A8C120491F845
:1015F000244024068569002585618E6922431E43A7
:1016000016438661426922F0FF0242614A694261E3
:10161000C26940F207739A43C261D1E90A231A43AF
:10162000C261826A85620A6B82620A8F1204C36A8F
:1016300003F0E023C3624B6B1343C362026B6FF38F
:101640000A020263C96B016370BD000001490860B2
:101650007047000024680140FEE7704770470000B3
:1016600040F2575290420ED200290CDBB1F5407F78
:1016700009DC5210514300EB410003494A6802EB78
:10168000400009880180704714000020054A0029A5
:1016900003D01168014311607047116881431160E4
:1016A0007047000030380240054A002903D0116815
:1016B0000143116070471168814311607047000059
:1016C00010380240054A002903D011680143116017
:1016D000704711688143116070470000383802403C
:1016E000054A002903D01168014311607047116851
:1016F00081431160704700004438024070B5244BAC
:10170000196801F00C01234C00291ED0224E042937
:101710001DD008291DD00460196801F0F0010909E5
:101720001E4A545C0168E14041601C6804F4E054C6
:10173000A40A145D21FA04F484601B6803F4604376
:101740005B0BD25CD140C16070BD0460E4E7066011
:10175000E2E70F4A121F1168C1F38055116801F0CA
:101760003F0135B1B6FBF1F11468C4F3881461434D
:1017700005E0B4FBF1F11468C4F388146143126806
:10178000C2F30142521C5200B1FBF2F10160C3E707
:10179000083802400024F40040787D010000002059
:1017A00002460020510901290BD002290DD0094918
:1017B000096802F01F02012393400B4200D0012070
:1017C0007047044974390968F3E70249091F096839
:1017D000EFE7000074380240034A116821F44031F9
:1017E00001431160704700008C38024001490867CE
:1017F0007047000000004742800140EA0160024952
:1018000040EA027008607047883802402DE9FC5FAA
:101810000121FC20FFF73AFF02208DF804008DF82B
:10182000050000208DF806008DF8070001200090CB
:101830006946D648FEF7C2FE0C220021D348FEF7C7
:10184000FBFE022000906946D048FEF7B7FE0C224E
:101850000121CE48FEF7F0FE042600966946CB48EB
:10186000FEF7ACFE0C220221C848FEF7E5FE082078
:1018700000906946C548FEF7A1FE0C220321C3482B
:10188000FEF7DAFE102700976946C048FEF796FE7D
:101890000C220421BD48FEF7CFFE4FF02008CDF802
:1018A00000806946B948FEF789FE0C220521B74839
:1018B000FEF7C2FE4FF48059CDF800906946B34858
:1018C000FEF77CFE0C221146B048FEF7B5FE4FF441
:1018D000005ACDF800A06946AC48FEF76FFE0C2216
:1018E0000D21AA48FEF7A8FE350300956946A748D2
:1018F000FEF764FE0C220E21A448FEF79DFE6C004C
:1019000000946946A148FEF759FE0C220F219F481A
:10191000FEF792FE0120009069469D48FEF74EFEBC
:101920000C2200219A48FEF787FE022000906946AB
:101930009748FEF743FE0C2201219548FEF77CFEF6
:10194000009669469248FEF739FE0C220221904823
:10195000FEF772FE009569468E48FEF72FFE0C22B8
:101960000E218C48FEF768FE009469468948FEF710
:1019700025FE0C220F218748FEF75EFE0120009015
:1019800069468448FEF71AFE0C2200218148FEF7C2
:1019900053FE0220009069467E48FEF70FFE0C229F
:1019A00001217C48FEF748FE8020009069467A4875
:1019B000FEF704FE0C2207217748FEF73DFEE611F4
:1019C000009669467448FEF7F9FD0C22082172481A
:1019D000FEF732FEA011009069466F48FEF7EEFD5B
:1019E0000C2209216C48FEF727FE4FF4806BCDF8DE
:1019F00000B069466848FEF7E1FD0C220A216648FE
:101A0000FEF71AFE2011009069466348FEF7D6FDE6
:101A10000C220B216048FEF70FFECDF800906946BE
:101A20005D48FEF7CBFD0C2211465B48FEF704FE35
:101A3000CDF800A069465848FEF7C0FD0C220D21E4
:101A40005548FEF7F9FD009569465348FEF7B6FD87
:101A50000C220E215048FEF7EFFD009469464E48D7
:101A6000FEF7ACFD0C220F214B48FEF7E5FD00967A
:101A700069464848FEF7A2FD0C2208214548FEF7BA
:101A8000DBFDA011009069464248FEF797FD0C224D
:101A900009214048FEF7D0FDCDF800B069463D4829
:101AA000FEF78CFD0C220A213A48FEF7C5FD4020C6
:101AB00000903A4D69462846FEF780FD0C2206212B
:101AC0002846FEF7B9FD009769463148FEF776FDD6
:101AD0000C2204212E48FEF7AFFDCDF800806946A8
:101AE0002B48FEF76BFD0C2205212948FEF7A4FDCB
:101AF000012000902A4F69463846FEF75FFD0C2210
:101B000000213846FEF798FD2111009169461F48D3
:101B1000FEF754FD0C220B211C48FEF78DFD0094AE
:101B200069461B48FEF74AFD0C220F211848FEF7B4
:101B300083FD009669461648FEF740FD0C220821F9
:101B40001348FEF779FD8020009069462846FEF78D
:101B500035FD0C2207212846FEF76EFD022000907D
:101B600069460D48FEF72AFD0C2201210A48FEF7BE
:101B700063FD0120009069460748FEF71FFD0C2217
:101B800000210548FEF758FDBDE8FC9F0014024007
:101B900000180240000C024000100240001C0240ED
:101BA0000008024000B593B0FFF730FE012108465F
:101BB000FFF788FD02200190072102910422039281
:101BC0000491059006900790012008900990082044
:101BD0000A9010200B9040200C904FF4C0700D9094
:101BE00000200E9051020F9110908800119001A8D2
:101BF000129008A8FEF756FC00F002F813B000BDE2
:101C00002DE9FF4101250095082601960295002443
:101C1000039420210120FEF71AFC0028F9D1684620
:101C2000FEF730FC642000F0EFF8022000900196EF
:101C30000295039420210120FEF709FC0028F9D128
:101C40006846FEF71FFC03200090019604270297C8
:101C5000039420210120FEF7FAFB0028F9D1684601
:101C6000FEF710FC20210120FEF7F1FB0028F9D13E
:101C70006846FEF707FC40F2312000970196029576
:101C8000039020210120FEF7E2FB0028F9D16846ED
:101C9000FEF7F8FB40F2AB20FEF788FC2021012084
:101CA000FEF7D5FB0028F9D1BDE8FF8170B500240F
:101CB0000026002526A000F0CBF94FF0007300228B
:101CC000A4F140500270641C9C42F9D30020A0F1A2
:101CD000405431182170401C9842F8D30020A0F1E4
:101CE000405109783418E4B28C4204D028A000F0A6
:101CF000AFF9002070BD401C9842F0D300204FF097
:101D000080734100A1F140510A80401C9842F8D3F1
:101D1000002029184200A2F140521180401C984234
:101D2000F7D300204100A1F1405109882A1892B24E
:101D30008A4204D020A000F08BF9002070BD401C26
:101D40009842EFD326A000F083F9012070BD000077
:101D50003C3C2D534452414D2D494E464F2D3E3E65
:101D600020D5FDD4DABCECB2E2534452414DA3ACD1
:101D7000D2D438CEBBA1A23136CEBBB5C4B7BDCA12
:101D8000BDB6C1D0B4736472616D2E2E2E0A0000F0
:101D90003C3C2D534452414D2D4552524F522D3E05
:101DA0003E2038CEBBCAFDBEDDB6C1D0B4B4EDCE48
:101DB000F3A3A10A000000003C3C2D534452414DC6
:101DC0002D4552524F522D3E3E203136CEBBCAFDDC
:101DD000BEDDB6C1D0B4B4EDCEF3A3A10A000000BD
:101DE0003C3C2D534452414D2D494E464F2D3E3ED5
:101DF00020534452414DB6C1D0B4B2E2CAD4D5FD4D
:101E0000B3A3A3A10A00000001B581B00549019860
:101E10004843009002E00098401E0090009800287F
:101E2000F9D10CBDA0860100704700001CB500214F
:101E3000019100912E4A106840F4803010604FF4F8
:101E4000A043106800F4003000900198401C0190FD
:101E5000009810B901989842F3D11068800302D518
:101E60000120009000E00091009801283FD1204817
:101E70004030016841F0805101601E49086840F41B
:101E8000404008601A48083003680360036843F460
:101E900000430360036843F4A0530360041F164B20
:101EA0002360136843F08073136013689B01FCD5B3
:101EB0000A6842F480320A604A68D203FCD50A6894
:101EC00042F400320A604A689203FCD50B4A40F2A1
:101ED00005711160016821F003010160016841F0A2
:101EE000020101600168C1F381010229FAD11CBD20
:101EF0000038024000700040195A4007003C024080
:101F00007047000010B51248016841F4700101608B
:101F10001048016841F0010101600E4A00210832B9
:101F2000116002680C4B1A400260031D0B4A1A60D4
:101F3000026822F48022026006480C300160FFF73C
:101F400075FF03494FF000608039086010BD000044
:101F500088ED00E000380240FFFFF6FE103000245C
:101F6000002904D0818941F4005181817047818921
:101F700021F40051818170470246002012880A42F4
:101F800000D00120704700007FB504460D46208A2E
:101F900020F44051E88808432082A08941F20C6176
:101FA0008843A9882A8911436A8902431143A18180
:101FB000A08A20F44071A8890843A0826846FFF7F0
:101FC0009DFB1E48844202D01D48844201D10398E3
:101FD00000E00298A189090408D500EBC00101EBDB
:101FE000001029684900B0FBF1F007E000EBC001E8
:101FF00001EB001029688900B0FBF1F06422B0FB0E
:10200000F2F109010B096FF018056B4300EB830037
:10201000A3891D044FF0320307D503EBC000B0FBCA
:10202000F2F000F00700084306E003EB0010B0FBFD
:10203000F2F000F00F00084320817FBD0010014046
:1020400000140140C1F3080181807047FEE70000E1
:102050000FB4054B10B503A9044A029800F02CF800
:1020600010BC5DF814FB0000252500082C000020A2
:102070000FB4084B10B504A902AA039800F01CF88D
:10208000044602A9002000F048FA204610BC5DF882
:1020900014FB00001B25000802E008C8121F08C13D
:1020A000002AFAD170477047002001E001C1121FD9
:1020B000002AFBD1704700002DE9FF4F8DB00F467D
:1020C0000546002606E025280BD0DDE90F129047D3
:1020D0006D1C761C28780028F5D111B03046BDE87B
:1020E000F08F0024A246A1460122EC4900E00443FF
:1020F00015F8013F203B02FA03F00842F7D1287897
:102100002A2810D06FF02F022878A0F13001092979
:1021100014D80AEB8A0102EB410144F0020400EBFF
:10212000010A6D1CF0E701CF5FEA000A03D544F411
:102130000054CAF1000A44F002046D1C28782E28CD
:1021400017D115F8010F44F004042A280ED06FF0BF
:102150002F022878A0F1300109290AD809EB89015A
:1021600002EB410100EB01096D1CF2E757F8049BFB
:102170006D1C28786C280FD006DC4C2817D06828F6
:102180000DD06A2814D104E0742810D07A280FD119
:102190000DE044F400140AE044F4801401E044F437
:1021A00040146978814202D104F580146D1C6D1CC5
:1021B0002A786E2A1FD00CDC632A31D004DC002A76
:1021C0008BD0582A11D1A3E0642A68D0692A0CD197
:1021D00065E0732A2ED004DC6F2A73D0702A04D1F4
:1021E0009BE0752A6FD0782A6ED01046DDE90F1279
:1021F0009047761C50E1C4F30250022806D0032811
:1022000009D0042801CF09D0066045E101CFF117BC
:10221000C0E9006140E101CF06803DE106703BE18D
:1022200017F8040B8DF8000000208DF80100EB4634
:10223000012003E057F804BB4FF0FF3061074FF077
:10224000000102D40DE008F10101884649450FDA8A
:102250008045F8DB1BF808100029F4D108E008F1EC
:10226000010188468142FADB1BF808100029F6D1EB
:10227000DDE90F23AAEB08008146214600F036F97C
:10228000304400EB080604E0DDE90F121BF8010BF7
:102290009047B8F10108F7D221464846F7E00A21F5
:1022A000C4F302534FF0000B0891022B04D001CF6E
:1022B000C117032B09D00AE0FF1D27F00707F7E835
:1022C000020108E032E01FE020E000B2C117042B59
:1022D00001D140B2C117031E71F1000307DA4FF0BC
:1022E000000CD0EB0C006CEB01012D2302E0230568
:1022F00004D52B238DF82430012303E0E30701D01C
:102300002023F7E7984658E00A2110E010210EE05C
:1023100010204FF0000B08900CE010214FF0000B44
:1023200044F004044FF00809089103E008214FF03D
:10233000000B0891C4F30253022B04D001CF0021FB
:10234000032B06D006E0FF1D27F00707F7E8020180
:1023500003E080B2042B00D1C0B24FF00008230785
:102360002BD5702A07D0DDF820C08CF0100C5CEA69
:102370000B0C05D00EE040238DF82430012308E03B
:1023800050EA010306D030238DF824308DF8252043
:1023900002239846DDF820C08CF0080C5CEA0B0C98
:1023A0000BD150EA010301D1630706D530238DF824
:1023B00024304FF00108A9F10109582A04D038A2AD
:1023C0000B9208AA0A920BE03AA2F9E75B46089A38
:1023D000FDF708FF0B9B9B5C0A9A521E0A92137032
:1023E00050EA0102F2D10A98ADEB000000F1200B97
:1023F000600702D524F4803401E04FF00109D9458B
:1024000002DDA9EB0B0000E0002000EB0B014144D2
:102410000890AAEB010AE00306D4DDE90F23214668
:10242000504600F063F806444FF0000908E009A99F
:1024300011F80900DDE90F12904709F10109761C36
:10244000C145F4DBE0030CD5DDE90F2321465046FE
:1024500000F04CF8064404E0DDE90F12302090470C
:10246000761C0899481E08900029F5DC08E00A98B7
:102470000A990078491C0A91DDE90F129047761CF1
:10248000BBF10001ABF1010BF1DC21465046DDE967
:102490000F2300F019F806446D1C1BE60928010003
:1024A00030313233343536373839616263646566CA
:1024B000000000003031323334353637383941428C
:1024C00043444546000000002DE9F0410446002544
:1024D0001E461746880404D405E039462020B0473C
:1024E0006D1C641EF9D52846BDE8F0812DE9F04148
:1024F000044600251E469046C80301D5302700E05B
:102500002027880404D505E041463846B0476D1CB5
:10251000641EF9D52846BDE8F0810A68531C0B609B
:102520001070704770B50446064DE1B22846FFF7BB
:1025300089FD80212846FFF71FFD0028F9D020469D
:1025400070BD000000100140FEF784FFFDF72AFF78
:10255000FEF758FCFEF798FC0120FEF7A9FF0020CB
:10256000FEF7F0FC4FF400442046FEF779F8002017
:10257000FEF7E8FCFF20FEF7FDFC2046FEF770F8B2
:10258000074861110180C114018005498014891C2C
:102590000880401EFDF752FFFEF704FDFCE7000037
:1025A000181C0240000000000000000000000000B5
:1025B000000000000000000000000000000000001B
:1025C000000000000000000000000000000000000B
:1025D0000000000000008001800180018001800176
:1025E00080018001800180018001800180018001E3
:1025F00000000000800180010000000000000000D9
:102600000000000000000000CC00CC00CC00CC009A
:10261000CC00CC0000000000000000000000000022
:1026200000000000000000000000000000000000AA
:10263000000000000000000000000000000000009A
:10264000600C600C600C30063006FE1FFE1F30066A
:1026500038071803FE1FFE1F180318038C018C0196
:102660008C01000000008000E003F80F9C0E8C1C21
:102670008C188C009800F801E007800E801C8C18E4
:102680008C189C18B80CF00FE0038000800000004C
:10269000000000000000000000000E181B0C110CD0
:1026A00011061106110311039B018E01C038C06C85
:1026B00060446044304430441844186C0C380000C6
:1026C000000000000000E001F003380718061806BB
:1026D0003003F001F000F8009C310E33061E061C9A
:1026E000061C063FFC73F021000000000000000003
:1026F00000000000000000000C000C000C000C00AA
:102700000C000C00000000000000000000000000B1
:1027100000000000000000000000000000000000B9
:10272000000000000000000200038001C000C000A3
:1027300060006000300030003000300030003000B9
:102740003000300060006000C000C0008001000365
:1027500000020000000020006000C0008001800135
:10276000000300030006000600060006000600063F
:10277000000600060003000380018001C000600025
:102780002000000000000000000000000000000029
:10279000C000C000D806F807E00130033807000089
:1027A0000000000000000000000000000000000029
:1027B0000000000000000000000000000000000019
:1027C00080018001800180018001FC3FFC3F80018D
:1027D00080018001800180010000000000000000F5
:1027E00000000000000000000000000000000000E9
:1027F00000000000000000000000000000000000D9
:102800000000000000008001800100010001800044
:1028100000000000000000000000000000000000B8
:10282000000000000000000000000000E007E007DA
:102830000000000000000000000000000000000098
:102840000000000000000000000000000000000088
:102850000000000000000000000000000000000078
:10286000000000000000C000C000000000000000E8
:10287000000000000000000C000C0006000600062E
:102880000003000300038003800180018001C00079
:10289000C000C000600060000000000000000000F8
:1028A000000000000000E003F007380E180C0C18C0
:1028B0000C180C180C180C180C180C180C180C18F8
:1028C000180C380EF007E0030000000000000000C4
:1028D00000000000000000018001C001F00198012B
:1028E00088018001800180018001800180018001D8
:1028F00080018001800180010000000000000000D4
:10290000000000000000E003F80F180C0C180C1871
:1029100000180018000C000600038001C0006000D1
:1029200030001800FC1FFC1F000000000000000029
:10293000000000000000E001F807180E0C0C0C0C61
:10294000000C0006C003C007000C001800180C188B
:102950000C18180CF807E00300000000000000004D
:10296000000000000000000C000E000F000F800DA2
:10297000C00C600C600C300C180C0C0CFC3FFC3FC5
:10298000000C000C000C000C000000000000000017
:10299000000000000000F80FF80F180018000C00ED
:1029A000EC03FC071C0E001C0018001800180C1883
:1029B0001C0C180EF807E0030000000000000000E7
:1029C000000000000000C007F00F381C18181800A5
:1029D0000C00CC03EC0F3C0E1C1C0C180C180C1833
:1029E000181C380EF007E003000000000000000093
:1029F000000000000000FC1FFC1F000C0006000689
:102A0000000380038001C001C000E000600060009E
:102A100070003000300030000000000000000000B6
:102A2000000000000000E003F007380E180C180C3E
:102A3000180C3806F007F007180C0C180C180C18B6
:102A40000C18380CF80FE003000000000000000034
:102A5000000000000000E003F007380E1C0C0C180A
:102A60000C180C181C1C381EF81BE0190018000C60
:102A7000000C1C0EF807F001000000000000000030
:102A80000000000000000000000000000000000046
:102A90008001800100000000000000000000000034
:102AA0000000000080018001000000000000000024
:102AB0000000000000000000000000000000000016
:102AC0008001800100000000000000000000000004
:102AD0000000000080018001000100018000000072
:102AE00000000000000000000000000000000000E6
:102AF000000000000010001C800FE003F800180028
:102B0000F800E003800F001C00100000000000002F
:102B100000000000000000000000000000000000B5
:102B200000000000F81F000000000000F81F000077
:102B30000000000000000000000000000000000095
:102B40000000000000000000000000000000000085
:102B50000000000008003800F001C007001F001846
:102B6000001FC007F001380008000000000000004E
:102B7000000000000000E003F80F180C0C180C18FF
:102B80000018000C000600038001C000C000C00057
:102B900000000000C000C0000000000000000000B5
:102BA0000000000000000000E00718180420C229FF
:102BB000224A114409440944094409221113E20C30
:102BC000024004201818E007000000000000000088
:102BD00000000000000080038003C006C006C0069D
:102BE000600C600C301830183018F83FF83F1C703B
:102BF0000C600C6006C006C0000000000000000071
:102C0000000000000000FC03FC0F0C0C0C180C185A
:102C10000C180C0CFC07FC0F0C180C300C300C3092
:102C20000C300C18FC1FFC07000000000000000026
:102C3000000000000000C007F01F38381C300C7086
:102C40000660060006000600060006000600066094
:102C50000C701C30F01FE0070000000000000000B6
:102C6000000000000000FE03FE0F060E0618061806
:102C700006300630063006300630063006300618BC
:102C80000618060EFE0FFE03000000000000000004
:102C9000000000000000FC3FFC3F0C000C000C009A
:102CA0000C000C00FC1FFC1F0C000C000C000C00A6
:102CB0000C000C00FC3FFC3F000000000000000086
:102CC000000000000000F83FF83F1800180018004E
:102CD00018001800F81FF81F180018001800180036
:102CE0001800180018001800000000000000000084
:102CF000000000000000E00FF83F3C780E6006E0A6
:102D000007C00300030003FE03FE03C007C006C0A4
:102D10000EC03CF0F83FE00F000000000000000093
:102D20000000000000000C300C300C300C300C3077
:102D30000C300C30FC3FFC3F0C300C300C300C30B5
:102D40000C300C300C300C30000000000000000093
:102D500000000000000080018001800180018001EE
:102D6000800180018001800180018001800180015B
:102D7000800180018001800100000000000000004F
:102D80000000000000000006000600060006000625
:102D900000060006000600060006000600061806EB
:102DA00018063807F003E0010000000000000000F2
:102DB00000000000000006300618060C0606060398
:102DC0008601C60066007600DE008E010603060658
:102DD000060C061806300660000000000000000027
:102DE000000000000000180018001800180018006B
:102DF0001800180018001800180018001800180013
:102E000018001800F81FF81F000000000000000064
:102E10000000000000000EE01EF01EF01EF036D88C
:102E200036D836D836D866CC66CC66CCC6C6C6C6CA
:102E3000C6C6C6C686C386C30000000000000000E8
:102E40000000000000000C301C303C303C306C3086
:102E50006C30CC30CC308C310C330C330C360C361F
:102E60000C3C0C3C0C380C30000000000000000052
:102E7000000000000000E007F81F1C380E7006601C
:102E800003C003C003C003C003C003C003C0066087
:102E90000E701C38F81FE007000000000000000062
:102EA000000000000000FC0FFC1F0C380C300C3040
:102EB0000C300C300C18FC1FFC070C000C000C0034
:102EC0000C000C000C000C000000000000000000D2
:102ED000000000000000E007F81F1C380E700660BC
:102EE00003E003C003C003C003C003C007E00663E0
:102EF0000E3F1C3CF83FE0F700C00000000000005F
:102F0000000000000000FE0FFE1F063806300630ED
:102F100006300638FE1FFE0706030606060C0618D6
:102F200006180630063006600000000000000000B1
:102F3000000000000000E003F80F1C0C0C180C1837
:102F40000C001C00F803E00F001E003806300630AD
:102F50000E301C1CF80FE00700000000000000000D
:102F6000000000000000FE7FFE7F800180018001E4
:102F70008001800180018001800180018001800149
:102F8000800180018001800100000000000000003D
:102F90000000000000000C300C300C300C300C3005
:102FA0000C300C300C300C300C300C300C300C3041
:102FB0000C301818F81FE0070000000000000000A7
:102FC00000000000000003600630063006300C18D8
:102FD0000C180C18180C180C380E30063006700738
:102FE00060036003C001C001000000000000000099
:102FF0000000000000000360C361C361C361663369
:10300000663366336633663366336C1B6C1B6C1B2E
:103010002C1A3C1E380E380E000000000000000084
:103020000000000000000FE00C7018303018700C29
:10303000600EC00780038003C003E006700C301CE4
:1030400018180C300E6007E00000000000000000BF
:1030500000000000000003C006600C301C38381867
:10306000300C6006E007C003800180018001800110
:10307000800180018001800100000000000000004C
:10308000000000000000FC7FFC7F006000300018A2
:10309000000C000600038001C00060003000180032
:1030A0000C000600FE7FFE7F000000000000000014
:1030B000000000000000E003E0036000600060002A
:1030C0006000600060006000600060006000600000
:1030D0006000600060006000600060006000E0036D
:1030E000E00300000000300030006000600060007D
:1030F000C000C000C000C001800180018001000349
:1031000000030003000600060000000000000000AD
:10311000000000000000E003E003000300030003E0
:103120000003000300030003000300030003000387
:103130000003000300030003000300030003E00397
:10314000E003000000000000C001C0016003600354
:10315000600330063006180C180C00000000000058
:10316000000000000000000000000000000000005F
:10317000000000000000000000000000000000004F
:10318000000000000000000000000000000000003F
:10319000000000000000FFFFFFFF00000000000033
:1031A0000000000000000C000C000C000C000C00E3
:1031B0000C00000000000000000000000000000003
:1031C00000000000000000000000000000000000FF
:1031D00000000000000000000000000000000000EF
:1031E000F003F8071C0C0C0C000FF00FF80C0C0C83
:1031F0000C0C1C0FF80FF01800000000000000007D
:103200000000000000001800180018001800180046
:10321000D803F80F380C1818181818181818181898
:103220001818380CF80FD803000000000000000048
:10323000000000000000000000000000000000008E
:10324000C003F007300E180C180018001800180002
:10325000180C300EF007C003000000000000000052
:1032600000000000000000180018001800180018E6
:10327000C01BF01F301C1818181818181818181828
:103280001818301CF01FC01B0000000000000000D8
:10329000000000000000000000000000000000002E
:1032A000C003F00F300C1818F81FF81F1800180092
:1032B0003818301CF00FC0070000000000000000AC
:1032C000000000000000800FC00FC000C000C00060
:1032D000F007F007C000C000C000C000C000C00080
:1032E000C000C000C000C0000000000000000000DE
:1032F00000000000000000000000000000000000CE
:10330000E00DF80F180E0C0C0C0C0C0C0C0C0C0C2B
:103310000C0C180EF80FE00D000C0C0C1C06F80736
:10332000F001000000001800180018001800180034
:10333000D807F80F381C1818181818181818181863
:1033400018181818181818180000000000000000BD
:10335000000000000000C000C000000000000000ED
:10336000C000C000C000C000C000C000C000C0005D
:10337000C000C000C000C00000000000000000004D
:10338000000000000000C000C000000000000000BD
:10339000C000C000C000C000C000C000C000C0002D
:1033A000C000C000C000C000C000C000C000F800E5
:1033B0007800000000000C000C000C000C000C0059
:1033C0000C0C0C060C038C01CC006C00FC009C0166
:1033D0008C030C030C060C0C000000000000000025
:1033E000000000000000C000C000C000C000C0001D
:1033F000C000C000C000C000C000C000C000C000CD
:10340000C000C000C000C0000000000000000000BC
:1034100000000000000000000000000000000000AC
:103420007C3CFF7EC7E383C183C183C183C183C169
:1034300083C183C183C183C100000000000000007C
:10344000000000000000000000000000000000007C
:103450009807F80F381C1818181818181818181882
:10346000181818181818181800000000000000009C
:10347000000000000000000000000000000000004C
:10348000C003F00F300C181818181818181818184E
:103490001818300CF00FC0030000000000000000FE
:1034A000000000000000000000000000000000001C
:1034B000D803F80F380C18181818181818181818F6
:1034C0001818380CF80FD803180018001800180046
:1034D00018000000000000000000000000000000D4
:1034E000C01BF01F301C18181818181818181818B6
:1034F0001818301CF01FC01B001800180018001806
:1035000000180000000000000000000000000000A3
:10351000B007F003700030003000300030003000A1
:1035200030003000300030000000000000000000DB
:10353000000000000000000000000000000000008B
:10354000E003F003380E180C3800F003C007000C3D
:10355000180C380EF007E003000000000000000027
:1035600000000000000000008000C000C000C0009B
:10357000F007F007C000C000C000C000C000C000DD
:10358000C000C000C007800700000000000000006D
:10359000000000000000000000000000000000002B
:1035A000181818181818181818181818181818189B
:1035B0001818381CF01FE01900000000000000007F
:1035C00000000000000000000000000000000000FB
:1035D0000C18180C180C180C300630063006600356
:1035E00060036003C001C001000000000000000093
:1035F00000000000000000000000000000000000CB
:10360000C141C141C3616363636363633636363668
:1036100036361C1C1C1C1C1C000000000000000096
:10362000000000000000000000000000000000009A
:103630001C38381C300C60066003600360036003B4
:103640006006300C381C1C38000000000000000030
:10365000000000000000000000000000000000006A
:103660001830301830187018600C600CE00CC00670
:10367000C00680038003800380018001C001F00048
:1036800070000000000000000000000000000000CA
:10369000FC1FFC1F000C000600038001C00060003E
:1036A00030001800FC1FFC1F00000000000000009C
:1036B00000000000000000038001C000C000C00046
:1036C000C000C000C000600060003000600040002A
:1036D000C000C000C000C000C000C00080010003E6
:1036E0000000000000008001800180018001800155
:1036F00080018001800180018001800180018001C2
:1037000080018001800180018001800180018001B1
:103710008001000000006000C000C0018001800145
:103720008001800180010003000300060003000106
:10373000800180018001800180018001C000600063
:103740000000000000000000000000000000000079
:1037500000000000F010F81F080F0000000000003B
:103760000000000000000000000000000000000059
:103770000000000094370008000000203000000026
:1037800098200008C4370008300000200004000022
:10379000A820000800000000010203040102030445
:1037A00006070809000000000000FFFF000000D02D
:1037B0000000000000000000A42500081000180010
:0437C0000000000005
:04000005080001AD41
:00000001FF
