:020000040800F2
:1000000020060020C1010008430C0008E503000899
:10001000410C0008AB020008650F0008000000005A
:10002000000000000000000000000000410D00087A
:10003000AD02000800000000450C0008190E000881
:10004000DB010008DB010008DB010008DB01000820
:10005000DB010008DB010008DB010008DB01000810
:10006000DB010008DB010008DB010008DB01000800
:10007000DB010008DB010008DB010008DB010008F0
:10008000DB010008DB010008DB010008DB010008E0
:10009000DB010008DB010008DB010008DB010008D0
:1000A000DB010008DB010008DB010008DB010008C0
:1000B000DB010008DB010008DB010008DB010008B0
:1000C000DB010008DB010008DB010008DB010008A0
:1000D000DB010008DB010008DB010008DB01000890
:1000E000DB010008DB010008DB010008DB01000880
:1000F000DB010008DB010008DB010008DB01000870
:10010000DB010008DB010008DB010008DB0100085F
:10011000DB010008DB010008DB010008DB0100084F
:10012000DB010008DB010008DB010008DB0100083F
:10013000DB010008DB010008DB010008DB0100082F
:10014000DB010008DB010008DB010008DB0100081F
:10015000DB010008DB010008DB010008DB0100080F
:10016000DB010008DB010008DB010008DB010008FF
:10017000DB010008DB010008DB010008DB010008EF
:10018000DB010008DB010008DB010008DB010008DF
:10019000DB010008DB010008DB010008DB010008CF
:1001A000DB010008DB010008DB010008DFF80CD0F0
:1001B00000F04AF8004800473114000820060020EB
:1001C0000648804706480047FEE7FEE7FEE7FEE7F1
:1001D000FEE7FEE7FEE7FEE7FEE7FEE71D0E00088E
:1001E000AD0100082DE9F05F0546002092469B46D0
:1001F00088460646814640241BE02846414647463D
:10020000224600F042F853465A46C01A914110D394
:1002100011461846224600F029F82D1A67EB01080E
:100220004F4622460120002100F020F817EB00097C
:100230004E41201EA4F10104DFDC484631462A4627
:100240004346BDE8F09F0000064C074D06E0E0681D
:1002500040F0010394E8070098471034AC42F6D30D
:10026000FFF7A8FFD0140008F0140008202A04DBD0
:10027000203A00FA02F1002070479140C2F12003B9
:1002800020FA03F3194390407047202A04DB203AF8
:1002900021FA02F00021704721FA02F3D040C2F1A6
:1002A00020029140084319467047FEE7704700005E
:1002B00070B586B00121084600F0C6FC012110206F
:1002C00000F0DEFC1E4E07220A21304600F07AF8CC
:1002D00007220921304600F075F800248DF81640F9
:1002E00001208DF8170002258DF814504102049169
:1002F0008DF8155004A9304600F026F88DF81450FA
:100300006802049004A9304600F01EF84FF4E13072
:100310000090ADF80440ADF80640ADF80840ADF8E7
:100320000C400C20ADF80A00064C6946204600F04F
:10033000B7FD0121204600F09FFD06B070BD000012
:1003400000000240001001402DE9F0410022012789
:100350004FF0030C07FA02F50B682B40AB422CD18F
:10036000066853000CFA03F4A64306600E79D0F831
:1003700000809E4046EA080606600E79012E01D0F4
:10038000022E12D18668A64386604E79D0F8088086
:100390009E4046EA080686604668AE434660456869
:1003A0008E799640B6B235434560C568A543C560B1
:1003B000CC799C40C3681C43C460521C102AC9D32A
:1003C000BDE8F08110B54B07DB0E9A40C90800EB81
:1003D0008100016A0F249C40A1430162016A11431C
:1003E000016210BDFEE7002904D0018841F480615C
:1003F00001807047018821F48061018070470346C5
:1004000000209A8A1B8B1B041A4322F07F429143DF
:1004100000D101207047C94381827047002904D070
:10042000018841F0010101807047018821F001013C
:10043000018070472DE9F74F05461446634F4FF48E
:100440002048C7F804804FF40036DFF8849108E0B4
:100450007868411E796004D2BDE8FE4F092000F0A3
:10046000EDBA3146484600F035FA0028F0D10121B6
:10047000484600F017FA4FF4805AC7F804A0554ECA
:1004800008E07868411E796004D2BDE8FE4F0A207A
:1004900000F0D4BA31464846FFF7B1FF0028F0D04B
:1004A00039780022484600F0BEFAC7F804A0DFF809
:1004B00028B108E07868411E796004D2BDE8FE4F9B
:1004C0000B2000F0BBBA59464846FFF798FF0028BA
:1004D000F0D001214846FFF7A1FF4846019900F0FE
:1004E000ABFAC7F804A0DFF8F0B00BF1020B08E09C
:1004F0007868401E786004D2BDE8FE4F0C2000F002
:100500009DBA59464846FFF77AFF0028F0D00121EE
:10051000484600F0C7F9C7F804A008E07868411E13
:10052000796004D2BDE8FE4F0D2000F087BA314655
:100530004846FFF764FF0028F0D03978012248468A
:1005400000F071FAC7F804A0224E761C08E0786823
:10055000411E796004D2BDE8FE4F0E2000F06EBA55
:1005600031464846FFF74BFF0028F0D024E0012C2D
:1005700007D100214846FFF736FF0121484600F029
:100580009DF9C7F80480134E3F3608E07B68581E7B
:10059000786004D2BDE8FE4F032000F04FBA314628
:1005A0004846FFF72CFF0028F0D0484600F038FA04
:1005B00005F8010B641EA4B2002CD8D101214846D5
:1005C000FFF711FF0120BDE8FE8F000010000020A2
:1005D0000054004001000300820007002DE9F041B3
:1005E00005460C4604F00700C0F10807C2F3C70631
:1005F00002F00708002811D09EB3D01BC0F3C70635
:1006000000F00708F7B33A462146284600F05CF8A8
:1006100000F0F0F8E019C4B23D4437E096B9424624
:100620002146284600F050F8BDE8F04100F0E2B85D
:1006300008222146284600F047F800F0DBF808348D
:10064000E4B20835761EF6B2F2D2B8F1000F2CD023
:1006500042462146284600F037F8BDE8F04100F058
:10066000C9B842462146284600F02EF8BDE8F041C0
:1006700000F0C0B808222146284600F025F800F016
:10068000B9F800E002E00834E4B20835761EF6B2AC
:10069000F0D2B8F1000F08D042462146284600F0BB
:1006A00013F8BDE8F04100F0A5B8BDE8F081000006
:1006B00010B500F0C9F800F085F90249A0200880C3
:1006C00010BD0000100000202DE9F04705460F4640
:1006D0001446444E4FF4204070604FF40038DFF869
:1006E00008A108E07068411E716004D2BDE8F047BF
:1006F000042000F0A3B94146504600F0EBF8002872
:10070000F0D10121504600F0CDF84FF48059C6F8E1
:100710000490DFF8D88008E07068411E716004D250
:10072000BDE8F047052000F089B941465046FFF783
:1007300066FE0028F0D031780022504600F073F9B0
:10074000C6F80490DFF8A88008E07068411E716068
:1007500004D2BDE8F047062000F070B9414650468B
:10076000FFF74DFE0028F0D039465746384600F0D6
:1007700063F9C6F80490DFF8788008F1020808E011
:100780007068401E706004D2BDE8F047072000F09A
:1007900055B941463846FFF732FE0028F0D016E042
:1007A0002978384600F048F96D1CC6F8049008E036
:1007B0007068411E716004D2BDE8F047082000F067
:1007C0003DB941463846FFF71AFE0028F0D0641EB6
:1007D000E4B2E5D20121384600F070F80120BDE80E
:1007E000F0870000100000200054004001000300CA
:1007F0008200070038B500200090104D104C0121F8
:10080000284600F04FF81421284600F001F9009026
:1008100021780022284600F006F91421284600F02D
:10082000F7F88007EBD507492846FFF7F4FD28467F
:10083000BDE83840012100F041B8000000540040FC
:1008400010000020000400101CB50121480500F034
:1008500009FA0121022000F0F7F9114C04220621C7
:100860002046FFF7AFFD042207212046FFF7AAFD2F
:100870004021009102218DF804108DF8051001210E
:100880008DF8061000218DF8071069462046FFF705
:100890005BFD8021009169462046FFF755FD1CBD98
:1008A00000040240002904D0018841F480710180D5
:1008B0007047018821F4807101807047002904D0BD
:1008C000018841F4007101807047018821F40071B2
:1008D000018070470CB50246002000920A0F019279
:1008E00021F07F41019A002A03D0009A143200922D
:1008F00003E0090C009A18320092009A12680A422A
:1009000000D001200CBD00007FB504460D46A08834
:1009100020F03F06684600F0C1F902982749B0FB75
:10092000F1F189B20E43A680228822F001022280D2
:10093000234B2A689A4209D85200B0FBF2F080B2E9
:10094000042800D20420491C218423E0EB88A3F56D
:100950003F46FF3E0BD002EBC20303EB0212B0FB9B
:10096000F2F080B240F48040020506D007E002EBCE
:100970004202B0FBF2F080B2F6E740F0010040F432
:1009800000404FF4967251434FF47A72B1FBF2F18A
:10099000491C2184A083208840F001002080208809
:1009A0004FF6F5310840A9886A8911430143218037
:1009B000A8892989084320817FBD000040420F009B
:1009C000A08601001FB50020ADF804004BF6FF70B3
:1009D000ADF806000A20ADF808004FF48060ADF8CD
:1009E0000A000001ADF80C0007480090074C69466A
:1009F0002046FFF789FF01212046FFF70FFD012167
:100A00002046FFF7F0FC1FBD801A0600005400408E
:100A100008B500900098084400900098008808BD30
:100A2000008AC0B27047002A02D041F0010101E003
:100A300001F0FE01018270470182704710B5014646
:100A400002A000F091FA002010BD00003C3C2D45B2
:100A50004550524F4D2D4552524F522D3E3E20494A
:100A6000324320B5C8B4FDB3ACCAB1216572726F10
:100A700072436F6465203D2025640A0070B523A091
:100A800000F072FA0024294DE1B2295528A000F0A7
:100A90006BFAE043000702D127A000F065FA641C5E
:100AA000A4B2FF2CF0D94FF48074224600211F48D5
:100AB000FFF794FD21A000F057FA27A000F054FAA8
:100AC000224600212C48FFF7B5FC00242A4E285D61
:100AD000315D814207D016A000F046FA27A000F051
:100AE00043FA002070BD12A000F03EFAE043000778
:100AF00002D111A000F038FA641CA4B2FF2CE6D990
:100B00002DA000F031FA012070BD00003C3C2D45C5
:100B10004550524F4D2D494E464F2D3E3E20D0B4AC
:100B2000C8EBB5C4CAFDBEDD0A0000001C000020F1
:100B300030782530325820000A0D00003C3C2D450D
:100B40004550524F4D2D494E464F2D3E3E20D0B47C
:100B5000B3C9B9A60A0000003C3C2D454550524F90
:100B60004D2D494E464F2D3E3E20B6C1B3F6B5C47D
:100B7000CAFDBEDD0A0000001C0100203C3C2D45E2
:100B80004550524F4D2D4552524F522D3E3E20B4AE
:100B9000EDCEF33A49324320454550524F4DD0B443
:100BA000C8EBD3EBB6C1B3F6B5C4CAFDBEDDB2BB6C
:100BB000D2BBD6C20A0000003C3C2D454550524FE6
:100BC0004D2D494E464F2D3E3E204932432841543B
:100BD000323443303229B6C1D0B4B2E2CAD4B3C938
:100BE000B9A60A002DE9FC410121802000F02CF873
:100BF0004FF48064009401208DF8040000218DF8EA
:100C000006108DF807008DF805100C4F6946384620
:100C1000FFF79AFB6600009669463846FFF794FB9B
:100C2000A500009569463846FFF78EFB034818304B
:100C3000048006800580BDE8FC810000001C0240A5
:100C4000FEE7704770470000054A002903D011688D
:100C500001431160704711688143116070470000C3
:100C600030380240054A002903D011680143116061
:100C7000704711688143116070470000403802409E
:100C8000054A002903D011680143116070471168BB
:100C900081431160704700004438024070B5244B16
:100CA000196801F00C01234C00291ED0224E0429A2
:100CB0001DD008291DD00460196801F0F001090950
:100CC0001E4A545C0168E14041601C6804F4E05431
:100CD000A40A145D21FA04F484601B6803F46043E1
:100CE0005B0BD25CD140C16070BD0460E4E706607C
:100CF000E2E70F4A121F1168C1F38055116801F035
:100D00003F0135B1B6FBF1F11468C4F388146143B7
:100D100005E0B4FBF1F11468C4F388146143126870
:100D2000C2F30142521C5200B1FBF2F10160C3E771
:100D3000083802400024F40040787D0100000020C3
:100D4000704700001CB50021019100912E4A1068E7
:100D500040F4803010604FF4A043106800F400307D
:100D600000900198401C0190009810B90198984299
:100D7000F3D11068800302D50120009000E00091BB
:100D8000009801283FD120484030016841F080514F
:100D900001601E49086840F4404008601A48083065
:100DA00003680360036843F400430360036843F48B
:100DB000A0530360041F164B2360136843F0807335
:100DC000136013689B01FCD50A6842F480320A6004
:100DD0004A68D203FCD50A6842F400320A604A68C5
:100DE0009203FCD50B4A40F205711160016821F0B5
:100DF00003010160016841F0020101600168C1F373
:100E000081010229FAD11CBD003802400070004067
:100E1000195A4007003C02407047000010B51248C4
:100E2000016841F4700101601048016841F001015E
:100E300001600E4A00210832116002680C4B1A4012
:100E40000260031D0B4A1A60026822F480220260CD
:100E500006480C300160FFF775FF03494FF0006052
:100E60008039086010BD000088ED00E000380240C5
:100E7000FFFFF6FE10300024002904D0818941F4E0
:100E8000005181817047818921F40051818170472F
:100E90000246002012880A4200D00120704700005C
:100EA0007FB504460D46208A20F44051E888084367
:100EB0002082A08941F20C618843A9882A891143C4
:100EC0006A8902431143A181A08A20F44071A88954
:100ED0000843A0826846FFF7E1FE1E48844202D024
:100EE0001D48844201D1039800E00298A1890904B9
:100EF00008D500EBC00101EB001029684900B0FBE8
:100F0000F1F007E000EBC00101EB00102968890057
:100F1000B0FBF1F06422B0FBF2F109010B096FF0B4
:100F200018056B4300EB8300A3891D044FF03203C7
:100F300007D503EBC000B0FBF2F000F00700084358
:100F400006E003EB0010B0FBF2F000F00F000843E6
:100F500020817FBD0010014000140140C1F3080151
:100F600081807047FEE700000FB4054B10B503A960
:100F7000044A029800F018F810BC5DF814FB000059
:100F80000D1400081800002002E008C8121F08C154
:100F9000002AFAD170477047002001E001C1121FFA
:100FA000002AFBD1704700002DE9FF4F8DB00F469E
:100FB0000546002606E025280BD0DDE90F129047F4
:100FC0006D1C761C28780028F5D111B03046BDE89C
:100FD000F08F0024A246A1460122EC4900E0044320
:100FE00015F8013F203B02FA03F00842F7D12878B8
:100FF0002A2810D06FF02F022878A0F1300109299B
:1010000014D80AEB8A0102EB410144F0020400EB20
:10101000010A6D1CF0E701CF5FEA000A03D544F432
:101020000054CAF1000A44F002046D1C28782E28EE
:1010300017D115F8010F44F004042A280ED06FF0E0
:101040002F022878A0F1300109290AD809EB89017B
:1010500002EB410100EB01096D1CF2E757F8049B1C
:101060006D1C28786C280FD006DC4C2817D0682817
:101070000DD06A2814D104E0742810D07A280FD13A
:101080000DE044F400140AE044F4801401E044F458
:1010900040146978814202D104F580146D1C6D1CE6
:1010A0002A786E2A1FD00CDC632A31D004DC002A97
:1010B0008BD0582A11D1A3E0642A68D0692A0CD1B8
:1010C00065E0732A2ED004DC6F2A73D0702A04D115
:1010D0009BE0752A6FD0782A6ED01046DDE90F129A
:1010E0009047761C50E1C4F30250022806D0032832
:1010F00009D0042801CF09D0066045E101CFF117DE
:10110000C0E9006140E101CF06803DE106703BE1AE
:1011100017F8040B8DF8000000208DF80100EB4655
:10112000012003E057F804BB4FF0FF3061074FF098
:10113000000102D40DE008F10101884649450FDAAB
:101140008045F8DB1BF808100029F4D108E008F10D
:10115000010188468142FADB1BF808100029F6D10C
:10116000DDE90F23AAEB08008146214600F036F99D
:10117000304400EB080604E0DDE90F121BF8010B18
:101180009047B8F10108F7D221464846F7E00A2116
:10119000C4F302534FF0000B0891022B04D001CF8F
:1011A000C117032B09D00AE0FF1D27F00707F7E856
:1011B000020108E032E01FE020E000B2C117042B7A
:1011C00001D140B2C117031E71F1000307DA4FF0DD
:1011D000000CD0EB0C006CEB01012D2302E0230589
:1011E00004D52B238DF82430012303E0E30701D03D
:1011F0002023F7E7984658E00A2110E010210EE07E
:1012000010204FF0000B08900CE010214FF0000B65
:1012100044F004044FF00809089103E008214FF05E
:10122000000B0891C4F30253022B04D001CF00211C
:10123000032B06D006E0FF1D27F00707F7E80201A1
:1012400003E080B2042B00D1C0B24FF000082307A6
:101250002BD5702A07D0DDF820C08CF0100C5CEA8A
:101260000B0C05D00EE040238DF82430012308E05C
:1012700050EA010306D030238DF824308DF8252064
:1012800002239846DDF820C08CF0080C5CEA0B0CB9
:101290000BD150EA010301D1630706D530238DF845
:1012A00024304FF00108A9F10109582A04D038A2CE
:1012B0000B9208AA0A920BE03AA2F9E75B46089A59
:1012C000FEF790FF0B9B9B5C0A9A521E0A921370CA
:1012D00050EA0102F2D10A98ADEB000000F1200BB8
:1012E000600702D524F4803401E04FF00109D945AC
:1012F00002DDA9EB0B0000E0002000EB0B014144F4
:101300000890AAEB010AE00306D4DDE90F23214689
:10131000504600F063F806444FF0000908E009A9C0
:1013200011F80900DDE90F12904709F10109761C57
:10133000C145F4DBE0030CD5DDE90F23214650461F
:1013400000F04CF8064404E0DDE90F12302090472D
:10135000761C0899481E08900029F5DC08E00A98D8
:101360000A990078491C0A91DDE90F129047761C12
:10137000BBF10001ABF1010BF1DC21465046DDE988
:101380000F2300F019F806446D1C1BE60928010024
:1013900030313233343536373839616263646566EB
:1013A00000000000303132333435363738394142AD
:1013B00043444546000000002DE9F0410446002565
:1013C0001E461746880404D405E039462020B0475D
:1013D0006D1C641EF9D52846BDE8F0812DE9F04169
:1013E000044600251E469046C80301D5302700E07C
:1013F0002027880404D505E041463846B0476D1CD7
:10140000641EF9D52846BDE8F081000070B5044699
:10141000064DE1B22846FFF7A1FD80212846FFF7DF
:1014200037FD0028F9D0204670BD000000100140B3
:10143000FFF7D8FB104C4FF48068A4F80080E51447
:101440002580A71CA6143E80FEF732FF0BA0FFF7F5
:101450008BFD14A0FFF788FDFFF72AF9FFF70EFBBD
:10146000012804D0A7F8008025802680FEE7A4F894
:1014700000803D802680F9E7181C02400D0A20BB41
:10148000B6D3ADCAB9D3C3D2B0BBF0202053544DAC
:101490003332204634323920BFAAB7A2B0E5A1A327
:1014A0000D0A00000D0A20D5E2CAC7D2BBB8F64922
:1014B0003243CDE2C9E8284154323443303229B6B0
:1014C000C1D0B4B2E2CAD4C0FDB3CC200D0A000032
:1014D000F0140008000000201C000000880F000825
:1014E0000C1500081C00002004060000980F0008DE
:1014F00000000000010203040102030406070809BA
:0C1500000000000000A00000000000003F
:04000005080001AD41
:00000001FF
