:020000040800F2
:1000000088AD0020C1010008BF0B0008050B0008E7
:10001000BD0B0008C1030008912500080000000086
:10002000000000000000000000000000E11F0008C8
:1000300039080008000000003D0C0008B920000845
:10004000DB010008DB010008DB010008DB01000820
:10005000DB010008DB010008DB010008DB01000810
:10006000DB010008DB010008DB010008DB01000800
:10007000DB010008DB010008DB010008DB010008F0
:10008000DB010008DB010008DB010008DB010008E0
:10009000DB010008DB010008DB010008DB010008D0
:1000A000DB010008DB010008DB010008DB010008C0
:1000B000DB010008DB010008DB010008DB010008B0
:1000C000DB010008DB010008DB010008DB010008A0
:1000D000DB010008DB010008DB010008DB01000890
:1000E000DB010008DB010008DB010008DB01000880
:1000F000DB010008DB010008DB010008DB01000870
:10010000DB010008E90E0008DB010008DB01000844
:10011000DB010008DB010008DB010008DB0100084F
:10012000DB010008DB010008DB01000825060008F0
:10013000DB010008DB010008DB010008DB0100082F
:10014000DB010008DB010008DB010008DB0100081F
:10015000DB010008DB010008DB010008DB0100080F
:10016000DB010008DB010008DB010008DB010008FF
:10017000DB010008DB010008DB010008DB010008EF
:10018000DB010008DB010008DB010008DB010008DF
:10019000DB010008DB010008DB010008DB010008CF
:1001A000DB010008DB010008DB010008DFF80CD0F0
:1001B00000F0A8F8004800476950000888AD00200A
:1001C0000648804706480047FEE7FEE7FEE7FEE7F1
:1001D000FEE7FEE7FEE7FEE7FEE7FEE7BD200008DC
:1001E000AD0100082DE9F05F0546002092469B46D0
:1001F00088460646814640241BE02846414647463D
:10020000224600F06EF853465A46C01A914110D368
:1002100011461846224600F055F82D1A67EB0108E2
:100220004F4622460120002100F04CF817EB000950
:100230004E41201EA4F10104DFDC484631462A4627
:100240004346BDE8F09F40EA01039B0703D009E065
:1002500008C9121F08C0042AFAD203E011F8013BB2
:1002600000F8013B521EF9D27047421C10F8011BE6
:100270000029FBD1801A70470246C9B200E0401C39
:100280000378002BFBD102E003788B4203D0401EA1
:100290009042F9D20020704730B50B46014600204D
:1002A0002022012409E021FA02F59D4205D303FA38
:1002B00002F5491B04FA02F52844151EA2F10102B9
:1002C000F1DC30BD202A04DB203A00FA02F10020E4
:1002D00070479140C2F1200320FA03F31943904084
:1002E0007047202A04DB203A21FA02F000217047EF
:1002F00021FA02F3D040C2F120029140084319468E
:1003000070470000064C074D06E0E06840F001032E
:1003100094E8070098471034AC42F6D3FFF74AFF41
:10032000500503087005030870B58C1810F8015BC0
:1003300015F0070301D110F8013B2A1106D110F87E
:10034000012B03E010F8016B01F8016B5B1EF9D182
:100350002B0705D40023521E0DD401F8013BFAE708
:1003600010F8013BCB1A921C03E013F8015B01F873
:10037000015B521EF9D5A142D8D3002070BD000008
:100380007CB50121402000F05BFC4FF40074009428
:1003900001208DF8040000208DF8060002228DF85F
:1003A00007208DF80500054D6946284600F052FBF0
:1003B0002146284600F0A3FB7CBD00000018024047
:1003C000FEE770B500254FF4803400E0641E24B1D0
:1003D000802000F063FD0028F8D02CB140F2FF50DF
:1003E00000F01AFD284670BD032070BD70B50546AB
:1003F00000243B49086800E0086810F0450FFBD076
:10040000410705D50324042000F006FD204670BDF9
:10041000C00705D00124012000F0FEFC204670BD7D
:1004200000F036FDA84201D0102070BD40F2FF5010
:1004300000F0F2FC002000F04DFD2A49084201D1F5
:10044000204670BD002801DA1C2070BD410001D596
:10045000092070BD810001D50A2070BDC10001D501
:100460000B2070BD010101D50C2070BD410101D5EB
:100470000D2070BDC10101D50E2070BD010201D556
:100480000F2070BD410201D5102070BD810201D541
:10049000112070BDC10201D5122070BD010301D52C
:1004A000132070BD410301D5142070BD810301D517
:1004B000152070BDC10301D5162070BD010401D502
:1004C000172070BD410401D5182070BD810401D5ED
:1004D000192070BD000701D51A2070BD204670BDDF
:1004E000342C014008E0FFFD10B500240E4A1168CD
:1004F00000E0116811F0450FFBD0480705D5032433
:10050000042000F089FC204610BDC80705D0012456
:10051000012000F081FC204610BD40F2FF5000F0A9
:100520007BFC204610BD0000342C014010B5002497
:100530000A4A116800E0116811F0450FFBD0480726
:1005400005D50324042000F067FC204610BD40F2CE
:10055000FF5000F061FC204610BD0000342C01402B
:1005600070B506460C4600251C4A106800E010686D
:1005700010F0450FFBD0410705D50324042000F0FF
:100580004BFC204670BDC00705D00124012000F0BF
:1005900043FC204670BD00F07BFCB04201D010202F
:1005A00070BD40F2FF5000F037FC002000F092FCDC
:1005B00010F4604F03D0810405D5132070BD000CEA
:1005C0002080284670BD410401D5102070BD000474
:1005D00001D50F2070BD284670BD0000342C0140AD
:1005E00010B500204FF480310D4B1A6801E0491E10
:1005F0001A6812F0450F01D10029F8D109B151074D
:1006000005D50324042000F007FC204610BD510648
:10061000FCD50024402000F0FFFB204610BD000068
:10062000342C014001F0FAB8074A904201D2074841
:1006300001E005481038064A8B0001EA020101D5A5
:10064000C1607047816070471064024000600240E2
:100650007D0F7D0F002904D0016841F00101016088
:100660007047016821F00101016070472DE9F043F6
:10067000016821F001010160002101604160816099
:10068000C1600161212141613E493E4A10394FF06C
:100690003D08904203D1C1F80880BDE8F083394A93
:1006A0004FF474651832904201D18D60F5E7354AF8
:1006B0004FF474163032904201D18E60EDE7314A2A
:1006C0004FF074674832904201D18F60E5E72D4BBF
:1006D0002D4A6033984201D1CA60DEE7294C2B4B8A
:1006E0007834A04201D1CB60D7E7DFF898C0284C1E
:1006F0000CF1900C604501D1CC60CEE7DFF884901E
:100700004FF03D5C09F1A809484502D1C1F80CC081
:10071000C3E72049DFF87C900839484502D1C1F889
:100720000080BAE7DFF86C8008F11808404501D175
:100730000D60B2E7174D3035A84201D10E60ACE72D
:10074000144D4835A84201D10F60A6E7114D11495B
:100750006035091FA84201D10A609EE70D4A783230
:10076000904201D10B6098E70A4A9032904201D141
:100770000C6092E7074AA83290428ED1C1F800C0BF
:100780008BE70000106002403D000020400F002079
:1007900000003D2010640240002904D0016841F0AF
:1007A000200101607047016821F02001016070475D
:1007B0000B0609D522B1436943F08003436103E08E
:1007C000436923F080034361802905D001F01E01B5
:1007D0001AB102680A430260704702688A430260E5
:1007E0007047000030B50368124A1340CC680A68AD
:1007F0002243D1E905452C432243CC6922430C6AAC
:1008000022434C6A22438C6A22434C6B22438C6BFA
:1008100022431A430260426922F00703D1E90B2404
:1008200022431A4342610A6942604A6882608968C9
:10083000C16030BD3F801CF07047000070B586B0CD
:100840000121084600F0FCF90121102000F006FA11
:10085000204E07220A21304600F03AF907220921EA
:10086000304600F035F900248DF8164001208DF84F
:10087000170002258DF81450410204918DF815508F
:1008800004A9304600F0E6F88DF814506802049090
:1008900004A9304600F0DEF84FF4E1300090ADF8E6
:1008A0000440ADF80640ADF80840ADF80C400C200F
:1008B000ADF80A00084C6946204601F007FE012108
:1008C000204601F0EFFD4021204601F0E7FD06B093
:1008D00070BD000000000240001001402DE9FC47FF
:1008E0000E460024002700970197574D4FF0080A45
:1008F000C5F800A0102068604FF04009C5F80890C6
:10090000EF604FF48068C5F81080284600F018FBAF
:100910001020FFF76BFD002832D14C4800890004FD
:10092000286037206860C5F80890EF60C5F810802F
:10093000284600F005FB3720FFF758FD00281FD19F
:10094000411E05F114000160C0F804A0302181604F
:100950000221C16007610121416100F075FA2F6039
:1009600033206860C5F80890EF60C5F8108028460D
:1009700000F0E6FA3320FFF739FD0546280001D0E4
:10098000BDE8FC874FF4001A6F46DFF8C48040F2E0
:100990002A6908E0504600F081FA20B100F0CAFA56
:1009A00047F82400641CD8F8000010EA090FF1D0C1
:1009B000082000F073FA20B1082000F02DFA04207E
:1009C000DEE7022000F06AFA20B1022000F024FAEB
:1009D0000220D5E7202000F061FA20B1202000F0AD
:1009E0001BFA0620CCE74FF40074204600F056FABC
:1009F00020B1204600F010FA0720C1E740F2FF5076
:100A000000F00AFA00980099000601F47F4140EADC
:100A10000120009901F47F0140EA1120009940EA89
:100A20001160706001980199000601F47F4140EA6D
:100A30000120019901F47F0140EA1120019940EA67
:100A40001160306028469BE7586D0020BC040020F0
:100A5000342C01402DE9F041002201274FF0030C16
:100A600007FA02F50B682B40AB422CD10668530005
:100A70000CFA03F4A64306600E79D0F800809E407D
:100A800046EA080606600E79012E01D0022E12D128
:100A90008668A64386604E79D0F808809E4046EA74
:100AA000080686604668AE43466045688E79964083
:100AB000B6B235434560C568A543C560CC799C4056
:100AC000C3681C43C460521C102AC9D3BDE8F0811E
:100AD00010B54B07DB0E9A40C90800EB8100016A94
:100AE0000F249C40A1430162016A1143016210BDC1
:100AF0000246002012690A4200D00120704741835B
:100B00007047000001A001F045FDFEE768617264D6
:100B10006661756C742121210A0000001CB5012159
:100B2000084600F08DF80120009000208DF80400A8
:100B30008DF807008DF8050069460248FFF78AFF27
:100B40001CBD0000000002402DE9FC41012188206D
:100B500000F076F84FF48065009501218DF80410BF
:100B600000208DF806008DF807108DF80500114F54
:100B700069463846FFF76EFF6C00009469463846B8
:100B8000FFF768FF6600009669463846FFF762FF88
:100B90000094094F69463846FFF75CFF0549183154
:100BA0000D800C800E8021463846FFF7A8FFBDE877
:100BB000FC810000001C0240000C0240FEE7704770
:100BC00030B50F23C27801250178002A1FD0154ABD
:100BD000126802F4E062C2F5E062C2F30722C2F1D9
:100BE0000404D3404278A24084781C40144322017C
:100BF00001F1E02181F80024007800F01F018D4010
:100C00004009800000F1E020C0F8005130BD01F043
:100C10001F0085404809800000F1E020C0F88051A5
:100C200030BD00000CED00E00249084302490860B5
:100C3000704700000000FA050CED00E0704700006E
:100C4000054A002903D011680143116070471168FB
:100C5000814311607047000030380240054A002986
:100C600003D011680143116070471168814311601E
:100C70007047000044380240054A002903D011683B
:100C80000143116070471168814311607047000093
:100C90002438024070B5244B196801F00C01234C34
:100CA00000291ED0224E04291DD008291DD0046021
:100CB000196801F0F00109091E4A545C0168E1401D
:100CC00041601C6804F4E054A40A145D21FA04F4A1
:100CD00084601B6803F460435B0BD25CD140C1604D
:100CE00070BD0460E4E70660E2E70F4A121F116876
:100CF000C1F38055116801F03F0135B1B6FBF1F148
:100D00001468C4F38814614305E0B4FBF1F114687E
:100D1000C4F3881461431268C2F30142521C5200AA
:100D2000B1FBF2F10160C3E7083802400024F4008F
:100D300040787D01000000202DE9FC470646002494
:100D400000940194002000F0C5F8800102D50E2027
:100D5000BDE8FC872E4D6946288980B2FFF7BEFDAD
:100D60000028F5D137202B4F4FF0060A4FF04009ED
:100D70004FF48068012E22D00199C90345D52989F5
:100D8000090439607860C7F80890FC60C7F81080E3
:100D9000384600F0D5F83720FFF728FB0028D7D1D8
:100DA0003C60C7F804A0C7F80890FC60C7F8108042
:100DB000384600F0C5F80620FFF718FBC8E7019990
:100DC000490320D52989090439607860C7F808905B
:100DD000FC60C7F810800F4800F0B2F83720FFF72A
:100DE00005FB0028B4D102203860C7F804A0C7F87A
:100DF0000890FC60C7F81080064800F0A1F80620B3
:100E0000FFF7F4FAA4E72520A2E72520A0E70000D9
:100E1000BC040020586D00200149086070470000A4
:100E2000382C01400149086070470000382C01400F
:100E30000149086070470000A08025420149086010
:100E4000704700008C85254210B50A4A0168116080
:100E5000121D41681160141D216821F0F701D0E9CD
:100E600002231A43D0E9043003431A430A432260A1
:100E700010BD0000242C014010B50121CC022046F9
:100E8000FFF7FAFE2046BDE810400021FFF7F4BE50
:100E900001480068C0B27047102C01400146002094
:100EA000024A12680A4200D001207047342C0140E7
:100EB00001460020024A12680A4200D00120704711
:100EC000342C01400248006800F003007047000025
:100ED000002C014008B503490844009000980068C0
:100EE00008BD0000142C014000F0ACBC054A0029EC
:100EF00003D011680143116070471168814311608C
:100F0000704700003C2C014030B5094B196847F68A
:100F1000FF629143027D8468C568224344682C4384
:100F2000224304680069224302430A431A6030BD29
:100F3000042C01400148006870470000802C0140EB
:100F400010B5084A01681160141D21686FF30A0189
:100F5000D0E901231A43D0E9033003431A430A437B
:100F6000226010BD082C0140014908607047000054
:100F7000002C014008B5012000909DF8000008BD3C
:100F80002DE9F041014600241C484068032805D0A3
:100F900038B1012805D0022803D02DE02720BDE874
:100FA000F081B1F5805F0CD04FF400670026144D3E
:100FB000B94212D10120FFF7BFFE0446200002D043
:100FC0001AE02720EBE72E752E606E60AE60EF60B2
:100FD0002E610B48FFF798FF0EE00020FFF7ACFEF4
:100FE0000446200008D12E752E606E60AE60EE6063
:100FF0002E610348FFF788FF2046D0E7BC0400209D
:10100000406D00202DE9F04397494F6880F85670F5
:101010000989A0F85410DFF854C2DCF800100A0E59
:1010200093090370C2F38303437002F003028270DA
:101030000A0CC2700A0A02714171DCF80420110E18
:101040000901C180C2F30741C38843EA1113C38079
:1010500001F00F010172C2F30721CB094372C1F302
:1010600080138372C1F34013C372C1F3001303737F
:101070000023437364460126D4F80880002F4FEA0A
:101080001864C8F30745C8F3072904D0012F02D01C
:10109000022F3AD051E08907090D0161D1B20269EE
:1010A00042EA81010161016941EA94110161C4F3DD
:1010B000C201017504F00701417569098175C5F325
:1010C0008201C175A907490F01764946027E42EAAD
:1010D000D11202760269521C047EA41C06FA04F99D
:1010E000A2FB094703FB09774FEAE97502FB057587
:1010F000027A06FA02F70765A4FB072905FB0795A4
:1011000004FB0354C0E9122417E09106890A016127
:10111000016941EA042101610169294301614946EC
:101120000269521C43F10004E40444EA5234D2043C
:10113000C0E912244FF4007202651C30C1F3801222
:1011400000F8032C8906490E00F8021C08F0FF0184
:1011500010F8022C42EAD11200F8022C01F07F01B3
:1011600000F8011CDCF80C20110ECC090470C1F34E
:1011700041144470C1F3820484708907090FC1705F
:10118000C2F30741C47844EA9114C470C1F3401417
:101190000471437101F001018171C2F30721CC098F
:1011A000C471C1F380140472C1F340144472C1F3DA
:1011B00000148472C1F38104C47201F0030101734D
:1011C000D1B2490841738673284A103211680C0E57
:1011D00004740C0C24024482C1F30724458A25437D
:1011E00045820906416151680C0E456945EA04448F
:1011F0004461C1F30744456945EA04244461C1F3ED
:101200000724456925434561017691680C0E4476B3
:101210000C0C2406C461C1F30724C56945EA0444E3
:10122000C461C9B2C46944EA0121C161D1680A0E2E
:10123000C4691443C461C1F3074290F8204044EAF2
:10124000121480F820401207120D4284C1F30722C5
:10125000448C14434484C9B2490880F8241080F8AF
:1012600025601846BDE8F083BC040020B86C00205F
:1012700008B500200090FFF77DFE012801D0FF2077
:1012800008BD684600F0AAFB08B1FF2008BD009821
:10129000C0F3432008BD10B5FFF7EAFF042803D0D0
:1012A000FF2803D0012010BD002010BD022010BD7A
:1012B00038B50024009400F09DF9FFF7DDFD00F043
:1012C000EBF900909DF8000010B19DF8000038BDCA
:1012D00000F02EF800909DF8000010B19DF800007D
:1012E00038BD12480475046044608460C4600461C1
:1012F000FFF70AFE0D485838FFF784FE00909DF86E
:10130000000040B9094800215838B0F854000004E2
:1013100000F04EFB00909DF8000020B94FF40060F3
:10132000FFF72EFE00909DF8000038BD406D0020B4
:101330002DE9F84F002401200090FFF7C3FDE0B134
:10134000DFF8FC8000263F4DD8F804004FF0C009BC
:101350004FF4806704282AD02E6002206860C5F808
:101360000890EE602F612846FFF7EAFDFFF7BCF812
:101370000446200003D0BDE8F88F2520FBE70020BD
:10138000FFF7A8FDDFF8BCA0AAF1900ACAF8000098
:101390000420FFF79FFDCAF804000820FFF79AFD1C
:1013A000CAF808000C20FFF795FDCAF80C00D8F821
:1013B000040028B1012803D0062801D0022811D149
:1013C0002E60032068604020A860EE602F611D48F9
:1013D000FFF7B6FD69460320FFF7C2F80446200078
:1013E00000D0C8E7D8F80400042826D0BDF80000D3
:1013F000C8F808000004286009206860C5F8089053
:10140000EE602F610F48FFF79BFDFFF76DF8044674
:10141000200000D0AFE70020FFF75CFD094DA03DA4
:1014200028600420FFF756FD68600820FFF752FD92
:10143000A8600C20FFF74EFDE86020469BE7000007
:10144000BC040020586D002030B58FB004461E4DFE
:101450004FF0FA512846FFF7E7F800212846FFF73A
:10146000F9F82846FFF702F94FF00060009017489E
:1014700001900294002003900121049105908902BB
:101480000691890007918900089109904FF4403036
:101490000A9004200B9003200C9048020D908010BD
:1014A0000E9069462846FFF79DF901221021284633
:1014B000FFF77EF920212846FFF76EF90121284623
:1014C000FFF7C8F80FB030BD58640240802C0140CF
:1014D00030B58FB004461F4D4FF0FA512846FFF744
:1014E000A3F800212846FFF7B5F82846FFF7BEF815
:1014F0004FF0006000901848019002944020039043
:10150000012004900020059029150691890007917B
:101510008900089109904FF440300A9004200B9004
:1015200003200C9048020D9080100E9069462846CA
:10153000FFF758F9012210212846FFF739F9202139
:101540002846FFF729F901212846FFF783F80FB055
:1015500030BD000058640240802C01407CB5002062
:10156000FFF766FC0020FFF7FFFCFFF785FC00217A
:101570004FF40060FFF772FB1C4C0022082120464C
:10158000FFF7A6FA002209212046FFF7A1FA002260
:101590000A212046FFF79CFA00220B212046FFF784
:1015A00097FA00220C212046FFF792FA104D0022F4
:1015B00002212846FFF78CFA4FF470610091002158
:1015C0008DF804108DF8071069462046FFF742FA9F
:1015D0000421009169462846FFF73CFAA1140091C6
:1015E00069462046FFF736FA7CBD0000000802403D
:1015F000000C02407CB501210C20FFF721FB244D9B
:101600000C2208212846FFF763FA0C2209212846FC
:10161000FFF75EFA0C220A212846FFF759FA0C223E
:101620000B212846FFF754FA0C2211462846FFF7F3
:101630004FFA184E0C2202213046FFF749FA4FF4B8
:101640007060009002218DF805108DF804100024C0
:101650008DF8064001218DF8071069462846FFF7EE
:10166000F9F90421009169463046FFF7F3F9A8140F
:1016700000908DF8074069462846FFF7EBF90121F5
:10168000C802FFF7EBFA01218805FFF7D9FA7CBD04
:1016900000080240000C02402DE9F84F0027009797
:1016A000BB460024A24600255948762101750760F3
:1016B00047608760C7600761FFF726FC0320FFF7DC
:1016C00053FC0120FFF7B4FB514E183637607760AA
:1016D000B760F7604FF48069C6F810903046FFF7A6
:1016E0002FFCFEF76EFE00909DF8000018B19DF8EB
:1016F0000000BDE8F88F4FF4D570306008207060AE
:101700004FF04008C6F80880F760C6F810904048CF
:101710001830FFF715FCFEF763FF00909DF80000FE
:1017200018B3376037207060C6F80880F760C6F8D5
:10173000109037481830FFF703FC3720FEF756FEAD
:101740000090376037207060C6F80880F760C6F8F0
:1017500010902F481830FFF7F3FB3720FEF746FEB6
:1017600000909DF8000090B34FE02A4801214160AD
:101770008D07E6E7376037207060C6F80880F760AD
:10178000C6F8109022481830FFF7DAFB3720FEF732
:101790002DFE00909DF8000010B19DF80000A8E714
:1017A0001D482843306029207060C6F80880F76023
:1017B000C6F8109016481830FFF7C2FBFEF7B6FEC9
:1017C00000909DF8000018B19DF8000091E706E038
:1017D0000020FFF77FFB83464FEADB7A641CBAF1F7
:1017E000000F03D14FF6FF708442C3D34FF6FF7052
:1017F000844204D31B2000909DF8000079E71BF081
:10180000804F02D00348022141609DF8000070E73C
:10181000406D0020BC0400200000108007480068D4
:1018200010F0C05F08D006490120486103484FF01E
:10183000C2515830FEF7F8BE704700000064024005
:10184000BC04002070B54FF480752846FFF730FBCC
:10185000214C38B1002020702846FFF7E3FA012020
:10186000206132E00220FFF723FB28B10220FFF7BE
:10187000D9FA0220207028E00820FFF719FB28B1D0
:101880000820FFF7CFFA042020701EE02020FFF789
:101890000FFB28B12020FFF7C5FA0620207014E0C6
:1018A0001020FFF705FB28B11020FFF7BBFA052039
:1018B00020700AE04FF400752846FFF7F9FA20B1CE
:1018C0002846FFF7AFFA0720207000214CF23A308B
:1018D000FFF70CFB207870BDBC0400202DE9F05F01
:1018E0008346DDE90A6714461D46DFF8B8A04FF0CD
:1018F00000088AF80080CAF810804FF00109CAF881
:101900000C902948C0F80080012140F22A30FFF7EE
:10191000EDFA07FB06F15846FFF796FD0120FFF7A9
:101920008DFADAF80400022803D10602640A44EAB8
:10193000C5541E4D2E60102068604FF0400AC5F857
:1019400008A0C5F80C804FF4806BC5F810B028468D
:10195000FFF7F6FA1020FEF749FD002820D1411EBE
:1019600005F11400016077434760902181600221F6
:10197000C160C0F81080C0F81490FFF765FA2C60C1
:1019800012206860C5F808A0C5F80C80C5F810B032
:101990002846FFF7D5FABDE8F05F1220FEF726BD16
:1019A000BDE8F09FBC0400202C2C0140586D0020A5
:1019B00010B5094A10600720506040209060002058
:1019C000D0604FF4806010611046FFF7B9FABDE8AF
:1019D00010400720FEF70ABD586D002070B505467F
:1019E000002D16D00F48008901040F4801600D2119
:1019F0004160402181600021C1604FF4806101613C
:101A0000FFF79EFA0D20FEF7F1FC04461CB12046BC
:101A100070BD262070BD0020FFF75CFA28602046CC
:101A200070BD0000BC040020586D002010B50848AF
:101A3000002101600C22426040228260C1601101DD
:101A40000161FFF77DFABDE810400C20FEF7CEBC27
:101A5000586D00202DE9F04100256C1E2146154EE1
:101A600000E0491E706928B9306918B9307808B9A2
:101A70000029F6D1002777610F4800E0641E016855
:101A8000890401D5002CF9D1F068012803D1FFF7B2
:101A9000CDFF0546F7602C4300D1042540F2FF50EE
:101AA000FFF7BAF9307810B13078BDE8F0812846F8
:101AB000FBE70000BC040020342C01402DE9F0417C
:101AC00000256C1E2146154E00E0491E706928B99C
:101AD000306918B9307808B90029F6D10027776144
:101AE0000F4800E0641E0168C90401D5002CF9D13B
:101AF000F068012803D1FFF799FF0546F7602C43F2
:101B000000D1042540F2FF50FFF786F9307810B17C
:101B10003078BDE8F0812846FBE70000BC040020D7
:101B2000342C01402DE9F05F8246DDE90A67144656
:101B30001D46DFF804914FF0000889F80080C9F8CD
:101B400010800120C9F80C003C48C0F80080012139
:101B500040F21A30FFF7CAF907FB06F15046FFF7CB
:101B6000B7FC0120FFF76AF9D9F80400022803D175
:101B70000602640A44EAC554314D2E6010206860A4
:101B80004FF0400BC5F808B0C5F80C804FF4806AE0
:101B9000C5F810A02846FFF7D3F91020FEF726FC61
:101BA000002847D1B9F80800000428603720686091
:101BB000C5F808B0C5F80C80C5F810A02846FFF796
:101BC000BFF93720FEF712FC002833D12F60172011
:101BD0006860C5F808B0C5F80C80C5F810A02846A4
:101BE000FFF7AEF91720FEF701FC002822D12C6088
:101BF00019206860C5F808B0C5F80C80C5F810A0B9
:101C00002846FFF79DF91920FEF7F0FB002811D1B7
:101C100005F11402401E10607743576090209060D9
:101C2000C2F80C80C2F81080012050611046FFF706
:101C30000BF94046BDE8F09FBC0400202C2C01406D
:101C4000586D0020002904D0018841F04001018036
:101C50007047018821F04001018070472DE9F04173
:101C600004460F4615460F4840260680032000F024
:101C700003F9C7F3074000F0FFF8C7F3072000F0AF
:101C8000FBF8F8B200F0F8F804E0FF2000F0F4F8F8
:101C900004F8010B6D1E681CF7D10248801E0680F7
:101CA000BDE8F0811A1402402DE9F04706460D46C2
:101CB000E8B24142CFB2140A02F0FF094FF4807833
:101CC000002812D0E8B24042C0B205EB000A34B39B
:101CD000D01B80B2040A00F0FF093A46294630467C
:101CE00000F05EF855463E4439E074B92946304666
:101CF000BDE8F04700F054B842462946304600F0AF
:101D00004FF805F5807506F58076641EE4B2F3D2CF
:101D10004A4629463046BDE8F04700F041B8B9458B
:101D20000ED9A9EB0700C4B23A462946304600F066
:101D300037F85146F0192246BDE8F04700F030B8B8
:101D400029463046BDE8F04700F02AB84246294609
:101D5000304600F025F805F5807506F58076641E9E
:101D6000E4B2F3D2B9F1000F06D04A462946304614
:101D7000BDE8F04700F014B8BDE8F08710B500F0FA
:101D8000D1F8064840240480C72000F075F80348C5
:101D9000801E0480BDE8104000F0A4B81A14024070
:101DA0002DE9F04105460F46144600F0BBF81248F5
:101DB00040260680022000F05FF8C7F3074000F0DD
:101DC0005BF8C7F3072000F057F8F8B200F054F8BA
:101DD000B000844205D9044603E0287800F04CF8AE
:101DE0006D1C641EA4B2F8D20348801E0680BDE8B4
:101DF000F04100F077B800001A14024070B50D48A9
:101E0000402404809F2000F037F8FF2000F034F8D1
:101E10000546FF2000F030F80646FF2000F02CF8C1
:101E200001460448801E0480280440EA0620084336
:101E300070BD00001A14024070B5044600F072F83C
:101E400000F050F80B4840250580202000F014F8E1
:101E5000C4F3074000F010F8C4F3072000F00CF8BA
:101E6000E0B200F009F80348801E0580BDE870402C
:101E700000F038B81A1402402DE9F0410746174C1B
:101E80004FF480556560164E08E06068411E616041
:101E900004D200F08BF8C0B2BDE8F08102213046D8
:101EA00000F05CF80028F0D03946304600F05FF8CA
:101EB000656007E061684A1E626003D200F076F850
:101EC000C0B2E9E70121304600F048F80028F1D01F
:101ED000304600F04AF8C0B2DEE70000B40400204B
:101EE0000050014070B50D48402505800520FFF7E2
:101EF000C3FF0B4CA8016060FF20FFF7BDFF6168C6
:101F00004A1E626003D2BDE8704000F04FB8C007BF
:101F1000F2D10248801E058070BD00001A140240F4
:101F2000B404002010B50548402404800620FFF7C3
:101F3000A3FF0248801E048010BD00001A14024056
:101F400010B5054840240480AB20FFF795FF0248F8
:101F5000801E048010BD00001A14024002460020BA
:101F600012890A4200D00120704780897047818120
:101F7000704730B5028802F441530A884C88CD88F6
:101F800022438C882C4322430C8922434C892243D0
:101F90008C892243CC8922431A430280828B22F40B
:101FA00000628283098A018230BD000010B502A060
:101FB00000F0F0FA002010BD3C3C2D464C41534847
:101FC0002D4552524F522D3E3E20535049205469C8
:101FD0006D656F7574206572726F72210A00000062
:101FE000704700001CB50021019100912E4A106835
:101FF00040F4803010604FF4A043106800F40030CB
:1020000000900198401C0190009810B901989842E6
:10201000F3D11068800302D50120009000E0009108
:10202000009801283FD120484030016841F080519C
:1020300001601E49086840F4404008601A480830B2
:1020400003680360036843F400430360036843F4D8
:10205000A0530360041F164B2360136843F0807382
:10206000136013689B01FCD50A6842F480320A6051
:102070004A68D203FCD50A6842F400320A604A6812
:102080009203FCD50B4A40F205711160016821F002
:1020900003010160016841F0020101600168C1F3C0
:1020A00081010229FAD11CBD0038024000700040B5
:1020B000195A4007003C02407047000010B5124812
:1020C000016841F4700101601048016841F00101AC
:1020D00001600E4A00210832116002680C4B1A4060
:1020E0000260031D0B4A1A60026822F4802202601B
:1020F00006480C300160FFF775FF03494FF00060A0
:102100008039086010BD000088ED00E00038024012
:10211000FFFFF6FE103000242DE9F04387B00121C7
:102120002020FEF78DFD01210805FEF797FDDFF861
:10213000D890052207214846FEF7CAFC052208214F
:102140004846FEF7C5FC052209214846FEF7C0FCBB
:10215000802000904FF002088DF8048000248DF854
:10216000064003208DF805008DF807406946484673
:10217000FEF770FC4FF48070009069464846FEF709
:1021800069FC4FF40075009569464846FEF762FC0D
:102190004027009701268DF8046069464846FEF7FF
:1021A00059FC194818300780ADF808404FF4827088
:1021B000ADF80A00ADF80C40ADF80E80ADF8106037
:1021C000ADF812500820ADF81400ADF81640072005
:1021D000ADF818000D4C02A92046FFF7CAFE0021F9
:1021E0002046FFF72FFD01212046FFF72BFD4FF47E
:1021F000FA70401E0004000CFBD1FFF7A1FE00F0B6
:102200002BF807B0BDE8F0830014024000500140F5
:1022100004280DD2DFE800F00C02060A4FF420601B
:10222000086005E04FF48050088001E0012008605C
:102230000020704710B5074B1B78DB0701D0032047
:1022400010BD01F5C06112030903FFF707FD00206F
:1022500010BD0000B404002010B5FFF7CFFD074A01
:102260000749904204D1087820F00100087010BDA1
:10227000087840F00100087010BD00001940EF0020
:10228000B404002070B5054601F5C0610C0320467A
:10229000FFF7D2FD4FF4805221462846FFF704FD98
:1022A000002070BD0120704738B54FF4C060FEF7C4
:1022B000BBFC31208DF8000001248DF80140002086
:1022C0008DF802008DF803406846FEF779FC3B204C
:1022D0008DF800008DF801406846FEF771FCFFF7AD
:1022E0003DF9FFF787F9FEF7E3FF0C4960B1487845
:1022F00040F001004870FFF7D5FF50B1487820F05A
:1023000004004870487838BD487820F001004870D3
:10231000F1E7487840F004004870F3E7BC0400207F
:1023200010B50C46002814D00B4901280A6D0AD0BC
:10233000022802D003280CD103E04FF40070208063
:1023400007E0226005E0D1E912010023FDF74AFF12
:102350002060002010BD0000E86C00202DE9F04155
:10236000ADF5007D06460C4615461D484078C00771
:1023700004D003200DF5007DBDE8F081B0074FF4D7
:10238000007815D000270EE02146641C0122684623
:10239000FFF7E4FF07464FB9424669463046FDF76E
:1023A00052FF06F500766D1E681CEDD13846E1E758
:1023B000CDE90085620200233046FFF78FFA08B1AD
:1023C0000120D7E7FFF746FB0446FEF764FF01282C
:1023D000FBD0022800D00CB10120CBE70020C9E7D8
:1023E000BC04002000B5FEF7C5FD012801D0012086
:1023F00000BDFFF757FF064928B1487820F00400D8
:102400004870487800BD487840F004004870F8E70C
:10241000BC040020F0B5ADF5017D06460C4615461E
:10242000FFF740FF38B1FEF7A5FD012805D00320D6
:102430000DF5017DF0BD0220FAE7B0074FF40077FB
:1024400014D000200EE03A46314601A8FDF7FBFE0D
:102450002146641C012201A8FFF7DCFF0028E7D118
:1024600006F500766D1E691CEDD1E1E7CDE900753A
:10247000620200233046FFF755FB08B10120D7E781
:10248000FFF71CFB0446FEF706FF0128FBD00228DD
:1024900000D00CB10120CBE70020C9E78A05C94371
:1024A00001807047002904D0818941F40051818165
:1024B0007047818921F400518181704702460020D4
:1024C00012880A4200D00120704700007FB5044600
:1024D0000D46208A20F44051E88808432082A089D4
:1024E00041F20C618843A9882A8911436A89024311
:1024F0001143A181A08A20F44071A8890843A082D9
:102500006846FEF7C7FB1E48844202D01D4884423D
:1025100001D1039800E00298A189090408D500EBD5
:10252000C00101EB001029684900B0FBF1F007E0A1
:1025300000EBC00101EB001029688900B0FBF1F04D
:102540006422B0FBF2F109010B096FF018056B432F
:1025500000EB8300A3891D044FF0320307D503EB82
:10256000C000B0FBF2F000F00700084306E003EB08
:102570000010B0FBF2F000F00F00084320817FBD97
:102580000010014000140140C1F308018180704730
:10259000FEE700000FB4054B10B503A9044A0298EA
:1025A00000F02CF810BC5DF814FB00005D4D000835
:1025B000E00400200FB4084B10B504A902AA039848
:1025C00000F01CF8044602A9002000F0F3F82046B1
:1025D00010BC5DF814FB0000B527000802E008C835
:1025E000121F08C1002AFAD170477047002001E08D
:1025F00001C1121F002AFBD1704700002DE9FF4FD7
:102600008BB09A460F460546002606E025280BD0DB
:1026100052460D9990476D1C761C28780028F5D1FC
:102620000FB03046BDE8F08F0024A046012260497B
:1026300000E0044315F8013F203B02FA03F0084292
:10264000F7D128782E2817D115F8010F44F004048B
:102650002A280ED06FF02F022878A0F13001092926
:102660000AD808EB880102EB410100EB01086D1C60
:10267000F2E757F8048B6D1C287869283ED006DCF9
:102680000028CDD063280BD0642804D136E073280D
:1026900010D075284BD052460D999047761C85E096
:1026A00017F8040B8DF8000000208DF80100E946B2
:1026B000012003E057F8049B4FF0FF3061074FF013
:1026C000000401D40AE0641C44450DDA8442FADBBC
:1026D00019F804100029F6D106E0641C8442FCDBE2
:1026E00019F804100029F8D1264404E019F8010B68
:1026F00052460D999047641EF8D257E001CF4FF033
:102700000A0B002802DA40422D2102E0210504D5FF
:102710002B218DF82410012103E0E10705D02021B1
:10272000F7E70DF1200908910CE00021F9E701CF4E
:102730004FF00A0BF9E75946FDF7AEFD01F1300203
:1027400009F8012D0028F6D1ADEB090000F1200BAE
:10275000600701D44FF00108D84502DDA8EB0B005B
:1027600000E000208046002406E009A85246005DF3
:102770000D999047641C761C08988442F5DB04E0B0
:10278000302052460D999047761CB8F10001A8F10F
:102790000108F5DC05E019F8010B52460D99904748
:1027A000761CBBF10001ABF1010BF4DC6D1C34E7CE
:1027B000092801000A68531C0B6010707047000064
:1027C0002DE9F34FADF5017D80460025DFF8C8A166
:1027D000D5E005EB850908EB8907387C012873D023
:1027E0006EA0FFF7D7FE7BA07968FFF7D3FE4FF40A
:1027F0008060AAF800004000AAF800006649400086
:10280000891C088058F8291001227B4801F04AFDF4
:102810000446200012D079A0FFF7BCFE5E494FF4B9
:102820008060891C08804000AAF800004000AAF8D7
:10283000000020460DF5037DBDE8F08F78A0FFF77E
:10284000A9FED7F808B0002604E00BEB0630FFF72E
:10285000F3FA761CF868B6EB103FF6D37CA0FFF7CE
:1028600099FEBE684FF4807B22E080AB5A4640A9B7
:10287000614801F0FDFD044620000FD07EA0FFF767
:1028800089FE45494FF48060891C08804000AAF801
:1028900000004000AAF800002046CBE75A46314627
:1028A00040A8FFF77DFA06F580768098584501D15B
:1028B000002CDAD079A0FFF76DFEBE6800214E48EB
:1028C00001F0A1F86F463DE057E080AB5A4640A9C1
:1028D000494801F0CDFD044620000FD066A0FFF767
:1028E00059FE2D494FF48060891C08804000AAF8E9
:1028F00000004000AAF8000020469BE731466846E9
:10290000809AFFF7ABF980990E44002040AB15E0A8
:102910005A5D17F805C062450FD06CA0FFF73AFE6C
:102920001D494FF48060891C08804000AAF800000F
:102930004000AAF8000002207CE7401C8842E7D350
:10294000594501D1002CC0D069A0FFF723FE58F8EB
:1029500029106FA0FFF71EFE10A0FFF71BFE4FF41B
:102960008060AAF800004000AAF800000A49400070
:10297000891C0880204801F037F86D1CEDB2829860
:102980008542FFF426AF6BA0FFF704FE77A0FFF7A8
:1029900001FE00204EE70000181C02403C3C2D4286
:1029A00055524E2D494E464F2D3E3E202D2D2D2D5C
:1029B0002D2D2D2D2D2D2D2D2D2D2D2D2D2D2D2D47
:1029C0002D2D2D2D2D2D2D2D2D2D2D2D2D2D2D2D37
:1029D0002D0A00003C3C2D4255524E2D494E464F8B
:1029E0002D3E3E20D7BCB1B8C9D5C2BCC4DAC8DDC3
:1029F000A3BA25730A000000182900203C3C2D4290
:102A000055524E2D4552524F522D3E3E20B4F2BFEC
:102A1000AACEC4BCFECAA7B0DCA3A10A0000000075
:102A20003C3C2D4255524E2D494E464F2D3E3E20A8
:102A3000D5FDD4DAB2C1B3FDD2AACAB9D3C3B5C4E5
:102A4000464C415348BFD5BCE42E2E2E0A00000050
:102A50003C3C2D4255524E2D494E464F2D3E3E2078
:102A6000D5FDD4DACFF2464C415348D0B4C8EBC4BC
:102A7000DAC8DD2E2E2E0A003C3C2D4255524E2D3A
:102A80004552524F522D3E3E20B6C1C8A1CEC4BCC5
:102A9000FECAA7B0DCA3A10A000000003C3C2D4206
:102AA00055524E2D494E464F2D3E3E20C4DAC8DDCC
:102AB000D0B4C8EBCDEAB1CF2CBFAACABCD0A3D149
:102AC000E9CAFDBEDD2E2E2E0A0000003C3C2D4240
:102AD00055524E2D4552524F522D3E3E20CAFDBEFC
:102AE000DDD0A3D1E9CAA7B0DCA3A10A0000000091
:102AF0003C3C2D4255524E2D494E464F2D3E3E20D8
:102B0000CAFDBEDDD0A3D1E9B3C9B9A6A3A10A000D
:102B10003C3C2D4255524E2D494E464F2D3E3E20B7
:102B2000CEC4BCFEA3BA257320D0B4C8EBCDEAB3A3
:102B3000C90A00003C3C2D4255524E2D494E464F8D
:102B40002D3E3E202A2A2A2A2A2A2A2A2A2A2A2AC4
:102B50002A2A2A2A2A2A2A2A2A2A2A2A2A2A2A2AD5
:102B60002A2A2A2A2A2A2A2A0A0000003C3C2D4224
:102B700055524E2D494E464F2D3E3E20CBF9D3D0D7
:102B8000CEC4BCFEBEF9D2D1C9D5C2BCB3C9B9A6A8
:102B9000A3A1A3A8B7C7CEC4BCFECFB5CDB3B2BF67
:102BA000B7D6A3A90A00000010B504460020207182
:102BB000401E2063204602F055FB08B1032010BDE3
:102BC00094F8320294F8331240EA0120A0F52A4129
:102BD000553901D0022010BD14F86A0FE1786278EF
:102BE00040EA0161A0786A3C000440EA0220014307
:102BF0000B48B0EB012F01D1002010BD14F8861F47
:102C0000E278637841EA0261A278120442EA032280
:102C10001143B0EB012F01D1002010BD012010BDE8
:102C20000046415400E0401C02780AB18A42FAD1C1
:102C300000787047891E8269921E8A4201D800205E
:102C40007047C26A807801FB002070472DE9F05F71
:102C500081460F46387820F04000401E00EB80018E
:102C600001EBC00400260125DFF85CA007F1010894
:102C70004FF6FF7B1AF80600395C10F8080041EAAD
:102C800000207DB101F038FE0546FF2C07D220461A
:102C9000641C39F8100001F02FFEA84206D0002075
:102CA000BDE8F09F584501D00020F9E7761C0D2EB5
:102CB000E0D33878400605D525B139F8140008B1BD
:102CC0000020EDE70120EBE7B65600082DE9F041C2
:102CD00092B006460F462948109040F2FF1011901E
:102CE000314601A801F08AFB002838D13046FDF7B3
:102CF000BCFA80463846FDF7B8FA05460AA901A88D
:102D000001F074FC00282AD19DF83110002926D04A
:102D10001098007808B1109C01E00DF13104207882
:102D20002E28EBD09DF83000C0061BD506EB08001E
:102D3000224613A1FFF73EFC7819224610A1FFF7A7
:102D400039FC3946304600F023F839463046FFF763
:102D5000BDFF002106F8081079550028CED012B02A
:102D6000BDE8F0812346324606A10848FFF722FC61
:102D70003946064800F020F8C0E70000E3160020BE
:102D80002F25730025732F2573000000835A002020
:102D900010B50C462F21FDF76FFA10B1002048B98D
:102DA00001E00120FBE7204600F0E7FE0446082C86
:102DB00000D10024204610BD70B506460D46012204
:102DC0003146254801F06EFA04462046002841D1DC
:102DD0002F213046FDF750FA03461BB10020002892
:102DE00038D101E00120FAE72A461CA11D48FFF76F
:102DF000E1FB1C491CA0FFF7CDFB0B22194924481D
:102E000001F050FA0446204620BB224E4FF4805574
:102E100016E0204B20491B1D1D48326801F062FC62
:102E200004462046B0B93068A84209D00A4800F0EC
:102E3000DBFD174800F0D8FD18A0FFF7ABFB09E059
:102E4000144B2A461449044801F012FB044620465C
:102E50000028DED0204670BD3C3900202573257344
:102E600000000000845900203C3C2D4255524E2D5C
:102E7000494E464F2D3E3E20D5FDD4DAB8B4D6C6D5
:102E8000CEC4BCFE202573202E2E2E0A000000008A
:102E90006049002010000020E40400203C3C2D424A
:102EA00055524E2D494E464F2D3E3E20B8B4D6C603
:102EB000B3C9B9A6A3A10A002DE9F04734A0FFF7D2
:102EC00069FB41A0FFF766FB01224DA14D4801F0CF
:102ED000C3F94DA0FFF75EFB0022114648A000F0A9
:102EE00005FF012246A1002001F0B6F9012244A10C
:102EF000444801F0B1F904464C4F4FF480664FF45A
:102F00000068BD1E4FF4805954B149A0FFF742FB41
:102F10003E80A5F80080A5F800902046BDE8F08727
:102F200051A0FFF737FB5FA0FFF734FB694802F0C1
:102F3000B5FA4DA0FFF72EFB67A0FFF72BFB6F49FB
:102F4000A1F1FF00FFF7C2FE044654B121466CA078
:102F5000FFF720FB3E80A5F80080A5F800902046F2
:102F6000DCE741A0FFF716FB72A0FFF713FB5948FF
:102F7000FF3802F093FA3CA0FFF70CFB7CA0FFF7B0
:102F800009FB2E80A5F80080A7F800902046C5E731
:102F90003C3C2D4255524E2D494E464F2D3E3E2033
:102FA0002D2D2D2D2D2D2D2D2D2D2D2D2D2D2D2D51
:102FB0002D2D2D2D2D2D2D2D2D2D2D2D2D2D2D2D41
:102FC0002D2D2D2D2D0A00003C3C2D4255524E2D0D
:102FD000494E464F2D3E3E20BCB4BDABBFBDB1B443
:102FE000CEC4BCFEB5BD464C415348B5C4CEC4BCEE
:102FF000FECFB5CDB3C7F8D3F22E2E2E0A000000B7
:10300000313A0000E41800203C3C2D4255524E2D30
:10301000494E464F2D3E3E20D5FDD4DAB8F1CABD0B
:10302000BBAF464C4153482E2E2E0A001A1C0240BC
:103030003C3C2D4255524E2D4552524F522D3E3E54
:1030400020464C415348CEC4BCFECFB5CDB3B9D217
:10305000D4D8CAA7B0DCA3ACC7EBB8B4CEBBD6D823
:10306000CAD4A3A10A0000003C3C2D4255524E2D6B
:10307000494E464F2D3E3E202A2A2A2A2A2A2A2A0B
:103080002A2A2A2A2A2A2A2A2A2A2A2A2A2A2A2AA0
:103090002A2A2A2A2A2A2A2A2A2A2A2A2A2A2A2A90
:1030A0002A0A00003C3C2D4255524E2D494E464FB7
:1030B0002D3E3E200D0A20BCB4BDABD2AAB8B4D67A
:1030C000C6B5C45344BFA8CEC4BCFEA3BA200D0AE3
:1030D0000A000000150300203C3C2D4255524E2DA5
:1030E000494E464F2D3E3E200D0A20BFAACABCB80D
:1030F000B4D6C6A3BA200D0A0A00000017010020AA
:103100003C3C2D4255524E2D4552524F522D3E3E83
:1031100020B8B4D6C6CEC4BCFEB5BD464C4153485B
:10312000CAA7B0DCA3ACB4EDCEF3C2EBA3BA25645E
:103130000A0000003C3C2D4255524E2D494E464F50
:103140002D3E3E200D0A20B8B4D6C6BAF3B5C4460B
:103150004C415348CEC4BCFE28CEC4BCFECFB5CD36
:10316000B3B2BFB7D629A3BA200D0A0A00000000E7
:103170003C3C2D4255524E2D494E464F2D3E3E2051
:10318000CBF9D3D0CEC4BCFEBEF9D2D1B8B4D6C62A
:10319000B3C9B9A6A3A1A3A8CEC4BCFECFB5CDB375
:1031A000B2BFB7D6A3A90A002DE9F04106460F46E3
:1031B000002F08D03946304601F02EFE022809D2F1
:1031C0000120BDE8F081F56815B1B069A84207D8C3
:1031D000012505E0411CF4D0B1698142F1D83D469A
:1031E0002C46641CB069A04204D80224022D01D2EE
:1031F0000020E6E72146304601F00EFE38B1411CC2
:10320000DFD00128DDD0AC42EBD10020D9E76FF050
:1032100070422146304602F077F828B927B122469D
:103220003946304602F070F820B101280DD0012453
:103230002046C6E7F4603069411CF9D0401E306179
:10324000707940F001007071F2E74FF0FF34EFE762
:103250002DE9F35F8846D8F8006000E0761C3078EE
:103260002F28FBD05C28F9D00098D0F81CA00024AF
:10327000254628466D1C305C202808D32F2806D010
:103280005C2804D0FF2C09D30620BDE8FC9F7119EF
:10329000C8F8001020282AD2042529E0C0B2A0F1E5
:1032A00081017D290ED829466D1C715CA1F1400277
:1032B0003F2A04D3403A7F2A01D30620E5E701EBF9
:1032C000002080B2012101F0EBFA074647B1802FC0
:1032D00008D2394677A0FFF7A5FC18B10620D4E73D
:1032E0000620D2E72046641C2AF81070C1E70025AA
:1032F0000021012C03D1BAF800002E2809D0022C9D
:1033000024D1BAF802002E2820D1BAF800002E28C5
:103310001CD12AF814100020A04201D22E2100E076
:103320002021009A92691154401C0B28F4D3009973
:1033300045F0200289690A540020A6E7601E3AF889
:103340001000202801D02E2802D1641E002CF5D1B7
:103350004CB12AF8141000980B222021806901F04A
:1033600079FF002702E006208FE77F1C3AF817005C
:103370002028FAD02E28F8D01FB145F0030500E030
:10338000641E24B1601E3AF810002E28F8D14FF0C8
:103390000008C1464FF0080B38467F1C3AF8106011
:1033A00006B3202E03D02E2E04D1A74202D045F022
:1033B0000305F1E7D84501D2A74219D1BBF10B0FA4
:1033C0000ED0A74201D045F003050BD827464FF099
:1033D00008084FF00B0B4FEA89604FEA1069DBE7F2
:1033E00045F00305009880690178E5293DD03EE06D
:1033F000802E08D3304601F07FFA002101F050FA08
:10340000064645F00205FF2E0FD9ABF101008045BD
:1034100003D345F00305D846BEE70098310A826918
:10342000404608F10108115418E026B1314624A0A5
:10343000FFF7F8FB18B15F2645F003050EE0A6F193
:103440004100192802D849F0020907E0A6F16100FD
:10345000192803D849F00109203EB6B200988169C5
:10346000404608F101080E5496E705210170BBF1B2
:10347000080F03D14FEA89604FEA1069C9F3810050
:10348000032803D06FEA0901890701D145F002053D
:10349000A90709D409F00301012901D145F010055C
:1034A000012801D145F0080500988069C572002007
:1034B000EBE60000222A3A3C3E3F7C7F0000000001
:1034C0002B2C3B3D5B5D000070B505460E46002190
:1034D000284600F0E6F988B900242969286801F037
:1034E000C1FE58B969690978E5290BD051B10024AA
:1034F0000121284600F06DF80028EED0042800D104
:10350000072070BD641CB442F8D0F1E72DE9F04704
:1035100004460021204600F0C4F9002857D1FF26B8
:10352000B1464FF6FF7AA4F820A02169206801F087
:1035300099FE80465FEA080048D167693D7865B129
:10354000F87A00F03F00E52D03D0010708D50F28D9
:1035500006D0FF26A4F820A030E04FF0040835E0A4
:103560000F2801D0CEB11DE0E06938B3690606D559
:1035700097F80D9025F040052E46E1882184B5424C
:1035800008D1797B494505D13946FFF75FFB08B182
:10359000761E00E0FF26F6B210E0384601F0E4FFA8
:1035A000484513D0A169C87AC00704D10B22384618
:1035B00001F03AFE50B1FF26A4F820A000212046D9
:1035C00000F007F880465FEA0800AED04046BDE84C
:1035D000F0872DE9F04104460E46E7887F1C380449
:1035E000000C0AD0216941B1206842895209B7FB19
:1035F000F2F302FB13721AB166E00420BDE8F08119
:10360000491C2161E16871B1428983785209B7FB95
:10361000F2F25B1E1A4257D101F0FEFB0546012D66
:1036200006D80220EAE70089B8424DD80420E5E731
:10363000681C14D020688169A9423FD88EB1E16826
:10364000FFF7B2FD054628000DD0012D0DD0681CF6
:103650000DD0206801F0EFFF58B10120CEE7012026
:10366000CCE70420CAE70720C8E70220C6E701200C
:10367000C4E7206800214289343001F0EBFD29467F
:103680002068FFF7D7FA2168086300264FF0010889
:103690000CE080F80480206801F0CDFF08B1012023
:1036A000ACE72068016B491C0163761C20688178B7
:1036B000B142EED82168096B891B0163E560294698
:1036C0002068FFF7B7FA2061E7802068418949093F
:1036D000B7FBF1F201FB1271342202EB41110844F5
:1036E000606100208AE72DE9F04705468946FF26FC
:1036F000B046042746E0286801F0B4FD07463800CC
:1037000043D1686904786CB1C17A01F03F01E52CBE
:1037100006D021F02002082A06D000224A4505D012
:10372000FF261FE0042730E00122F7E70F2901D030
:1037300026BB1FE0610606D590F80D8024F04004FA
:103740002646E9882984B4420AD1417B414507D104
:10375000EA690146104601F09FFD08B1761E00E0BF
:10376000FF26F6B200212846FFF733FF0746380050
:1037700008D00AE001F0F8FE404506D04FF6FF7091
:10378000288402E029690029B5D10FB10020286101
:103790003846BDE8F0872DE9FE430446A769E6698F
:1037A0000C223946684601F04CFD9DF80B0081065D
:1037B00002D50620BDE8FE83C00718D00020F872AD
:1037C000E06101252B4632466946384601F0D8FAB9
:1037D0002046FFF79BFE10B96D1C642DF2D3642DBB
:1037E0000BD00428E6D19DF80B00F872E6619DF835
:1037F0000B0080070DD5002002E00720DAE7401C0F
:1038000036F810100029FAD119300D21B0FBF1F66D
:1038100000E0012631462046FFF756FE0546012707
:103820001DBB761E21D0E088811B204600F039F8B0
:103830000546280019D1A06901F096FE804621694D
:10384000206801F00FFD05467DB9F2B2434661697B
:10385000E06901F00BFA2068077100212046FFF7AC
:10386000B8FE05460DB9761EE9D1C5B921692068B3
:1038700001F0F8FC0546280011D1202200216069E2
:1038800001F0E8FCD4E905010B2201F0DAFCA069A3
:103890006169C07A00F01800087320680771284633
:1038A00088E770B504460D46E580A368012B03D078
:1038B00020688169994201D8022070BD1BB9017846
:1038C000032900D1836A2BB141898078490911FB12
:1038D00000F618E00189A94201D8022070BD806A73
:1038E00017E01946206801F097FA0346581C07D0E4
:1038F000022B03D320688069984203D8022070BD50
:10390000012070BDAD1BB542EBD219462068FFF710
:1039100091F9E36098B121684A895209B5FBF2F246
:103920001044206148894009B5FBF0F200FB1250B9
:10393000342202EB401008446061002070BD022078
:1039400070BD01460120002903D0012903D1FEF7F3
:10395000E3BBFEF7A9BC704730B40C4603461146E2
:103960000420002B05D0012B07D1204630BCFEF7E8
:103970004FBC204630BCFEF7D3BC30BC704730B4DF
:103980000D46114604461A460420002C05D0012C91
:1039900007D1284630BCFEF74DBC284630BCFEF7A8
:1039A000DDBC30BC704701460120002903D001294D
:1039B00003D1FEF751BCFEF715BD704730B40D467C
:1039C000114604461A460420002A06D044B1012CB0
:1039D00004D1284630BCFEF755BC042030BC7047EB
:1039E000284630BCFEF716BD10B50446204600F050
:1039F0002CFE002806D1204601F047FE002801D108
:103A00000021216010BD2DE9F04704460D462046F7
:103A100001F03BFE80465FEA080001D0BDE8F08778
:103A2000E0790028FAD1E068A84203D2A179890799
:103A300000D40546A1680027A7604FF00109002DBA
:103A400061D020688678428956434FF0020A69B1F6
:103A50006A1E491EB2FBF6F2B1FBF6F39A4205D399
:103A6000701E8143A1606D1A61690BE0216941B943
:103A70000021FFF799FB0146012905D0481C07D01A
:103A80002161616159BB3EE084F807A00220C5E7CF
:103A900084F807900120C1E7A079800706D5206847
:103AA000FFF782FB014629B935461AE0206801F08C
:103AB000B3F90146481C09D0012903D9206880695F
:103AC000884207D884F807A00220A7E784F8079067
:103AD0000120A3E76161A0683044A060AD1BB5423E
:103AE000DAD8A0682844A06020684289B5FBF2F3C8
:103AF00002FB13523AB1FFF79DF8F0B121684989F2
:103B0000B5FBF1F10F182068A1684289B1FBF2F30F
:103B100002FB131131B3A269BA4223D0A17904F197
:103B20002405490611D5407801232946FFF746FFB1
:103B300038B184F80790012070E784F807A00220CC
:103B40006CE7A07920F04000A071206801233A467C
:103B500040782946FFF713FF18B184F80790012039
:103B60005CE7A761D4E90201884204D9E060A0794A
:103B700040F02000A071404650E72DE9F14FADF52F
:103B80000E7D01F0C9F9064601228EA984A800F035
:103B9000C9FE044620006BD181A88A9001A88B90B1
:103BA00084A88E9901F098F80446200000D10824DA
:103BB000042C04D18A98C07A800600D50624042CEF
:103BC00056D100218498FFF7EFFA80460024B8F11F
:103BD000000F00D10724B8F1010F00D10224B8F181
:103BE000FF3F00D101241CB9849801F024FD044654
:103BF0004FF0100A4FF00109CCBB41468498FFF703
:103C000019F88346849D34358498002142892846DA
:103C100001F020FB0B222021284601F01BFB2E2760
:103C20002F7085F80BA0AE75300AE875300C287639
:103C3000300E68764146284601F08EFC05F12000E2
:103C4000202229468D9001F0FCFA85F82170869992
:103C500084980078032804D18498806A884200D12F
:103C600000218D9801F078FC8498877817E018E09F
:103C700036E08498C0F830B00BF1010B849880F8DE
:103C80000490849801F0D7FC0446200009D1849860
:103C900000214289284601F0DDFA7F1EFFB2002F85
:103CA000E7D11CB984A8FFF776FD044624B141464C
:103CB000849801F0BFFB13E0899880F80BA086750B
:103CC000310AC175310C0176310E4176414601F061
:103CD00043FC849880F80490849801F052FC0446D8
:103CE0000DF50F7D2046BDE8F08F00002DE9F74F60
:103CF00088B090460998012803D913200BB0BDE87D
:103D0000F08F08A801F07CF9002801DA0B20F5E714
:103D1000FE4951F8206056B100213170C0B20590C3
:103D20000598FFF70EFEC10703D00320E6E70C203D
:103D3000E4E7400701D50A20E0E706F10A02022184
:103D40000598FFF709FE30B97089B0F5805F02D899
:103D5000B0F5007F01D20120D0E702AA0121059829
:103D6000FFF7FAFD10B90298802801D20120C5E7BB
:103D7000099911B14FF0000A01E04FF03F0AA0EBA2
:103D80000A010291A8F1010018EA000F01D04FF0DA
:103D90000008B8F1000F13D170894FF4FA62400A9D
:103DA000B2FBF0F0B1FBF0F20020D94B00E0401C78
:103DB00033F810509542FAD8D54A163232F81080AE
:103DC000B8F5007F02D37089B8FBF0F8B8F1000FA6
:103DD00001D14FF00108B8F1800F01D94FF08008F0
:103DE000B1FBF8F0012740F6F672904200D30227AB
:103DF0004FF6F672904200D30327032F1BD0012FFA
:103E000024D04200121D7089521E0244B2FBF0F908
:103E10000125AA03B2FBF0F001900AEB050B0BEBB6
:103E20000900019A841804EB0800A0EB0A008842FC
:103E300012D90E2062E77289072303EB8000104439
:103E4000B0FBF2F9202500200190E6E700EB4000EE
:103E5000401C4208D21CD6E703AA03210598FFF7AD
:103E60007BFD20B9039810B1B0F5004F01D90120B6
:103E7000039003982118491E401E8143081B03909C
:103E8000032F0CD081440298411BA1EB0902019938
:103E9000511AB1FBF8F10491022F03D007E0054459
:103EA0008344F0E7049940F6F672914206D3032F5B
:103EB00006D104994FF6F672914201D20E201DE709
:103EC000032F02D0012F02D006E00C240AE0B0F547
:103ED000803F01D2012405E0B0F5803F01D20424E7
:103EE00000E00624099810B1F020069039E07289AC
:103EF00006F134000021079001F0ACF906F5F970E5
:103F00000121417081700022C2700471FE21417153
:103F1000029943F6C1635144B1FBF3F103913F238E
:103F200043EA91048471C171037242728272C27257
:103F3000029901730A0A42730A0C8273090EC17353
:103F4000552086F83202AA2086F833020123002287
:103F500007990598FFF732FD08B10120CEE6F82059
:103F6000069006F1340472890021204601F072F9AE
:103F70000B2268A1204601F064F97089E072000A02
:103F8000207384F80D80A573280AE0730120207443
:103F9000032F0BD040026074000AA0740298B0F5A1
:103FA000803F05D2E074000A20750AE00020F2E7A5
:103FB00004F8200F010A6170010CA170000EE0707E
:103FC000203C069860753F20207600206076FF2117
:103FD000A176E07684F81CA04FEA1A2060774FEAB9
:103FE0001A40A0774FEA1A60E07700F095FF03903F
:103FF00080222921032F24D016346074030AA3746D
:10400000030CE374000E207584F800904FEA192029
:104010006070A2732174163C132241A104F12B009D
:1040200001F00FF9552084F8FE01AA2084F8FF0161
:104030000123524621460598FFF7C0FC60B30120DA
:104040005CE62534A077030AE377030C84F820307C
:10405000000E84F8210004F8019C4FEA192020701A
:104060004FEA194060704FEA1960A0700220E071B9
:10407000002020726072A0720123E3722073062375
:104080006373A073E2766177253C132229A104F1C2
:10409000470001F0D6F8C5E7032F06D101230AF146
:1040A000060221460598FFF789FC5D464FF0000B9C
:1040B00072890021204601F0CDF806980390032F65
:1040C00012D0012F0ED06FF0FF0101430391217038
:1040D0000398000A60700398000CA0700398000E0B
:1040E000E07039E01849F0E760F0FF0003902070BD
:1040F0000398000A60700398000CA0700398000EEB
:10410000E070FF2020716071A0711FE0D8040020D2
:10411000C4560008EBFE904D53444F53352E3000EB
:104120004E4F204E414D4520202020464154202016
:10413000202020004E4F204E414D4520202020467B
:10414000415433322020200000FFFF00E071207234
:104150006072A0720F20E0722A466D1C0123214676
:104160000598FFF72BFC08B10120C7E572890021F3
:10417000204601F06FF8012003900CE02A466D1CE8
:10418000012321460598FFF719FC08B10120B5E588
:104190000398401C039003984845EFD30BF1010BA3
:1041A000BBF1000F84D0032F01D0DDF804802A4634
:1041B0006D1C012321460598FFF700FC08B1012082
:1041C0009CE5B8F10108F2D1032F3AD152202070BA
:1041D00060706120A0704121E170722284F8E421B6
:1041E00084F8E52184F8E61184F8E7010498401E7C
:1041F00084F8E801010A84F8E911010C84F8EA1155
:10420000000E84F8EB01022084F8EC01002084F811
:10421000ED0184F8EE0184F8EF01552084F8FE01E9
:10422000AA2084F8FF0101230AF101022146059822
:10423000FFF7C4FB01230AF1070221460598FFF7A7
:10424000BDFB002211460598FFF786FB08B101204F
:1042500054E5002052E5000017B581B014460298DD
:104260000090684600F0CCFE002802DA0B2004B073
:1042700010BD0B4B53F82010002201B10A700199B8
:10428000002900D00A7043F8201001D0012C01D081
:104290000020ECE7002202A901A800F043FBE6E7BA
:1042A000D80400202DE9F747ADF50D7D0646002E18
:1042B0000FD04FF00008C6F8008002F01F0727F06B
:1042C00001028EA984A800F02DFB0546280005D028
:1042D00092E009200DF5107DBDE8F08781A88A9055
:1042E00001A88B9084A88E9900F0F6FC0546899C65
:1042F0000DB904B9062517F01C0F4DD04DB1042D92
:1043000003D184A8FFF747FA054647F00807899CC0
:1043100008E0E07A10F0110F01D0072502E07807DD
:1043200000D50825BDBB380741D500F0F5FDA073C9
:10433000010AE173010C2174000E607484F80B8093
:1043400084F81C8084F81D8084F81E8084F81F8007
:104350002146849800F078FE81460021204601F035
:10436000FBF8849901200871B9F1000F1FD08498DF
:10437000D0F830A04946849801F05CF80546280042
:1043800015D18498A9F10109C0F80C905146849880
:1043900000F068FF05460AE04DB9E07AC10601D594
:1043A000042504E0B90702D5C00700D007253DB9B0
:1043B000380701D547F020078498006BF06134621C
:1043C000D5B9B77186F807802146849800F03CFE85
:1043D0003061207FE17F627F40EA0160A17F0904B4
:1043E00041EA02210843F060C6F80880C6F8188048
:1043F00084983060C088B08028466BE733B5ADF54F
:10440000057D0546002D07D0002286A984A800F06E
:1044100089FA044624B126E009200DF5077D30BD58
:104420008498286081A8A86101A8E8612846869937
:1044300000F052FC04469CB9696941B1C87AC006D3
:1044400004D5849800F000FEA86000E005243CB983
:104450008498C088A88000212846FFF722FA0446E5
:10446000042C00D105240CB1002028602046D4E79C
:104470002DE9F84F04468846164699460020C9F8AB
:104480000000204601F001F9002812D1E07900284F
:104490000FD1A079C0070BD0D4E90210401A864290
:1044A00000D9064604F124004FF0010A009098E07C
:1044B0000720BDE8F88F2268A0685189B0FBF1F3AE
:1044C00001FB1303002B6DD1B0FBF1F193785B1E60
:1044D0001940CDB275B940B11046616900F09CFC3D
:1044E000022804D20220E071E3E72069F8E7411CCA
:1044F0001CD0606161692068FEF79CFBD0B100EBC5
:10450000050B20684189B6FBF1F74FB38178EA19B2
:104510008A4200D94F1B40783B465A464146FFF736
:104520002EFA50B184F807A00120C2E784F807A052
:104530000120BEE70220E071BBE7A07940060BD561
:10454000A069A0EB0B00B84206D221684A89009905
:1045500000FB028000F075FE206845897D4336E04F
:10456000A2695A451CD0A17949060DD5407801238E
:104570000099FFF723FA18B184F807A0012098E703
:10458000A07920F04000A071206801235A464078AD
:104590000099FFF7F4F918B184F807A0012088E723
:1045A000C4F818B02068A1684089B1FBF0F200FBA4
:1045B0001212851AB54200D93546B1FBF0F200FB64
:1045C0001210011924312A46404600F03AFEA84450
:1045D000A0682844A060D9F800002844C9F8000069
:1045E000761B002E7FF467AF002062E770B5ADF553
:1045F000047D04460E46204601F047F8002810D1FD
:104600005EB181A8A06101A8E06100212046FFF70A
:104610006AF80025042807D008E000212046FFF7AB
:1046200040F90DF5047D70BD256100200028F8D10A
:104630003146204600F074FC00212046FEF7C9FFF9
:104640000428EED125610020EBE770B50446204632
:1046500001F01BF800280ED1A1798A060BD5480677
:104660000ED52068012304F124014078A269FFF7E8
:10467000A5F908B1012070BDA07920F04000A0711B
:10468000E169206800F0EEFD0028F4D1256AE87A9F
:1046900040F02000E872207B2877A089000A687724
:1046A000E068000CA877E068000EE87728462169EA
:1046B00000F052FF00F030FCA875010AE975010C0A
:1046C0002976000E68760020A874E874A07920F09E
:1046D0002000A0712168012008712068BDE87040A9
:1046E00000F04FBF2DE9F84F04468846164699461C
:1046F0000020C9F80000204600F0C7FF002806D1BE
:10470000E079002803D1A079800702D40720BDE812
:10471000F88FA068811900D3002604F124004FF01F
:10472000010A0090ADE02268A0685189B0FBF1F366
:1047300001FB1303002B7DD1B0FBF1F193785B1EDD
:104740001940CDB2F5B968B110466169FEF72CFD8C
:10475000002870D001280DD0411C0ED06061216965
:1047600079B10FE020690028F2D100211046FEF750
:104770001BFDEDE70220E071C9E784F807A00120E6
:10478000C5E72061A07940060FD520680123A26902
:1047900040780099FFF712F918B184F807A00120BA
:1047A000B5E7A07920F04000A07161692068FEF7AC
:1047B00041FAB0B100EB050B20684189B6FBF1F777
:1047C00037B38178EA198A4200D94F1B40783B46BB
:1047D0005A464146FFF7F2F830B184F807A00120AD
:1047E00095E70220E07192E7A069A0EB0B00B842C8
:1047F0000AD221684A8900FB0281009800F021FD5D
:10480000A07920F04000A071206845897D432EE00A
:10481000A169594510D0D4E9021291420CD24078D6
:1048200001235A460099FFF7AAF828B184F807A097
:1048300001206CE702E027E0C4F818B02068A16806
:104840004089B1FBF0F200FB1212851AB54200D983
:104850003546B1FBF0F200FB1210204424302A460A
:10486000414600F0EEFCA07940F04000A071A84461
:10487000A0682844A060D9F800002844C9F80000C6
:10488000761B002E7FF44FAFD4E90201884200D995
:10489000E060A07940F02000A071002037E7000020
:1048A00070B580281FD345F2205409B1104D00E0A7
:1048B000104D00231022E11A01EBD17103EB6101CD
:1048C00035F82160864207D001D20B4600E00C4645
:1048D000A2F10102002AEED132B14FF0010000EB4B
:1048E000410035F8100070BD4FF0000070BD0000B1
:1048F00074AB0108F05600080021084B00E0491C89
:1049000033F811200AB18242F9D133F81120002A7C
:1049100002D0034830F8110070470000F8FF020889
:10492000D80103082DE9FF478046084616460027B0
:10493000C8F8007000F064FB0546002D03DA0B2078
:1049400004B0BDE8F087C64850F825408CB1C8F8DF
:104950000040207820B16078FFF725F8C1070AD021
:104960002770E8B26070FEF7ECFFC1070AD00320A1
:10497000E6E70C20E4E71EB1400701D50A20DFE797
:104980000020DDE71EB1400701D50A20D8E7607896
:1049900004F10A020221FEF7DFFF30B96089B0F5A9
:1049A000007F02D3B0F5805F01D90120C8E7002560
:1049B00029462046FEF7F8F8012826D10021E846CE
:1049C00004EB011000F5F970027952B1027AC37A52
:1049D00042EA0362837A407A1B0443EA00200243DE
:1049E00000E0002248F82120491C0429E8D30026D1
:1049F00058F8265025B129462046FEF7D5F800E0A4
:104A0000022010B1761C042EF2D3032802D018B174
:104A10000D2095E7012093E794F83F0094F84010AB
:104A2000B4F80AC040EA0120604501D00D2087E7B4
:104A300094F84A0094F84B1040EA012058B914F851
:104A4000580FE178627840EA0160A1780904583C87
:104A500041EA02210843E06194F844A084F803A0ED
:104A6000BAF1010F04D0BAF1020F01D00D2067E7AF
:104A70000AFB00FA94F84120A27012B1511E0A42BA
:104A800001D00D205CE794F8451094F8463041EAD7
:104A9000032323814FEA5C16B3FBF6F106FB1131C9
:104AA00009B10D204CE794F8471094F8488041EA8A
:104AB000082179B994F8541094F8578094F85590D7
:104AC00041EA086194F856804FEA084848EA092804
:104AD00041EA080194F8428094F8439048EA092991
:104AE000B9F1000F08D0B3FBF6F609EB0A08B044A1
:104AF000414503D20D2023E70D2021E7A1EB08015A
:104B0000B1FBF2F141B3012640F6F672914200D3B7
:104B100002264FF6F672914200D30326891CA1614A
:104B2000256205EB09026262A844C4F82C80032EBA
:104B300014D03BB35244A262022E25D001F00102F0
:104B400001EB410102EB5101491E6144B1FBFCF153
:104B500081421BD90D20F3E60D20F1E60BB10D20AB
:104B6000EEE694F8602094F8633094F8618042EAAD
:104B7000036294F862301B0443EA08231A43A262DA
:104B80008900E1E70D20DBE64900DDE74FF0FF306B
:104B90002061E06080206071032E57D194F864009A
:104BA00094F8651040EA012001284FD1691C204685
:104BB00000F058FBF0BB677194F8320294F833129E
:104BC00040EA0120A0F52A4155393FD114F8340FAD
:104BD000E178627840EA0160A178343C090441EA56
:104BE000022108431F49884230D194F8180294F8F2
:104BF0001B1294F8192240EA016094F81A12090471
:104C000041EA02210843184988421FD194F81C0246
:104C100094F81F1294F81D2240EA016094F81E12C5
:104C2000090441EA02210843206194F8200294F823
:104C3000231200E00AE040EA016094F8221294F89E
:104C40002122090441EA02210843E0602670044958
:104C5000091F4888401C4880E080676100206FE69B
:104C6000D804002052526141727241612DE9F04333
:104C70004B730F23CB7200230B738B76CB76531EB3
:104C800003EB830404EBC30500231C46114E01F122
:104C9000010C4FF6FF77BB4203D02B466D1C30F85A
:104CA000133016F8048001F8083016F804904FEA23
:104CB000132809F80C8003B93B46641C0D2CEAD379
:104CC000BB4202D030F8150008B942F040020A7029
:104CD000BDE8F083B656000873B504460199002577
:104CE00008782F280ED05C280CD020684069A0607E
:104CF00001980078202809D200212046FEF7D1FD36
:104D000065617CBD491C0191A560F1E701A92046C0
:104D1000FEF79EFA0028F4D12046FEF7F7FBA169C2
:104D2000C97A68B10428ECD18A0605D5A560656109
:104D30004807EBD500207CBD4907FCD405207CBD8D
:104D40004907FCD46169C87AC00601D405207CBD3E
:104D5000206800F079F9A060D8E7000070B504463B
:104D6000064DE1B22846FDF70FFC80212846FDF7ED
:104D7000A5FB0028F9D0204670BD000000100140BE
:104D80007CB5054616461C460B22284600F059FA0B
:104D9000052C11D91F480CE0B61C002322460C46F6
:104DA00062F35F044908E20300D544405B1C102B0A
:104DB000F4D331880029EFD107226B4604F00F01AC
:104DC0003031392901D9C91DC9B21046521E1954B2
:104DD0002409002CF2D17E2098540021541E06E0B4
:104DE00081387D2802D8A14206D0491C491C914235
:104DF00002D2685C2028F3D1082A03D21046521C44
:104E0000185C00E020200C46491C28550829F3D3E3
:104E10007CBD0000211001002DE9F04104460D4643
:104E2000022D02D3A069A84201D8012609E04FF063
:104E3000FF362078012807D0022835D003284BD030
:104E400001263046BDE8F08105EB55076089616AAF
:104E5000B7FBF0F00144204600F004FA0028F0D13E
:104E600060893946B1FBF0F200FB121121447F1C2E
:104E700091F83480B7FBF0F0616A0144204600F0FD
:104E8000F1F90028DDD16089B7FBF0F100FB11706A
:104E9000204490F8340048EA0020E90701D00609D0
:104EA000CFE7C0F30B06CCE76089616A4008B5FB29
:104EB000F0F00144204600F0D5F90028C1D1618905
:104EC0006800B0FBF1F201FB12002044343001789D
:104ED000407841EA0026B4E76089616A8008B5FB42
:104EE000F0F00144204600F0BDF90028A9D1618905
:104EF000A800B0FBF1F201FB12002044343001782D
:104F0000C27841EA026182784078120442EA0020C5
:104F1000014321F0704694E7004870470000FC42CE
:104F20002DE9F0410E4606F109050169002937D047
:104F3000436900242146641C5A5C202A17D0052AA4
:104F400000D1E522092C02D12E2105F8011BA2F186
:104F50004101192909D81F7B092C01D3102100E038
:104F600008210F4201D02032D2B205F8012B0B2CC0
:104F7000E0D3D97A3172197FDA7F5C7F41EA02612E
:104F80009A7F120442EA042211433160197E5A7E4C
:104F900041EA0221B180997DDA7D41EA0221F18066
:104FA0004FF0000885F80080B769002F26D0002454
:104FB000016909B3F169F9B1018CA1F57F42FF3AAA
:104FC0001AD0C56914E00021FFF76AFC58B1FF2828
:104FD00003D9020A2146641C7A54F169491EA14290
:104FE00003D8002408E0002406E02146641C78541D
:104FF00035F8020B0028E6D107F80480BDE8F081FF
:1050000010B504464FF0FF302368002B0CD0194632
:1050100000E0491C0A78202A01D33A2AF9D10A78FB
:105020003A2A02D00748007810BD13F8012B303A15
:105030000A2AF9D28B42F7D1022AF5D21046491C2E
:10504000216010BDD40400200246887ECB7E40EA59
:1050500003201278032A05D10A7D497D42EA012105
:1050600040EA014070470000FBF78AF9FBF76CFD4E
:10507000FBF754FDFBF7E2FBFDF74EF8012223A1FD
:105080002348FFF7E9F8234F4FF480664FF4006898
:10509000BD1E4FF4805940B11F48FDF77BFA3E809A
:1050A000A5F80080A5F80090FEE71CA0FDF772FAB5
:1050B00026A0FDF76FFA314C01212046FBF718FDC1
:1050C0000028F9D001212046FBF712FD0128F9D074
:1050D0002BA0FDF75FFAFCF751FE08213448FDF7DD
:1050E0006FFB18B133A0FDF755FAFEE740A0FDF7BE
:1050F00051FA41494148FDF7DFFE41A0FDF74AFA68
:105100002E80A7F80080A5F80090EEE7303A000066
:10511000845C00201A1C0240B80303080D0A20B06A
:10512000B4D2BBB4CE4B455931BFAACABCC9D5D045
:10513000B4D7D6BFE2B2A2B8B4D6C6CEC4BCFEB510
:10514000BD464C415348A1A3200D0A000D0A20D7AB
:10515000A2D2E2B8C3B2D9D7F7BBE1B0D1464C4135
:105160005348B5C4D4ADC4DAC8DDBBE1B1BBC9BED8
:10517000B3FDA3A1A3A1200D0A000000000002407E
:105180000D0A20D5FDD4DABDF8D0D0D5FBC6ACB21F
:10519000C1B3FDA3ACCAB1BCE4BADCB3A4A3ACC731
:1051A000EBC4CDD0C4B5C8BAF22E2E2E0D0A000025
:1051B000140400200D0A20BFBDB1B4CAFDBEDDB588
:1051C000BD464C415348CAA7B0DC28B7C7CEC4BCC3
:1051D000FECFB5CDB3B2BFB7D629A3ACC7EBB8B439
:1051E000CEBBD6D8CAD4A3A1A3A1200D0A0000002B
:1051F0000D0A0D0A0D0A00001701002018000020FA
:105200000D0A20CBF9D3D0CAFDBEDDD2D1B3C9B9C6
:10521000A6B8B4D6C6B5BD464C415348A3A1A3A178
:10522000A3A1200D0A00000010B50023521E541C3B
:1052300005D010F8013B11F8014B1B1BF6D01846A6
:1052400010BD03E011F8013B00F8013B521E531C56
:10525000F8D17047C9B201E000F8011B521E531C7F
:10526000FAD1704770B504460E460025206BB04257
:1052700010D0204600F0DFF905465DB960780123C3
:10528000324604F13401FEF77AFB10B14FF0FF36DD
:1052900001252663284670BD2DE9F0410A7802F009
:1052A0003F02521E02EB820303EBC20200230125E0
:1052B000144F4E1C4FF6FF7CFC5C11F80480A45D7B
:1052C00048EA042455B1FF2A02D30020BDE8F0814A
:1052D00090462546521C20F8184003E0644501D052
:1052E0000020F3E75B1C0D2BE6D30978490606D5B1
:1052F000FF2A01D30020E9E7002120F81210012045
:10530000E4E70000B65600082DE9F04704460D46D4
:105310001646022D02D3A069A84202D80220BDE899
:10532000F087207806F0FF094FF00108012805D02A
:10533000022842D003285AD00220F0E705EB550797
:105340006089616AB7FBF0F001442046FFF78AFFED
:105350000028E4D1384661897F1CB0FBF1F201FBE3
:10536000120020443430E90703D0017869F31F119B
:1053700000E03146017084F804806089616AB7FBFF
:10538000F0F001442046FFF76DFF0028C7D1618986
:10539000B7FBF1F201FB127121443431EA0702D06C
:1053A000C6F3071205E00A78C6F3032302F0F00201
:1053B0001A430A7084F80480B1E76089616A400882
:1053C000B5FBF0F001442046FFF74CFF0028A6D1C2
:1053D00062896900B1FBF2F302FB1311214481F8E9
:1053E0003490320A81F8352084F8048097E7608988
:1053F000616A8008B5FBF0F001442046FFF732FFF8
:1054000000288CD16289A900B1FBF2F302FB1311D1
:10541000214434314FF07043CA7803EA02623243C8
:105420000A70130A4B70130C8B70120ECA7084F83A
:10543000048074E72DE9F04104460F46022F02D3A1
:10544000A069B84201D8022624E000261FE03946B0
:105450002046FFF7E1FC0546E5B1012D09D0681CA7
:1054600009D0002239462046FFF74EFF06468EB986
:1054700003E002260EE001260CE02069411C05D065
:10548000401C2061607940F0010060712F46A069E6
:10549000B842DCD83046BDE8F081000030B591B0AC
:1054A00005461E480F9040F2FF10109029466846AE
:1054B000FEF7A4FF00282AD12846FAF7D6FE0446B4
:1054C00009A96846FFF792F8002820D19DF82D1011
:1054D00000291CD00F98007808B10F9A01E00DF157
:1054E0002D0210782E28EBD09DF82C00C00610D588
:1054F00028190BA1FDF75EF829460AA0FDF74AF826
:105500002846FFF7CBFF002129550028D8D011B03D
:1055100030BD29460AA0FDF73DF8D1E7E41400208C
:105520002F2573003C3C2D4255524E2D494E464F7F
:105530002D3E3E20CEC4BCFEBCD0A3BA25730A00CB
:105540003C3C2D4255524E2D494E464F2D3E3E205D
:1055500025732F25730A000081760A0AC2760A0C89
:105560000275090E41757047014600200B22430861
:1055700003EBC01011F8013B1844C0B2521EF6D123
:10558000704770B50446204600F055F805462800DF
:105590004FD12078032845D16079012842D104F108
:1055A0003400628900210646FFF754FE552084F836
:1055B0003202AA2084F83302522084F8340084F89E
:1055C0003500612084F83600412184F837107222BA
:1055D00084F8182284F8192284F81A1284F81B021D
:1055E000206984F81C02010A84F81D12010C84F859
:1055F0001E12000E84F81F02E06884F82002010ADF
:1056000084F82112010C84F82212000E84F823027F
:10561000226A521C2263607801233146FEF7CEF9DC
:1056200000206071002260781146FEF795F900B104
:105630000125284670BD2DE9F04104460027207958
:1056400000281FD0266B04F1340160780123324614
:105650008846FEF7B3F908B1012713E00020207156
:10566000606AE169301A88420CD2E57808E0E069A6
:1056700006446078012332464146FEF79FF96D1ECD
:10568000022DF4D23846BDE8F08110B5002807D0CD
:10569000016829B10A781AB1CA888088824201D08B
:1056A000092010BD4878FEF77EF9C00701D003201D
:1056B00010BD002010BD01030507090E10121416BD
:1056C000181C1E00000400020001800040002000A1
:1056D00010000800040002000000008000400020CC
:1056E0000010000800400020001000080004000224
:1056F000A400E8A1A700ECA1A800A7A1B000E3A125
:10570000B100C0A1B700A4A1D700C1A1E000A4A826
:10571000E100A2A8E800A8A8E900A6A8EA00BAA8A3
:10572000EC00ACA8ED00AAA8F200B0A8F300AEA867
:10573000F700C2A1F900B4A8FA00B2A8FC00B9A809
:105740000101A1A81301A5A81B01A7A82B01A9A8C5
:105750004401BDA84801BEA84D01ADA86B01B1A888
:10576000CE01A3A8D001ABA8D201AFA8D401B3A8A1
:10577000D601B5A8D801B6A8DA01B7A8DC01B8A847
:105780005102BBA86102C0A8C702A6A1C902A5A177
:10579000CA0240A8CB0241A8D90242A89103A1A6FF
:1057A0009203A2A69303A3A69403A4A69503A5A679
:1057B0009603A6A69703A7A69803A8A69903A9A649
:1057C0009A03AAA69B03ABA69C03ACA69D03ADA619
:1057D0009E03AEA69F03AFA6A003B0A6A103B1A6E9
:1057E000A303B2A6A403B3A6A503B4A6A603B5A6B5
:1057F000A703B6A6A803B7A6A903B8A6B103C1A676
:10580000B203C2A6B303C3A6B403C4A6B503C5A618
:10581000B603C6A6B703C7A6B803C8A6B903C9A6E8
:10582000BA03CAA6BB03CBA6BC03CCA6BD03CDA6B8
:10583000BE03CEA6BF03CFA6C003D0A6C103D1A688
:10584000C303D2A6C403D3A6C503D4A6C603D5A654
:10585000C703D6A6C803D7A6C903D8A60104A7A71D
:105860001004A1A71104A2A71204A3A71304A4A7BC
:105870001404A5A71504A6A71604A8A71704A9A78A
:105880001804AAA71904ABA71A04ACA71B04ADA758
:105890001C04AEA71D04AFA71E04B0A71F04B1A728
:1058A0002004B2A72104B3A72204B4A72304B5A7F8
:1058B0002404B6A72504B7A72604B8A72704B9A7C8
:1058C0002804BAA72904BBA72A04BCA72B04BDA798
:1058D0002C04BEA72D04BFA72E04C0A72F04C1A768
:1058E0003004D1A73104D2A73204D3A73304D4A7FC
:1058F0003404D5A73504D6A73604D8A73704D9A7CA
:105900003804DAA73904DBA73A04DCA73B04DDA797
:105910003C04DEA73D04DFA73E04E0A73F04E1A767
:105920004004E2A74104E3A74204E4A74304E5A737
:105930004404E6A74504E7A74604E8A74704E9A707
:105940004804EAA74904EBA74A04ECA74B04EDA7D7
:105950004C04EEA74D04EFA74E04F0A74F04F1A7A7
:105960005104D7A710205CA9132043A81420AAA192
:10597000152044A81620ACA11820AEA11920AFA173
:105980001C20B0A11D20B1A1252045A82620ADA135
:105990003020EBA13220E4A13320E5A1352046A838
:1059A0003B20F9A1AC2080000321E6A1052147A8F6
:1059B000092148A81621EDA1212159A96021F1A2B0
:1059C0006121F2A26221F3A26321F4A26421F5A273
:1059D0006521F6A26621F7A26721F8A26821F9A243
:1059E0006921FAA26A21FBA26B21FCA27021A1A26B
:1059F0007121A2A27221A3A27321A4A27421A5A243
:105A00007521A6A27621A7A27721A8A27821A9A212
:105A10007921AAA29021FBA19121FCA19221FAA1B6
:105A20009321FDA1962149A897214AA898214BA826
:105A300099214CA80822CAA10F22C7A11122C6A1F0
:105A400015224DA81A22CCA11D22D8A11E22DEA10A
:105A50001F224EA82022CFA123224FA82522CEA16B
:105A60002722C4A12822C5A12922C9A12A22C8A16E
:105A70002B22D2A12E22D3A13422E0A13522DFA1F4
:105A80003622C3A13722CBA13D22D7A14822D6A1DD
:105A90004C22D5A1522250A86022D9A16122D4A1C2
:105AA0006422DCA16522DDA1662251A8672252A8EA
:105AB0006E22DAA16F22DBA1952292A89922D1A1B0
:105AC000A522CDA1BF2253A81223D0A16024D9A220
:105AD0006124DAA26224DBA26324DCA26424DDA2B6
