:020000042000DA
:1000000018040120C1010020EB0600200705002094
:10001000E9060020AB0200206D0B0020000000006C
:10002000000000000000000000000000490900205E
:10003000AD0200200000000069080020210A002015
:10004000DB010020DB010020DB010020DB010020C0
:10005000DB010020DB010020DB010020DB010020B0
:10006000DB010020DB010020DB010020DB010020A0
:10007000DB010020DB010020DB010020DB01002090
:10008000DB010020DB010020DB010020DB01002080
:10009000DB010020DB010020DB010020DB01002070
:1000A000DB010020DB010020DB010020DB01002060
:1000B000DB010020DB010020DB010020DB01002050
:1000C000DB010020DB010020DB010020DB01002040
:1000D000DB010020DB010020DB010020DB01002030
:1000E000DB010020DB010020DB010020DB01002020
:1000F000DB010020DB010020DB010020DB01002010
:10010000DB010020DB010020DB010020DB010020FF
:10011000DB010020DB010020DB010020DB010020EF
:10012000DB010020DB010020DB010020DB010020DF
:10013000DB010020DB010020DB010020DB010020CF
:10014000DB010020DB010020DB010020DB010020BF
:10015000DB010020DB010020DB010020DB010020AF
:10016000DB010020DB010020DB010020DB0100209F
:10017000DB010020DB010020DB010020DB0100208F
:10018000DB010020DB010020DB010020DB0100207F
:10019000DB010020DB010020DB010020DB0100206F
:1001A000DB010020DB010020DB010020DFF80CD0A8
:1001B00000F04AF8004800473910002018040120D8
:1001C0000648804706480047FEE7FEE7FEE7FEE7F1
:1001D000FEE7FEE7FEE7FEE7FEE7FEE7250A002072
:1001E000AD0100202DE9F05F0546002092469B46B8
:1001F00088460646814640241BE02846414647463D
:10020000224600F042F853465A46C01A914110D394
:1002100011461846224600F029F82D1A67EB01080E
:100220004F4622460120002100F020F817EB00097C
:100230004E41201EA4F10104DFDC484631462A4627
:100240004346BDE8F09F0000064C074D06E0E0681D
:1002500040F0010394E8070098471034AC42F6D30D
:10026000FFF7A8FFAC120020CC120020202A04DBEC
:10027000203A00FA02F1002070479140C2F12003B9
:1002800020FA03F3194390407047202A04DB203AF8
:1002900021FA02F00021704721FA02F3D040C2F1A6
:1002A00020029140084319467047FEE7704700005E
:1002B00070B586B00121084600F0D8FA012110205F
:1002C00000F0E2FA1E4E07220A21304600F009F93A
:1002D00007220921304600F004F900248DF8164069
:1002E00001208DF8170002258DF814504102049169
:1002F0008DF8155004A9304600F0B5F88DF814506B
:100300006802049004A9304600F0ADF84FF4E130E3
:100310000090ADF80440ADF80640ADF80840ADF8E7
:100320000C400C20ADF80A00064C6946204600F04F
:10033000BBFB0121204600F0A3FB06B070BD00000E
:1003400000000240001001400149086070470000B1
:100350000C3C024009200D490A68D20301D5012056
:1003600070470A68D20601D5062070470A68D20590
:1003700001D5022070470A6812F0E00F01D0072073
:10038000704709688907FBD5082070470C3C02407C
:100390000248007800F00C0070470000143C024056
:1003A000002003490978AA2900D0012070470000E5
:1003B000153C024002480068C0F347107047000037
:1003C000143C02400148008870470000163C02407F
:1003D0000348017841F00201017000F033B80000D9
:1003E000143C02400248016841F00101016070477D
:1003F000143C0240034A117801F07F010843107059
:1004000070470000173C024010B5044600F01AF88F
:10041000092801D10148047010BD0000153C0240BC
:1004200005480068C00705D0034804490C3801603E
:100430000349016070470000143C02403B2A190840
:100440007F6E5D4C08B509200090FFF783FF009098
:1004500002E0FFF77FFF00909DF800000128F8D030
:100460009DF8000008BD2DE9F041002201274FF062
:10047000030C07FA02F50B682B40AB422CD106683F
:1004800053000CFA03F4A64306600E79D0F80080FE
:100490009E4046EA080606600E79012E01D0022E23
:1004A00012D18668A64386604E79D0F808809E40B7
:1004B00046EA080686604668AE43466045688E791F
:1004C0009640B6B235434560C568A543C560CC7952
:1004D0009C40C3681C43C460521C102AC9D3BDE8A9
:1004E000F08110B54B07DB0E9A40C90800EB810084
:1004F000016A0F249C40A1430162016A1143016219
:1005000010BD41837047FEE710B5FFF789FFF32068
:10051000FFF71AFF18A000F02BFB1DA000F028FB2E
:100520005520FFF771FFFFF753FFFFF78BFF12A076
:1005300000F01EFB23A000F01BFB0020FFF75AFF7A
:10054000AA20FFF761FFFFF743FF2E492C48086000
:10055000891D00140880FFF73BFF0446092C04D0D6
:10056000214629A000F004FB02E037A000F000FBC8
:10057000FFF738FF204610BD3C3C2D464C41534808
:100580002D494E464F2D3E3E200D0A0A0000000028
:100590003C3C2D464C4153482D494E464F2D3E3E46
:1005A00020D5FDD4DAD7BCB1B8BBD6B8B4B5C4CC6D
:1005B000F5BCFEA3ACC7EBC4CDD0C4B5C8B4FD2E0A
:1005C0002E2E0A003C3C2D464C4153482D494E46A8
:1005D0004F2D3E3E20D5FDD4DAB2C1B3FDC4DAB210
:1005E000BF464C415348B5C4C4DAC8DDA3ACC7EB21
:1005F000C4CDD0C4B5C8B4FD2E2E2E0A0000000014
:10060000E9AAFF0F143C02403C3C2D464C415348A4
:100610002D4552524F522D3E3E20BBD6B8B4D1A1EB
:10062000CFEED7D6BDDAC4ACC8CFD6B5CAA7B0DC3A
:10063000A3ACB4EDCEF3B4FAC2EBA3BA7374617495
:1006400075733D25580A00003C3C2D464C415348EB
:100650002D494E464F2D3E3E20BBD6B8B4D1A1CF3A
:10066000EED7D6BDDAC4ACC8CFD6B5B3C9B9A6A348
:10067000A10A00002DE9FC410121882000F0F6F8D4
:100680004FF48065009501218DF8041000208DF84D
:1006900006008DF807108DF80500114F69463846A1
:1006A000FFF7E1FE6C00009469463846FFF7DBFE79
:1006B0006600009669463846FFF7D5FE0094094F5C
:1006C00069463846FFF7CFFE054918310D800C808A
:1006D0000E8021463846FFF714FFBDE8FC8100007C
:1006E000001C0240000C0240FEE7704770B5144841
:1006F0000468801D058813A000F03AFA214617A06F
:1007000000F036FA294622A000F032FA0DA000F0DF
:100710002FFA2EA000F02CFAFFF742FE60B139A0AC
:1007200000F026FAFFF74EFE40F6FF71FFF742FE9B
:10073000BDE87040FFF72CBE3EA000F019FAF1E7CB
:10074000143C02403C3C2D464C4153482D494E46FA
:100750004F2D3E3E200D0A0A000000003C3C2D4675
:100760004C4153482D494E464F2D3E3E20D1A1CFFE
:10077000EED7D6BDDABCC4B4E6C6F74F50544352E8
:10078000B5C4C4DAC8DDA3BA3078253038580A00B9
:100790003C3C2D464C4153482D494E464F2D3E3E44
:1007A00020D1A1CFEED7D6BDDABCC4B4E6C6F74F90
:1007B0005054435231B8DF3136CEBBB5C4C4DAC869
:1007C000DDA3BA3078253034580A00003C3C2D4671
:1007D0004C4153482D494E464F2D3E3E202D2D2D48
:1007E0002D2D2D2D2D2D2D2D2D2DB6C1B1A3BBA41D
:1007F000BCB6B1F02D2D2D2D2D2D2D2D2D2D2D2DCA
:100800002D0A00003C3C2D464C4153482D494E4694
:100810004F2D3E3E20C4DAB2BF464C415348B6C1CC
:10082000B1A3BBA4BCB6B1F0CEAA4C4556454C31E1
:100830000A0000003C3C2D464C4153482D494E4691
:100840004F2D3E3E2053544D3332C4DAB2BF464C96
:10085000415348B6C1B1A3BBA4BCB6B1F0CEAA4CBB
:100860004556454C300A000070470000054A0029F3
:1008700003D0116801431160704711688143116012
:100880007047000030380240054A002903D0116843
:100890000143116070471168814311607047000087
:1008A0004438024070B5244B196801F00C01234C08
:1008B00000291ED0224E04291DD008291DD0046015
:1008C000196801F0F00109091E4A545C0168E14011
:1008D00041601C6804F4E054A40A145D21FA04F495
:1008E00084601B6803F460435B0BD25CD140C16041
:1008F00070BD0460E4E70660E2E70F4A121F11686A
:10090000C1F38055116801F03F0135B1B6FBF1F13B
:100910001468C4F38814614305E0B4FBF1F1146872
:10092000C4F3881461431268C2F30142521C52009E
:10093000B1FBF2F10160C3E7083802400024F40083
:1009400040787D0100000120704700001CB50021A7
:10095000019100912E4A106840F4803010604FF4ED
:10096000A043106800F4003000900198401C0190F2
:10097000009810B901989842F3D11068800302D50D
:100980000120009000E00091009801283FD120480C
:100990004030016841F0805101601E49086840F410
:1009A000404008601A48083003680360036843F455
:1009B00000430360036843F4A0530360041F164B15
:1009C0002360136843F08073136013689B01FCD5A8
:1009D0000A6842F480320A604A68D203FCD50A6889
:1009E00042F400320A604A689203FCD50B4A40F296
:1009F00005711160016821F003010160016841F097
:100A0000020101600168C1F381010229FAD11CBD14
:100A10000038024000700040195A4007003C024074
:100A20007047000010B51248016841F47001016080
:100A30001048016841F0010101600E4A00210832AE
:100A4000116002680C4B1A400260031D0B4A1A60C9
:100A5000026822F48022026006480C300160FFF731
:100A600075FF03494FF000508039086010BD000049
:100A700088ED00E000380240FFFFF6FE1030002451
:100A8000002904D0818941F4005181817047818916
:100A900021F40051818170470246002012880A42E9
:100AA00000D00120704700007FB504460D46208A23
:100AB00020F44051E88808432082A08941F20C616B
:100AC0008843A9882A8911436A8902431143A18175
:100AD000A08A20F44071A8890843A0826846FFF7E5
:100AE000E1FE1E48844202D01D48844201D1039891
:100AF00000E00298A189090408D500EBC00101EBD0
:100B0000001029684900B0FBF1F007E000EBC001DC
:100B100001EB001029688900B0FBF1F06422B0FB02
:100B2000F2F109010B096FF018056B4300EB83002C
:100B3000A3891D044FF0320307D503EBC000B0FBBF
:100B4000F2F000F00700084306E003EB0010B0FBF2
:100B5000F2F000F00F00084320817FBD001001403B
:100B600000140140C1F3080181807047FEE70000D6
:100B70000FB4054B10B503A9044A029800F018F809
:100B800010BC5DF814FB00001510002010000120BF
:100B900002E008C8121F08C1002AFAD17047704746
:100BA000002001E001C1121F002AFBD170470000A4
:100BB0002DE9FF4F8DB00F460546002606E025289B
:100BC0000BD0DDE90F1290476D1C761C28780028A9
:100BD000F5D111B03046BDE8F08F0024A246A14601
:100BE0000122EC4900E0044315F8013F203B02FAE2
:100BF00003F00842F7D128782A2810D06FF02F028E
:100C00002878A0F13001092914D80AEB8A0102EBF7
:100C1000410144F0020400EB010A6D1CF0E701CF32
:100C20005FEA000A03D544F40054CAF1000A44F014
:100C300002046D1C28782E2817D115F8010F44F0F6
:100C400004042A280ED06FF02F022878A0F130017A
:100C500009290AD809EB890102EB410100EB0109DE
:100C60006D1CF2E757F8049B6D1C28786C280FD098
:100C700006DC4C2817D068280DD06A2814D104E06F
:100C8000742810D07A280FD10DE044F400140AE043
:100C900044F4801401E044F440146978814202D1A4
:100CA00004F580146D1C6D1C2A786E2A1FD00CDC94
:100CB000632A31D004DC002A8BD0582A11D1A3E05A
:100CC000642A68D0692A0CD165E0732A2ED004DC2E
:100CD0006F2A73D0702A04D19BE0752A6FD0782ACE
:100CE0006ED01046DDE90F129047761C50E1C4F338
:100CF0000250022806D0032809D0042801CF09D0C9
:100D0000066045E101CFF117C0E9006140E101CF84
:100D100006803DE106703BE117F8040B8DF80000FA
:100D200000208DF80100EB46012003E057F804BBDA
:100D30004FF0FF3061074FF0000102D40DE008F1E1
:100D40000101884649450FDA8045F8DB1BF8081099
:100D50000029F4D108E008F1010188468142FADB5C
:100D60001BF808100029F6D1DDE90F23AAEB0800D3
:100D70008146214600F036F9304400EB080604E0D5
:100D8000DDE90F121BF8010B9047B8F10108F7D20B
:100D900021464846F7E00A21C4F302534FF0000B06
:100DA0000891022B04D001CFC117032B09D00AE010
:100DB000FF1D27F00707F7E8020108E032E01FE017
:100DC00020E000B2C117042B01D140B2C117031EAD
:100DD00071F1000307DA4FF0000CD0EB0C006CEB64
:100DE00001012D2302E0230504D52B238DF82430A7
:100DF000012303E0E30701D02023F7E7984658E0FA
:100E00000A2110E010210EE010204FF0000B089096
:100E10000CE010214FF0000B44F004044FF00809DF
:100E2000089103E008214FF0000B0891C4F302532E
:100E3000022B04D001CF0021032B06D006E0FF1DBA
:100E400027F00707F7E8020103E080B2042B00D186
:100E5000C0B24FF0000823072BD5702A07D0DDF869
:100E600020C08CF0100C5CEA0B0C05D00EE0402387
:100E70008DF82430012308E050EA010306D0302326
:100E80008DF824308DF8252002239846DDF820C007
:100E90008CF0080C5CEA0B0C0BD150EA010301D179
:100EA000630706D530238DF824304FF00108A9F1EF
:100EB0000109582A04D038A20B9208AA0A920BE022
:100EC0003AA2F9E75B46089AFFF78CF90B9B9B5C0B
:100ED0000A9A521E0A92137050EA0102F2D10A983D
:100EE000ADEB000000F1200B600702D524F4803444
:100EF00001E04FF00109D94502DDA9EB0B0000E04C
:100F0000002000EB0B0141440890AAEB010AE0032A
:100F100006D4DDE90F232146504600F063F806446D
:100F20004FF0000908E009A911F80900DDE90F12E6
:100F3000904709F10109761CC145F4DBE0030CD5AB
:100F4000DDE90F232146504600F04CF8064404E04A
:100F5000DDE90F1230209047761C0899481E089052
:100F60000029F5DC08E00A980A990078491C0A91E2
:100F7000DDE90F129047761CBBF10001ABF1010BCC
:100F8000F1DC21465046DDE90F2300F019F8064454
:100F90006D1C1BE6092801003031323334353637F9
:100FA00038396162636465660000000030313233B5
:100FB0003435363738394142434445460000000055
:100FC0002DE9F041044600251E461746880404D446
:100FD00005E039462020B0476D1C641EF9D528462F
:100FE000BDE8F0812DE9F041044600251E469046FB
:100FF000C80301D5302700E02027880404D505E088
:1010000041463846B0476D1C641EF9D52846BDE8F8
:10101000F081000070B50446064DE1B22846FFF7A6
:10102000A1FD80212846FFF737FD0028F9D0204692
:1010300070BD000000100140FFF71CFBFFF738F9FE
:10104000194C4FF48068A4F80080E5142580A6149C
:10105000A71C3E8015A0FFF78BFD2348FFF788FDF6
:1010600022A0FFF785FD27A0FFF782FD35A0FFF73F
:101070007FFDFFF73BFBFFF747FA092809D041A0A6
:10108000FFF776FDA7F8008025802680FFF72EFB6E
:10109000FEE74948FFF76CFD4848FFF769FDA4F8F3
:1010A00000803D802680F1E7181C02403C3C2D4624
:1010B0004C4153482D494E464F2D3E3E20B1BEB3C4
:1010C000CCD0F2BDABBBE1B1BBCFC2D4D8B5BD5320
:1010D000544D3332B5C4C4DAB2BF5352414DD4CBB0
:1010E000D0D0A1A30A000000C01100203C3C2D4636
:1010F0004C4153482D494E464F2D3E3E200D0A0A85
:10110000000000003C3C2D464C4153482D494E46C2
:101110004F2D3E3E202D2D2D2DD5E2CAC7D2BBB876
:10112000F653544D3332D0BEC6ACC4DAB2BF464CCF
:10113000415348BDE2CBF8B3CCD0F22D2D2D2D0A72
:10114000000000003C3C2D464C4153482D494E4682
:101150004F2D3E3E20B3CCD0F2BBE1B0D1D0BEC6C5
:10116000ACB5C4C4DAB2BF464C415348D1A1CFEEAE
:10117000D7D6BDDABBD6B8B4CEAAC4ACC8CFD6B524
:101180000A0000003C3C2D464C4153482D494E4638
:101190004F2D3E3E20D1A1CFEED7D6BDDABBD6B87B
:1011A000B4B3C9B9A6CAA7B0DCA3ACC7EBB8B4CE78
:1011B000BBD6D8CAD40A0000141200205C1200204A
:1011C0003C3C2D464C4153482D494E464F2D3E3E0A
:1011D00020CFC2D4D8B3CCD0F2C7B0A3ACC7EBC831
:1011E000B7C8CFB0D1CAB5D1E9B0E5B5C4424F4F09
:1011F0005430BACD424F4F5431D2FDBDC5B6BCBDFF
:10120000D3B5BD332E3356B5E7D4B4B4A6A3A1A34A
:10121000A10A00003C3C2D464C4153482D494E4606
:101220004F2D3E3E20D1A1CFEED7D6BDDABBD6B8EA
:10123000B4B3C9B9A6A3ACC7EBB0D1424F4F543039
:10124000BACD424F4F5431D2FDBDC5B6BCC1ACBDC5
:10125000D3B5BD474E44A3AC0A0000003C3C2D462C
:101260004C4153482D494E464F2D3E3E20C8BBBAF7
:10127000F3CBE6B1E3D5D2D2BBB8F6C6D5CDA8B58F
:10128000C4B3CCD0F2A3ACCFC2D4D8B3CCD0F2B5D7
:10129000BDD0BEC6ACB5C4C4DAB2BF464C4153489B
:1012A000BDF8D0D0B2E2CAD40A000000CC120020AF
:1012B0000000012014000000900B0020E01200202C
:1012C0001400012004040000A00B00200000000016
:1012D00001020304010203040607080900000000DC
:04000005200001AD29
:00000001FF
