:020000042000DA
:1000000000040120C10100201B030020A3020020E6
:1000100019030020090200207504002000000000E0
:100020000000000000000000000000003D03002070
:100030000B020020000000001D030020150400201A
:10004000DB010020DB010020DB010020DB010020C0
:10005000DB010020DB010020DB010020DB010020B0
:10006000DB010020DB010020DB010020DB010020A0
:10007000DB010020DB010020DB010020DB01002090
:10008000DB010020DB010020DB010020DB01002080
:10009000DB010020DB010020DB010020DB01002070
:1000A000DB010020DB010020DB010020DB01002060
:1000B000DB010020DB010020DB010020DB01002050
:1000C000DB010020DB010020DB010020DB01002040
:1000D000DB010020DB010020DB010020DB01002030
:1000E000DB010020DB010020DB010020DB01002020
:1000F000DB010020DB010020DB010020DB01002010
:10010000DB010020DB010020DB010020DB010020FF
:10011000DB010020DB010020DB010020DB010020EF
:10012000DB010020DB010020DB010020DB010020DF
:10013000DB010020DB010020DB010020DB010020CF
:10014000DB010020DB010020DB010020DB010020BF
:10015000DB010020DB010020DB010020DB010020AF
:10016000DB010020DB010020DB010020DB0100209F
:10017000DB010020DB010020DB010020DB0100208F
:10018000DB010020DB010020DB010020DB0100207F
:10019000DB010020DB010020DB010020DB0100206F
:1001A000DB010020DB010020DB010020DFF80CD0A8
:1001B00000F018F8004800479504002000040120D2
:1001C0000648804706480047FEE7FEE7FEE7FEE7F1
:1001D000FEE7FEE7FEE7FEE7FEE7FEE71904002084
:1001E000AD010020064C074D06E0E06840F0010339
:1001F00094E8070098471034AC42F6D3FFF7DAFFD3
:10020000AC050020BC050020FEE7704701B502E008
:100210000098401E009000980028F9D108BD2DE9F3
:10022000F041002201274FF0030C07FA02F50B689A
:100230002B40AB422CD1066853000CFA03F4A643C2
:1002400006600E79D0F800809E4046EA08060660F7
:100250000E79012E01D0022E12D18668A643866047
:100260004E79D0F808809E4046EA080686604668C7
:10027000AE43466045688E799640B6B235434560D8
:10028000C568A543C560CC799C40C3681C43C46065
:10029000521C102AC9D3BDE8F08141837047018305
:1002A0007047FEE72DE9FC410121882000F038F875
:1002B0004FF48065009501218DF8041000208DF821
:1002C00006008DF807108DF80500114F6946384675
:1002D000FFF7A5FF6C00009469463846FFF79FFFC3
:1002E0006600009669463846FFF799FF0094094F6B
:1002F00069463846FFF793FF054918310D800C8099
:100300000E8021463846FFF7C8FFBDE8FC8100009B
:10031000001C0240000C0240FEE7704770470000DE
:10032000054A002903D01168014311607047116824
:100330008143116070470000303802407047000070
:100340001CB50021019100912E4A106840F48030C4
:1003500010604FF4A043106800F400300090019842
:10036000401C0190009810B901989842F3D1106890
:10037000800302D50120009000E000910098012840
:100380003FD120484030016841F0805101601E4952
:10039000086840F4404008601A4808300368036069
:1003A000036843F400430360036843F4A05303600D
:1003B000041F164B2360136843F0807313601368A7
:1003C0009B01FCD50A6842F480320A604A68D20375
:1003D000FCD50A6842F400320A604A689203FCD5F0
:1003E0000B4A40F205711160016821F003010160C0
:1003F000016841F0020101600168C1F38101022935
:10040000FAD11CBD0038024000700040195A400764
:10041000003C02407047000010B51248016841F4EA
:10042000700101601048016841F0010101600E4A4D
:1004300000210832116002680C4B1A400260031D53
:100440000B4A1A60026822F48022026006480C30CF
:100450000160FFF775FF03494FF0005080390860D5
:1004600010BD000088ED00E000380240FFFFF6FEFE
:1004700010300024FEE702E008C8121F08C1002A5D
:10048000FAD170477047002001E001C1121F002A15
:10049000FBD17047FFF706FFDFF808914FF4806447
:1004A000DFF800B16500DFF8008109F11A096FF08B
:1004B0007F47A600A9F1020A21465846FFF7EDFE44
:1004C0003846FFF7A3FE21465846FFF7E8FE2946C7
:1004D0005846FFF7E2FE3846FFF798FE2946584691
:1004E000FFF7DDFE31465846FFF7D7FE3846FFF7E7
:1004F0008DFE31465846FFF7D2FE29464046FFF7AB
:10050000CCFE3846FFF782FE29464046FFF7C7FE7D
:10051000A9F80040AAF80050AAF800603846FFF792
:1005200075FEAAF80040A9F80050AAF80060384605
:10053000FFF76CFEAAF80040AAF80050A9F8006086
:100540003846FFF763FEA9F80040A9F80050AAF862
:1005500000603846FFF75AFEA9F80040AAF800509C
:10056000A9F800603846FFF751FEAAF80040A9F844
:100570000050A9F800603846FFF748FEA9F800408F
:10058000A9F80050A9F800603846FFF73FFEAAF826
:100590000040AAF80050AAF800603846FFF736FE7F
:1005A0008AE70000001C0240000C0240BC0500204D
:0C05B00000000120000400008604002070
:04000005200001AD29
:00000001FF
