:020000040800F2
:1000000020040020C10100080B090008AB0800080B
:100010000909000861070008C1100008000000007D
:100020000000000000000000000000009D0E00081D
:1000300063070008000000000D090008750F0008A4
:10004000DB010008DB010008DB010008DB01000820
:10005000DB010008DB010008DB010008DB01000810
:10006000DB010008DB010008DB010008DB01000800
:10007000DB010008DB010008DB010008DB010008F0
:10008000DB010008DB010008DB010008DB010008E0
:10009000DB010008DB010008DB010008DB010008D0
:1000A000DB010008DB010008DB010008DB010008C0
:1000B000DB010008DB010008DB010008DB010008B0
:1000C000DB010008DB010008DB010008DB010008A0
:1000D000DB010008DB010008DB010008DB01000890
:1000E000DB010008DB010008DB010008DB01000880
:1000F000DB010008DB010008DB010008DB01000870
:10010000DB010008DB010008DB010008DB0100085F
:10011000DB010008DB010008DB010008DB0100084F
:10012000DB010008DB010008DB010008DB0100083F
:10013000DB010008DB010008DB010008DB0100082F
:10014000DB010008DB010008DB010008DB0100081F
:10015000DB010008DB010008DB010008DB0100080F
:10016000DB010008DB010008DB010008DB010008FF
:10017000DB010008DB010008DB010008DB010008EF
:10018000DB010008DB010008DB010008DB010008DF
:10019000DB010008DB010008DB010008DB010008CF
:1001A000DB010008DB010008DB010008DFF80CD0F0
:1001B00000F0B4FA00480047DD19000820040020D0
:1001C0000648804706480047FEE7FEE7FEE7FEE7F1
:1001D000FEE7FEE7FEE7FEE7FEE7FEE7790F000831
:1001E000AD010008D2B201E000F8012B491EFBD29C
:1001F00070470022F6E710B513460A460446194632
:10020000FFF7F0FF204610BD2DE9FE4F804681EA42
:100210000300C00F0C46009021F0004123F0004580
:10022000B8EB0200A94105D24046214690461C4643
:100230000B46024623F00040104347D0270DC7F37A
:100240000A00C3F30A510290401A019040286BDA69
:10025000C3F3130040F4801B0098924620B10023A2
:10026000D2EB030A63EB0B0B01985946C0F1400235
:10027000504600F0C4F806460D4650465946019ACD
:1002800000F0CCF810EB08006141002487EA11521D
:1002900084EAE7731A4340D0009A62B3019A012AB4
:1002A0004FEA075215DC001B61EB02014FF00042E0
:1002B00002EA0752CDE90042001C41F580113246A6
:1002C0002B4600F0CCF803B0BDE8F08F4046214645
:1002D000F9E7001B61EB0201001C41F580130018D7
:1002E0005B412018A2F5001747EB030140EAD570E7
:1002F000B6196D4111E06D084FEA360645EAC07542
:100300004FEA0752001B61EB0201001C41F580110E
:1003100049084FEA30000019514132462B4603B0DC
:10032000BDE8F04F00F08CB8009801224000002397
:10033000D0EB020263EBE073009821464FEAE074D1
:10034000B8EB000061EB0401E9E783F000435BE7F1
:1003500081F0004158E70EB540F23341029100218F
:10036000CDE900110A460B4600F079F803B000BD54
:1003700030B50B46014600202022012409E021FA75
:1003800002F59D4205D303FA02F5491B04FA02F572
:100390002844151EA2F10102F1DC30BD2DE9F05F09
:1003A0000546002092469B468846064681464024E4
:1003B0001BE0284641464746224600F0C1F9534615
:1003C0005A46C01A914110D311461846224600F0F1
:1003D00016F82D1A67EB01084F462246012000212E
:1003E00000F00DF817EB00094E41201EA4F10104A6
:1003F000DFDC484631462A464346BDE8F09F202AC6
:1004000004DB203A00FA02F1002070479140C2F16B
:10041000200320FA03F3194390407047202A06DB9B
:10042000CB17203A41FA02F043EAE07306E041FAC2
:1004300002F3D040C2F120029140084319467047B0
:1004400010B5141E73F1000408DA401C41F10001DC
:1004500092185B411A4301D120F0010010BD2DE933
:10046000F04D92469B4611B1B1FA81F202E0B0FA2A
:1004700080F220329046FFF7C2FF04460F4640EA62
:100480000A0041EA0B0153465A46084313D011466D
:1004900053EA010019D0C8F14002504600F050F96B
:1004A00005460E46504659464246FFF7A8FF084308
:1004B00005D0012004E020463946BDE8F08D00203B
:1004C000054346EAE0762C4337430A986305E40A7D
:1004D000A0EB08000022FD0A44EA47540A3002D586
:1004E00000200146E9E7010510196941DDE90845E9
:1004F00000196941BDE8F04DA2E72DE9FE4F81EA00
:10050000030404F0004421F0004100944FF0000B7C
:1005100023F0004350EA01045ED052EA03045BD0AA
:10052000C3F30A54C1F30A552C44A4F2F3340194E2
:10053000A0FB0254C1F3130141F48011C3F3130370
:1005400043F4801301FB024400FB034E840A970A24
:1005500044EA815447EA8357A4FB076802958D0A51
:1005600005FB07854FEA932C04FB0C542705029DDD
:100570004FEA065847EA1637B5EB08056EEB070C4D
:10058000870E920E47EA811742EA8312A7FB020107
:10059000B6EB0B0164EB00042B0D43EA0C335E1841
:1005A00044EB1C50DA465146E7FB0201C5F3130445
:1005B0004FEA0B3343EA14534FEA0432019C43EAF7
:1005C0000603A4F10C040294009CCDE900B4FFF7EB
:1005D00046FF03B0BDE8F08F00200146F9E72DE9A2
:1005E000F04D81EA030404F0004B21F0004514466D
:1005F0004FF0000A23F0004150EA050220D054EAEF
:1006000001021DD0C5F30A570246C5F31303C1F317
:100610001300C1F30A5640F4801543F48013A7EB8E
:100620000608101BD64608F2FD3873EB050002D30E
:1006300008F1010801E092185B41B8F1000F03DAFC
:1006400000200146BDE8F08D00204FF480110646E1
:1006500084460EE0171B73EB050705D3121B63EBF3
:10066000050306434CEA010C49084FEA3000921892
:100670005B4150EA0107EDD152EA030012D082EA51
:10068000040083EA0501084305D0101BAB4106D2E4
:100690000122002306E000224FF0004302E06FF049
:1006A000010253101AEB06004CEB085110EB0A0044
:1006B00041EB0B01BDE8F04DFFF7C2BEC1F30A529A
:1006C000C1F3130140F2FF3341F480119A4202DA80
:1006D00000200146704740F233439A42A2F233426F
:1006E00002DC524200F02CB8FFF789BE30B5041E80
:1006F00071F1000404DB4FF00044404264EB01015F
:10070000141E73F1000405DB1C464FF000435242F7
:1007100063EB0403994208BF904230BD064C074D7D
:1007200006E0E06840F0010394E8070098471034C1
:10073000AC42F6D3FFF73EFD181D0008381D000837
:10074000202A04DB203A21FA02F00021704721FA26
:1007500002F3D040C2F1200291400843194670478D
:10076000FEE7704770B586B00121084600F0D0F86A
:100770000121102000F0DAF81E4E07220A2130462F
:1007800000F083F807220921304600F07EF80024AB
:100790008DF8164001208DF8170002258DF81450B1
:1007A000410204918DF8155004A9304600F02FF84D
:1007B0008DF814506802049004A9304600F027F820
:1007C0004FF4E1300090ADF80440ADF80640ADF8CC
:1007D0000840ADF80C400C20ADF80A00064C694604
:1007E000204600F00BFC0121204600F0F3FB06B090
:1007F00070BD0000000002400010014001B502E0A1
:100800000098401E009000980028F9D108BD2DE9FD
:10081000F041002201274FF0030C07FA02F50B68A4
:100820002B40AB422CD1066853000CFA03F4A643CC
:1008300006600E79D0F800809E4046EA0806066001
:100840000E79012E01D0022E12D18668A643866051
:100850004E79D0F808809E4046EA080686604668D1
:10086000AE43466045688E799640B6B235434560E2
:10087000C568A543C560CC799C40C3681C43C4606F
:10088000521C102AC9D3BDE8F08110B54B07DB0E0E
:100890009A40C90800EB8100016A0F249C40A143E3
:1008A0000162016A1143016210BDFEE72DE9FC41BE
:1008B0000121802000F02CF84FF480640094012086
:1008C0008DF8040000218DF806108DF807008DF8D2
:1008D00005100C4F69463846FFF799FF66000096F1
:1008E00069463846FFF793FFA500009569463846EC
:1008F000FFF78DFF03481830048006800580BDE8AF
:10090000FC810000001C0240FEE7704770470000B9
:10091000054A002903D0116801431160704711682E
:10092000814311607047000030380240054A0029B9
:1009300003D0116801431160704711688143116051
:10094000704700004438024070B5244B196801F02C
:100950000C01234C00291ED0224E04291DD0082949
:100960001DD00460196801F0F00109091E4A545CA9
:100970000168E14041601C6804F4E054A40A145D7D
:1009800021FA04F484601B6803F460435B0BD25CBF
:10099000D140C16070BD0460E4E70660E2E70F4A41
:1009A000121F1168C1F38055116801F03F0135B184
:1009B000B6FBF1F11468C4F38814614305E0B4FB9D
:1009C000F1F11468C4F3881461431268C2F3014260
:1009D000521C5200B1FBF2F10160C3E7083802403B
:1009E0000024F40040787D0100000020002904D09C
:1009F000018841F0400101807047018821F04001E9
:100A0000018070472DE9F04104460F4615460F4816
:100A100040260680032000F093F9C7F3074000F05A
:100A20008FF9C7F3072000F08BF9F8B200F088F9CE
:100A300004E0FF2000F084F904F8010B6D1EADB254
:100A4000F7D20248801E0680BDE8F0811A140240E9
:100A50002DE9F04706460D46E8B24142CFB2140AEE
:100A600002F0FF094FF48078002812D0E8B240422B
:100A7000C0B205EB000A34B3D01B80B2040A00F008
:100A8000FF093A462946304600F0B8F855463E443C
:100A900039E074B929463046BDE8F04700F0AEB8F9
:100AA00042462946304600F0A9F805F5807506F55E
:100AB0008076641EE4B2F3D24A4629463046BDE849
:100AC000F04700F09BB8B9450ED9A9EB0700C4B2B6
:100AD0003A462946304600F091F85146F019224630
:100AE000BDE8F04700F08AB829463046BDE8F04737
:100AF00000F084B842462946304600F07FF805F5FC
:100B0000807506F58076641EE4B2F3D2B9F1000F69
:100B100006D04A4629463046BDE8F04700F06EB898
:100B2000BDE8F0872DE9F04387B001212020FFF7D1
:100B3000EFFE01210805FFF7F9FEDFF8B890052266
:100B400007214846FFF7A1FE052208214846FFF786
:100B50009CFE052209214846FFF797FE8020009061
:100B600002258DF805508DF8045000248DF80640BC
:100B70008DF8074069464846FFF749FEE8010090B6
:100B800069464846FFF743FE4FF40078CDF80080F1
:100B900069464846FFF73BFE4027009701268DF83F
:100BA000046069464846FFF732FE12481830078055
:100BB000ADF808404FF48270ADF80A00ADF80C4073
:100BC000ADF80E50ADF81060ADF81280ADF81440DD
:100BD000ADF816400720ADF81800074C02A92046D2
:100BE00000F01FF901212046FFF700FF07B0BDE824
:100BF000F083000000140240005001402DE9F04154
:100C000005460F46144600F0F3F8134840260680C8
:100C1000022000F095F8C7F3074000F091F8C7F301
:100C2000072000F08DF8F8B200F08AF8B000844296
:100C300008D9044609A000F045FA03E0287800F03E
:100C40007FF86D1C641EA4B2F8D20348801E068093
:100C5000BDE8F04100F0ACB81A1402403C3C2D460F
:100C60004C4153482D4552524F522D3E3E20535039
:100C7000495F464C4153485F5061676557726974DC
:100C80006520746F6F206C61726765210A00000037
:100C900010B50B4840240480AB2000F051F8FF2031
:100CA00000F04EF8FF2000F04BF8FF2000F048F86D
:100CB000FF2000F045F80249891E0C8010BD00009D
:100CC0001A14024070B50D48402404809F2000F0A3
:100CD00037F8FF2000F034F80546FF2000F030F828
:100CE0000646FF2000F02CF801460448801E0480D0
:100CF000280440EA0620084370BD00001A14024090
:100D000070B5044600F074F800F052F80B48402526
:100D10000580202000F014F8C4F3074000F010F81C
:100D2000C4F3072000F00CF8E0B200F009F8034823
:100D3000801E0580BDE8704000F03AB81A140240E9
:100D40002DE9F0410746184C4FF480552560174EA9
:100D500009E02068411E216005D2002000F07EF8E5
:100D6000C0B2BDE8F0810221304600F04FF8002803
:100D7000EFD03946304600F052F8256008E021688F
:100D80004A1E226004D2012000F068F8C0B2E8E7F1
:100D90000121304600F03AF80028F0D0304600F04B
:100DA0003CF8C0B2DDE70000180000200050014010
:100DB00070B50D48402505800520FFF7C1FF0B4C9D
:100DC000A8012060FF20FFF7BBFF21684A1E2260B8
:100DD00004D2BDE87040042000F040B8C007F1D153
:100DE0000148801E058070BD1A14024018000020C2
:100DF00010B50548402404800620FFF7A1FF0248F3
:100E0000801E048010BD00001A140240024600201B
:100E100012890A4200D00120704780897047818181
:100E2000704730B5028802F441530A884C88CD8857
:100E300022438C882C4322430C8922434C89224331
:100E40008C892243CC8922431A430280828B22F46C
:100E500000628283098A018230BD000010B501461C
:100E600002A000F02FF9002010BD00003C3C2D46F0
:100E70004C4153482D4552524F522D3E3E20535027
:100E80004920B5C8B4FDB3ACCAB1216572726F72A6
:100E9000436F6465203D2025640A00007047000010
:100EA0001CB50021019100912E4A106840F4803059
:100EB00010604FF4A043106800F4003000900198D7
:100EC000401C0190009810B901989842F3D1106825
:100ED000800302D50120009000E0009100980128D5
:100EE0003FD120484030016841F0805101601E49E7
:100EF000086840F4404008601A48083003680360FE
:100F0000036843F400430360036843F4A0530360A1
:100F1000041F164B2360136843F08073136013683B
:100F20009B01FCD50A6842F480320A604A68D20309
:100F3000FCD50A6842F400320A604A689203FCD584
:100F40000B4A40F205711160016821F00301016054
:100F5000016841F0020101600168C1F381010229C9
:100F6000FAD11CBD0038024000700040195A4007F9
:100F7000003C02407047000010B51248016841F47F
:100F8000700101601048016841F0010101600E4AE2
:100F900000210832116002680C4B1A400260031DE8
:100FA0000B4A1A60026822F48022026006480C3064
:100FB0000160FFF775FF03494FF00060803908605A
:100FC00010BD000088ED00E000380240FFFFF6FE93
:100FD00010300024002904D0818941F4005181811E
:100FE0007047818921F400518181704702460020B9
:100FF00012880A4200D00120704700007FB50446E5
:101000000D46208A20F44051E88808432082A089B8
:1010100041F20C618843A9882A8911436A890243F5
:101020001143A181A08A20F44071A8890843A082BD
:101030006846FFF789FC1E48844202D01D4884425E
:1010400001D1039800E00298A189090408D500EBBA
:10105000C00101EB001029684900B0FBF1F007E086
:1010600000EBC00101EB001029688900B0FBF1F032
:101070006422B0FBF2F109010B096FF018056B4314
:1010800000EB8300A3891D044FF0320307D503EB67
:10109000C000B0FBF2F000F00700084306E003EBED
:1010A0000010B0FBF2F000F00F00084320817FBD7C
:1010B0000010014000140140C1F308018180704715
:1010C000FEE700000FB4054B10B503A9044A0298CF
:1010D00000F0DAF810BC5DF814FB0000B919000844
:1010E0001C00002002E008C8121F08C1002AFAD123
:1010F00070477047002001E001C1121F002AFBD198
:10110000704700002DE9FF5F82B00021DDE9043067
:10111000020DDDF840B0034318D044F61050A2F29F
:10112000FF3242431514119801281FD0A5EB0B0084
:10113000401C5FEA000A4FF000064E4FDFF838917E
:10114000B046504615D5CAF1000413E011980124A9
:101150004AA3012801D16FEA0B010298119AC0E954
:101160000031C0E9024206B0BDE8F09FCBF10000BB
:10117000DFE704460021404A491842EB0450CDE91C
:10118000001012E0E00707D032463B464046494691
:10119000FFF7B3F98046894632463B46104619466A
:1011A000FFF7ABF906460F466410002CEAD1DDE9E3
:1011B0000401DDE90023BAF1000F06DAFFF79DF91B
:1011C00042464B46FFF799F905E0FFF708FA424619
:1011D0004B46FFF704FA04460E460022284BFFF761
:1011E00085FA03D84FF0FF30014607E00022254B77
:1011F00020463146FFF708F8FFF760FA102409E0AF
:10120000002C0ADB0A220023FFF7C8F8039B3032C8
:101210001A55641E50EA0102F2D1641C039AC4F10B
:1012200011031444119A012A03D0012208430DD15D
:101230000AE0084304D000204FF0110B119072E730
:10124000A3EB0B056D1E0DE05B4504DD4FF00002C6
:1012500005F1010504E003DA4FF00002A5F10105F4
:10126000002AECD002981199C0E90231C0E900458A
:1012700079E70000000014400000F03F300000005B
:101280000000F0430000E03F2DE9FF4F95B09B4682
:101290008946064600250FE2252877D100242746F7
:1012A000F84A0121059400E0044316F8013F203B71
:1012B00001FA03F01042F7D130782A2811D06FF0EC
:1012C0002F033078A0F13002092A16D8059A44F08D
:1012D000020402EB820203EB42021044761C0590EA
:1012E000EFE759F8042B0592002A03DA504244F440
:1012F0000054059044F00204761C30782E2816D154
:1013000016F8010F44F004042A280DD06FF02F02C4
:101310003078A0F13003092B09D807EB870302EBE3
:101320004303C718761CF3E759F8047B761C307822
:101330006C280FD006DC4C2817D068280DD06A28FE
:1013400014D104E0742810D07A280FD10DE044F4B1
:1013500000140AE044F4801401E044F4401472786C
:10136000824202D104F58014761C761C30786628FF
:101370000BD013DC582877D009DC002875D045281D
:10138000F6D04628F4D047281AD19DE118E063280A
:1013900035D0642879D0652812D195E1702873D0B2
:1013A00008DC6728F1D069286FD06E280DD06F282F
:1013B00006D1B5E073282CD0752875D0782874D064
:1013C0005A46179990476D1C75E1C4F302500228E4
:1013D00009D003280DD0D9F8001004280DD00D60D5
:1013E00009F1040967E1D9F80010EA17C1E90052D0
:1013F000F6E7D9F800100D80F2E70D70F0E719F864
:10140000041B8DF8001000208DF80100EA46012031
:1014100003E059F804AB4FF0FF3061074FF00001D3
:1014200002D40DE008F101018846B9420FDA804587
:10143000F8DB1AF808100029F4D108E008F10101DE
:1014400088468142FADB1AF808100029F6D105987F
:101450005B46A0EB080721463846179A00F094FA3D
:10146000284400EB080507E04DE029E10DE01AF8FB
:10147000010B5A4617999047B8F10108F7D25B461D
:1014800021463846179A13E142E00A220092C4F33B
:1014900002524FF0000A022A08D059F804CB032A5E
:1014A0004FEAEC710AD00DE029E02AE009F10701CA
:1014B00021F00702F2E802C1914609E00FFA8CFC24
:1014C0004FEAEC71042A03D14FFA8CFC4FEAEC711D
:1014D000002907DA0A460021DCF1000C61EB020169
:1014E0002D2202E0220504D52B228DF804200122B2
:1014F00003E0E20701D02022F7E7904659E00A21F5
:1015000002E010220DE010214FF0000A00910BE0E4
:1015100010224FF0000A44F004040827009203E070
:1015200008224FF0000A0092C4F30252022A05D0AA
:1015300059F804CB0021032A08D009E009F107017A
:1015400021F00702F2E802C1914605E01FFA8CFC87
:10155000042A01D10CF0FF0C4FF00008220728D517
:10156000702806D0009B83F0100353EA0A0305D0CD
:101570000EE040228DF80420012208E05CEA01021E
:1015800006D030228DF804208DF805000222904606
:10159000009B83F0080353EA0A030AD15CEA0102C4
:1015A00001D1620705D530228DF804204FF00108E3
:1015B0007F1E582804D034A003900EA802900DE09E
:1015C00036A0F9E753466046009AFEF7E7FE8446E8
:1015D0000398825C0298401E029002705CEA01004F
:1015E000F0D1029806A9081A00F1200A600702D576
:1015F00024F4803400E00127574502DDA7EB0A0000
:1016000000E0002000EB0A01009005984144401AD8
:101610000590E00306D45B462146179A059800F032
:10162000B3F90544002706E001A85A46C05D1799A2
:1016300090476D1C7F1C4745F6DBE0030CD55B46ED
:101640002146179A059800F09FF9054404E03020E0
:101650005A46179990476D1C0099481E0090002922
:10166000F5DC08E0029802995A460078491C02917C
:10167000179990476D1CBAF10001AAF1010AF1DC3B
:1016800065E1000009280100303132333435363746
:1016900038396162636465660000000030313233BE
:1016A000343536373839414243444546000000005E
:1016B00000F058F90544761C307800287FF4ECAD32
:1016C00019B02846BDE8F08F620700D4062709F15B
:1016D000070222F0070CFCE80223E14603F0004871
:1016E0005FEA080C02D00FF2702C0DE05FEA045C98
:1016F00002D50FF2682C07E05FEAC47C02D00FF23B
:10170000602C01E0AFF2700C4FF0FF3823F0004383
:10171000CDF850C065280CD006DC452809D04628F5
:101720001DD047283DD13DE0662818D067287ED1DE
:1017300038E00021112F01DB112000E0781CCDE9F9
:10174000000106A90EA8FFF7DDFCDDE90F010E9AE6
:1017500003910021009207F1010A04914DE04FF03E
:1017600000400097CDE9011006A90EA8FFF7CAFCBA
:10177000DDE90F0203920E9B11990022DDF80CA007
:101780000093049211B9791C00EB010AB7EB0A002F
:1017900004D4C0F1FF3007F1010A0490AAEB07005E
:1017A000019044E0012F00DA01270021112F01DD13
:1017B000112000E03846CDE9000106A90EA8FFF788
:1017C000A1FCDDE90F010E9A039100210491009222
:1017D000BA4621070CD40399514500DA8A46BAF17A
:1017E000010F05DD009AAAF10101515C302908D0F2
:1017F000B84202DA10F1040F06DA0121CDE9011036
:1018000015E0AAF10101E9E7002805DC049901448B
:101810000491AAEB000102E0411C514500DD8A461B
:101820000499401A401C01904FF00040029020079C
:1018300004D40198504501DBCDF8048000208DF8D8
:101840004F0002980DF14F07B0F1004F25D02B202B
:101850000E9002984FF0020800280CDA40420290E5
:101860002D200E9007E00A210298FEF781FD30310D
:10187000029007F8011DB8F10001A8F10108F2DC9F
:1018800002980028EFD1791E0E980870307800F089
:10189000200040F0450007F8020D12A8C01B00F11F
:1018A00007081498007800B1012000EB0A010198A4
:1018B00001EBE07105984144401A401E0590E00399
:1018C00006D45B462146179A059800F05DF805445A
:1018D0001498007818B15A46179990476D1CE00388
:1018E00024D55B462146179A059800F04DF805442B
:1018F0001CE00498002807DBDDE90301884203DDD2
:101900000098405C179901E0179930205A4690479B
:10191000049805F10105401C04900198401E0190B7
:1019200004D12E205A46179990476D1CBAF1000138
:10193000AAF1010ADDDC05E017F8010B5A461799F8
:1019400090476D1CB8F10001A8F10108F4DC5B467A
:101950002146179A0598ABE62D0000002B000000E9
:10196000200000002DE9F041044600251E461746E0
:10197000880404D405E039462020B0476D1C641E5D
:10198000F9D52846BDE8F0812DE9F041044600254F
:101990001E469046C80301D5302700E02027880462
:1019A00004D505E041463846B0476D1C641EF9D5A4
:1019B0002846BDE8F081000070B50446064DE1B24E
:1019C0002846FFF779FB80212846FFF70FFB002808
:1019D000F9D0204670BD0000001001402DED028BB3
:1019E00098B00020169030210AA8FEF702FC624849
:1019F00003C8CDE908011C2101A8FEF7FAFBFEF798
:101A000055FF5E4D4FF48069A5F80090EE142E80CE
:101A100005F10208AF14A8F80070FEF7A3FE58A065
:101A2000FFF750FBFFF77EF8FFF732F95E4C2060BE
:101A3000C820FEF7E3FEFFF745F9606022686168A1
:101A40005AA0FFF73FFB60686649884203D0606890
:101A5000491C884279D1A5F80090A8F800602F8031
:101A600061A0FFF72FFB0122002116A8FEF7CAFF95
:101A70009DF858004FF480784FF4007908AD01AE1E
:101A8000CD284AD05EA0FFF71DFBCD201690002088
:101A9000FFF736F90122002116A8FEF7D9FF00242E
:101AA00001279FED678B2046FEF755FC53EC182B62
:101AB000FEF7AAFB05EBC40203C204EB4400C0EB33
:101AC000C41007EB800046F82400641CE4B2072C25
:101AD000E9D33822414608A8FEF7BAFF1C2249463E
:101AE00001A8FEF7B5FF58A0FFF7ECFA002405EBBC
:101AF000C40090ED000B59A053EC102BFFF7E2FA55
:101B000056F8241059A0FFF7DDFA641CE4B2072C44
:101B1000EDD35AA0FFF7D6FA2CE062A0FFF7D2FA75
:101B20003822414608A8FEF76DFF1C22494601A84D
:101B3000FEF768FF60A0FFF7C5FA002405EBC400BC
:101B400090ED000B53EC102B00E00CE060A0FFF7D1
:101B5000B9FA56F8241063A0FFF7B4FA641CE4B293
:101B6000072CEBD306E0A8F800902E802F8061A010
:101B7000FFF7A8FAFEE70000101D0008181C02403D
:101B80000D0AD5E2CAC7D2BBB8F6464C415348202D
:101B9000B6C1D0B4D0A1CAFDBACDB3A4D5FBCAFD9D
:101BA000CAB5D1E9200D0A00100000200D0A466CCC
:101BB000617368494420697320307825582C2020AF
:101BC0004D616E75666163747572657220446576E9
:101BD00069636520494420697320307825580D0ACF
:101BE000000000001840EF000D0ABCECB2E2B5BDE9
:101BF00053504920464C4153482020210D0A0000F3
:101C00000D0AC3BBD3D0BCECB2E2B5BDCAFDBEDD8C
:101C1000B1EAD6BEA3AC464C415348C3BBD3D0B403
:101C2000E6B4A2CAFDBEDDA3ACBCB4BDABBDF8D06A
:101C3000D0D0A1CAFDD0B4C8EBCAB5D1E90D0A0015
:101C40009A9999999999B93FCFF2D0BEC6ACD0B4C0
:101C5000C8EBCAFDBEDDA3BA00000000D0A1CAFDDA
:101C60007478203D20254C460D0A0000D5FBCAFDA6
:101C70007478203D2025640D0A0000000D0AC7EB92
:101C8000B8B4CEBBBFAAB7A2B0E5A3ACD2D4B6C19C
:101C9000C8A1CAFDBEDDBDF8D0D0BCECD1E90D0AAB
:101CA000000000000D0ABCECB2E2B5BDCAFDBEDD0D
:101CB000B1EAD6BE0D0A00000D0AB4D3D0BEC6AC40
:101CC000B6C1B5BDCAFDBEDDA3BA0D0A0000000055
:101CD000D0A1CAFD207278203D20254C46200D0A57
:101CE00000000000D5FBCAFD207278203D2025644D
:101CF000200D0A000D0ABBF1C8A1B2BBB5BD20463C
:101D00004C415348204944210A0D000000000000C6
:101D10000000000000000000381D00080000002046
:101D200020000000E4100008581D000820000020DA
:101D300000040000F4100008000000000102030489
:101D4000010203040607080900000000000000006B
:081D500000A0000000000000EB
:04000005080001AD41
:00000001FF
