:020000040800F2
:10000000F81B0020C1010008F30D0008E10A0008F8
:10001000F10D00088B020008B33700080000000053
:10002000000000000000000000000000AB1A000803
:100030004D09000800000000950E0008811B000813
:10004000DB010008DB010008DB010008DB01000820
:10005000DB010008DB010008DB010008DB01000810
:10006000DB010008DB010008DB010008DB01000800
:10007000DB010008DB010008DB010008DB010008F0
:10008000DB010008DB010008DB010008DB010008E0
:10009000DB010008DB010008DB010008DB010008D0
:1000A000DB010008DB010008DB010008DB010008C0
:1000B000DB010008DB010008DB010008DB010008B0
:1000C000DB010008DB010008DB010008DB010008A0
:1000D000DB010008DB010008DB010008DB01000890
:1000E000DB010008DB010008DB010008DB01000880
:1000F000DB010008DB010008DB010008DB01000870
:10010000DB010008DB010008DB010008DB0100085F
:10011000DB010008DB010008DB010008DB0100084F
:10012000DB010008DB010008DB010008DB0100083F
:10013000DB010008DB010008DB010008DB0100082F
:10014000DB010008DB010008DB010008DB0100081F
:10015000DB010008DB010008DB010008DB0100080F
:10016000DB010008DB0100087D0E0008710E0008AD
:10017000DB010008890E0008DB010008DB01000834
:10018000DB010008DB010008DB010008DB010008DF
:10019000DB010008DB010008DB010008DB010008CF
:1001A000DB010008DB010008DB010008DFF80CD0F0
:1001B00000F02EF800480047D1390008F81B002055
:1001C0000648804706480047FEE7FEE7FEE7FEE7F1
:1001D000FEE7FEE7FEE7FEE7FEE7FEE7851B000819
:1001E000AD01000830B50B46014600202022012455
:1001F00009E021FA02F59D4205D303FA02F5491BF5
:1002000004FA02F52844151EA2F10102F1DC30BD0A
:10021000064C074D06E0E06840F0010394E8070053
:1002200098471034AC42F6D3FFF7C4FF843A000875
:10023000A43A000870B58C1810F8015B15F007039C
:1002400001D110F8013B2A1106D110F8012B03E06F
:1002500010F8016B01F8016B5B1EF9D12B0705D477
:100260000023521E0DD401F8013BFAE710F8013BC0
:10027000CB1A921C03E013F8015B01F8015B521EDC
:10028000F9D5A142D8D3002070BDFEE710B50B46CA
:1002900003F07F0202EB82011C0600EBC10102D5D4
:1002A00001F58E7101E001F55D710A70DA094A709D
:1002B00003F024F8002010BD10B50A46110602F024
:1002C0007F0306D503EB830100EBC10101F58E71BD
:1002D00005E002EB820100EBC10101F55D71002434
:1002E0008C700B70D2094A7002F0EAFF002010BD3A
:1002F00010B50A0604D501F07F0103F053F901E0BF
:1003000003F032F9002010BD70B50D4605F07F04F2
:1003100004EB84012E0600EBC10102D501F58E71BC
:1003200001E001F55D710C70ED094D708A60CB70D4
:1003300005B1CC80022B01D100220A7102F086FFA8
:10034000002070BD10B501F07F0404EB840100EBC8
:10035000C10101F55D71CA604B6100238B614B7077
:100360000C70C378012B00D10A610A781AB103F02E
:100370000DF8002010BD02F0C8FEFAE7002261F37C
:100380000A120069016811430160704710B50A46FE
:10039000110602F07F0306D503EB830100EBC101D8
:1003A00001F58E7105E002EB820100EBC10101F560
:1003B0005D7101248C700B70D2094A7002F0C6FF87
:1003C000002010BD70B501F07F0404EB840100EB48
:1003D000C10101F58E7101254D700C70CA600A6172
:1003E00000228A614B61002C03D002F0CFFF002075
:1003F00070BD02F08AFEFAE738B50446204602F0E6
:100400005FFEE068C5680095204603F0EDF8014600
:100410000020032911D00120A0704020A08025F4E5
:10042000705000F5A0500090E1680098C8604FF44B
:100430000050E1684861012038BDA0704FF40070A1
:10044000A08025F4705000F510500090ECE70000FB
:10045000F8B50546002400200090284603F0F3F884
:10046000064658E0F00754D0E1B2284600F020FAE2
:100470000090C0071CD0012101FA04F22869436BE7
:1004800093434363009105EB8400806981602448B5
:10049000E1B20068426828469047E878012807D111
:1004A00034B995F81101042802D1284602F0B2FEB1
:1004B0000098000705D50820009005EB84018969A4
:1004C00088600098C00605D51020009005EB8401D7
:1004D000896988600098400605D54020009005EBAA
:1004E0008401896988600098800705D50220009002
:1004F00005EB8401896988600098000609D52146CA
:10050000284600F0E3F98020009005EB840189691A
:100510008860641C7608002EA4D10120F8BD00007C
:10052000400000202DE9FC410546002400200190F8
:10053000284603F08EF80646274F47E0F00743D0E1
:10054000E1B2284603F08BF80190C00726D00121C4
:10055000019105EB8400426D9160E97801290DD18C
:10056000406D0069009004EB840105EBC101C0F30C
:100570001200D1F87C23101AC1F88C033868E1B25C
:10058000026828469047E878012807D134B995F8E1
:100590001101052802D1284602F03CFE019880078F
:1005A00005D50220019005EB8401496D8860019812
:1005B000000709D5386881682846884708200190D7
:1005C00005EB8401496D8860641C7608002EB5D166
:1005D0000120BDE8FC8100004000002038B5044641
:1005E000A07A002809D0D4F80C0120F0020020F0F5
:1005F00001000090D4F80C1108602069416821F0D6
:1006000001014160054800688169204688474FF034
:100610000040E1684861012038BD00004000002032
:100620007CB5054610200190E868816921F0100131
:100630008161E868006A009000F00F0101EB810120
:1006400005EBC10404F55D74C0F34341072923D2CF
:10065000DFE801F0222204222222160047F6F07180
:10066000084219D0C0F30A1632462846E16802F063
:10067000FEFFE0683044E060A0693044A0610BE018
:10068000082205F2CC51284602F0F1FF0099A0693A
:10069000C1F30A110844A061E868816941F01001C2
:1006A000816101207CBD000010B50446044920464C
:1006B0000968C96888470821E0684161012010BDC8
:1006C000400000201FB504460020009094F812015D
:1006D0000090174800684169204688472069806873
:1006E00001904FF400610391E2685161A17AE1B198
:1006F000C0071AD094F81501012816D19DF8000002
:10070000032812D1D4F80C01016841F00101016005
:1007100003200290D4F80C01016841F0030101604C
:100720000448016841F00601016004B0012010BDD9
:100730004000002010ED00E070B586B004460025B2
:10074000059504950395029500950126019620696B
:10075000416821F0010141600021204602F022FFA2
:100760000020FF2206E004EB80018B699A60496D4E
:100770008A60401C61788142F5D821694FF0FF30D2
:100780008861ADF81460ADF8166021690598C861FC
:1007900045F0080040F0010040F002002169486186
:1007A0002169C1F8840045F0010040F0080040F0E4
:1007B000020021690861216948642069016821F407
:1007C000FE610160204602F025FD4FF48050E16893
:1007D00048610448006801692046884706B0012046
:1007E00070BD00004000002070B50446204602F0B5
:1007F0004FFF012584F81251002084F814010022D3
:1008000040230DE002EB820104EBC10101F58E7182
:100810004D700A70CA80C8708B60C8604861521CF5
:1008200061789142EED800220DE002EB820104EBE8
:10083000C10101F55D7148700A70CA80C8708B6093
:10084000C8604861521C61789142EED8204602F09F
:100850002FFC204602F0F1FA0021204602F07AFF38
:10086000204602F03CFB2046BDE8704002F074BE1A
:1008700010B50446054920460968C96988474FF400
:100880008011E0684161012010BD0000400000209F
:1008900010B50446054920460968096A88474FF49F
:1008A0000011E0684161012010BD000040000020FF
:1008B00002691369526BCA4002F0010243EAC21294
:1008C00000EB810080698068104070472DE9F84393
:1008D00080460E460020009006EB860008EBC00420
:1008E00004F58E74D4E90501401AA168814200D252
:1008F0000846C01C4FEA900908EB8607B869806972
:10090000009016E0D51AA268AA4200D21546E81C4B
:100910004FEA9009ABB2F2B24046E16802F035FF0F
:10092000E0682844E060A0692844A061B869806953
:100930000090009880B2484505D9D4E90523934238
:1009400001D2002ADED10120BDE8F8837047000003
:1009500070B586B00121084600F09EFA01211020F2
:1009600000F0A8FA204E07220A21304600F0A6F82F
:1009700007220921304600F0A1F800248DF8164026
:1009800001208DF8170002258DF8145041020491C2
:100990008DF8155004A9304600F052F88DF8145027
:1009A0006802049004A9304600F04AF84FF4E130A0
:1009B0000090ADF80440ADF80640ADF80840ADF841
:1009C0000C400C20ADF80A00084C6946204601F0A6
:1009D0001FF90121204601F007F94021204601F0CE
:1009E000FFF806B070BD000000000240001001409A
:1009F00010B500F037FF0849884205D000F032FFFB
:100A00000549491C884201D1002010BD03A002F015
:100A1000D1FE4FF0FF3010BD1840EF003C3C2D469A
:100A20004C4153482D4552524F522D3E3E20204EB0
:100A30006F2053504920464C41534820210A000062
:100A40002DE9F041002201274FF0030C07FA02F5CF
:100A50000B682B40AB422CD1066853000CFA03F410
:100A6000A64306600E79D0F800809E4046EA08064C
:100A700006600E79012E01D0022E12D18668A6439F
:100A800086604E79D0F808809E4046EA0806866067
:100A90004668AE43466045688E799640B6B23543A7
:100AA0004560C568A543C560CC799C40C3681C43BC
:100AB000C460521C102AC9D3BDE8F08110B54B07A1
:100AC000DB0E9A40C90800EB8100016A0F249C40AC
:100AD000A1430162016A1143016210BD4183704765
:100AE00001A002F067FEFEE7686172646661756CE2
:100AF000742121210A0000002DE9FC4101218820F8
:100B000000F0CAF94FF48065009501218DF80410BA
:100B100000208DF806008DF807108DF80500114FA4
:100B200069463846FFF78CFF6C00009469463846EA
:100B3000FFF786FF6600009669463846FFF780FF9C
:100B40000094094F69463846FFF77AFF0549183186
:100B50000D800C800E8021463846FFF7BFFFBDE8B0
:100B6000FC810000001C0240000C024070B50546EC
:100B70000E490F4C0A7B002A07D1896829B1617898
:100B800019B901212846FFF701FC81212846FFF70A
:100B9000FDFB6078022807D12846BDE870401F237E
:100BA000024A0121FFF7CEBB70BD0000A417002050
:100BB0005800002070B50546234C04F12000616800
:100BC0004160A16881600121284601F063FA1F4E4F
:100BD0001F280AD11E492068884206D1617B01295D
:100BE00003D8A27B0AB1102A0BD9607B20220521F1
:100BF00000F00AFC022070702846BDE87040FFF744
:100C0000B5BF114A28460F3200F014FA002804DA62
:100C10002846BDE87040FFF7A9BF3178022911D0FE
:100C200001290FD003290DD072882AB12846BDE8CA
:100C30007040084900F0C0B82846BDE87040002167
:100C400000F09CB870BD0000A417002058000020E0
:100C500055534243A407002010B5094C6278022A7C
:100C600008D009060BD5012A09D0BDE810400121A2
:100C700000F084B88121FFF789FB0020607010BD6F
:100C80005800002010B504460E480078022809D00C
:100C9000032801D0042814D12046BDE810400021CB
:100CA00000F06CB8084800F10F02417B204600F0CC
:100CB000C1F9002805DA2046BDE81040012100F006
:100CC0005DB810BD58000020A417002010B50446E0
:100CD0000D480078002810D0012813D10B4800F1EE
:100CE0000F02417B204600F0A5F900280ADA2046D1
:100CF000BDE81040012100F041B82046BDE8104099
:100D0000FFF758BF10BD000058000020A4170020B6
:100D100001490020087070475800002010B50446B3
:100D20000C4A0021117051700B48006801680020C6
:100D3000884701212046FFF7DBFA81212046FFF793
:100D4000D7FA20461F23BDE81040044A0121FFF7CF
:100D5000F9BA0000580000204C010020A417002020
:100D6000044900220A7001224A701F23024A01210D
:100D7000FFF7E8BA58000020A417002010B5044679
:100D80000B4A0A4B136011730A4A002111700D239C
:100D9000074A81212046FFF715FB054A20461F23FD
:100DA000203ABDE810400121FFF7CCBA5553425319
:100DB000C41700205800002030B413460A4A926835
:100DC0009A4200D31A4693B2074A20329468E41A32
:100DD000946000241473054C042222700A4630BC2F
:100DE0008121FFF7EFBA0000A4170020580000206F
:100DF000FEE7704730B50F23C27801250178002A3D
:100E00001FD0154A126802F4E062C2F5E062C2F334
:100E10000722C2F10404D3404278A24084781C40E7
:100E20001443220101F1E02181F80024007800F050
:100E30001F018D404009800000F1E020C0F8005102
:100E400030BD01F01F0085404809800000F1E0201E
:100E5000C0F8805130BD00000CED00E002490843AD
:100E600002490860704700000000FA050CED00E040
:100E7000014801F031BA000070010020014801F082
:100E800073BA000070010020014801F099BA000017
:100E90007001002070470000054A002903D0116846
:100EA0000143116070471168814311607047000071
:100EB00030380240054A002903D01168014311600F
:100EC0007047116881431160704700004438024048
:100ED00070B5244B196801F00C01234C00291ED079
:100EE000224E04291DD008291DD00460196801F084
:100EF000F00109091E4A545C0168E14041601C6828
:100F000004F4E054A40A145D21FA04F484601B681C
:100F100003F460435B0BD25CD140C16070BD0460E0
:100F2000E4E70660E2E70F4A121F1168C1F380553B
:100F3000116801F03F0135B1B6FBF1F11468C4F35B
:100F40008814614305E0B4FBF1F11468C4F388141C
:100F500061431268C2F30142521C5200B1FBF2F12C
:100F60000160C3E7083802400024F40040787D01A6
:100F70000000002000B51144064A9268914206D94B
:100F80002122052100F040FA4FF0FF3000BD002083
:100F900000BD0000D40000204A78D20702D00D4ADC
:100FA00007200CE00C4A00EBC0001268D26902EB8B
:100FB00080021079401D0979814200D8084607490E
:100FC0000880074903E0401E80B2135C0B540028E0
:100FD000F9D17047483A00084C0100205A0000201F
:100FE000A40700200820064908800649064A03E0B5
:100FF000401E80B20B5C13540028F9D170470000EA
:101000005A000020573A0008A4070020082006498B
:1010100008800649064A03E0401E80B20B5C135468
:101020000028F9D1704700005A0000204F3A00080C
:10103000A4070020034610B5084611462B4A536109
:101040000A78232A3DD00DDC1A2A32D005DCE2B121
:10105000032A1ED0122A11D11FE01B2A21D01E2ADA
:101060000CD122E02A2A38D004DC252A2DD0282AC7
:1010700004D12EE02F2A34D05A2A1ED02022052156
:1010800000F0C2F94FF0FF3010BDBDE8104000F095
:10109000D7B9BDE8104000F083B9BDE81040FFF7B4
:1010A0007BBFBDE8104000F0C5B9BDE8104000F0BE
:1010B000C1B9BDE81040FFF7A9BFBDE81040FFF778
:1010C00091BFBDE8104000F033B9BDE8104000F01A
:1010D000FBB8BDE8104000F093B8BDE8104000F048
:1010E000F3B9BDE8104000F0D1B90000D4000020F1
:1010F0002DE9F04107461A4D4FF480502C69844287
:1011000000D304466968B4FBF1F083B2E868B0FB31
:10111000F1F214481449006806693846B0470028BF
:1011200008DA11220421384600F06EF94FF0FF3042
:10113000BDE8F08123460C4A81216869FFF742F936
:10114000E8682044E8602869001B286107498A682C
:10115000121B8A6010B90649032008700020E7E7D7
:10116000D40000204C010020A4070020C417002058
:10117000580000202DE9F04180461D4D4FF4805667
:101180002C69B44200D334466968B4FBF1F083B2F1
:10119000E868B0FBF1F21748174900684769404614
:1011A000B847002808DA03220421404600F02CF951
:1011B0004FF0FF30BDE8F081E8682044E86028691E
:1011C000001B28610D498A68121B8A6050B1B04229
:1011D00000D3304683B2084A01216869FFF7B2F8AC
:1011E0000020E7E700216869FFF7C8FDF8E7000085
:1011F000D40000204C010020A4070020C4170020C8
:101200002DE9F04780460C46DFF8A89099F80000D9
:10121000002846D1284E4FF0FF37307B000607D418
:10122000707B2022052100F0EFF83846BDE8F087FA
:101230002248006881684046884730B13A2202213E
:10124000404600F0E1F83846F0E76079A17822796D
:1012500040EA0161E0781A4D000440EA02200143AF
:10126000E960207AE27940EA02222A614046FFF7EB
:1012700081FE002801DA3846D8E7022089F800000C
:10128000E96868684143E960296941432961B068B8
:10129000884206D0707B2022052100F0B5F8384640
:1012A000C4E708494FF4805008804046BDE8F04745
:1012B000FFF71EBF58000020A41700204C0100209B
:1012C000D40000205A00002010B504461448154AE6
:1012D0000068111D43682046984738B13A22022120
:1012E000204600F091F84FF0FF3010BD0D4A0E4837
:1012F000121F9168491E0B0E03700B0C43700B0AF2
:101300008370C17051680A0E02710A0C42710A0A98
:101310008271C171054908200880002010BD0000BD
:101320004C010020D8000020A40700205A00002013
:101330007CB505460021174C00226254491C89B235
:101340000C29FAD3144801AA694600684368284664
:10135000984738B13A220221284600F055F84FF05C
:10136000FF307CBD0820E0700098401E010E217106
:10137000010C6171010AA171E071022020720198D3
:10138000010C6172010AA172E07204490C2008800C
:1013900000207CBDA40700204C0100205A00002042
:1013A00070B50020144A00231354401CC0B2122808
:1013B000FAD3702010700C20D071104D28786C7802
:1013C000A0420FD00E4C14F83060967004EBC004AD
:1013D0006679167324795473401CC0B228700428AF
:1013E00000D12B70074A122010800879122800D8EB
:1013F0001080002070BD0000A4070020D400002051
:10140000D41700205A00002010B5094B074C58781B
:1014100004F83010110204EBC0025160401CC0B24D
:101420005870042801D10020587010BDD417002036
:10143000D400002001490020088070475A00002095
:1014400070B505460E484FF0FF348168002906D07C
:10145000407B20220521FFF7D7FF204670BD0948B9
:10146000006881682846884730B13A220221284620
:10147000FFF7CAFF204670BD03490020088070BDF9
:10148000A41700204C0100205A00002010B5497814
:101490004FF0FF34890705D524220521FFF7B4FF5B
:1014A000204610BD06490A8AC96892B2FFF762FD5C
:1014B000002801DA204610BD02490020088010BD36
:1014C000D40000205A0000202DE9F04781460C4648
:1014D000334F3878002804D04846BDE8F047FFF77E
:1014E00049BE304E4FF0FF38307B000607D5707B89
:1014F00020220521FFF788FF4046BDE8F0872A4DEE
:10150000286881684846884730B13A220221484617
:10151000FFF77AFF4046F0E72868C16848468847E9
:1015200030B1272202214846FFF76EFF4046E4E72C
:101530006079A1781D4D40EA0161E07802042079CC
:1015400042EA00200143E960207AE27940EA02227F
:101550002A614846FFF70EFD002801DA4046CCE735
:10156000E96868684143E960296941432961B068D5
:10157000884206D0707B20220521FFF745FF4046B8
:10158000BBE7012038700003814200D301468BB2D3
:10159000074A01216869FEF7D5FE0020ADE700008B
:1015A00058000020A41700204C010020D400002087
:1015B000A4070020002904D0018841F040010180E7
:1015C0007047018821F04001018070472DE9F0410A
:1015D00004460F4615460F4840260680032000F0BB
:1015E0007FF9C7F3074000F07BF9C7F3072000F04D
:1015F00077F9F8B200F074F904E0FF2000F070F918
:1016000004F8010B6D1EADB2F7D20248801E0680B1
:10161000BDE8F0811A1402402DE9F04706460D4658
:10162000E8B24142CFB2140A02F0FF094FF48078C9
:10163000002812D0E8B24042C0B205EB000A34B331
:10164000D01B80B2040A00F0FF093A462946304612
:1016500000F0DAF855463E4439E074B92946304680
:10166000BDE8F04700F0D0B842462946304600F0C9
:10167000CBF805F5807506F58076641EE4B2F3D2EA
:101680004A4629463046BDE8F04700F0BDB8B945A6
:101690000ED9A9EB0700C4B23A462946304600F0FD
:1016A000B3F85146F0192246BDE8F04700F0ACB857
:1016B00029463046BDE8F04700F0A6B84246294624
:1016C000304600F0A1F805F5807506F58076641EB9
:1016D000E4B2F3D2B9F1000F06D04A4629463046AB
:1016E000BDE8F04700F090B8BDE8F0872DE9F04381
:1016F00087B001212020FFF7CFFB01210805FFF76C
:10170000D9FBDFF8D490052207214846FFF7D6F928
:10171000052208214846FFF7D1F90522092148464C
:10172000FFF7CCF9802000904FF002088DF804807C
:1017300000248DF8064003208DF805008DF8074041
:1017400069464846FFF77CF94FF48070009069467F
:101750004846FFF775F94FF400750095694648460D
:10176000FFF76EF94027009701268DF8046069465F
:101770004846FFF765F9184818300780ADF808406B
:101780004FF48270ADF80A00ADF80C40ADF80E8051
:10179000ADF81060ADF81250ADF81440ADF8164039
:1017A0000720ADF818000D4C02A9204600F015F9ED
:1017B00001212046FFF7FEFE4FF4FA70401E0004A0
:1017C000000CFBD100F0F0F805A001F0F3FFFFF7EB
:1017D0000FF907B0BDE8F08300140240005001404B
:1017E0003C3C2D464C4153482D494E464F2D3E3EE4
:1017F00020466C61736820696E6974207375636339
:10180000657373210A0000002DE9F04105460F467B
:10181000144600F0BBF8124840260680022000F073
:101820005FF8C7F3074000F05BF8C7F3072000F04C
:1018300057F8F8B200F054F8B000844205D90446D5
:1018400003E0287800F04CF86D1C641EA4B2F8D2B6
:101850000348801E0680BDE8F04100F077B8000024
:101860001A14024070B50D48402404809F2000F0F7
:1018700037F8FF2000F034F80546FF2000F030F87C
:101880000646FF2000F02CF801460448801E048024
:10189000280440EA0620084370BD00001A140240E4
:1018A00070B5044600F072F800F050F80B4840257F
:1018B0000580202000F014F8C4F3074000F010F871
:1018C000C4F3072000F00CF8E0B200F009F8034878
:1018D000801E0580BDE8704000F038B81A14024040
:1018E0002DE9F0410746174C4FF480552560164E00
:1018F00008E02068411E216004D200F08BF8C0B2DD
:10190000BDE8F0810221304600F05CF80028F0D0FC
:101910003946304600F05FF8256007E021684A1E2E
:10192000226003D200F076F8C0B2E9E70121304628
:1019300000F048F80028F1D0304600F04AF8C0B274
:10194000DEE70000100000200050014070B50D4897
:10195000402505800520FFF7C3FF0B4CA801206040
:10196000FF20FFF7BDFF21684A1E226003D2BDE8B9
:10197000704000F04FB8C007F2D10248801E0580C9
:1019800070BD00001A1402401000002010B5054878
:10199000402404800620FFF7A3FF0248801E048035
:1019A00010BD00001A14024010B505484024048000
:1019B000AB20FFF795FF0248801E048010BD000099
:1019C0001A1402400246002012890A4200D0012067
:1019D0007047808970478181704730B5028802F472
:1019E00041530A884C88CD8822438C882C4322435B
:1019F0000C8922434C8922438C892243CC8922437F
:101A00001A430280828B22F400628283098A018257
:101A100030BD000010B502A001F0CCFE002010BDCA
:101A20003C3C2D464C4153482D4552524F522D3E81
:101A30003E205350492054696D656F75742065725E
:101A4000726F72210A0000004FF4805010604FF452
:101A5000206008600020704700207047FFF746BEF6
:101A6000FEF7C6BF0020704710B50846114601F5C5
:101A7000C0614FF6FF7202EA03320903FFF7A6FDC9
:101A8000002010BD70B50D461E4602F5C062100361
:101A90000446FFF705FF4FF6FF7000EA06322146C5
:101AA0002846FFF7B9FD002070BD70471CB5002126
:101AB000019100912E4A106840F4803010604FF47C
:101AC000A043106800F4003000900198401C019081
:101AD000009810B901989842F3D11068800302D59C
:101AE0000120009000E00091009801283FD120489B
:101AF0004030016841F0805101601E49086840F49F
:101B0000404008601A48083003680360036843F4E3
:101B100000430360036843F4A0530360041F164BA3
:101B20002360136843F08073136013689B01FCD536
:101B30000A6842F480320A604A68D203FCD50A6817
:101B400042F400320A604A689203FCD50B4A40F224
:101B500005711160016821F003010160016841F025
:101B6000020101600168C1F381010229FAD11CBDA3
:101B7000003802400070004019604008003C0240FC
:101B80007047000010B51248016841F4700101600F
:101B90001048016841F0010101600E4A002108323D
:101BA000116002680C4B1A400260031D0B4A1A6058
:101BB000026822F48022026006480C300160FFF7C0
:101BC00075FF03494FF000608039086010BD0000C8
:101BD00088ED00E000380240FFFFF6FE10300024E0
:101BE0008A05C94301807047002904D0818941F4E6
:101BF000005181817047818921F4005181817047B2
:101C00000246002012880A4200D0012070470000DE
:101C10007FB504460D46208A20F44051E8880843E9
:101C20002082A08941F20C618843A9882A89114346
:101C30006A8902431143A181A08A20F44071A889D6
:101C40000843A0826846FFF743F91E48844202D049
:101C50001D48844201D1039800E00298A18909043B
:101C600008D500EBC00101EB001029684900B0FB6A
:101C7000F1F007E000EBC00101EB001029688900DA
:101C8000B0FBF1F06422B0FBF2F109010B096FF037
:101C900018056B4300EB8300A3891D044FF032034A
:101CA00007D503EBC000B0FBF2F000F007000843DB
:101CB00006E003EB0010B0FBF2F000F00F00084369
:101CC00020817FBD0010014000140140C1F30801D4
:101CD0008180704710B5D0F8E42552689047002005
:101CE00010BD10B5044694F81201022806D003284E
:101CF00004D02046BDE8104000F023B848880128F1
:101D00000CD10020C4F81801D4F8E40582682046FC
:101D100090472046BDE8104000F043B810BD10B514
:101D2000002413460A460021FEF70CFB204610BD96
:101D300010B5002413460A460021FEF743FB204657
:101D400010BD10B5044680212046FEF71FFB002180
:101D50002046FEF71BFB2046BDE8104001F05ABAB2
:101D600070B505460024052085F8110100231A46A8
:101D700019462846FEF7E6FA284601F04BFA2046B7
:101D800070BD10B50024C0F83C21C0F838210223F2
:101D900080F8113113460A460021FEF713FB204656
:101DA00010BD70B505460024042085F811010023FC
:101DB0001A4619462846FEF705FB284601F02AFA7E
:101DC000204670BD70B50546002908D0D5F8E40559
:101DD00042698AB395F81201032845D046E005F51B
:101DE0008E7495F811010026022833D1E169A068AC
:101DF00081420FD9081AE061E878012803D1D4E9BB
:101E000002100844E060A08BE16882B22846FFF728
:101E10008FFF1FE0216AB1FBF0F200FB121262B9E2
:101E200081420AD3606A814207D2002211462846C5
:101E3000FFF77EFF66620DE015E0D5F8E405C168A6
:101E400029B195F81201032801D128468847284670
:101E5000FFF786FF95F81601012807D1284600F004
:101E60004BFB85F8166101E028469047002070BDC5
:101E700070B50546002908D0D5F8E40582690AB393
:101E800095F8120103282CD02DE005F55D7495F826
:101E90001101032827D1E169A068814213D9081AEA
:101EA000E061E878012803D1D4E902100844E06039
:101EB000E169A068814200D2084682B22846E16802
:101EC000FFF72DFF0FE0D5F8E405016929B195F87A
:101ED0001201032801D1284688472846FFF761FFF1
:101EE00001E028469047002070BD002070470000A8
:101EF000CA88012A01D0FFF724BF90F81221022AD4
:101F000003D0032A05D0FFF71CBF01220349FFF7C6
:101F100038BF012200F58871FFF733BF5000002061
:101F200038B504460D466888010A082972D2DFE8F0
:101F300001F09F04152D9F9F6A81D4F8EC15A078BD
:101F40000A68694690470146E888402803D094F81B
:101F5000120101287DD1082000907AE0D4F8E41520
:101F6000A0788A6A694690470146A078012808D17E
:101F7000227A012A05D1D4F8E415CA6A6946904745
:101F8000014602204870C4F8F01562E0C0B206288D
:101F900034D2DFE800F0030B131B232BD4F8EC152D
:101FA000A0784A6869469047014652E0D4F8EC159B
:101FB000A0788A686946904701464AE0D4F8EC1553
:101FC000A078CA6869469047014642E0D4F8EC150B
:101FD000A0780A696946904701463AE0D4F8EC15C2
:101FE000A0784A6969469047014632E0D4F8EC157A
:101FF000A0788A696946904701462AE0294620462A
:10200000FFF79FFE38BDA07828B129462046FFF78C
:1020100098FE38BD2CE0D4F8E4158A6A69469047EA
:102020001649827B0A71C27B4A71007C88710A2042
:1020300000900EE0A07820B129462046FFF781FEEF
:10204000E7E7D4F8E415CA6A6946904701460720D5
:102050004870BDF800000028DBD0EA88002AD8D0FC
:10206000824200D9024600922046FFF78AFED0E75E
:1020700029462046FFF765FECBE70000200100203F
:10208000002102E0491CC9B2401C0278002AF9D1A3
:102090000846704701EB810100EBC100B0F88C03EA
:1020A00080B2704790F81221022A03D0032A01D08F
:1020B000FFF747BE06490122CA60D0F818210AB1CD
:1020C0000322CA60024902220C31FFF75ABE000007
:1020D0004800002070B504460D461646002C16D068
:1020E0002046FFF7CDFF022101EB40003080287031
:1020F000032102206970002306E0411CC9B22A5462
:10210000641C481CC0B26B542278002AF5D170BD03
:102110002DE9F0410446069F884616461D46204696
:1021200000F05AFE2046FFF7E0FEC4F8E455C4F87C
:10213000E875C4F8EC6541462046FEF755FBD4F837
:10214000E805006880472046BDE8F04100F010BE79
:1021500010B5D0F8E415096A8847002010BD10B505
:10216000D0F8E415496A8847002010BD10B5FEF785
:1021700089FD002010BD10B5FEF7A8FD002010BDA0
:1021800010B5044681212046FEF780F80121204643
:10219000FEF77CF82046FEF7BBFD002010BD0000D6
:1021A00020200880004870479400002020200880EC
:1021B00000487047B400002010B504462046FFF7E1
:1021C000DFFF0223402281212046FEF79DF80223F3
:1021D000402201212046FEF797F82046FEF79EFD9B
:1021E000002010BD70B505460C46394E217811F01F
:1021F00060003CD0202868D16078FE2807D0FF28F6
:1022000025D021462846FFF79CFD022070BD60883E
:10221000B8B9E088012814D1080612D52D48006805
:1022200080698047C1B2317029B10122284928460E
:10223000FFF7A7FD49E021462846FFF782FD02206F
:1022400070BD21462846FFF77CFD022070BD6088E6
:1022500038B9E08828B9080603D42846FEF780FD7F
:1022600033E021462846FFF76CFD022070BD6178FF
:1022700001290ED00A2902D00B2926D106E01449E3
:102280000122091D2846FFF77CFD1EE0A078307171
:102290001BE021792846FEF72BF821792846FDF727
:1022A000F5FFA188080606D5C9B2022340222846B8
:1022B000FEF72AF805E0C9B2022340222846FEF7BD
:1022C00023F821792846FEF7C7FC002070BD0000E6
:1022D0008C0000204C01002038B504462069426C77
:1022E000416BC1F3400142EAC112E16989681140C2
:1022F0000091C9070DD0416B21F00201416301201B
:102300000090E16988601748012100684268204612
:1023100090470098800703D502200090E16988600B
:102320000098000703D508200090E16988600098B4
:10233000C00603D510200090E1698860009840062F
:1023400003D540200090E16988600098000607D519
:1023500001212046FEF7BAFA80200090E1698860EA
:10236000012038BD400000201CB50446A16D8868DE
:102370002269D2F8842010400190C00715D00120B6
:1023800001908860E078012809D1A06D0069009073
:10239000D4F8A413C0F31200081AC4F8B403074811
:1023A000012100680268204690470198800703D504
:1023B00002200190A16D886001201CBD400000201A
:1023C0007CB506460024304601F02FF9002849D09C
:1023D000304601F033F905460190E8B3280303D5F0
:1023E0003046FEF79FF80446680303D53046FEF7F3
:1023F0002FF80443A80703D502200090F168486134
:10240000002D03DA3046FEF7E9F80443280503D52A
:102410003046FEF757F90443280703D53046FEF748
:1024200043F90443E80603D53046FEF7F9F80443C0
:10243000E80403D53046FEF77FF90443A80403D52A
:102440003046FDF7D9FF0443E80203D53046FEF7D6
:102450000FFA0443A80200E006E003D53046FEF779
:1024600017FA044320467CBD00207CBD90F8CC25A3
:102470000A7090F8CD254A7090F8CE2590F8CF35A7
:1024800002EB03224A8090F8D02590F8D13502EB78
:1024900003228A8090F8D22590F8D33502EB0322EC
:1024A00092B2CA80C0F84021012180F81111704712
:1024B00010B504460023402219462046FDF724FFAC
:1024C0000023402280212046FDF71EFF012084F8D2
:1024D0001201D4F8E815A07849688847002010BD9B
:1024E00010B50446D4F8E80500698047032084F855
:1024F0001201002010BD0000024909680069416016
:10250000002070474400002010B5D0F8E415C969D8
:10251000002900D08847002010BD70B50446888887
:10252000002801D1C88820B12046BDE87040FFF7DF
:1025300008BC887800F07F0594F8120103280DD0BC
:1025400084F8145129462046FDF718FF2046FFF76E
:1025500028FC45B1022084F8120170BD2046BDE878
:102560007040FFF7EEBB012084F8120170BD10B57A
:102570000446D4F8E405026820469047D4F8E805FC
:1025800080688047002010BD70B504460846284D7D
:1025900081782970012905D901462046BDE870409F
:1025A000FFF7CFBB94F81221022A07D0032A18D0D4
:1025B00001462046BDE87040FFF7C3BB61B184F817
:1025C0001011032084F812012046FFF7D0FF2046A7
:1025D000BDE87040FFF7E5BB2046BDE87040FFF75F
:1025E000E0BB91B194F8100188421BD0014620460F
:1025F000FFF770FB297884F810112046FFF7B7FF2A
:102600002046BDE87040FFF7CCBB022084F81201E1
:1026100084F810112046FFF75DFB2046BDE87040AE
:10262000FFF7BFBB2046BDE87040FFF7BABB000014
:102630004800002038B5044648880122012810D0FF
:1026400002283CD1888810F0FF0F38D121694968F1
:102650000091000A062828D2DFE800F0270F14199D
:102660001E23C4F81821D4F8E40582682046904758
:102670002046BDE83840FFF794BB21F070001030D1
:10268000009012E021F07000203000900DE021F069
:1026900070003030009008E021F070004030009071
:1026A00003E021F07000503000900548009901606F
:1026B00084F816212046BDE83840FFF772BB38BDCC
:1026C000440000201CB5044669462046FFF7CEFEB4
:1026D0009DF8002012F01F010AD001290DD0022917
:1026E00010D002F080012046FDF750FE00201CBDF6
:1026F0006946204600F00BF8F8E76946204600F0EE
:10270000BBF8F3E76946204600F026F8EEE710B57F
:1027100000244A780A2A1BD2DFE802F011171A14A3
:102720001A08051A0E0BFFF7FBFB13E0FFF7F5FE87
:1027300010E0FFF729FF0DE0FFF7DAFB0AE0FFF7F3
:10274000B1FC07E0FFF776FF04E0FFF7CAFA01E00B
:10275000FFF7F7FA204610BD70B504460D46002677
:102760002979687800284BD0012825D0032851D139
:1027700094F81201022806D003280BD029462046DF
:10278000FFF7DFFA46E009B3802943D02046FDF782
:10279000FDFD3FE0688828B921B1802902D020469C
:1027A000FDF7F4FDD4F8E4052946826820469047F9
:1027B0002046FFF7F6FA2DE094F81201022806D021
:1027C00003280BD029462046FFF7BBFA22E009B3C5
:1027D00080291FD02046FDF7D9FD1BE06888C8B9C5
:1027E00051B1802908D02046FDF766FDD4F8E405F4
:1027F00029468268204690472046FFF7D2FA09E032
:1028000094F81201022807D003280DD0294620464B
:10281000FFF797FA304670BD0029FBD08029F9D028
:102820002046FDF7B3FDF5E7124A08064FF0000514
:102830004FF001030CD501F07F0000EB800004EBAA
:10284000C00090F81E0108B153600BE0556009E02C
:1028500001EB810004EBC00090F8760308B15360EF
:1028600000E0556003490222091D2046FFF789FA5E
:10287000D0E700004800002070B504460D46002651
:1028800094F81201032805D029462046FFF759FA8B
:10289000304670BD287901280CD8D4F8E4052946C3
:1028A000826820469047E8880028F1D12046FFF74B
:1028B00078FAEDE729462046FFF743FAE8E710B536
:1028C00000F589700178417004210170D0F8D604B8
:1028D000C0688047002010BD10B5002806D00A4609
:1028E000054906A0FFF7F6FB034810BD0A4602495A
:1028F00002A0FFF7EFFBF7E7640700204D534320EA
:10290000436F6E6669670000A12202A108A000F073
:1029100051BF00002E2E5C2E2E5C555345525C613B
:1029200070705C757362645F7573722E6300000073
:102930003C3C2D5553422D44454255472D3E3E5B70
:1029400025735D205B25645D3E204D534320496E19
:102950007465726661636520737461727465642E58
:102960000A0A0000C12202A108A000F023BF000053
:102970002E2E5C2E2E5C555345525C6170705C753A
:102980007362645F7573722E630000003C3C2D55CA
:1029900053422D44454255472D3E3E5B25735D20F5
:1029A0005B25645D3E20555342204465766963652E
:1029B00020436F6E6E65637465642E0A0A00000022
:1029C00012200880004870470C010020CD2202A18F
:1029D00008A000F0EFBE00002E2E5C2E2E5C55539A
:1029E00045525C6170705C757362645F7573722EC2
:1029F000630000003C3C2D5553422D444542554751
:102A00002D3E3E5B25735D205B25645D3E20555366
:102A1000422044657669636520446973636F6E6E16
:102A200065637465642E0A0A00000000002806D061
:102A3000012809D0942207A10DA000F0BBBE8D2271
:102A400004A11BA000F0B6BE912202A128A000F0B4
:102A5000B1BE00002E2E5C2E2E5C555345525C619B
:102A600070705C757362645F7573722E6300000032
:102A70003C3C2D5553422D44454255472D3E3E5B2F
:102A800025735D205B25645D202020202055534266
:102A900020446576696365204C69627261727920B1
:102AA00076312E312E3020205B3F3F5D0A00000042
:102AB0003C3C2D5553422D44454255472D3E3E5BEF
:102AC00025735D205B25645D202020202055534226
:102AD00020446576696365204C6962726172792071
:102AE00076312E312E3020205B48535D0A000000E5
:102AF0003C3C2D5553422D44454255472D3E3E5BAF
:102B000025735D205B25645D2020202020555342E5
:102B100020446576696365204C6962726172792030
:102B200076312E312E3020205B46535D0A000000A6
:102B300070470000AB2202A108A000F03BBE0000DD
:102B40002E2E5C2E2E5C555345525C6170705C7568
:102B50007362645F7573722E630000003C3C2D55F8
:102B600053422D44454255472D3E3E5B25735D2023
:102B70005B25645D3E2044657669636520496E206F
:102B800073757370656E64206D6F64652E0A0A003C
:102B900010B57B2207A10EA000F00CFE7F2205A13C
:102BA00017A000F007FEBDE81040802201A122A07E
:102BB00000F000BE2E2E5C2E2E5C555345525C61FB
:102BC00070705C757362645F7573722E63000000D1
:102BD0003C3C2D5553422D44454255472D3E3E5BCE
:102BE00025735D205B25645D20555342204F54477B
:102BF000204853204D5343204465766963650A009D
:102C00003C3C2D5553422D44454255472D3E3E5B9D
:102C100025735D205B25645D3E205553422064652D
:102C200076696365206C6962726172792073746180
:102C3000727465642E0A0A003C3C2D5553422D44A3
:102C4000454255472D3E3E5B25735D205B25645D07
:102C5000202020202055534220446576696365205A
:102C60004C6962726172792076312E312E300A0001
:102C700010B5002806D00A46054906A0FFF72AFA33
:102C8000034810BD0A46024902A0FFF723FAF7E7FE
:102C9000640700204D534320496E7465726661637A
:102CA00065000000042008800048704708010020EB
:102CB00010B50A46024903A0FFF70CFA004810BD00
:102CC0006407002053544D6963726F656C656374CB
:102CD000726F6E696373000010B5002806D00A4653
:102CE000054906A0FFF7F6F9034810BD0A46024958
:102CF00008A0FFF7EFF9F7E7640700204D61737351
:102D00002053746F7261676520696E204653204DB1
:102D10006F6465004D6173732053746F72616765F2
:102D200020696E204853204D6F64650010B500285F
:102D300006D00A46054906A0FFF7CCF9034810BDA6
:102D40000A46024906A0FFF7C5F9F7E76407002025
:102D50003030303030303030303031420000000020
:102D60003030303030303030303031410000000011
:102D700038B54FF4C0652846FEF770F84D208DF841
:102D8000000001248DF8014003218DF802108DF818
:102D900003406846FEF72EF82846FEF75FF84A2102
:102DA0008DF800108DF8014002208DF802008DF89A
:102DB00003406846FEF71EF82846FEF74FF84B2002
:102DC0008DF800008DF801408DF802408DF8034029
:102DD0006846FEF70FF838BD1CB501210220FEF74A
:102DE0005BF84FF44040009003208DF8050002206E
:102DF0008DF80400094C69462046FDF721FE0C229F
:102E00000E212046FDF75AFE0C220F212046FDF729
:102E100055FE01214807FEF73FF81CBD00040240A3
:102E20004FF47A714843AFF300800021C0EBC0003B
:102E30004000491C8142FCD970473EB5044600253C
:102E40000020029001900090217AE068012919D0B9
:102E5000C16841F040010291C160204600F0FAF8DB
:102E60004FF434100190607A10B14FF47410019057
:102E7000E168019888631420FFF7D2FFE078012809
:102E800022D02AE0816B21F480310191627A12B163
:102E900041F48011019101998163E068C16821F0DA
:102EA000400121F4800121F4003121F4002102913C
:102EB000C160204600F0CEF8E0780128DED12A205B
:102EC0000090E1688860D9E7E068816821F01E0120
:102ED0000A3141F020010091816028463EBDF0B5E5
:102EE00087B00446002600250695049503950295B3
:102EF000D4F80C0105602169086820F4C0500590E1
:102F00000860E07A002840D1207A012854D00121BD
:102F1000204600F084FBE1684FF400704862802195
:102F2000ADF81210ADF81000E1680498886200EB6B
:102F30001040ADF80C004FF4BA70ADF80E00E16827
:102F40000398C1F8040100EB1040ADF80C00ADF897
:102F50000E50E1680398C1F8080100EB1040ADF88D
:102F60000C00E1680398C1F80C0100EB1040ADF8CB
:102F70000C00E1680398C1F8100100EB1040ADF8B7
:102F80000C00E1680398C1F814011021204600F0FC
:102F900009FB204600F0E8FA2069056120694561D7
:102FA00021694FF0FF3088612069C56100204FF032
:102FB00090474FF0FF0C16E00021204600F02FFB59
:102FC000A9E704EB80018A6913680693002B01DAF4
:102FD000069700E00695069B13608A69156189696A
:102FE000C1F808C0401C61788142EAD8002011E095
:102FF00004EB80014A6D13680093002B01DA0097FF
:1030000000E00095009B13604A6D1561496DC1F8A1
:1030100008C0401C61788142EAD84FF48070029069
:103020002069016941F480710161E07801280AD1C9
:103030000320402161F38A0040F4803061F359405D
:10304000019021690863204600F05CFA07B0304621
:10305000F0BD0000F8B505460027002400200090D0
:10306000124E0320FFF7E1FEE86800690090641C3F
:10307000B44201D90020F8BD00980028F1DA0021FF
:10308000009840F0010000900098EA681061E8683C
:1030900002690092491CB14202D8009AD207F7D1C6
:1030A0000320FFF7C2FE3846F8BD0000400D0300C4
:1030B0000022C068816821F00101816010467047DC
:1030C0001EB500240021009101698968029183697D
:1030D0001A680192C1F34101002905D0012903D0EA
:1030E000022905D0032907D1D10AC902019103E0C1
:1030F000D10AC902C91C019101991960006941688E
:1031000041F48071416020461EBD7EB5002600223C
:10311000029200924B784A69012B1CD00B7800EB8D
:1031200083035D6D2C6802942D690095002A53D0AD
:103130008A684A61009D62F306050095009A22F4B0
:10314000C01202F5002200925B6D009A1A61C278EB
:10315000012A4DD052E083691D6802951C690094D4
:1031600042B18C68A24210D94C61009A64F3060205
:1031700000920EE0009A22F07F020092009A22F460
:10318000C01202F50022009209E0009C62F30604DE
:103190000094009A22F4C01202F500220092009AD4
:1031A0001A61C278012A05D10C780A6900EB8404FF
:1031B000A469626145F0806242F0004202921A60A6
:1031C000C2782ABB4A691AB30A7801219140006982
:1031D000426B0A4342631BE00D7A009A65F30602D4
:1031E0000092009A22F4C01202F500220092ABE78E
:1031F0000B780A6900EB83035B6D5A6144F08062CF
:1032000042F000420292097800EB8100406D0260BA
:1032100030467EBD0EB54FF0404101910A49019103
:10322000094918310191426D01991161C178012953
:1032300009D1426D00F2CC515161416D08684FF0E7
:103240008020009008600EBD000008C07CB50025FD
:103250000022019200920C784E780123A34000EBEB
:103260008402012E19D0526DADF80230136801931B
:103270001C040ED40C8964F30A03CC7864F39343E2
:103280008C7964F3995343F0805343F400430193E2
:1032900013600978012904D005E09269ADF8003087
:1032A000E4E7C17A31B10069C169009A1143C16193
:1032B00028467CBD0069C16B009A1143C163F7E7E2
:1032C00018B503460020002200924C780A78012CA1
:1032D00003EB82020AD0526D136823F400130093AB
:1032E000C978032904D0022902D004E09269F3E7E7
:1032F00043F0805100910099116018BDFCB5002584
:103300000026019600960C784F780122A24000EB2F
:103310008403012F07D05B6DADF802201E60097891
:10332000012904D005E09B69ADF80020F6E7C17AD9
:1033300031B10069C169009A9143C1612846FCBD61
:103340000069C16B009A9143C163F7E708B5024673
:103350000020002300934B780978012B02EB8101B8
:1033600006D0496D0A6842F4001200920A6008BD56
:103370008A6911680091002902DA41F080410091C8
:10338000009941F400110091116008BDFEB50025BF
:103390000022029201924C780B784A694FF0010C9E
:1033A00000EB8303012C19D05B6D1E6802961C692B
:1033B0000194002A72D08F683A44521EB2FBF7F291
:1033C00062F3DC44C4F3C9427A4362F31204019409
:1033D000019A1A61C278012A67D06CE09B691E6865
:1033E00002961C6901946AB162F312048F683A4430
:1033F000521EB2FBF7F262F3DC440194CA78012A50
:1034000006D00AE0E20CD2046CF3DC42019204E044
:1034100024F0C04202F100520192019A1A61C2786E
:10342000012A10D0CA78012A09D04A693AB10A782B
:103430000CFA02FC0269536B43EA0C035363CA782B
:10344000012A07D00FE00B780A6900EB83039B6920
:103450005A61F4E7026992680092120AD20711D009
:1034600046F080520292029A42F0806242F000429C
:1034700002920B7800EB83039B691A60CA78012AD9
:1034800004D02FE046F000520292ECE78A8A93B211
:103490000A78C96800F079F924E0FFE78A6862F3E6
:1034A00012046CF3DC44019492E70B780A6900EB98
:1034B00083035B6D5A61CA78012A08D14A791AB12F
:1034C00046F00052029202E046F080520292029AC6
:1034D00042F0806242F000420292097800EB8100E3
:1034E000406D02602846FEBDC2684FF0FF3151605A
:1034F000C2686FF0804151610149C06881617047C5
:103500000008008038B50446002500200090E168DE
:103510008861E1686FF0804048612046FFF7E4FF72
:10352000E07808B910200090009840F4006040F462
:10353000805040F4005040F4802040F4002040F0DF
:10354000080040F4801040F40010E1688A6982436A
:1035500002438A61284638BD0022C068816841F074
:10356000010181601046704738B500250021002216
:103570000092009A42F010020092009AC3681A6109
:10358000074BC26814690094491C994202D8009CF8
:10359000E006F7D40320FFF748FC284638BD0000BA
:1035A000400D030038B50025002200230093009B46
:1035B00043F020030093009B61F38A13009300996A
:1035C000C3681961074BC1680C690094521C9A4288
:1035D00002D8009CA006F7D40320FFF726FC28465B
:1035E00038BD0000400D030008B501460020096900
:1035F00089680091C1F34101002907D0012903D056
:10360000022905D0032900D1022008BD032008BDEE
:10361000012008BDC068406900F0010070470069E2
:10362000026861F301020260704700B5FFF7F2FF24
:10363000012801D0012000BD002000BDC068416903
:1036400080690840704700698169C069084080B29C
:10365000704700698169C0690840000C704700EB41
:103660008101496D8968006940690840704710B55B
:10367000044608460021D21C9308D4F8D02003E069
:10368000146840F8044B491C9942F9D310BD00005E
:1036900070B5002200250024C470012383704026E9
:1036A00086800226012901D059B115E04FF0A042D1
:1036B000C37208210170042141709115C180067206
:1036C0000AE0234AC4720C210170062141704FF4B4
:1036D000A061C1800672C370C26002F50061016121
:1036E00000210AE002EB411300EB810403F51066B0
:1036F000A66103F530636365491C43788B42F1D8BA
:1037000002F5806141614031C0F8CC10002108E031
:1037100002EB411300EB810403F5A063C4F8903081
:10372000491C03788B42F3D8002108E002EB0133F7
:1037300000EB810403F58053C4F8D030491C0378B2
:103740008B42F3D802F56062C0F80C21284670BDA8
:103750000000044038B50024C368D86820F0005049
:1037600020F080420092012901D021B106E042F010
:103770000050009002E042F0804000900098D86035
:103780003220FFF74DFB204638BD30B505460020FE
:10379000EC78002C0CD1DB1C9B0805EB8202D2F8E4
:1037A000D02003E051F8045B1560641C9C42F9D3FF
:1037B00030BDFEE70FB4054B10B503A9044A0298CB
:1037C00000F018F810BC5DF814FB0000AD390008DB
:1037D0006C01002002E008C8121F08C1002AFAD1BB
:1037E00070477047002001E001C1121F002AFBD181
:1037F000704700002DE9FF4F8BB09A460F460546F3
:10380000002606E025280BD052460D9990476D1CE6
:10381000761C28780028F5D10FB03046BDE8F08F2F
:103820000024A0460122604900E0044315F8013F4E
:10383000203B02FA03F00842F7D128782E2817D14E
:1038400015F8010F44F004042A280ED06FF02F025F
:103850002878A0F1300109290AD808EB880102EB89
:10386000410100EB01086D1CF2E757F8048B6D1C59
:10387000287869283ED006DC0028CDD063280BD0FC
:10388000642804D136E0732810D075284BD05246F6
:103890000D999047761C85E017F8040B8DF8000011
:1038A00000208DF80100E946012003E057F8049B51
:1038B0004FF0FF3061074FF0000401D40AE0641CB0
:1038C00044450DDA8442FADB19F804100029F6D1D8
:1038D00006E0641C8442FCDB19F804100029F8D1CE
:1038E000264404E019F8010B52460D999047641ED6
:1038F000F8D257E001CF4FF00A0B002802DA40421D
:103900002D2102E0210504D52B218DF82410012161
:1039100003E0E10705D02021F7E70DF12009089128
:103920000CE00021F9E701CF4FF00A0BF9E7594607
:10393000FCF758FC01F1300209F8012D0028F6D1FE
:10394000ADEB090000F1200B600701D44FF0010836
:10395000D84502DDA8EB0B0000E0002080460024E3
:1039600006E009A85246005D0D999047641C761C3C
:1039700008988442F5DB04E0302052460D999047C8
:10398000761CB8F10001A8F10108F5DC05E019F892
:10399000010B52460D999047761CBBF10001ABF12B
:1039A000010BF4DC6D1C34E70928010070B50446F6
:1039B000064DE1B22846FEF789F980212846FEF738
:1039C0001FF90028F9D0204670BD0000001001400A
:1039D0001CB500240194FDF78FF8FCF7B9FF0CA08B
:1039E000FFF7E8FE13480090134B144A00211448D7
:1039F000FEF78EFB13494FF080730198421C019231
:103A00009842FAD1086880F4805008600194F4E785
:103A1000535049466C617368CEC4BCFECFB5CDB37C
:103A2000C4A3C4E255C5CCB2E2CAD4B3CCD0F20A26
:103A300000000000500100205C000020EC0000208D
:103A400070010020141C024000000003008083006D
:103A50000000000000000000060000000000000060
:103A60008002021F00000057462020202020205303
:103A7000504920466C61736820202020202020318E
:103A80002E303000A43A0008000000207001000031
:103A9000340200087C3B000870010020881A0000F6
:103AA000E4370008412D0102030404150607080944
:103AB00022A013711E1C08C51D0412261408092516
:103AC0001408B1241408BF281B08E1081351211B56
:103AD000085F048122140218201AB9281A81049A56
:103AE000E5301A6D0C9A7710411AA1109AAD141492
:103AF0000902202008010104C0320904200B020839
:103B000006500507058102402C070501070B1C091B
:103B10000720011813C1291C08A52CD019041AD993
:103B2000041B2D2D0819D81A710C1704030904124F
:103B30000132021640830420572602010203014B82
:103B40000A0614190B11135D1A1B0849041A6104A3
:103B50001A65041A69041A85041A5904135F3A1481
:103B6000082C011C20912B58122A1B08096C1A35AD
:0C3B70000C1A31041A650C1ACD04410037
:04000005080001AD41
:00000001FF
