:020000040800F2
:1000000058040020C1010008FF160008A9060008D6
:10001000FD160008AB02000849220008000000009D
:100020000000000000000000000000002520000883
:10003000A10300080000000001170008FD200008CF
:10004000DB010008DB010008DB010008DB01000820
:10005000DB010008DB010008DB010008DB01000810
:10006000DB010008DB010008DB010008DB01000800
:10007000DB010008DB010008DB010008DB010008F0
:10008000DB010008DB010008DB010008DB010008E0
:10009000DB010008DB010008DB010008DB010008D0
:1000A000DB010008DB010008DB010008DB010008C0
:1000B000DB010008DB010008DB010008DB010008B0
:1000C000DB010008DB010008DB010008DB010008A0
:1000D000DB010008DB010008DB010008DB01000890
:1000E000DB010008DB010008DB010008DB01000880
:1000F000DB010008DB010008DB010008DB01000870
:10010000DB010008DB010008DB010008DB0100085F
:10011000DB010008DB010008DB010008DB0100084F
:10012000DB010008DB010008DB010008DB0100083F
:10013000DB010008DB010008DB010008DB0100082F
:10014000DB010008DB010008DB010008DB0100081F
:10015000DB010008DB010008DB010008DB0100080F
:10016000DB010008DB010008DB010008DB010008FF
:10017000DB010008DB010008DB010008DB010008EF
:10018000DB010008DB010008DB010008DB010008DF
:10019000DB010008DB010008DB010008DB010008CF
:1001A000DB010008DB010008DB010008DFF80CD0F0
:1001B00000F04AF80048004745270008580400208E
:1001C0000648804706480047FEE7FEE7FEE7FEE7F1
:1001D000FEE7FEE7FEE7FEE7FEE7FEE70121000897
:1001E000AD0100082DE9F05F0546002092469B46D0
:1001F00088460646814640241BE02846414647463D
:10020000224600F042F853465A46C01A914110D394
:1002100011461846224600F029F82D1A67EB01080E
:100220004F4622460120002100F020F817EB00097C
:100230004E41201EA4F10104DFDC484631462A4627
:100240004346BDE8F09F0000064C074D06E0E0681D
:1002500040F0010394E8070098471034AC42F6D30D
:10026000FFF7A8FF7439000894390008202A04DB3E
:10027000203A00FA02F1002070479140C2F12003B9
:1002800020FA03F3194390407047202A04DB203AF8
:1002900021FA02F00021704721FA02F3D040C2F1A6
:1002A00020029140084319467047FEE710B501212E
:1002B000CC05204601F086FA2046BDE8104000211A
:1002C00001F080BA01460020024A52680A4200D07A
:1002D0000120704700B0024030B500242A4B196855
:1002E0002A4A114019601968026811431960596B54
:1002F00021F007015963596B426811435963416802
:10030000002928D001292DD0022930D0032933D04B
:10031000C1680A010169090244692403856821430F
:1003200015430D43996B0D439D638169D963196C26
:100330006FF30D011964196CC26911431964818C42
:1003400009045A6C02F040425A645A6C006A024333
:100350000A435A6430BDC1680A02018A0904047D57
:100360002406DBE7C1680A02018A0904D6E7C168EE
:100370004A010169C902D1E7C1684A0101698902DC
:100380004469E403CAE7000000B00240FCE0FCFF5F
:100390000248016841F001010160704700B002406D
:1003A0007047000070B586B00121084601F0FCF9E5
:1003B0000121102001F022FA1E4E07220A213046A8
:1003C00000F03AF907220921304600F035F90024FF
:1003D0008DF8164001208DF8170002258DF8145075
:1003E000410204918DF8155004A9304600F0E6F85A
:1003F0008DF814506802049004A9304600F0DEF82D
:100400004FF4E1300090ADF80440ADF80640ADF88F
:100410000840ADF80C400C20ADF80A00064C6946C7
:10042000204601F0AFFE0121204601F097FE06B004
:1004300070BD0000000002400010014001B502E064
:100440000098401E009000980028F9D108BD0022B5
:100450004FF0204310280AD0B0F5807F09D0B0F5C6
:10046000805F09D0D3F85801814309D107E0586E65
:10047000FAE7D3F88400F7E7D3F8A400F4E7012201
:1004800010467047D0E9001211438268C068521EBE
:10049000520142EA402001430148016070470000D8
:1004A000500100A070B50468A100A1F1C041D1F8CD
:1004B0004011CE0BF603D0E901121143D0E903231A
:1004C0001A4311434269C36911438269056A1143A2
:1004D0001943426A2943114331434FF02046002C0F
:1004E0003CD0D6F840416FF30E042B432243134314
:1004F000C6F8403102689200A2F1C042C2F8401131
:10050000016871B38900A1F1C041D1F8481101F02F
:100510007043816A0A684C68521E641E42EA0414E1
:100520008A68521E44EA02240A8A521E44EA02429F
:100530001A43D6F8483103F07043CC68898A641EA8
:100540002403491E44EA01511943C6F848110068C2
:100550008000A0F1C040C0F8482170BDC6F840112D
:10056000CEE7FFE7D6F8481101F07041806A0268D3
:100570004368521E5B1E42EA03138268521E43EA1E
:100580000223C268521E43EA0233028A521E43EA21
:100590000243828A007E521E43EA0252401E42EA11
:1005A00000600843C6F8480170BD000002490A68AF
:1005B00042EA400008607047540100A02DE9F04174
:1005C000002201274FF0030C07FA02F50B682B40BD
:1005D000AB422CD1066853000CFA03F4A643066024
:1005E0000E79D0F800809E4046EA080606600E7933
:1005F000012E01D0022E12D18668A64386604E7964
:10060000D0F808809E4046EA080686604668AE43F9
:10061000466045688E799640B6B235434560C568F8
:10062000A543C560CC799C40C3681C43C460521C80
:10063000102AC9D3BDE8F08110B54B07DB0E9A40F4
:10064000C90800EB8100016A0F249C40A1430162AC
:10065000016A1143016210BD0183704770B5054600
:100660000C46104E3078002803D101F0EFFB01203A
:100670003070220AE1B2A13AC2EB021000EB421044
:1006800001EB4001A13901EBC1008101C81701EB69
:100690005070C110482201F5AA01284601F0B0FBB4
:1006A000002070BD4C000020044A4FF480614C00D3
:1006B000901E8314118004800380FBE71A1C024003
:1006C000F0B58BB00446E50A04F01F07C4F34516E5
:1006D000FFF7ECFD4FF440300190022002900496A9
:1006E0000397059520040012000E06900C4C6068DC
:1006F0000790002008904FF4F07009904FF4487074
:100700000A9001A8FFF7E8FDFFF742FE0220FFF77D
:10071000D9FD0028FAD0208800F0A2FC0BB0F0BD73
:1007200034000020F0B5074600240B4D4FF4487606
:1007300008E020222146384600F04EF8E86880881C
:10074000204484B2B44205D2E8688188081980B296
:100750008842EED2F0BD0000340000202DE9F043C5
:1007600093B04FF4C86300FB03F50C46114601A893
:10077000FFF774FF0023174F0DF1040C786803EBAB
:1007800043011CF80120120261444E7816433602E0
:100790008A78324300213E88B7F802805FEA022956
:1007A00004D500EB440929F8056003E000EB440997
:1007B00029F80580641C5200491CC9B21829EDD3E0
:1007C00004F542745B1CDBB2182BD8D313B0BDE820
:1007D000F08300003400002010B4203AD3B2054A60
:1007E000D2681468D2885A4304EB420210BC00F06D
:1007F00033B80000340000202DE9F04180460D465A
:100800000024144E4FF4487717E07E2A09D8214679
:100810004046FFF7E1FFF0688088204484B26D1CF9
:100820000BE02988080200EB112082B221464046E5
:10083000FFF794FF1834A4B2AD1CBC4208D22A784A
:10084000002A05D0F0688188081980B28842DCD27D
:10085000BDE8F081340000202DE9F04300254FF47D
:10086000C8635843DFF87890D9F804C0D9F80C7001
:1008700030E0002326E00C26B4FBF6F6F6004FF03D
:10088000800808FA06F832F8156048FA03F818EA02
:10089000060F01D10C2C08D94FF0010808FA03F813
:1008A00016EA080F07D10C2C05D90CEB4106B9F854
:1008B0000240345204E00CEB4106B9F800403452D7
:1008C000491C5B1CBC889C42D5D8BB88C3F54873C7
:1008D00019446D1CFB88AB42CBD8BDE8F083000007
:1008E000340000202DE9F04352420023022404EB9F
:1008F00042041B4D2F886E68CD1805EBC508A0EB90
:10090000020C08EB05150CEB451826F8187000EBE7
:10091000020808EB451526F81570CD1A05EBC50938
:1009200009EB051508EB451826F818700CEB451572
:1009300026F8157025469D4208DC5B1C04EB430439
:10094000641CDA4202D1954200DC0025954203DDA9
:10095000521C04EB4204641C002ACDDDBDE8F08388
:10096000340000202DE9F74F0746884602980321FE
:10097000A1EB40060024029D4FF6FF7935E09DB1C2
:1009800009EA4502A8EB050A381B93461FFA8AF1CB
:1009900080B2012300F074F838195A461FFA8AF120
:1009A00080B2012300F06CF89CB109EA4402A8EB84
:1009B000040A781B93461FFA8AF180B2012300F0E3
:1009C0005FF878195A461FFA8AF180B2012300F0C5
:1009D00057F8002E03DA06EB8406B61D04E0601B10
:1009E00006EB80060A366D1E641CAC42C7D9029A1B
:1009F00003B041463846BDE8F04FFFF773BF000033
:100A00002DE9F0478AB015469946DFF87080B8F8AE
:100A10000040E60A04F01F07C4F3451401EBC102CD
:100A200002EB011100EB4110D8F8041001EB400A71
:100A3000FFF73CFC4FF440300090022001900394FB
:100A4000029704960F200590CDF818A0C5F54870C0
:100A50000790CDF8209009956846FFF73DFCFFF719
:100A600097FC0220FFF72EFC0028FAD0B8F800000F
:100A700000F0F6FA0AB0BDE8F0870000340000206C
:100A80002DE9F0438BB01446984601EBC10202EB0E
:100A9000011100EB41111948426802EB4105008841
:100AA000C60A00F01F07C0F34519FFF7FFFB4FF41C
:100AB0004030019002200290CDF8109003970596E7
:100AC0000F20069007950120B8F1000F11D040F2D9
:100AD0001F31089109940A9001A8FFF7FDFBFFF769
:100AE00057FC0220FFF7EEFB0028FAD00BB0BDE860
:100AF000F0830021089109900A94EDE7340000206A
:100B00002DE9F04106460D4617461C4600233A469D
:100B100029463046FFF7B4FF281981B200233A4630
:100B20003046FFF7ADFF0123224629463046FFF746
:100B3000A7FFF01922462946BDE8F04180B2012303
:100B4000FFF79EBF2DE9F84F84460F460026A2EB23
:100B50000C00002801DCACEB020000B2D91B00291C
:100B600000DCF91A09B20FFA8CF43DB24FF0FF3AEB
:100B7000624503D34FF00108C14601E0D046D1469B
:100B8000BB4203D34FF0010AD34600E0D34688426C
:100B900009DB4FF00008C34600EBD072521013B2CD
:100BA0000091074622E04FF00009CA4601EBD172DE
:100BB000521013B200900F4618E02946204600F06C
:100BC000DBFD0098184403B2BB4207DBD81B03B21D
:100BD00004EB080004B205EB0A0005B204EB0900BF
:100BE00004B205EB0B0005B2761C36B2BE42E4DD62
:100BF000BDE8F88F2DE9FC5F012140F2FF1000F005
:100C0000D3FD4FF00408CDF8008002208DF80500D8
:100C10008DF8040000208DF806008DF80700694665
:100C2000AA48FFF7CBFC0E220221A848FFF704FDDB
:100C30004FF00809CDF800906946A448FFF7BEFCC4
:100C40000E220321A148FFF7F7FC4FF4807ACDF87C
:100C500000A069469D48FFF7B1FC0E2208219B4881
:100C6000FFF7EAFC0124009469469948FFF7A6FCC7
:100C7000092200219648FFF7DFFC4FF4006BCDF806
:100C800000B069469348FFF799FC0E220B2191486A
:100C9000FFF7D2FC2003009069468E48FFF78EFCD8
:100CA0000E220C218B48FFF7C7FC022000906946FA
:100CB0008748FFF783FC092201218548FFF7BCFC28
:100CC0004025009569468448FFF778FC0E220621EE
:100CD0008148FFF7B1FC2020009069467F48FFF76C
:100CE0006DFC0E2205217D48FFF7A6FC00956946A4
:100CF0007A48FFF763FC0E2206217848FFF79CFC38
:100D00006003009069467148FFF758FC0E220D21E0
:100D10006E48FFF791FCA602009669466E48FFF701
:100D20004DFC09220A216C48FFF786FCE003009085
:100D300069466648FFF742FC0E220F216348FFF721
:100D40007BFC009469466648FFF738FC0E220021C0
:100D50006348FFF771FC8027009769466148FFF7F9
:100D60002DFC0E2207215F48FFF766FCCDF80080BE
:100D700069465B48FFF722FC0E2202215848FFF724
:100D80005BFC4FF01008CDF8008069465348FFF730
:100D900015FC0E2204215148FFF74EFC2003009061
:100DA00069464D48FFF70AFC0E220C214A48FFF71E
:100DB00043FC00954C4D69462846FFF7FFFB0E2289
:100DC00006212846FFF738FCCDF800B069464248B6
:100DD000FFF7F4FB0E220B213F48FFF72DFCCDF867
:100DE000008069463E48FFF7E9FB0E2204213C489B
:100DF000FFF722FCCDF8009069463648FFF7DEFB8E
:100E00000E2203213348FFF717FCCDF800A06946F6
:100E10002F48FFF7D3FB0E2208212D48FFF70CFCCB
:100E20004FF40079CDF8009069462948FFF7C6FBDA
:100E30000E2209212648FFF7FFFB00976946264846
:100E4000FFF7BCFB0E2207212348FFF7F5FB0096B6
:100E500069462348FFF7B2FB0E220A212048FFF71C
:100E6000EBFBCDF8009069461D48FFF7A7FB0E226B
:100E700009211B48FFF7E0FB00961C4E69463046EF
:100E8000FFF79CFB0E220A213046FFF7D5FBCDF879
:100E9000008002208DF805008DF8044000208DF8B8
:100EA00006008DF8074069462846FFF787FB009744
:100EB00069462846FFF782FB10212846FFF7CCFB46
:100EC00080212846FFF7C8FBBDE8FC9F001C0240BC
:100ED00000040240000002400018024000100240DE
:100EE0000020024000080240000C024000140240B2
:100EF0000148C068704700003400002010B590B071
:100F00000121880600F07AFC0121C80500F04CFCA4
:100F1000FFF770FE00F0D4FE0024019402940394C5
:100F200004940D940E940F94042207214FF4C07082
:100F300000F0F0FC4FF4803000F0DCFC012000F009
:100F4000E3FC3D2000F0BAFC0028FAD0059406949A
:100F50002E2007901720089040F24E30099040F262
:100F6000F7100A9040F262300B9040F20D200C9086
:100F700001A800F00FFB10B010BD000030B591B01B
:100F80002F20019040F24E3002901820039040F242
:100F9000F710049003240594FF200690002007908A
:100FA000089009900A904FF480600B9005200C90F7
:100FB00040F243600E90C01E0F904FF4F0701090FE
:100FC0004FF050400D90144D01A9284600F044FB0D
:100FD000059412490D9161020B9107210C910E4C61
:100FE00001A98034204600F037FB012000F080FB8F
:100FF0000121284600F024FB0121204600F020FBBF
:10100000012000F075FB064800F012F8012000F006
:10101000B1FA11B030BD00008468014000B80BD0B7
:1010200044000020014A10805180704734000020A5
:101030000149C860704700003400002006490028BC
:1010400004D0064848600120886070474FF0504047
:1010500048600020886070473400002000B80BD042
:1010600001490880704700003400002010B509498C
:101070008968002908D00146074800F0DFFABDE87A
:101080001040012000F034BB01460348803800F0D6
:10109000D5FAF4E734000020046901402DE9F04F4F
:1010A00099B0D74D2878401C28700120FFF7C6FF63
:1010B000FF20FFF7DBFF4FF400463046FFF700FB51
:1010C0004FF6FF7431462046FFF7ACFFCD48FFF7DF
:1010D000AFFFFFF70DFFC088CBA1FFF78DFBFFF738
:1010E00007FFC088CEA104EA4000FFF785FBFFF7A9
:1010F000FFFEC088CFA100EB400080B2FFF77CFB71
:10110000FFF7F6FEC088D1A104EA8000FFF774FB68
:10111000FFF7EEFEC088D8A100EB800080B2FFF799
:101120006BFBFFF7E5FEC088DAA100EB400004EAA4
:101130004000FFF761FB2A78DCA1684601F096F8D1
:10114000FFF7D6FEC088C0EBC00080B2FFF7EAFA16
:10115000FFF7CEFEC0886946C0EBC00080B2FFF743
:101160004BFB48F21F0A5046FFF77AFFFFF7C0FE1D
:10117000C08804EAC000FFF7D5FAFFF7B9FEC088BF
:10118000D2A104EAC000FFF737FB4FF47C47314699
:101190003846FFF747FFFA2340F2EE284246194649
:1011A0003220FFF7CFFC4FF496752B464246294676
:1011B0003220FFF7C7FC48F2E03831464046FFF7DF
:1011C00031FF4FF4C8794B464A46FA212846FFF7CB
:1011D000B9FC68004B460246FA21FFF7B3FC6FF0FA
:1011E0007F4B5846FFF72AF931463046FFF71AFF82
:1011F0004FF48C734FF44872C8210020FFF700FCB5
:101200005046FFF72DFFFFF773FEC08804EAC000C9
:10121000FFF788FAFFF76CFEC088AEA104EAC000B1
:10122000FFF7EAFA31463846FFF7FCFEC82264238E
:10123000FA211046FFF764FC31464046FFF7F2FE04
:101240004FF4AF793223C822FA214846FFF758FC01
:1012500031465046FFF7E6FEC8233222494618467B
:10126000FFF74EFC5846FFF7E9F831463046FFF7E6
:10127000D9FE4FF48C734FF44872C8210020FFF759
:10128000BFFB5046FFF7ECFEFFF732FEC08804EAD2
:10129000C000FFF747FAFFF72BFEC0888FA104EAD2
:1012A000C000FFF7A9FA31463846FFF7BBFEC82257
:1012B0006423FA211046FFF7A3FB31464046FFF7AF
:1012C000B1FE3223C822FA214846FFF799FB314686
:1012D0005046FFF7A7FEC823322249461846FFF7BB
:1012E0008FFB5846FFF7AAF831463046FFF79AFEC3
:1012F0004FF48C734FF44872C8210020FFF780FB35
:101300005046FFF7ADFEFFF7F3FDC08804EAC000CA
:10131000FFF708FAFFF7ECFDC08873A104EAC000EC
:10132000FFF76AFA39463846FFF77CFE3222494613
:10133000C820FFF7D7FA41464046FFF773FE4B221D
:1013400049464846FFF7CEFA5846FFF777F8314648
:101350003046FFF767FE4FF48C734FF44872C82194
:101360000020FFF74DFB5046FFF77AFEFFF7C0FD68
:10137000C08804EAC000FFF7D5F9FFF7B9FDC088BF
:101380005BA104EAC000FFF737FA31463846FFF7A1
:1013900049FE322249462846FFF7E4FA31464046E4
:1013A000FFF740FE4B2249464FF4E170FFF7DAFAAF
:1013B0005846FFF743F831463046FFF733FE4FF407
:1013C0008C734FF44872C8210020FFF719FBFFF718
:1013D0008FFDC08804EAC000FFF7A4F95846FFF764
:1013E0002DF831463046FFF71DFE4FF48C734FF455
:1013F0004872C8210020FFF703FB19B0BDE8F08F49
:101400001000002044000020D2B0BBF0352E30D3B5
:10141000A2B4E7D2BABEA7C6C1B2CECAFDA3AC0081
:10142000B7D6B1E6C2CA3A3830307834383020CF37
:10143000F1CBD800B4A5C3FEC6C13A35B5E3B5E7D4
:10144000C8DDB4A5C3FEC6C100000000CAB9D3C33D
:1014500053544D33322D4C544443D6B1BDD3C7FD04
:10146000B6AF2CCEDED0E8CDE2B2BFD2BABEA7C7AF
:10147000FDB6AFC6F7000000D6A7B3D65247423834
:1014800038382F3536352C3234CEBBCAFDBEDDD7C9
:10149000DCCFDF00B4A5C3FEC6C1CAB9D3C3494976
:1014A00043D7DCCFDFC7FDB6AF000000CFD4CABE44
:1014B000B1E4C1BFC0FDD7D33A2074657374436FE4
:1014C000756E74203D20256420000000BBADCFDF89
:1014D0003A000000BBADBED8D0CE3A00CCEEB3E4AB
:1014E000BED8D0CE3A000000BBADD4B23A00000066
:1014F000CCEEB3E4D4B23A002DE9FC4101218020C6
:1015000000F052F94FF48064009401208DF804003B
:1015100000218DF806108DF807008DF805100C4F8E
:1015200069463846FFF74AF866000096694638462D
:10153000FFF744F8A500009569463846FFF73EF8E6
:1015400003481830048006800580BDE8FC81000057
:10155000001C02400649002804D0086840F0010041
:1015600008607047086820F00100086070470000BC
:10157000186801400649002804D0086840F480300B
:1015800008607047086820F48030086070470000E9
:101590001868014030B5264A136826490B4013608D
:1015A000038A1B04146845692C431C431460121DF4
:1015B00013680B401360038B1B041468C5692C432C
:1015C0001C431460121D13680B401360038C1B0432
:1015D0001468456A2C431C431460121D13680B40A9
:1015E0001360018D09041368C46A23430B4313601D
:1015F000111D0A68104B1A400A60D0E900231A43F3
:10160000D0E9023423431A430B681A430A60416B42
:101610000A02018E0B04064924310C6804F07F4451
:101620000C600C68806B134304431C430C6030BD9A
:101630000868014000F800F08F88FE0F4161704794
:10164000002904D0016841F0010101607047016880
:1016500021F001010160704770B58A881204436867
:1016600003F4704343600B68134343608A89120498
:10167000836803F4704383608B681343836002695B
:1016800022F0070202610A690261CA6913020A8C28
:10169000120491F8244024068569002585618E692D
:1016A00022431E4316438661426922F0FF024261D3
:1016B0004A694261C26940F207739A43C261D1E943
:1016C0000A231A43C261826A85620A6B82620A8FA8
:1016D0001204C36A03F0E023C3624B6B1343C3627B
:1016E000026B6FF30A020263C96B016370BD0000F5
:1016F000014908607047000024680140FEE7704718
:10170000704700002DE9F0410025164E002416F820
:101710001500A040000603D513A000F097FD02E0DD
:1017200012A000F093FD641C082CF0DB002406EBF3
:1017300045077878A040000603D50BA000F086FD91
:1017400002E00AA000F082FD641C082CF1DB08A076
:1017500000F07CFD6D1C102DD8DBBDE8F04105A02C
:1017600000F074BD110000202A00000020000000DD
:101770000A0000000A0A0000B0F5487F10D80029CE
:101780000EDBB1F5F07F0BDC01EBC10202EB0111C6
:1017900000EB411003494A6802EB400009880180D0
:1017A0007047000034000020054A002903D011686A
:1017B0000143116070471168814311607047000058
:1017C00030380240054A002903D0116801431160F6
:1017D0007047116881431160704700001038024063
:1017E000054A002903D01168014311607047116850
:1017F000814311607047000038380240054A0029D3
:1018000003D0116801431160704711688143116072
:10181000704700004438024070B5244B196801F04D
:101820000C01234C00291ED0224E04291DD008296A
:101830001DD00460196801F0F00109091E4A545CCA
:101840000168E14041601C6804F4E054A40A145D9E
:1018500021FA04F484601B6803F460435B0BD25CE0
:10186000D140C16070BD0460E4E70660E2E70F4A62
:10187000121F1168C1F38055116801F03F0135B1A5
:10188000B6FBF1F11468C4F38814614305E0B4FBBE
:10189000F1F11468C4F3881461431268C2F3014281
:1018A000521C5200B1FBF2F10160C3E7083802405C
:1018B0000024F40040787D01000000200246002052
:1018C000510901290BD002290DD00949096802F0FC
:1018D0001F02012393400B4200D0012070470449AE
:1018E00074390968F3E70249091F0968EFE7000046
:1018F00074380240034A116821F4403101431160F9
:10190000704700008C3802400149086770470000AA
:1019100000004742800140EA0160024940EA02704B
:1019200008607047883802402DE9FC5F0121FC20E7
:10193000FFF73AFF02208DF804008DF80500002023
:101940008DF806008DF80700012000906946D64802
:10195000FEF734FE0C220021D348FEF76DFE022074
:1019600000906946D048FEF729FE0C220121CE489E
:10197000FEF762FE042600966946CB48FEF71EFE7F
:101980000C220221C848FEF757FE08200090694645
:10199000C548FEF713FE0C220321C348FEF74CFE98
:1019A000102700976946C048FEF708FE0C22042164
:1019B000BD48FEF741FE4FF02008CDF80080694693
:1019C000B948FEF7FBFD0C220521B748FEF734FEAF
:1019D0004FF48059CDF800906946B348FEF7EEFD0C
:1019E0000C221146B048FEF727FE4FF4005ACDF8FE
:1019F00000A06946AC48FEF7E1FD0C220D21AA4883
:101A0000FEF71AFE350300956946A748FEF7D6FD96
:101A10000C220E21A448FEF70FFE6C0000946946CC
:101A2000A148FEF7CBFD0C220F219F48FEF704FED4
:101A30000120009069469D48FEF7C0FD0C22002160
:101A40009A48FEF7F9FD0220009069469748FEF794
:101A5000B5FD0C2201219548FEF7EEFD0096694682
:101A60009248FEF7ABFD0C2202219048FEF7E4FD00
:101A7000009569468E48FEF7A1FD0C220E218C4888
:101A8000FEF7DAFD009469468948FEF797FD0C22BF
:101A90000F218748FEF7D0FD012000906946844859
:101AA000FEF78CFD0C2200218148FEF7C5FD0220C7
:101AB000009069467E48FEF781FD0C2201217C489A
:101AC000FEF7BAFD8020009069467A48FEF776FD61
:101AD0000C2207217748FEF7AFFDE6110096694614
:101AE0007448FEF76BFD0C2208217248FEF7A4FD36
:101AF000A011009069466F48FEF760FD0C22092195
:101B00006C48FEF799FD4FF4806BCDF800B0694644
:101B10006848FEF753FD0C220A216648FEF78CFD4B
:101B20002011009069466348FEF748FD0C220B2106
:101B30006048FEF781FDCDF8009069465D48FEF7EC
:101B40003DFD0C2211465B48FEF776FDCDF800A066
:101B500069465848FEF732FD0C220D215548FEF724
:101B60006BFD009569465348FEF728FD0C220E21B7
:101B70005048FEF761FD009469464E48FEF71EFD91
:101B80000C220F214B48FEF757FD00966946484846
:101B9000FEF714FD0C2208214548FEF74DFDA0116B
:101BA000009069464248FEF709FD0C220921404891
:101BB000FEF742FDCDF800B069463D48FEF7FEFC59
:101BC0000C220A213A48FEF737FD402000903A4D9A
:101BD00069462846FEF7F2FC0C2206212846FEF74D
:101BE0002BFD009769463148FEF7E8FC0C220421E2
:101BF0002E48FEF721FDCDF8008069462B48FEF700
:101C0000DDFC0C2205212948FEF716FD012000907D
:101C10002A4F69463846FEF7D1FC0C22002138468F
:101C2000FEF70AFD2111009169461F48FEF7C6FC28
:101C30000C220B211C48FEF7FFFC009469461B4850
:101C4000FEF7BCFC0C220F211848FEF7F5FC0096AD
:101C500069461648FEF7B2FC0C2208211348FEF72D
:101C6000EBFC8020009069462846FEF7A7FC0C227A
:101C700007212846FEF7E0FC0220009069460D4847
:101C8000FEF79CFC0C2201210A48FEF7D5FC01203E
:101C9000009069460748FEF791FC0C220021054898
:101CA000FEF7CAFCBDE8FC9F001402400018024089
:101CB000000C024000100240001C024000080240DC
:101CC00000B593B0FFF730FE01210846FFF788FD0D
:101CD00002200190072102910422039204910590B1
:101CE0000690079001200890099008200A90102083
:101CF0000B9040200C904FF4C0700D9000200E907F
:101D000051020F9110908800119001A8129008A81C
:101D1000FEF7C8FB00F002F813B000BD2DE9FF414B
:101D200001250095082601960295002403942021A0
:101D30000120FEF78CFB0028F9D16846FEF7A2FBD4
:101D40000A2000F041F802200090019602950394C9
:101D500020210120FEF77BFB0028F9D16846FEF721
:101D600091FB032000900196042702970394202101
:101D70000120FEF76CFB0028F9D16846FEF782FBD4
:101D800020210120FEF763FB0028F9D16846FEF709
:101D900079FB40F2312000970196029503902021B3
:101DA0000120FEF754FB0028F9D16846FEF76AFBD4
:101DB00040F2AB20FEF7FAFB20210120FEF747FBA3
:101DC0000028F9D1BDE8FF8101B581B0054901982E
:101DD0004843009002E00098401E009000980028C0
:101DE000F9D10CBDA0860100002904D0018841F082
:101DF000400101807047018821F040010180704757
:101E00002DE9F04104460F4615460F48402606804E
:101E1000032000F087F8C7F3074000F083F8C7F30A
:101E2000072000F07FF8F8B200F07CF804E0FF2013
:101E300000F078F804F8010B6D1EADB2F7D202483D
:101E4000801E0680BDE8F0811A1402402DE9F0439F
:101E500087B001212020FFF7A7FC01210805FFF72B
:101E6000CDFCDFF8B890052207214846FEF7E4FBD9
:101E7000052208214846FEF7DFFB052209214846D6
:101E8000FEF7DAFB8020009002258DF805508DF8D2
:101E9000045000248DF806408DF8074069464846F6
:101EA000FEF78CFBE801009069464846FEF786FB8A
:101EB0004FF40078CDF8008069464846FEF77EFB77
:101EC0004027009701268DF8046069464846FEF7D2
:101ED00075FB124818300780ADF808404FF4827047
:101EE000ADF80A00ADF80C40ADF80E50ADF810603A
:101EF000ADF81280ADF81440ADF816400720ADF8EB
:101F00001800074C02A9204600F04FF80121204696
:101F1000FFF76AFF07B0BDE8F0830000001402403D
:101F2000005001402DE9F0410746184C4FF4805510
:101F30002560174E09E02068411E216005D200206F
:101F400000F050F8C0B2BDE8F0810221304600F048
:101F500021F80028EFD03946304600F024F82560FB
:101F600008E021684A1E226004D2012000F03AF8FD
:101F7000C0B2E8E70121304600F00CF80028F0D0AC
:101F8000304600F00EF8C0B2DDE70000500000203F
:101F9000005001400246002012890A4200D0012070
:101FA0007047808970478181704730B5028802F49C
:101FB00041530A884C88CD8822438C882C43224385
:101FC0000C8922434C8922438C892243CC892243A9
:101FD0001A430280828B22F400628283098A018282
:101FE00030BD000010B5014602A000F02FF900201E
:101FF00010BD00003C3C2D464C4153482D455252EB
:102000004F522D3E3E2053504920B5C8B4FDB3ACCD
:10201000CAB1216572726F72436F6465203D2025DD
:10202000640A0000704700001CB500210191009176
:102030002E4A106840F4803010604FF4A0431068BE
:1020400000F4003000900198401C0190009810B9F5
:1020500001989842F3D11068800302D501200090C6
:1020600000E00091009801283FD1204840300168ED
:1020700041F0805101601E49086840F4404008600A
:102080001A48083003680360036843F400430360A0
:10209000036843F4A0530360041F164B23601368C6
:1020A00043F08073136013689B01FCD50A6842F407
:1020B00080320A604A68D203FCD50A6842F40032D2
:1020C0000A604A689203FCD50B4A40F20571116020
:1020D000016821F003010160016841F00201016023
:1020E0000168C1F381010229FAD11CBD0038024008
:1020F00000700040195A4007003C02407047000041
:1021000010B51248016841F470010160104801687F
:1021100041F0010101600E4A00210832116002689D
:102120000C4B1A400260031D0B4A1A60026822F42D
:102130008022026006480C300160FFF775FF0349FA
:102140004FF000608039086010BD000088ED00E0AD
:1021500000380240FFFFF6FE10300024002904D0B2
:10216000818941F4005181817047818921F40051B6
:10217000818170470246002012880A4200D0012067
:10218000704700007FB504460D46208A20F4405178
:10219000E88808432082A08941F20C618843A9881D
:1021A0002A8911436A8902431143A181A08A20F43C
:1021B0004071A8890843A0826846FFF72DFB1E489E
:1021C000844202D01D48844201D1039800E0029865
:1021D000A189090408D500EBC00101EB00102968B2
:1021E0004900B0FBF1F007E000EBC00101EB00108B
:1021F00029688900B0FBF1F06422B0FBF2F109011B
:102200000B096FF018056B4300EB8300A3891D04D5
:102210004FF0320307D503EBC000B0FBF2F000F043
:102220000700084306E003EB0010B0FBF2F000F0FB
:102230000F00084320817FBD0010014000140140C1
:10224000C1F3080181807047FEE700000FB4054B21
:1022500010B503A9044A029800F02CF810BC5DF8F0
:1022600014FB000021270008540000200FB4084B85
:1022700010B504A902AA039800F01CF8044602A9AC
:10228000002000F048FA204610BC5DF814FB000066
:102290001727000802E008C8121F08C1002AFAD157
:1022A00070477047002001E001C1121F002AFBD1D6
:1022B000704700002DE9FF4F8DB00F460546002600
:1022C00006E025280BD0DDE90F1290476D1C761C27
:1022D00028780028F5D111B03046BDE8F08F0024F1
:1022E000A246A1460122EC4900E0044315F8013F53
:1022F000203B02FA03F00842F7D128782A2810D0B0
:102300006FF02F022878A0F13001092914D80AEBC8
:102310008A0102EB410144F0020400EB010A6D1C4A
:10232000F0E701CF5FEA000A03D544F40054CAF194
:10233000000A44F002046D1C28782E2817D115F8E5
:10234000010F44F004042A280ED06FF02F022878E1
:10235000A0F1300109290AD809EB890102EB4101FA
:1023600000EB01096D1CF2E757F8049B6D1C2878FF
:102370006C280FD006DC4C2817D068280DD06A28AE
:1023800014D104E0742810D07A280FD10DE044F461
:1023900000140AE044F4801401E044F44014697825
:1023A000814202D104F580146D1C6D1C2A786E2ABE
:1023B0001FD00CDC632A31D004DC002A8BD0582AD1
:1023C00011D1A3E0642A68D0692A0CD165E0732A90
:1023D0002ED004DC6F2A73D0702A04D19BE0752ABA
:1023E0006FD0782A6ED01046DDE90F129047761C28
:1023F00050E1C4F30250022806D0032809D0042873
:1024000001CF09D0066045E101CFF117C0E90061B5
:1024100040E101CF06803DE106703BE117F8040B77
:102420008DF8000000208DF80100EB46012003E04C
:1024300057F804BB4FF0FF3061074FF0000102D4A2
:102440000DE008F10101884649450FDA8045F8DBC7
:102450001BF808100029F4D108E008F101018846B2
:102460008142FADB1BF808100029F6D1DDE90F23C1
:10247000AAEB08008146214600F036F9304400EB13
:10248000080604E0DDE90F121BF8010B9047B8F1D4
:102490000108F7D221464846F7E00A21C4F3025367
:1024A0004FF0000B0891022B04D001CFC117032B72
:1024B00009D00AE0FF1D27F00707F7E8020108E04E
:1024C00032E01FE020E000B2C117042B01D140B27E
:1024D000C117031E71F1000307DA4FF0000CD0EBB7
:1024E0000C006CEB01012D2302E0230504D52B2306
:1024F0008DF82430012303E0E30701D02023F7E720
:10250000984658E00A2110E010210EE010204FF00C
:10251000000B08900CE010214FF0000B44F0040475
:102520004FF00809089103E008214FF0000B0891D3
:10253000C4F30253022B04D001CF0021032B06D099
:1025400006E0FF1D27F00707F7E8020103E080B26D
:10255000042B00D1C0B24FF0000823072BD5702AFE
:1025600007D0DDF820C08CF0100C5CEA0B0C05D015
:102570000EE040238DF82430012308E050EA0103E7
:1025800006D030238DF824308DF82520022398467C
:10259000DDF820C08CF0080C5CEA0B0C0BD150EA83
:1025A000010301D1630706D530238DF824304FF0A5
:1025B0000108A9F10109582A04D038A20B9208AAEF
:1025C0000A920BE03AA2F9E75B46089AFDF70AFE89
:1025D0000B9B9B5C0A9A521E0A92137050EA0102EE
:1025E000F2D10A98ADEB000000F1200B600702D594
:1025F00024F4803401E04FF00109D94502DDA9EB54
:102600000B0000E0002000EB0B0141440890AAEB16
:10261000010AE00306D4DDE90F232146504600F00D
:1026200063F806444FF0000908E009A911F8090011
:10263000DDE90F12904709F10109761CC145F4DB71
:10264000E0030CD5DDE90F232146504600F04CF89D
:10265000064404E0DDE90F1230209047761C08990B
:10266000481E08900029F5DC08E00A980A990078CD
:10267000491C0A91DDE90F129047761CBBF100015D
:10268000ABF1010BF1DC21465046DDE90F2300F0F0
:1026900019F806446D1C1BE609280100303132335D
:1026A000343536373839616263646566000000008E
:1026B0003031323334353637383941424344454678
:1026C000000000002DE9F041044600251E46174693
:1026D000880404D405E039462020B0476D1C641EF0
:1026E000F9D52846BDE8F0812DE9F04104460025E2
:1026F0001E469046C80301D5302700E020278804F5
:1027000004D505E041463846B0476D1C641EF9D536
:102710002846BDE8F0810A68531C0B6010707047B2
:1027200070B50446064DE1B22846FFF789FD8021C9
:102730002846FFF71FFD0028F9D0204670BD000095
:1027400000100140FEF7D8FEFDF72CFEFEF7DAFF81
:10275000FEF7D4FBFEF712FC0120FEF7FBFE002083
:10276000FEF76CFC4FF400442046FDF7A9FF012062
:10277000FEF764FCFF20FEF779FC2046FDF7A0FF82
:10278000074861110180C114018005498014891C2A
:102790000880401EFDF752FEFEF780FCFCE70000BB
:1027A000181C0240000000000000000000000000B3
:1027B0000000000000000000000000000000000019
:1027C0000000000000000000000000000000000009
:1027D0000000000000008001800180018001800174
:1027E00080018001800180018001800180018001E1
:1027F00000000000800180010000000000000000D7
:102800000000000000000000CC00CC00CC00CC0098
:10281000CC00CC0000000000000000000000000020
:1028200000000000000000000000000000000000A8
:102830000000000000000000000000000000000098
:10284000600C600C600C30063006FE1FFE1F300668
:1028500038071803FE1FFE1F180318038C018C0194
:102860008C01000000008000E003F80F9C0E8C1C1F
:102870008C188C009800F801E007800E801C8C18E2
:102880008C189C18B80CF00FE0038000800000004A
:10289000000000000000000000000E181B0C110CCE
:1028A00011061106110311039B018E01C038C06C83
:1028B00060446044304430441844186C0C380000C4
:1028C000000000000000E001F003380718061806B9
:1028D0003003F001F000F8009C310E33061E061C98
:1028E000061C063FFC73F021000000000000000001
:1028F00000000000000000000C000C000C000C00A8
:102900000C000C00000000000000000000000000AF
:1029100000000000000000000000000000000000B7
:10292000000000000000000200038001C000C000A1
:1029300060006000300030003000300030003000B7
:102940003000300060006000C000C0008001000363
:1029500000020000000020006000C0008001800133
:10296000000300030006000600060006000600063D
:10297000000600060003000380018001C000600023
:102980002000000000000000000000000000000027
:10299000C000C000D806F807E00130033807000087
:1029A0000000000000000000000000000000000027
:1029B0000000000000000000000000000000000017
:1029C00080018001800180018001FC3FFC3F80018B
:1029D00080018001800180010000000000000000F3
:1029E00000000000000000000000000000000000E7
:1029F00000000000000000000000000000000000D7
:102A00000000000000008001800100010001800042
:102A100000000000000000000000000000000000B6
:102A2000000000000000000000000000E007E007D8
:102A30000000000000000000000000000000000096
:102A40000000000000000000000000000000000086
:102A50000000000000000000000000000000000076
:102A6000000000000000C000C000000000000000E6
:102A7000000000000000000C000C0006000600062C
:102A80000003000300038003800180018001C00077
:102A9000C000C000600060000000000000000000F6
:102AA000000000000000E003F007380E180C0C18BE
:102AB0000C180C180C180C180C180C180C180C18F6
:102AC000180C380EF007E0030000000000000000C2
:102AD00000000000000000018001C001F001980129
:102AE00088018001800180018001800180018001D6
:102AF00080018001800180010000000000000000D2
:102B0000000000000000E003F80F180C0C180C186F
:102B100000180018000C000600038001C0006000CF
:102B200030001800FC1FFC1F000000000000000027
:102B3000000000000000E001F807180E0C0C0C0C5F
:102B4000000C0006C003C007000C001800180C1889
:102B50000C18180CF807E00300000000000000004B
:102B6000000000000000000C000E000F000F800DA0
:102B7000C00C600C600C300C180C0C0CFC3FFC3FC3
:102B8000000C000C000C000C000000000000000015
:102B9000000000000000F80FF80F180018000C00EB
:102BA000EC03FC071C0E001C0018001800180C1881
:102BB0001C0C180EF807E0030000000000000000E5
:102BC000000000000000C007F00F381C18181800A3
:102BD0000C00CC03EC0F3C0E1C1C0C180C180C1831
:102BE000181C380EF007E003000000000000000091
:102BF000000000000000FC1FFC1F000C0006000687
:102C0000000380038001C001C000E000600060009C
:102C100070003000300030000000000000000000B4
:102C2000000000000000E003F007380E180C180C3C
:102C3000180C3806F007F007180C0C180C180C18B4
:102C40000C18380CF80FE003000000000000000032
:102C5000000000000000E003F007380E1C0C0C1808
:102C60000C180C181C1C381EF81BE0190018000C5E
:102C7000000C1C0EF807F00100000000000000002E
:102C80000000000000000000000000000000000044
:102C90008001800100000000000000000000000032
:102CA0000000000080018001000000000000000022
:102CB0000000000000000000000000000000000014
:102CC0008001800100000000000000000000000002
:102CD0000000000080018001000100018000000070
:102CE00000000000000000000000000000000000E4
:102CF000000000000010001C800FE003F800180026
:102D0000F800E003800F001C00100000000000002D
:102D100000000000000000000000000000000000B3
:102D200000000000F81F000000000000F81F000075
:102D30000000000000000000000000000000000093
:102D40000000000000000000000000000000000083
:102D50000000000008003800F001C007001F001844
:102D6000001FC007F001380008000000000000004C
:102D7000000000000000E003F80F180C0C180C18FD
:102D80000018000C000600038001C000C000C00055
:102D900000000000C000C0000000000000000000B3
:102DA0000000000000000000E00718180420C229FD
:102DB000224A114409440944094409221113E20C2E
:102DC000024004201818E007000000000000000086
:102DD00000000000000080038003C006C006C0069B
:102DE000600C600C301830183018F83FF83F1C7039
:102DF0000C600C6006C006C000000000000000006F
:102E0000000000000000FC03FC0F0C0C0C180C1858
:102E10000C180C0CFC07FC0F0C180C300C300C3090
:102E20000C300C18FC1FFC07000000000000000024
:102E3000000000000000C007F01F38381C300C7084
:102E40000660060006000600060006000600066092
:102E50000C701C30F01FE0070000000000000000B4
:102E6000000000000000FE03FE0F060E0618061804
:102E700006300630063006300630063006300618BA
:102E80000618060EFE0FFE03000000000000000002
:102E9000000000000000FC3FFC3F0C000C000C0098
:102EA0000C000C00FC1FFC1F0C000C000C000C00A4
:102EB0000C000C00FC3FFC3F000000000000000084
:102EC000000000000000F83FF83F1800180018004C
:102ED00018001800F81FF81F180018001800180034
:102EE0001800180018001800000000000000000082
:102EF000000000000000E00FF83F3C780E6006E0A4
:102F000007C00300030003FE03FE03C007C006C0A2
:102F10000EC03CF0F83FE00F000000000000000091
:102F20000000000000000C300C300C300C300C3075
:102F30000C300C30FC3FFC3F0C300C300C300C30B3
:102F40000C300C300C300C30000000000000000091
:102F500000000000000080018001800180018001EC
:102F60008001800180018001800180018001800159
:102F7000800180018001800100000000000000004D
:102F80000000000000000006000600060006000623
:102F900000060006000600060006000600061806E9
:102FA00018063807F003E0010000000000000000F0
:102FB00000000000000006300618060C0606060396
:102FC0008601C60066007600DE008E010603060656
:102FD000060C061806300660000000000000000025
:102FE0000000000000001800180018001800180069
:102FF0001800180018001800180018001800180011
:1030000018001800F81FF81F000000000000000062
:103010000000000000000EE01EF01EF01EF036D88A
:1030200036D836D836D866CC66CC66CCC6C6C6C6C8
:10303000C6C6C6C686C386C30000000000000000E6
:103040000000000000000C301C303C303C306C3084
:103050006C30CC30CC308C310C330C330C360C361D
:103060000C3C0C3C0C380C30000000000000000050
:10307000000000000000E007F81F1C380E7006601A
:1030800003C003C003C003C003C003C003C0066085
:103090000E701C38F81FE007000000000000000060
:1030A000000000000000FC0FFC1F0C380C300C303E
:1030B0000C300C300C18FC1FFC070C000C000C0032
:1030C0000C000C000C000C000000000000000000D0
:1030D000000000000000E007F81F1C380E700660BA
:1030E00003E003C003C003C003C003C007E00663DE
:1030F0000E3F1C3CF83FE0F700C00000000000005D
:10310000000000000000FE0FFE1F063806300630EB
:1031100006300638FE1FFE0706030606060C0618D4
:1031200006180630063006600000000000000000AF
:10313000000000000000E003F80F1C0C0C180C1835
:103140000C001C00F803E00F001E003806300630AB
:103150000E301C1CF80FE00700000000000000000B
:10316000000000000000FE7FFE7F800180018001E2
:103170008001800180018001800180018001800147
:10318000800180018001800100000000000000003B
:103190000000000000000C300C300C300C300C3003
:1031A0000C300C300C300C300C300C300C300C303F
:1031B0000C301818F81FE0070000000000000000A5
:1031C00000000000000003600630063006300C18D6
:1031D0000C180C18180C180C380E30063006700736
:1031E00060036003C001C001000000000000000097
:1031F0000000000000000360C361C361C361663367
:10320000663366336633663366336C1B6C1B6C1B2C
:103210002C1A3C1E380E380E000000000000000082
:103220000000000000000FE00C7018303018700C27
:10323000600EC00780038003C003E006700C301CE2
:1032400018180C300E6007E00000000000000000BD
:1032500000000000000003C006600C301C38381865
:10326000300C6006E007C00380018001800180010E
:10327000800180018001800100000000000000004A
:10328000000000000000FC7FFC7F006000300018A0
:10329000000C000600038001C00060003000180030
:1032A0000C000600FE7FFE7F000000000000000012
:1032B000000000000000E003E00360006000600028
:1032C00060006000600060006000600060006000FE
:1032D0006000600060006000600060006000E0036B
:1032E000E00300000000300030006000600060007B
:1032F000C000C000C000C001800180018001000347
:1033000000030003000600060000000000000000AB
:10331000000000000000E003E003000300030003DE
:103320000003000300030003000300030003000385
:103330000003000300030003000300030003E00395
:10334000E003000000000000C001C0016003600352
:10335000600330063006180C180C00000000000056
:10336000000000000000000000000000000000005D
:10337000000000000000000000000000000000004D
:10338000000000000000000000000000000000003D
:10339000000000000000FFFFFFFF00000000000031
:1033A0000000000000000C000C000C000C000C00E1
:1033B0000C00000000000000000000000000000001
:1033C00000000000000000000000000000000000FD
:1033D00000000000000000000000000000000000ED
:1033E000F003F8071C0C0C0C000FF00FF80C0C0C81
:1033F0000C0C1C0FF80FF01800000000000000007B
:103400000000000000001800180018001800180044
:10341000D803F80F380C1818181818181818181896
:103420001818380CF80FD803000000000000000046
:10343000000000000000000000000000000000008C
:10344000C003F007300E180C180018001800180000
:10345000180C300EF007C003000000000000000050
:1034600000000000000000180018001800180018E4
:10347000C01BF01F301C1818181818181818181826
:103480001818301CF01FC01B0000000000000000D6
:10349000000000000000000000000000000000002C
:1034A000C003F00F300C1818F81FF81F1800180090
:1034B0003818301CF00FC0070000000000000000AA
:1034C000000000000000800FC00FC000C000C0005E
:1034D000F007F007C000C000C000C000C000C0007E
:1034E000C000C000C000C0000000000000000000DC
:1034F00000000000000000000000000000000000CC
:10350000E00DF80F180E0C0C0C0C0C0C0C0C0C0C29
:103510000C0C180EF80FE00D000C0C0C1C06F80734
:10352000F001000000001800180018001800180032
:10353000D807F80F381C1818181818181818181861
:1035400018181818181818180000000000000000BB
:10355000000000000000C000C000000000000000EB
:10356000C000C000C000C000C000C000C000C0005B
:10357000C000C000C000C00000000000000000004B
:10358000000000000000C000C000000000000000BB
:10359000C000C000C000C000C000C000C000C0002B
:1035A000C000C000C000C000C000C000C000F800E3
:1035B0007800000000000C000C000C000C000C0057
:1035C0000C0C0C060C038C01CC006C00FC009C0164
:1035D0008C030C030C060C0C000000000000000023
:1035E000000000000000C000C000C000C000C0001B
:1035F000C000C000C000C000C000C000C000C000CB
:10360000C000C000C000C0000000000000000000BA
:1036100000000000000000000000000000000000AA
:103620007C3CFF7EC7E383C183C183C183C183C167
:1036300083C183C183C183C100000000000000007A
:10364000000000000000000000000000000000007A
:103650009807F80F381C1818181818181818181880
:10366000181818181818181800000000000000009A
:10367000000000000000000000000000000000004A
:10368000C003F00F300C181818181818181818184C
:103690001818300CF00FC0030000000000000000FC
:1036A000000000000000000000000000000000001A
:1036B000D803F80F380C18181818181818181818F4
:1036C0001818380CF80FD803180018001800180044
:1036D00018000000000000000000000000000000D2
:1036E000C01BF01F301C18181818181818181818B4
:1036F0001818301CF01FC01B001800180018001804
:1037000000180000000000000000000000000000A1
:10371000B007F0037000300030003000300030009F
:1037200030003000300030000000000000000000D9
:103730000000000000000000000000000000000089
:10374000E003F003380E180C3800F003C007000C3B
:10375000180C380EF007E003000000000000000025
:1037600000000000000000008000C000C000C00099
:10377000F007F007C000C000C000C000C000C000DB
:10378000C000C000C007800700000000000000006B
:103790000000000000000000000000000000000029
:1037A0001818181818181818181818181818181899
:1037B0001818381CF01FE01900000000000000007D
:1037C00000000000000000000000000000000000F9
:1037D0000C18180C180C180C300630063006600354
:1037E00060036003C001C001000000000000000091
:1037F00000000000000000000000000000000000C9
:10380000C141C141C3616363636363633636363666
:1038100036361C1C1C1C1C1C000000000000000094
:103820000000000000000000000000000000000098
:103830001C38381C300C60066003600360036003B2
:103840006006300C381C1C3800000000000000002E
:103850000000000000000000000000000000000068
:103860001830301830187018600C600CE00CC0066E
:10387000C00680038003800380018001C001F00046
:1038800070000000000000000000000000000000C8
:10389000FC1FFC1F000C000600038001C00060003C
:1038A00030001800FC1FFC1F00000000000000009A
:1038B00000000000000000038001C000C000C00044
:1038C000C000C000C0006000600030006000400028
:1038D000C000C000C000C000C000C00080010003E4
:1038E0000000000000008001800180018001800153
:1038F00080018001800180018001800180018001C0
:1039000080018001800180018001800180018001AF
:103910008001000000006000C000C0018001800143
:103920008001800180010003000300060003000104
:10393000800180018001800180018001C000600061
:103940000000000000000000000000000000000077
:1039500000000000F010F81F080F00000000000039
:103960000000000000000000000000000000000057
:1039700000000000943900080000002058000000FA
:1039800094220008EC3900085800002000040000D0
:10399000A422000800000000010203040102030445
:1039A00006070809000080109008980C9008A000F5
:1039B000803FFC000400041FFC0004000400043FDE
:1039C000FC000400000000000000FFFF000000D029
:1039D0000000000000000000A427000810001800EC
:0C39E0000000000000A00000000000003B
:04000005080001AD41
:00000001FF
