:020000040800F2
:1000000000040020C10100085703000897020008FF
:100010005503000809020008A504000800000000BC
:10002000000000000000000000000000790300084C
:100030000B020008000000005903000851040008EA
:10004000DB010008DB010008DB010008DB01000820
:10005000DB010008DB010008DB010008DB01000810
:10006000DB010008DB010008DB010008DB01000800
:10007000DB010008DB010008DB010008DB010008F0
:10008000DB010008DB010008DB010008DB010008E0
:10009000DB010008DB010008DB010008DB010008D0
:1000A000DB010008DB010008DB010008DB010008C0
:1000B000DB010008DB010008DB010008DB010008B0
:1000C000DB010008DB010008DB010008DB010008A0
:1000D000DB010008DB010008DB010008DB01000890
:1000E000DB010008DB010008DB010008DB01000880
:1000F000DB010008DB010008DB010008DB01000870
:10010000DB010008DB010008DB010008DB0100085F
:10011000DB010008DB010008DB010008DB0100084F
:10012000DB010008DB010008DB010008DB0100083F
:10013000DB010008DB010008DB010008DB0100082F
:10014000DB010008DB010008DB010008DB0100081F
:10015000DB010008DB010008DB010008DB0100080F
:10016000DB010008DB010008DB010008DB010008FF
:10017000DB010008DB010008DB010008DB010008EF
:10018000DB010008DB010008DB010008DB010008DF
:10019000DB010008DB010008DB010008DB010008CF
:1001A000DB010008DB010008DB010008DFF80CD0F0
:1001B00000F018F800480047C504000800040020BB
:1001C0000648804706480047FEE7FEE7FEE7FEE7F1
:1001D000FEE7FEE7FEE7FEE7FEE7FEE75504000860
:1001E000AD010008064C074D06E0E06840F0010351
:1001F00094E8070098471034AC42F6D3FFF7DAFFD3
:100200000C0500081C050008FEE770472DE9F041C9
:10021000002201274FF0030C07FA02F50B682B4070
:10022000AB422CD1066853000CFA03F4A6430660D7
:100230000E79D0F800809E4046EA080606600E79E6
:10024000012E01D0022E12D18668A64386604E7917
:10025000D0F808809E4046EA080686604668AE43AD
:10026000466045688E799640B6B235434560C568AC
:10027000A543C560CC799C40C3681C43C460521C34
:10028000102AC9D3BDE8F0810246002012690A4253
:1002900000D001207047FEE71CB50121052000F0C9
:1002A0005DF80120009000208DF804008DF8070013
:1002B00069460548FFF7AAFF4FF4005000906946D1
:1002C0000248FFF7A3FF1CBD0000024000080240E7
:1002D00070B504460D4629462046FFF7D5FF012894
:1002E00001D0002070BD29462046FFF7CDFF012830
:1002F000F9D0012070BD00002DE9FC4101218020D2
:1003000000F02CF84FF48064009401208DF8040074
:1003100000218DF806108DF807008DF805100C4FA0
:1003200069463846FFF772FF660000966946384610
:10033000FFF76CFFA500009569463846FFF766FF9A
:1003400003481830048006800580BDE8FC81000069
:10035000001C0240FEE7704770470000054A002974
:1003600003D0116801431160704711688143116027
:100370007047000030380240704700001CB5002173
:10038000019100912E4A106840F4803010604FF4C3
:10039000A043106800F4003000900198401C0190C8
:1003A000009810B901989842F3D11068800302D5E3
:1003B0000120009000E00091009801283FD12048E2
:1003C0004030016841F0805101601E49086840F4E6
:1003D000404008601A48083003680360036843F42B
:1003E00000430360036843F4A0530360041F164BEB
:1003F0002360136843F08073136013689B01FCD57E
:100400000A6842F480320A604A68D203FCD50A685E
:1004100042F400320A604A689203FCD50B4A40F26B
:1004200005711160016821F003010160016841F06C
:10043000020101600168C1F381010229FAD11CBDEA
:100440000038024000700040195A4007003C02404A
:100450007047000010B50F48016841F001010160CC
:100460000C4A00210832116002680B4B1A400260EE
:10047000031D0A4A1A60026822F4802202600548BD
:100480000C300160FFF77AFF05494FF0006008600B
:1004900010BD000000380240FFFFF6FE10300024BF
:1004A00008ED00E0FEE702E008C8121F08C1002ABC
:1004B000FAD170477047002001E001C1121F002AE5
:1004C000FBD17047FFF718FFFFF7E6FE0C4D0D4F0D
:1004D0000D4C4FF4005601212846FFF7F9FE012884
:1004E00003D1206880F48060206031463846FFF7F1
:1004F000EFFE0128EFD1206880F400602060EAE779
:100500000000024000080240141C02401C050008C4
:0C0510000000002000040000B6040008F9
:04000005080001AD41
:00000001FF
