:020000040800F2
:1000000000040020C101000853040008F1030008A7
:1000100051040008090200089906000800000000C9
:100020000000000000000000000000004105000882
:100030000B02000800000000050500084506000846
:10004000DB010008DB010008DB010008DB01000820
:10005000DB010008DB0100080D020008DB010008DD
:10006000DB010008DB010008DB010008DB01000800
:10007000DB010008DB010008DB010008DB010008F0
:10008000DB010008DB010008DB010008DB010008E0
:10009000DB010008DB010008DB010008DB010008D0
:1000A000DB010008DB010008DB010008DB010008C0
:1000B000DB010008DB010008DB010008DB010008B0
:1000C000DB010008DB010008DB010008DB010008A0
:1000D000DB010008DB010008DB010008DB01000890
:1000E00035020008DB010008DB010008DB01000825
:1000F000DB010008DB010008DB010008DB01000870
:10010000DB010008DB010008DB010008DB0100085F
:10011000DB010008DB010008DB010008DB0100084F
:10012000DB010008DB010008DB010008DB0100083F
:10013000DB010008DB010008DB010008DB0100082F
:10014000DB010008DB010008DB010008DB0100081F
:10015000DB010008DB010008DB010008DB0100080F
:10016000DB010008DB010008DB010008DB010008FF
:10017000DB010008DB010008DB010008DB010008EF
:10018000DB010008DB010008DB010008DB010008DF
:10019000DB010008DB010008DB010008DB010008CF
:1001A000DB010008DB010008DB010008DFF80CD0F0
:1001B00000F018F800480047B906000800040020C5
:1001C0000648804706480047FEE7FEE7FEE7FEE7F1
:1001D000FEE7FEE7FEE7FEE7FEE7FEE7490600086A
:1001E000AD010008064C074D06E0E06840F0010351
:1001F00094E8070098471034AC42F6D3FFF7DAFFD3
:10020000C4060008D4060008FEE7704710B50120B8
:1002100000F02CF8002809D00548016881F48061BD
:100220000160BDE81040012000F01AB810BD0000C8
:10023000141C024010B54FF40054204600F016F88C
:10024000002809D00548016881F40061016020465A
:10025000BDE8104000F004B810BD0000141C0240BE
:100260000149086070470000143C0140014600202D
:10027000024A12680A4200D001207047143C014033
:1002800030B51B4A83790168002B2AD013688B4351
:100290001360111D0B680468A3430B6001791144BE
:1002A0000B68046823430B60114C08342168036811
:1002B00099432160231D19680568A9431960417994
:1002C000102905D011440A68006802430A6030BD55
:1002D00021680268114321601968006801431960B0
:1002E00030BD0079104402688A43026030BD0000CE
:1002F000003C01407FB50121052000F005F90121F6
:10030000880300F00FF900F0A5F8012402940025FD
:100310008DF80C508DF80F5002A9144800F02AF8FF
:100320000021084600F00EF900948DF804500820D2
:100330008DF805008DF806406846FFF7A1FF6603BB
:10034000029602A90A4800F015F80D21022000F0DB
:10035000F9F800968DF804500C208DF805008DF802
:1003600006406846FFF78CFF7FBD0000000002409A
:10037000000802402DE9F041002201274FF0030C54
:1003800007FA02F50B682B40AB422CD106685300EC
:100390000CFA03F4A64306600E79D0F800809E4064
:1003A00046EA080606600E79012E01D0022E12D10F
:1003B0008668A64386604E79D0F808809E4046EA5B
:1003C000080686604668AE43466045688E7996406A
:1003D000B6B235434560C568A543C560CC799C403D
:1003E000C3681C43C460521C102AC9D3BDE8F08105
:1003F000FEE700002DE9FC410121802000F084F897
:100400004FF48064009401208DF8040000218DF8E1
:1004100006108DF807008DF805100C4F6946384618
:10042000FFF7A8FF6600009669463846FFF7A2FF6F
:10043000A500009569463846FFF79CFF0348183031
:10044000048006800580BDE8FC810000001C02409D
:10045000FEE7704708B54FF4C06000F049F8062089
:100460008DF8000001208DF801008DF802008DF854
:100470000300684600F008F828208DF80000684660
:1004800000F002F808BD000030B50F23C278012546
:100490000178002A1FD0154A126802F4E062C2F502
:1004A000E062C2F30722C2F10404D3404278A240C2
:1004B00084781C401443220101F1E02181F80024DA
:1004C000007800F01F018D404009800000F1E0201D
:1004D000C0F8005130BD01F01F0085404809800080
:1004E00000F1E020C0F8805130BD00000CED00E0CC
:1004F0000249084302490860704700000000FA05FD
:100500000CED00E070470000054A002903D0116897
:10051000014311607047116881431160704700000A
:1005200030380240054A002903D0116801431160A8
:1005300070471168814311607047000044380240E1
:100540007047000010B58A07120F0F23934021F067
:1005500003040649214401F608010C689C430C6021
:100560000B68904003430B6010BD00000030014059
:100570001CB50021019100912E4A106840F4803092
:1005800010604FF4A043106800F400300090019810
:10059000401C0190009810B901989842F3D110685E
:1005A000800302D50120009000E00091009801280E
:1005B0003FD120484030016841F0805101601E4920
:1005C000086840F4404008601A4808300368036037
:1005D000036843F400430360036843F4A0530360DB
:1005E000041F164B2360136843F080731360136875
:1005F0009B01FCD50A6842F480320A604A68D20343
:10060000FCD50A6842F400320A604A689203FCD5BD
:100610000B4A40F205711160016821F0030101608D
:10062000016841F0020101600168C1F38101022902
:10063000FAD11CBD0038024000700040195A400732
:10064000003C02407047000010B50F48016841F0BF
:10065000010101600C4A00210832116002680B4B55
:100660001A400260031D0A4A1A60026822F48022BE
:10067000026005480C300160FFF77AFF05494FF032
:100680000060086010BD000000380240FFFFF6FE69
:100690001030002408ED00E0FEE702E008C8121F59
:1006A00008C1002AFAD170477047002001E001C15B
:1006B000121F002AFBD17047FFF79CFEFFF71AFEBE
:1006C000FEE70000D406000800000020000400003F
:0406D000AA0600086E
:04000005080001AD41
:00000001FF
