:020000040800F2
:1000000000040020C101000803030008A302000847
:100010000103000809020008510400080000000064
:1000200000000000000000000000000025030008A0
:100030000B0200080000000005030008FD03000893
:10004000DB010008DB010008DB010008DB01000820
:10005000DB010008DB010008DB010008DB01000810
:10006000DB010008DB010008DB010008DB01000800
:10007000DB010008DB010008DB010008DB010008F0
:10008000DB010008DB010008DB010008DB010008E0
:10009000DB010008DB010008DB010008DB010008D0
:1000A000DB010008DB010008DB010008DB010008C0
:1000B000DB010008DB010008DB010008DB010008B0
:1000C000DB010008DB010008DB010008DB010008A0
:1000D000DB010008DB010008DB010008DB01000890
:1000E000DB010008DB010008DB010008DB01000880
:1000F000DB010008DB010008DB010008DB01000870
:10010000DB010008DB010008DB010008DB0100085F
:10011000DB010008DB010008DB010008DB0100084F
:10012000DB010008DB010008DB010008DB0100083F
:10013000DB010008DB010008DB010008DB0100082F
:10014000DB010008DB010008DB010008DB0100081F
:10015000DB010008DB010008DB010008DB0100080F
:10016000DB010008DB010008DB010008DB010008FF
:10017000DB010008DB010008DB010008DB010008EF
:10018000DB010008DB010008DB010008DB010008DF
:10019000DB010008DB010008DB010008DB010008CF
:1001A000DB010008DB010008DB010008DFF80CD0F0
:1001B00000F018F80048004771040008000400200F
:1001C0000648804706480047FEE7FEE7FEE7FEE7F1
:1001D000FEE7FEE7FEE7FEE7FEE7FEE701040008B4
:1001E000AD010008064C074D06E0E06840F0010351
:1001F00094E8070098471034AC42F6D3FFF7DAFFD3
:100200006805000878050008FEE7704701B502E0C0
:100210000098401E009000980028F9D108BD2DE9F3
:10022000F041002201274FF0030C07FA02F50B689A
:100230002B40AB422CD1066853000CFA03F4A643C2
:1002400006600E79D0F800809E4046EA08060660F7
:100250000E79012E01D0022E12D18668A643866047
:100260004E79D0F808809E4046EA080686604668C7
:10027000AE43466045688E799640B6B235434560D8
:10028000C568A543C560CC799C40C3681C43C46065
:10029000521C102AC9D3BDE8F08141837047018305
:1002A0007047FEE72DE9FC410121802000F02CF889
:1002B0004FF48064009401208DF8040000218DF833
:1002C00006108DF807008DF805100C4F694638466A
:1002D000FFF7A5FF6600009669463846FFF79FFFC7
:1002E000A500009569463846FFF799FF0348183086
:1002F000048006800580BDE8FC810000001C0240EF
:10030000FEE7704770470000054A002903D01168D6
:10031000014311607047116881431160704700000C
:1003200030380240704700001CB500210191009157
:100330002E4A106840F4803010604FF4A0431068DB
:1003400000F4003000900198401C0190009810B912
:1003500001989842F3D11068800302D501200090E3
:1003600000E00091009801283FD12048403001680A
:1003700041F0805101601E49086840F44040086027
:100380001A48083003680360036843F400430360BD
:10039000036843F4A0530360041F164B23601368E3
:1003A00043F08073136013689B01FCD50A6842F424
:1003B00080320A604A68D203FCD50A6842F40032EF
:1003C0000A604A689203FCD50B4A40F2057111603D
:1003D000016821F003010160016841F00201016040
:1003E0000168C1F381010229FAD11CBD0038024025
:1003F00000700040195A4007003C0240704700005E
:1004000010B50F48016841F0010101600C4A00215C
:100410000832116002680B4B1A400260031D0A4A41
:100420001A60026822F48022026005480C300160E4
:10043000FFF77AFF05494FF00060086010BD00002B
:1004400000380240FFFFF6FE1030002408ED00E007
:10045000FEE702E008C8121F08C1002AFAD170475F
:100460007047002001E001C1121F002AFBD1704734
:10047000FFF718FFDFF8EC904FF48064394F650008
:1004800009F11A096FF07F48A600A9F1020A214676
:100490003846FFF702FF4046FFF7B8FE21463846D0
:1004A000FFF7FDFE29463846FFF7F7FE4046FFF707
:1004B000ADFE29463846FFF7F2FE31463846FFF7D3
:1004C000ECFE4046FFF7A2FE31463846FFF7E7FE56
:1004D000A9F80040AAF80050AAF800604046FFF7CB
:1004E00095FEAAF80040A9F80050AAF8006040461E
:1004F000FFF78CFEAAF80040AAF80050A9F80060A7
:100500004046FFF783FEA9F80040A9F80050AAF87A
:1005100000604046FFF77AFEA9F80040AAF80050B4
:10052000A9F800604046FFF771FEAAF80040A9F85C
:100530000050A9F800604046FFF768FEA9F80040A7
:10054000A9F80050A9F800604046FFF75FFEAAF83E
:100550000040AAF80050AAF800604046FFF756FE97
:1005600095E70000001C024078050008000000200C
:08057000000400006204000811
:04000005080001AD41
:00000001FF
