:020000040800F2
:1000000018040020C101000803060008A10500082B
:1000100001060008AB020008790F0008000000008C
:100020000000000000000000000000002D0D00088E
:10003000AD0200080000000005060008150E0008CB
:10004000DB010008DB010008DB010008DB01000820
:10005000DB010008DB010008DB010008DB01000810
:10006000DB010008DB010008DB010008DB01000800
:10007000DB010008DB010008DB010008DB010008F0
:10008000DB010008DB010008DB010008DB010008E0
:10009000DB010008DB010008DB010008DB010008D0
:1000A000DB010008DB010008DB010008DB010008C0
:1000B000DB010008DB010008DB010008DB010008B0
:1000C000DB010008DB010008DB010008DB010008A0
:1000D000DB010008DB010008DB010008DB01000890
:1000E000DB010008DB010008DB010008DB01000880
:1000F000DB010008DB010008DB010008DB01000870
:10010000DB010008DB010008DB010008DB0100085F
:10011000DB010008DB010008DB010008DB0100084F
:10012000DB010008DB010008DB010008DB0100083F
:10013000DB010008DB010008DB010008DB0100082F
:10014000DB010008DB010008DB010008DB0100081F
:10015000DB010008DB010008DB010008DB0100080F
:10016000DB010008DB010008DB010008DB010008FF
:10017000DB010008DB010008DB010008DB010008EF
:10018000DB010008DB010008DB010008DB010008DF
:10019000DB010008DB010008DB010008DB010008CF
:1001A000DB010008DB010008DB010008DFF80CD0F0
:1001B00000F04AF800480047A11200081804002087
:1001C0000648804706480047FEE7FEE7FEE7FEE7F1
:1001D000FEE7FEE7FEE7FEE7FEE7FEE7190E000892
:1001E000AD0100082DE9F05F0546002092469B46D0
:1001F00088460646814640241BE02846414647463D
:10020000224600F042F853465A46C01A914110D394
:1002100011461846224600F029F82D1A67EB01080E
:100220004F4622460120002100F020F817EB00097C
:100230004E41201EA4F10104DFDC484631462A4627
:100240004346BDE8F09F0000064C074D06E0E0681D
:1002500040F0010394E8070098471034AC42F6D30D
:10026000FFF7A8FF4414000864140008202A04DBE8
:10027000203A00FA02F1002070479140C2F12003B9
:1002800020FA03F3194390407047202A04DB203AF8
:1002900021FA02F00021704721FA02F3D040C2F1A6
:1002A00020029140084319467047FEE7704700005E
:1002B00070B586B00121084600F0A6F90121102092
:1002C00000F0BEF91E4E07220A21304600F057F911
:1002D00007220921304600F052F900248DF816401B
:1002E00001218DF8171002258DF814504902049150
:1002F0008DF8155004A9304600F0F6F88DF814502A
:100300006802049004A9304600F0EEF84FF4E130A2
:100310000090ADF80440ADF80640ADF80840ADF8E7
:100320000C400C20ADF80A00064C6946204600F04F
:10033000B7FD0121204600F09FFD06B070BD000012
:10034000000002400010014000234FF0204210281E
:100350000BD0B0F5807F0AD0B0F5805F0AD0D2F81C
:10036000580131EA000009D107E0506EF9E7D2F8F0
:100370008400F6E7D2F8A400F3E70123184670479B
:100380004268016811438268C068521E520142EA05
:10039000402008430149086070470000500100A058
:1003A00030B403689900A1F1C041D1F840116FF356
:1003B0000E01D0F808C04268046942EA0C02D0F885
:1003C0000CC04CEA040C42EA0C02D0F814C042EA19
:1003D0000C02D0F818C042EA0C0CC2694CEA0204C4
:1003E000D0F820C044EA0C05446A254329434FF065
:1003F0002045002B48D0D5F840316FF30E0342EA78
:100400000C0223431A43C5F8402102689200A2F16E
:10041000C042C2F840110168A9B38900A1F1C041EE
:10042000D1F8481101F07042816A0B68D1F804C01C
:100430005B1EACF1010C43EA0C13D1F808C0ACF11F
:10044000010C43EA0C23B1F810C0ACF1010C43EAF3
:100450000C431A43D5F8483103F07043D1F80CC06F
:10046000898AACF1010C4FEA0C3C491E4CEA01515F
:100470001943C5F8481100688000A0F1C040C0F8D9
:10048000482130BC704702E0C5F84011C3E7D5F8F9
:10049000481101F07041806A02684368521E5B1E79
:1004A00042EA031283685B1E42EA0322C3685B1EB2
:1004B00042EA0332038A5B1E42EA0342838A007ED9
:1004C0005B1E42EA0352401E42EA00600843C5F840
:1004D000480130BC7047000002490A6842EA400007
:1004E00008607047540100A02DE9F00100220126A8
:1004F000032706FA02FC0B6803EA0C03634538D1B4
:100500000568530007FA03F4A54305600D79D0F898
:1005100000809D4045EA080505600D79012D01D058
:10052000022D17D18568A54385604D79D0F80880E4
:100530009D4045EA08058560456825EA0C0CC0F831
:1005400004C0D0F804C08D799540ADB24CEA050CDA
:10055000C0F804C0D0F80CC02CEA040CC0F80CC0E1
:1005600091F807C00CFA03F3D0F80CC043EA0C036F
:10057000C360521C102ABCD3BDE8F00170474B0782
:10058000DB0E9A40C90800EB8100016A4FF00F0CA6
:100590000CFA03F399430162016A11430162704747
:1005A000FEE70000F0B583B00121802000F02CF8B8
:1005B0004FF48064009401218DF8041000208DF820
:1005C00006008DF807108DF805000B4F6946384678
:1005D000FFF78AFF6500009569463846FFF784FFFC
:1005E000A600009669463846FFF77EFF0348048060
:1005F0000580068003B0F0BD001C0240181C0240BC
:10060000FEE7704770470000054A002903D01168D3
:10061000084310607047116821EA000010607047BD
:1006200030380240054A002903D0116808431060A1
:100630007047116821EA00001060704738380240A6
:10064000054A002903D011680843106070471168FB
:1006500021EA0000106070474438024030B4DFF8EF
:100660009CC0DCF8001001F00C01254D002923D0BE
:10067000244C042922D0082922D00560DCF800107F
:1006800001F0F0010909204B595C026822FA01F1DE
:100690004160DCF8002002F4E052920A9A5C21FAF0
:1006A00002F28260DCF8002002F46042520B9A5C95
:1006B000D140C16030BC70470560DFE70460DDE712
:1006C000124A1168C1F38053116801F03F0133B140
:1006D000B4FBF1F11368C3F38813594305E0B5FB8C
:1006E000F1F11368C3F3881359431268C2F301424E
:1006F000521C5200B1FBF2F10160BFE70838024022
:100700000024F40040787D010000002004380240FD
:100710002DE9F04F83B00121FC20FFF775FF022087
:100720008DF804008DF8050000208DF806008DF886
:100730000700012000906946D848FFF7D5FE0C223B
:100740000021D648FFF71BFF022000906946D348DE
:10075000FFF7CAFE0C220121D048FFF710FF042545
:1007600000956946CD48FFF7BFFE0C220221CB4819
:10077000FFF705FF082000906946C848FFF7B4FE60
:100780000C220321C548FFF7FAFE4FF01009CDF8FF
:1007900000906946C148FFF7A7FE0C220421BF481C
:1007A000FFF7EDFE4FF0200ACDF800A06946BB48E8
:1007B000FFF79AFE0C220521B848FFF7E0FEAF02D2
:1007C00000976946B548FFF78FFE0C221146B348E3
:1007D000FFF7D5FE4FF40058CDF800806946AF48CA
:1007E000FFF782FE0C220D21AC48FFF7C8FE2E0356
:1007F00000966946A948FFF777FE0C220E21A7480C
:10080000FFF7BDFE6C0300946946A448FFF76CFE39
:100810000C220F21A148FFF7B2FE0120009069468B
:100820009F48FFF761FE0C2200219D48FFF7A7FEBD
:100830000220009069469A48FFF756FE0C220121DB
:100840009748FFF79CFE009569469548FFF74CFED8
:100850000C2202219248FFF792FECDF800906946E3
:100860008F48FFF741FE0C2204218D48FFF787FED9
:10087000CDF800A069468A48FFF736FE0C22052114
:100880008748FFF77CFE009669468648FFF72CFEF6
:100890000C220E218348FFF772FE009469468148BE
:1008A000FFF722FE0C220F217E48FFF768FE012091
:1008B000009069467B48FFF717FE0C22002179481B
:1008C000FFF75DFE0220009069467648FFF70CFEB8
:1008D0000C2201217348FFF752FE4FF08009CDF83A
:1008E000009069467048FFF7FFFD0C2207216E4813
:1008F000FFF745FEE511009569466B48FFF7F4FDEB
:100900000C2208216848FFF73AFE4FF4007ACDF830
:1009100000A069466448FFF7E7FD0C220921624800
:10092000FFF72DFE4FF4806BCDF800B069465E48AE
:10093000FFF7DAFD0C220A215B48FFF720FE2011A9
:10094000009069465848FFF7CFFD0C220B2156480E
:10095000FFF715FE009769465348FFF7C5FD0C22C7
:1009600011465148FFF70BFECDF8008069464E480E
:10097000FFF7BAFD0C220D214B48FFF700FE009651
:1009800069464948FFF7B0FD0C220E214648FFF7A3
:10099000F6FD009469464448FFF7A6FD0C220F219E
:1009A0004148FFF7ECFD009569463E48FFF79CFD86
:1009B0000C2208213B48FFF7E2FDCDF800A0694674
:1009C0003848FFF791FD0C2209213648FFF7D7FD83
:1009D000CDF800B069463348FFF786FD0C220A21A6
:1009E0003048FFF7CCFD40200090304E694630463D
:1009F000FFF77AFD0C2206213046FFF7C0FD0120EB
:100A000000902B4F69463846FFF76EFD0C220021FF
:100A10003846FFF7B4FD2111009169461F48FFF7E2
:100A200063FD0C220B211D48FFF7A9FD00946946C8
:100A30001B48FFF759FD0C220F211948FFF79FFDB6
:100A4000009569461648FFF74FFD0C22082114480F
:100A5000FFF795FDCDF8009069463046FFF744FD5D
:100A60000C2207213046FFF78AFD022000906946DC
:100A70000D48FFF739FD0C2201210B48FFF77FFDE0
:100A80000120009069460848FFF72EFD0C22002146
:100A90000548FFF774FD03B0BDE8F08F0014024075
:100AA00000180240000C024000100240001C0240EE
:100AB0000008024000B593B0FFF72AFE0121084666
:100AC000FFF7B0FD0220019007210291042203925A
:100AD0000491059006900790012008900990082045
:100AE0000A9010200B9040200C9080000D90002068
:100AF0000E9051020F9149001091119001A812908F
:100B000008A8FFF74DFC00F002F813B000BDF0B5E7
:100B100085B00126009608250195002402940394CF
:100B200020210120FFF710FC0028F9D16846FFF7CB
:100B300027FC0A2000F0E8F80227009701950294AC
:100B4000039420210120FFF7FFFB0028F9D168461C
:100B5000FFF716FC032000900195029703942021D3
:100B60000120FFF7F1FB0028F9D16846FFF708FCE8
:100B700040F2222004210091019502960390202149
:100B80000120FFF7E1FB0028F9D16846FFF7F8FBE9
:100B900040F2AB20FFF7A0FC20210120FFF7D4FB9F
:100BA0000028F9D105B0F0BD70B50024002600255D
:100BB00027A000F0E3F90022A4F140500270641C69
:100BC000B4F1007FF8D30020A0F140533118197020
:100BD000401CB0F1007FF7D30020A0F1405109780C
:100BE0003318DBB28B4204D029A000F0C7F90020F3
:100BF00070BD401CB0F1007FEFD300204100A1F197
:100C000040510A80401CB0F1807FF7D300202918A2
:100C10004200A2F140521180401CB0F1807FF6D317
:100C200000204100A1F1405109882A1892B28A425D
:100C300004D021A000F0A2F9002070BD401CB0F14A
:100C4000807FEED326A000F099F9012070BD00004E
:100C50003C3C2D534452414D2D494E464F2D3E3E76
:100C600020D5FDD4DABCECB2E2534452414DA3ACE2
:100C7000D2D438CEBBA1A23136CEBBB5C4B7BDCA23
:100C8000BDB6C1D0B4736472616D2E2E2E0A000001
:100C90003C3C2D534452414D2D4552524F522D3E16
:100CA0003E2038CEBBCAFDBEDDB6C1D0B4B4EDCE59
:100CB000F3A3A10A000000003C3C2D534452414DD7
:100CC0002D4552524F522D3E3E203136CEBBCAFDED
:100CD000BEDDB6C1D0B4B4EDCEF3A3A10A000000CE
:100CE0003C3C2D534452414D2D494E464F2D3E3EE6
:100CF00020534452414DB6C1D0B4B2E2CAD4D5FD5E
:100D0000B3A3A3A10A00000001B481B00649019871
:100D10004843009002E00098401E00900098002890
:100D2000F9D102B070470000A086010070470000B2
:100D300082B0002101910091304A106840F4803067
:100D40001060106800F4003000900198401C019081
:100D5000009818B90198B0F5A04FF2D1106810F4BE
:100D6000003F02D00120009000E00091009801288F
:100D700042D12348016841F080510160214908684F
:100D800040F440400860204803680360036843F46F
:100D900000430360036843F4A0530360A0F1040C14
:100DA0001A4BCCF80030136843F08073136013685B
:100DB00013F0007FFBD00A6842F480320A604A6870
:100DC00012F4803FFBD00A6842F400320A604A689D
:100DD00012F4003FFBD00E4A40F205711160016829
:100DE00021F003010160016841F002010160016826
:100DF00001F00C010829FAD102B070470038024016
:100E0000403802400070004008380240195A40073C
:100E1000003C02407047000010B51148016841F4E1
:100E2000700101600F48016841F0010101600E4A44
:100E300000211160026822F4102222F08072026008
:100E4000031D0A4A1A60026822F4802202600848E0
:100E50000160FFF76DFF07494FF00060086010BDAB
:100E600088ED00E0003802400838024010300024CD
:100E70000C38024008ED00E0002904D0818941F4DB
:100E8000005181817047818921F40051818170472F
:100E90000246002012880A4200D00120704700005C
:100EA00030B585B004460D46208A20F44050E988CC
:100EB00008432082A08920F4037020F4A050A98860
:100EC0002A8911436A8910430843A081A08A20F42B
:100ED0004070A9890843A0826846FFF7BFFBA4F1D0
:100EE0008040B0F5883012D0A4F18040B0F58A304F
:100EF0000DD00298A18911F4004F0AD000EBC00177
:100F000001EB001029684900B0FBF1F009E00398FB
:100F1000F0E700EBC00101EB001029688900B0FB8D
:100F2000F1F0124AA2FB0031490909010B096FF0E7
:100F3000180C03FB0CF300EB8300A38913F4004FA0
:100F40004FF0320307D003EBC000A2FB0020C0F338
:100F50004210084306E003EB0010A2FB0020C0F3A0
:100F600043100843208105B030BD00001F85EB51C0
:100F7000C1F3080181807047FEE700000FB4054B04
:100F800010B503A9044A029800F018F810BC5DF8E7
:100F900014FB00007D1200081000002002E008C8C9
:100FA000121F08C1002AFAD170477047002001E0E3
:100FB00001C1121F002AFBD1704700002DE9FF4F2D
:100FC0008DB09B460F460446002606E025280BD030
:100FD0005A460F999047641C761C20780028F5D15A
:100FE00011B03046BDE8F08F0025A846012298498F
:100FF00000E0054314F8013F203B02FA03F00842E9
:10100000F7D120782E2817D114F8010F45F00405E8
:101010002A280ED06FF02F022078A0F13001092984
:101020000AD808EB880102EB410100EB0108641CBF
:10103000F2E757F8048B641C20786C280DD004DC90
:101040004C2812D06A2811D104E074280DD07A28D7
:101050000CD10AE045F4001507E0617845F48015ED
:10106000814202D1641C05F58015641C2278692A2E
:1010700045D008DC002AB3D0582A69D0632A10D0A2
:10108000642A08D13BE0702A67D0732A13D0752AEE
:101090005CD0782A5CD010465A460F999047761C4F
:1010A000D3E017F8040B8DF8000000208DF8010044
:1010B000E946012003E057F8049B4FF0FF30690731
:1010C0004FF0000501D40AE06D1C45450DDA85425C
:1010D000FADB19F805100029F6D106E06D1C8542EF
:1010E000FCDB19F805100029F8D12E4404E019F8AA
:1010F000010B5A460F9990476D1EF8D2A5E00A20C1
:101100000021CDE90801C5F3025002280DD001CF1E
:10111000C117031E71F100030DDA4FF0000CD0EB84
:101120000C006CEB01012D2308E0FF1D27F00707E1
:10113000F7E80201EDE72B0504D52B238DF82830C5
:1011400001233BE0EB0739D02023F7E70A2000E03A
:1011500010200021CDE9080107E01020002145F012
:101160000405CDE908014FF00808C5F30250022834
:101170000FD001CF00214FF0000A2B071FD5702A96
:101180000DD0DDE908C38CF0100C5CEA030C0CD028
:1011900015E0FF1D27F00707F7E80201EBE7402203
:1011A0008DF828204FF0010A0BE050EA010306D029
:1011B00030238DF828308DF8292002239A46582AAA
:1011C00004D024A20DF120090B9209E026A2F9E730
:1011D000DDE90823FFF706F80B9B9B5C09F8013D4E
:1011E00050EA0102F4D1ADEB090020300890680705
:1011F00001D44FF001080899884502DDA8EB0100F1
:1012000000E000208046002506E00AA85A46405D1E
:101210000F9990476D1C761C5545F6DB04E0302095
:101220005A460F999047761CB8F10001A8F10108C1
:10123000F5DC05E019F8010B5A460F999047761C2A
:101240000899481E08900029F4DC641CC5E60000DB
:10125000092801003031323334353637383961628C
:101260006364656600000000303132333435363750
:1012700038394142434445460000000070B50446F9
:10128000064DE1B22846FFF773FE80212846FFF79E
:10129000FFFD0028F9D0204670BD0000001001407D
:1012A000FFF780F9FFF704F823A0FFF767FEFFF7C9
:1012B00001FC2B4C4FF480652580E614268004F158
:1012C0000208A714A8F80070FFF76EFC01282DD0C3
:1012D000A8F800502680278022A0FFF74FFE4FF08D
:1012E0005044AA20207025A0FFF748FE21782CA0AA
:1012F000FFF744FE4BF6BB3060812EA0FFF73EFEA9
:10130000618927A0FFF73AFE4FF0CC30606132A030
:10131000FFF734FE616922A0FFF730FE3848DD2177
:101320000170024637A0FFF729FEFEE72580A8F8E6
:1013300000602780D0E700000D0A20D2B0BBF05338
:10134000544D33324634323920534452414D20B645
:10135000C1D0B4B2E2CAD4C0FDB3CC0D0A000000C3
:10136000181C02400D0AD6B8D5EBB7BDCABDB7C32D
:10137000CECA534452414D0D0A0000000D0AD6B8A2
:10138000D5EBB7C3CECA534452414DA3ACD0B4C879
:10139000EBCAFDBEDD30784141200D0A000000009F
:1013A000B6C1C8A1CAFDBEDDA3BA30782558200D4C
:1013B0000A000000D6B8D5EBB7C3CECA5344524199
:1013C0004DA3ACD0B4C8EBCAFDBEDD30784242427A
:1013D00042200D0A00000000D6B8D5EBB7C3CECA34
:1013E000534452414DA3ACD0B4C8EBCAFDBEDD306E
:1013F000784343434343434343200D0A0000000026
:10140000000000D00D0ABEF8B6D4B6A8CEBBB7C354
:10141000CECA534452414DA3ACD0B4C8EBCAFDBEB2
:10142000DD307844442CB6C1B3F6CAFDBEDD307859
:1014300025582CB1E4C1BFB5D8D6B7CEAA25580DD2
:101440000A000000641400080000002014000000DE
:101450009C0F000878140008140000200404000009
:10146000AC0F0008000000000102030401020304A5
:08147000060708090000000056
:04000005080001AD41
:00000001FF
