:020000040800F2
:1000000018040020C10100084F040008650300081F
:100010004D04000809020008B507000800000000B0
:100020000000000000000000000000009105000832
:100030000B02000800000000B10400086906000877
:10004000DB010008DB010008DB010008DB01000820
:10005000DB010008DB010008DB010008DB01000810
:10006000DB010008DB010008DB010008DB01000800
:10007000DB010008DB010008DB010008DB010008F0
:10008000DB010008DB010008DB010008DB010008E0
:10009000DB010008DB010008DB010008DB010008D0
:1000A000DB010008DB010008DB010008DB010008C0
:1000B000DB010008DB010008DB010008DB010008B0
:1000C000DB010008DB010008DB010008DB010008A0
:1000D000DB010008DB010008DB010008DB01000890
:1000E000DB010008DB010008DB010008DB01000880
:1000F000DB010008DB010008DB010008DB01000870
:10010000DB010008DB010008DB010008DB0100085F
:10011000DB010008DB010008DB010008DB0100084F
:10012000DB010008DB010008DB010008DB0100083F
:10013000DB010008DB010008DB010008DB0100082F
:10014000DB010008DB010008DB010008DB0100081F
:10015000DB010008DB010008DB010008DB0100080F
:10016000DB010008DB010008DB010008DB010008FF
:10017000DB010008DB010008DB010008DB010008EF
:10018000DB010008DB010008DB010008DB010008DF
:10019000DB010008DB010008DB010008DB010008CF
:1001A000DB010008DB010008DB010008DFF80CD0F0
:1001B00000F018F8004800472D0800081804002037
:1001C0000648804706480047FEE7FEE7FEE7FEE7F1
:1001D000FEE7FEE7FEE7FEE7FEE7FEE76D06000846
:1001E000AD010008064C074D06E0E06840F0010351
:1001F00094E8070098471034AC42F6D3FFF7DAFFD3
:10020000100B0008300B0008FEE7704770B586B091
:100210000121084600F04EF90121102000F058F9A4
:100220001E4E07220A21304600F083F807220921DA
:10023000304600F07EF800248DF8164001208DF83D
:10024000170002258DF81450410204918DF81550C5
:1002500004A9304600F02FF88DF81450680204907D
:1002600004A9304600F027F84FF4E1300090ADF8D3
:100270000440ADF80640ADF80840ADF80C400C2045
:10028000ADF80A00064C6946204600F031FA01211B
:10029000204600F019FA06B070BD000000000240D0
:1002A0000010014001B502E00098401E0090009847
:1002B0000028F9D108BD2DE9F041002201274FF0B7
:1002C000030C07FA02F50B682B40AB422CD10668F1
:1002D00053000CFA03F4A64306600E79D0F80080B0
:1002E0009E4046EA080606600E79012E01D0022ED5
:1002F00012D18668A64386604E79D0F808809E4069
:1003000046EA080686604668AE43466045688E79D0
:100310009640B6B235434560C568A543C560CC7903
:100320009C40C3681C43C460521C102AC9D3BDE85A
:10033000F08110B54B07DB0E9A40C90800EB810035
:10034000016A0F249C40A1430162016A11430162CA
:1003500010BD0246002012690A4200D001207047F9
:1003600041837047FEE700002DE9F041002500249D
:100370000D4EDFF838804FF400573046FFF792FFFC
:1003800039464046FFF7E5FF012806D0641CE4B279
:10039000052CF2D90020BDE8F0816D1CEDB20024DF
:1003A000642DEAD30120F6E7FFFF020000080240B7
:1003B0001CB50121042000F07DF800208DF8040018
:1003C0008DF807004FF40050009069460148FFF790
:1003D00072FF1CBD000802402DE9FC41012188206C
:1003E00000F068F84FF48065009501218DF8041045
:1003F00000208DF806008DF807108DF80500114FCC
:1004000069463846FFF757FF6C0000946946384646
:10041000FFF751FF6600009669463846FFF74BFF2D
:100420000094094F69463846FFF745FF05491831E2
:100430000D800C800E8021463846FFF791FFBDE805
:10044000FC810000001C0240000C0240FEE77047E7
:100450000649B0F5402F04D00A6842EA80000860DF
:100460007047486840F44020486070470070004082
:100470000548016841F0020101600448016841F04B
:100480000401016030BF70470070004010ED00E0D3
:1004900001460020024A52680A4200D001207047FB
:1004A000007000400149086070470000A0000E4243
:1004B00070470000054A002903D01168014311600C
:1004C0007047116881431160704700003038024066
:1004D000054A002903D01168014311607047116873
:1004E00081431160704700004438024070B5244BCE
:1004F000196801F00C01234C00291ED0224E04295A
:100500001DD008291DD00460196801F0F001090907
:100510001E4A545C0168E14041601C6804F4E054E8
:10052000A40A145D21FA04F484601B6803F4604398
:100530005B0BD25CD140C16070BD0460E4E7066033
:10054000E2E70F4A121F1168C1F38055116801F0EC
:100550003F0135B1B6FBF1F11468C4F3881461436F
:1005600005E0B4FBF1F11468C4F388146143126828
:10057000C2F30142521C5200B1FBF2F10160C3E729
:10058000083802400024F40040787D01000000207B
:10059000704700001CB50021019100912E4A10689F
:1005A00040F4803010604FF4A043106800F4003035
:1005B00000900198401C0190009810B90198984251
:1005C000F3D11068800302D50120009000E0009173
:1005D000009801283FD120484030016841F0805107
:1005E00001601E49086840F4404008601A4808301D
:1005F00003680360036843F400430360036843F443
:10060000A0530360041F164B2360136843F08073EC
:10061000136013689B01FCD50A6842F480320A60BB
:100620004A68D203FCD50A6842F400320A604A687C
:100630009203FCD50B4A40F205711160016821F06C
:1006400003010160016841F0020101600168C1F32A
:1006500081010229FAD11CBD00380240007000401F
:10066000195A4007003C02407047000010B512487C
:10067000016841F4700101601048016841F0010116
:1006800001600E4A00210832116002680C4B1A40CA
:100690000260031D0B4A1A60026822F48022026085
:1006A00006480C300160FFF775FF03494FF000600A
:1006B0008039086010BD000088ED00E0003802407D
:1006C000FFFFF6FE10300024002904D0818941F498
:1006D000005181817047818921F4005181817047E7
:1006E0000246002012880A4200D001207047000014
:1006F0007FB504460D46208A20F44051E88808431F
:100700002082A08941F20C618843A9882A8911437B
:100710006A8902431143A181A08A20F44071A8890B
:100720000843A0826846FFF7E1FE1E48844202D0DB
:100730001D48844201D1039800E00298A189090470
:1007400008D500EBC00101EB001029684900B0FB9F
:10075000F1F007E000EBC00101EB0010296889000F
:10076000B0FBF1F06422B0FBF2F109010B096FF06C
:1007700018056B4300EB8300A3891D044FF032037F
:1007800007D503EBC000B0FBF2F000F00700084310
:1007900006E003EB0010B0FBF2F000F00F0008439E
:1007A00020817FBD0010014000140140C1F3080109
:1007B00081807047FEE70000014A024900F013B84B
:1007C000090800081000002002E008C8121F08C134
:1007D000002AFAD170477047002001E001C1121FC2
:1007E000002AFBD170472DE9F04116460F4604461A
:1007F000002503E03946B047641C6D1C20780028B2
:10080000F8D12846BDE8F08170B50446064DE1B246
:100810002846FFF7CBFF80212846FFF761FF00281D
:10082000F9D0204670BD000000100140FFF7D4FD54
:10083000FFF7ECFCFFF7BCFD26A0FFF7BDFF2FA0E4
:10084000FFF7BAFF34A0FFF7B7FF3748FFF7B4FF51
:1008500036A0FFF7B1FF3F48FFF7AEFF3EA0FFF71E
:10086000ABFF4748FFF7A8FF0120FFF711FE454CFB
:100870004FF48066E714A51C4FF48058012809D076
:1008800026802F80A4F800803FA0FFF795FF6FF02F
:100890007F4919E026802780A5F8008040A0FFF757
:1008A0008BFFF4E74348FFF787FF2E802780A4F8EB
:1008B00000804846FFF7F6FC0120FFF7C9FD012044
:1008C000FFF7F0FDFFF7D4FDFFF74EFD0028FBD04A
:1008D000E8E700000D0A20BBB6D3ADCAB9D3C3D236
:1008E000B0BBF0202053544D3332204634323920EF
:1008F000BFAAB7A2B0E5A1A30D0A00000D0A20D23D
:10090000B0BBF04634323920B4FDBBFAC4A3CABD33
:10091000C0FDB3CC0D0A00000D0A20CAB5D1E9CB49
:10092000B5C3F7A3BA0D0A00B80900080D0A2032B2
:100930002EB3A4B0B44B455932B0B4BCFCBAF3A347
:10094000ACBBE1BDF8C8EBB4FDBBFAC4A3CABD0D96
:100950000A000000240A00080D0A20342EBFC9CD69
:10096000A8B9FDBCECB2E25755B1EAD6BECEBBC8C1
:10097000B7B6A8B8B4CEBBC0B4D4B40D0A0000005A
:10098000CC0A0008181C02400D0A20B7C7B4FDBBF2
:10099000FABBBDD0D1B8B4CEBB200D0A0000000018
:1009A0000D0A20B4FDBBFABBBDD0D1B8B4CEBB207C
:1009B0000D0A0000740A00080D0A20312EB1BEB3E2
:1009C000CCD0F2D6D0A3ACC2CCB5C6B1EDCABEB1C4
:1009D000BEB4CEB8B4CEBBCAC7C9CFB5E7BBF2D29E
:1009E000FDBDC5B8B4CEBBA3ACBAECB5C6B1EDCABB
:1009F000BEBCB4BDABBDF8C8EBB4FDBBFAD7B4CC3C
:100A0000ACA3ACC0B6B5C6B1EDCABEB1BEB4CECA19
:100A1000C7B4FDBBFABBBDD0D1B5C4B8B4CEBB0D15
:100A20000A0000000D0A20332ED4DAB4FDBBFAC44C
:100A3000A3CABDCFC2A3ACB0B44B455931B0B4BC0E
:100A4000FCBFC9BBBDD0D1A3ACBBBDD0D1BAF3CF25
:100A5000B5CDB3BBE1BDF8D0D0B8B4CEBBA3ACB379
:100A6000CCD0F2B4D3CDB7BFAACABCD6B4D0D00DC7
:100A70000A0000000D0A20BCB4BDABBDF8C8EBB441
:100A8000FDBBFAC4A3CABDA3ACBDF8C8EBB4FDBBA3
:100A9000FAC4A3CABDBAF3BFC9B0B44B455931BB00
:100AA000BDD0D1A3ACBBBDD0D1BAF3BBE1BDF8D0B2
:100AB000D0B8B4CEBBA3ACB3CCD0F2B4D3CDB7BF17
:100AC000AACABCD6B4D0D00D0A0000000D0A203549
:100AD0002ED4DAB4FDBBFAD7B4CCACCFC2A3AC44AD
:100AE0004150CFC2D4D8C6F7CEDEB7A8B8F8535419
:100AF0004D3332CFC2D4D8B3CCD0F2A3ACD0E8D2ED
:100B0000AABBBDD0D1BAF3B2C5C4DCCFC2D4D80021
:100B1000300B00080000002014000000C807000887
:100B2000440B00081400002004040000D80700084B
:100B30000000000001020304010203040607080983
:040B400000000000B1
:04000005080001AD41
:00000001FF
