:020000040800F2
:1000000048500020C10100084113000825080008DD
:100010003D13000811030008FD2600080000000041
:100020000000000000000000000000004D24000857
:100030003D04000800000000C913000871250008F5
:10004000DB010008DB010008DB010008DB01000820
:10005000DB010008DB010008DB010008DB01000810
:10006000DB010008DB010008DB010008DB01000800
:10007000DB010008DB010008DB010008DB010008F0
:10008000DB010008DB010008DB010008DB010008E0
:10009000DB010008DB010008DB010008DB010008D0
:1000A000DB010008DB010008DB010008DB010008C0
:1000B000DB010008DB010008DB010008DB010008B0
:1000C000DB010008DB010008DB010008DB010008A0
:1000D000DB010008DB010008DB010008DB01000890
:1000E000DB0100085D170008DB010008DB010008E8
:1000F000DB010008DB010008DB010008DB01000870
:10010000DB010008DB010008DB010008DB0100085F
:10011000DB010008DB010008DB010008DB0100084F
:10012000DB010008DB010008DB010008DB0100083F
:10013000DB010008DB010008DB010008DB0100082F
:10014000DB010008DB010008DB010008DB0100081F
:10015000DB010008DB010008DB010008DB0100080F
:10016000DB010008DB010008DB010008DB010008FF
:10017000DB010008DB010008DB010008DB010008EF
:10018000DB010008DB010008DB010008DB010008DF
:10019000DB010008DB010008DB010008DB010008CF
:1001A000DB010008DB010008DB010008DFF80CD0F0
:1001B00000F05CF800480047F92B00084850002088
:1001C0000648804706480047FEE7FEE7FEE7FEE7F1
:1001D000FEE7FEE7FEE7FEE7FEE7FEE7752500081F
:1001E000AD010008D2B201E000F8012B491EFBD29C
:1001F00070470022F6E710B513460A460446194632
:10020000FFF7F0FF204610BD2DE9F05F0546002006
:1002100092469B4688460646814640241BE0284677
:1002200041464746224600F042F853465A46C01A15
:10023000914110D311461846224600F029F82D1A94
:1002400067EB01084F4622460120002100F020F80C
:1002500017EB00094E41201EA4F10104DFDC4846E3
:1002600031462A464346BDE8F09F0000064C074D44
:1002700006E0E06840F0010394E807009847103476
:10028000AC42F6D3FFF796FFEC5600080C57000877
:10029000202A04DB203A00FA02F100207047914046
:1002A000C2F1200320FA03F3194390407047202A3B
:1002B00004DB203A21FA02F00021704721FA02F310
:1002C000D040C2F120029140084319467047000017
:1002D0001CB50121080201F079F84FF4006000908C
:1002E00001208DF8040000208DF8060002208DF812
:1002F00007008DF805006946044800F023FA4FF422
:100300000061024800F089FA1CBD00000020024094
:1003100000BFFEE710B50121C80501F067F8002114
:100320004FF4000001F062F810BD0000014600200B
:10033000034A52680A400AB1012000E000207047D9
:1003400000B0024070B50021002200230024344D8B
:100350002D68344E3540324E356035462D6806687E
:1003600035432F4E356035466D6B25F007057563B7
:1003700035466D6B46683543294E7563456835B91A
:10038000C5682902058A2A04057D2B0621E04568F7
:10039000012D05D1C5682902058A2A04002318E029
:1003A0004568022D05D1C56869010569EA02002387
:1003B0000FE04568032D06D1C56869010569AA02E9
:1003C0004569EB0305E0C568290105692A0245690D
:1003D0002B0341EA0205866835431D43104EB66B78
:1003E00035430F4EB5638569F56335462D6C6FF364
:1003F0000D05356435462D6CC6693543084E3564A8
:10040000858C2C0435466D6C05F040457564354689
:100410006D6C066A26433543014E756470BD00005D
:1004200000B00240FCE0FCFF0348006840F001001F
:10043000014908607047000000B0024070470000AA
:1004400000B587B00121084600F0C0FF012110204F
:1004500000F0FCFF07220A211F4800F0BBF9072229
:1004600009211D4800F0B6F900208DF81A0001207E
:100470008DF81B0002208DF8180000020590022064
:100480008DF8190005A9144800F05CF902208DF8D8
:1004900018004002059005A90F4800F053F94FF4E9
:1004A000E13001900020ADF80800ADF80A00ADF889
:1004B0000C00ADF810000C20ADF80E0001A90748A3
:1004C00002F0AEF80121054802F091F840210348FE
:1004D00002F084F807B000BD0000024000100140A7
:1004E0000149086070470000143C01400021234985
:1004F0008279002A3AD00A46126803689A430B466A
:100500001A600A1D126803689A430B1D1A6002796B
:1005100011440A6803681A430A60184A08321268CC
:1005200003689A43154B08331A601A1D1268036852
:100530009A43124B0C331A604279102A0ED11A1FBB
:10054000126803681A430D4B08331A601A1D1268AB
:1005500003681A43094B0C331A600DE007494279CE
:1005600011440A6803681A430A6005E002791144DD
:100570000A6803689A430A6070470000003C014023
:1005800010B5024600200023102A03D14FF020446A
:10059000636E0FE0B2F5807F02D10A4C236809E058
:1005A000B2F5805F03D1074C2034236802E0054C8C
:1005B000D434236803EA01048C4201D0002000E017
:1005C000012010BD840000A00021D0E900231A43BF
:1005D00083685B1E42EA4312C36842EA4321014A30
:1005E00011607047500100A070B500220021002367
:1005F00000240568AD00A5F1C045D5F840216FF392
:100600000E02D0E901563543C668354306693543C5
:100610004669354386693543C6693543066A3543BD
:10062000466A35432A43056835B90568AD00A5F12A
:10063000C045C5F8402111E03B4D2B686FF30E0318
:10064000D0E907563543466A35432B43364D2B6078
:100650000568AD00A5F1C045C5F84021056875BB2A
:10066000314D0835066855F8261001F07041856A4D
:100670002D686D1E866A7668761E45EA0616856ABE
:10068000AD686D1E46EA0526856AED686D1E46EA70
:100690000536856A2D8A6D1E46EA0546856AAD8A4D
:1006A0006D1E46EA0556856A2D7E6D1E46EA056575
:1006B00029431D4D0835066845F8261032E0FFE74E
:1006C000194D0835066855F8261001F07041856A05
:1006D0002D686D1E866A7668761E45EA0616856A5E
:1006E000AD686D1E46EA0526856A2D8A6D1E46EAAE
:1006F000054529430C4D08352C6804F07044856A83
:10070000ED686D1E2E03856AAD8A6D1E46EA05559D
:100710002C434FF02045C5F84841034D0835066885
:1007200045F8261070BD0000400100A0044909688A
:1007300041EA40014FF02042C2F8541170470000D6
:10074000540100A0F0B50A4600210023002400BF98
:100750003DE0012505FA01F3156805EA03049C4212
:1007600034D105684F000326BE40B54305601579B6
:100770004E00B5400668354305601579012D02D05D
:100780001579022D16D185684F000326BE40B5436A
:10079000856055794E00B54086683543856045686B
:1007A00001268E40B5434560456896798E40B6B2C5
:1007B00035434560C5684F000326BE40B543C5605C
:1007C000D5794E00B540C6683543C560491C10292F
:1007D000BFD3F0BDF0B5002300244D07ED0E02FAA3
:1007E00005F3CE1000F1200555F826504E07F70E00
:1007F0000F26BE40B543CF1000F1200646F8275023
:10080000CE1000F1200555F8265045EA0304CE101D
:1008100000F1200545F82640F0BD41837047018373
:100820007047000002A001F06BFF00BFFEE7000070
:10083000686172646661756C742121210A00000090
:10084000F0B58BB0044600250026002704F478405C
:10085000C51204F01F0704F4FC604611FFF75AFDAF
:100860004FF44030019002200290049603970595C2
:1008700004F4004008B1FF2000E0002006900E487C
:1008800000680790002008904FF4F07009904FF432
:1008900048700A9001A8FFF755FDFFF7C5FD00BF9E
:1008A0000220FFF743FD0028FAD00448008800F03A
:1008B000E7FA0BB0F0BD0000180000201400002083
:1008C0002DE9FF4F83B0074688461446DDE9105BEB
:1008D0003E462DE02878802801DDA14604E0204630
:1008E00004EBD071C1F34F092878203800F0FF0ADB
:1008F0001D49029809680A681B490968C98801FBF3
:100900000AF102EB4101CDE900104A4618211020FE
:10091000069B00F0D3FA1548CDE9000B4A46314654
:100920004046069B00F024F806EB090086B26D1CD9
:10093000B6F5487F14DA0C4800688088304480B2ED
:10094000094909688988884201DB012000E000200C
:10095000297809B1012100E0002108400028B9D11F
:1009600007B0BDE8F08F0000100000204400002018
:100970002DE9F04F0546DDE9094800BF002700BF1B
:1009800000204FF4487905FB09F909EB490C0844AC
:1009900000262AE0002722E014F801ABC2450ED160
:1009A000DFF85090B9F80090DFF84CA0DAF800A01A
:1009B0004FF0020B0BFB00AA2AF80C900DE0DFF8B9
:1009C0003C90B9F80090DFF830A0DAF800A04FF0C2
:1009D000020B0BFB00AA2AF80C90401C7F1C9742CC
:1009E000DAD3C2F548794844761C9E42D2D3BDE89A
:1009F000F08F0000160000201800002014000020D6
:100A00001CB5012140F2FF1000F0E0FC0420009032
:100A100002208DF805008DF8040000208DF80600F6
:100A20008DF807006946AF48FFF78CFE0E220221C1
:100A3000AC48FFF7CFFE082000906946A948FFF7B1
:100A400081FE0E220321A748FFF7C4FE4FF48070F9
:100A500000906946A348FFF775FE0E220821A148C1
:100A6000FFF7B8FE0120009069469F48FFF76AFE35
:100A7000092200219C48FFF7ADFE4FF40060009072
:100A800069469A48FFF75EFE0E220B219748FFF752
:100A9000A1FE4FF48050009069469448FFF752FE43
:100AA0000E220C219148FFF795FE02200090694626
:100AB0008D48FFF747FE092201218B48FFF78AFE88
:100AC0004020009069468A48FFF73CFE0E2206212E
:100AD0008748FFF77FFE2020009069468548FFF792
:100AE00031FE0E2205218348FFF774FE402000905E
:100AF00069468048FFF726FE0E2206217D48FFF753
:100B000069FE4FF40050009069467648FFF71AFEE0
:100B10000E220D217348FFF75DFE4FF480600090B8
:100B200069467348FFF70EFE09220A217048FFF755
:100B300051FE4FF40040009069466A48FFF702FEFC
:100B40000E220F216748FFF745FE012000906946FD
:100B50006948FFF7F7FD0E2200216748FFF73AFECC
:100B60008020009069466548FFF7ECFD0E220721C2
:100B70006248FFF72FFE0420009069465E48FFF7A9
:100B8000E1FD0E2202215C48FFF724FE10200090B8
:100B900069465848FFF7D6FD0E2204215548FFF755
:100BA00019FE4FF48050009069465148FFF7CAFD86
:100BB0000E220C214E48FFF70DFE402000906946A2
:100BC0004F48FFF7BFFD0E2206214D48FFF702FEFA
:100BD0004FF40060009069464548FFF7B3FD0E22D0
:100BE0000B214348FFF7F6FD10200090694642486C
:100BF000FFF7A8FD0E2204213F48FFF7EBFD082078
:100C0000009069463948FFF79DFD0E2203213748C1
:100C1000FFF7E0FD4FF48070009069463248FFF71F
:100C200091FD0E2208213048FFF7D4FD4FF40070EB
:100C3000009069462C48FFF785FD0E2209212A48BD
:100C4000FFF7C8FD8020009069462948FFF77AFD2C
:100C50000E2207212648FFF7BDFD4FF4806000906B
:100C600069462548FFF76EFD0E220A212248FFF74C
:100C7000B1FD4FF40070009069461F48FFF762FD18
:100C80000E2209211C48FFF7A5FD4FF4806000905B
:100C900069461C48FFF756FD0E220A211948FFF746
:100CA00099FD1020009002208DF8050001208DF89C
:100CB000040000208DF8060001208DF80700694629
:100CC0000F48FFF73FFD8020009069460C48FFF772
:100CD00039FD10210A48FFF7A2FD80210848FFF7DF
:100CE0009EFD1CBD001C02400004024000000240AA
:100CF000001802400010024000200240000802409C
:100D0000000C02400014024000B58FB0012188069B
:100D100000F09CFB0121C80500F058FBFFF770FEB6
:100D200001F0EAFA002000900190029003900C90EC
:100D30000D900E90042207214FF4C07000F052FC79
:100D40004FF4803000F03CFC012000F045FC00BF77
:100D50003D2000F0FFFB0028FAD000200490059011
:100D60002E2006901720079040F24E30089040F257
:100D7000F710099040F262300A9040F20D200B907B
:100D8000684600F079F90FB000BD000000B591B0E1
:100D90002F20019040F24E3002901820039040F234
:100DA000F710049003200590FF2006900020079084
:100DB000089009900A904FF480600B9005200C90E9
:100DC00040F243600E90C01E0F904FF4F0701090F0
:100DD0004FF050400D9001A9134800F01EFA032077
:100DE000059012480D904FF4C0600B9007200C90B6
:100DF00001A90D48803000F010FA012000F098FAA7
:100E00000121094800F0FEF901210748803000F077
:100E1000F9F9012000F08CFA054800F015F80120DE
:100E200000F018F911B000BD8468014000B80BD083
:100E300020000020024A1080024A11807047000002
:100E400014000020160000200149086070470000CF
:100E50001000002038B94FF05041064A11600021BF
:100E6000054A116005E00549024A11600121024A64
:100E700011607047180000201C00002000B80BD043
:100E800001490880704700001400002010B5044696
:100E90000848006820B92146074800F0B1F904E08D
:100EA00021460548803000F0ABF9012000F040FAFF
:100EB00010BD00001C000020846801402DE9F04FA7
:100EC000ADF2144D0446884615469946200490FB21
:100ED000F5F0401CCDF810044FEA084090FBF9F003
:100EE000401CCDF80C040020CDF808044FF48061BC
:100EF00001A8FFF77EF904FB08F018B90DF2144DB4
:100F0000BDE8F08F04FB08F0B0F5806F00DBF5E77B
:100F100005FB09F000B9F1E705FB09F0B0F5804FDA
:100F200000DBEBE70DF1040A00260EE0002709E0E4
:100F3000DDF8380430F81600384100F001000AF8F6
:100F4000010B7F1CA742F3D3761C4645EED30DF16F
:100F5000040ADFF858B000261EE00020DDF808146F
:100F6000090C04FB01A1CDF8041400270AE0DDF808
:100F7000041401EB104109780BF80710DDF8101488
:100F800008447F1CAF42F2D30DF5816106C91144BC
:100F9000CDF80814AB44761C4E45DED30348CDF89B
:100FA0003C04DDF83CA400BFA8E70000440000209A
:100FB0001CB50121882000F009FA4FF480600090F0
:100FC00001208DF8040000208DF8060001208DF826
:100FD000070000208DF8050069461348FFF7B2FBB3
:100FE0004FF40060009069460F48FFF7ABFB4FF4E9
:100FF0008050009069460C48FFF7A4FB4FF4006056
:10100000009069460948FFF79DFB4FF48060064950
:1010100018310880400008804000088041100348D3
:10102000FFF7FBFB1CBD0000001C0240000C02404F
:1010300030B10749096841F00101054A116005E036
:101040000349096821F00101014A1160704700005D
:101050001868014030B10749096841F48031054AF8
:10106000116005E00349096821F48031014A1160EB
:101070007047000018680140F0B5002100220023ED
:101080000024002500265B4F3F68DFF86CC107EAAB
:101090000C07DFF860C1CCF80070078A3904674696
:1010A0003F68D0F814C04CEA010C47EA0C07DFF89F
:1010B00044C1CCF800700CF104073F68DFF838C178
:1010C00007EA0C07DFF82CC10CF1040CCCF8007017
:1010D000078B3A0467463F68D0F81CC04CEA020C04
:1010E00047EA0C07DFF80CC10CF1040CCCF80070D7
:1010F0000CF104073F68DFF800C107EA0C07DFF8CE
:10110000F4C00CF1080CCCF80070078C3B04674667
:101110003F68D0F824C04CEA030C47EA0C07DFF81C
:10112000D4C00CF1080CCCF800700CF104073F6837
:10113000DFF8C4C007EA0C07DFF8B8C00CF10C0CEC
:10114000CCF80070078D3C046746D7F800C0C76A2A
:1011500027434CEA070C274F0C37C7F800C03F1D48
:101160003F68DFF898C007EA0C07DFF888C00CF189
:10117000100CCCF80070D0E9007C47EA0C07D0F8DE
:1011800008C047EA0C07D0F80CC047EA0C07DFF8A4
:1011900064C00CF1100CDCF800C047EA0C07DFF863
:1011A00054C00CF1100CCCF80070476B3D02078E58
:1011B0003E04104F24373F6807F07F47DFF834C004
:1011C0000CF1240CCCF8007046EA0507D0F838C0C2
:1011D00047EA0C07DFF81CC00CF1240CDCF800C057
:1011E00047EA0C07DFF80CC00CF1240CCCF80070B7
:1011F000F0BD00000868014000F800F08F88FE0F85
:101200004161704721B1026842F00102026003E0CF
:10121000026822F00102026070472DE9F0410024CB
:1012200000250026002200270023B1F804C04FEA61
:101230000C44D0F804C00CF4704CC0F804C0D1F8D1
:1012400000C04CEA040CC0F804C0B1F80CC04FEA6E
:101250000C45D0F808C00CF4704CC0F808C0D1F8A8
:1012600008C04CEA050CC0F808C0D0F810C02CF03B
:10127000070CC0F810C0D1F810C0C0F810C0D1F8E9
:101280001CC04FEA0C26B1F820C04FEA0C4291F87E
:1012900024C04FEA0C67D0F818C09C46C0F818C0AC
:1012A000D1F818C04CEA060C4CEA020C4CEA070CC8
:1012B000C0F818C0D0F814C02CF0FF0CC0F814C04F
:1012C000D1F814C0C0F814C0D0F81CC040F20778A0
:1012D0002CEA080CC0F81CC0D1E90AC84CEA080C7A
:1012E000C0F81CC0D0F828C09C46C0F828C0D1F86F
:1012F00030C0C0F828C0B1F838C04FEA0C43D0F86D
:101300002CC00CF0E02CC0F82CC0D1F834C04CEA52
:10131000030CC0F82CC0D0F830C06FF30A0CC0F832
:1013200030C0D1F83CC0C0F830C0BDE8F08100004A
:1013300001490860704700002468014000BFFEE7D3
:101340007047000070B5002100230F22C4781CB341
:10135000174C246804F4E064C4F5E064C4F3072186
:10136000C1F10404E3B20A4144789C40E1B28478BC
:10137000144021430C07210E0E4C0578615504786A
:1013800004F01F050124AC4005786D11AD0005F196
:10139000E025C5F8004109E0047804F01F050124A8
:1013A000AC40054D0678761145F8264070BD00002A
:1013B0000CED00E000E400E080E100E0014908629B
:1013C0007047000000000E427047000029B1064A35
:1013D00012680243044B1A6004E0034A1268824315
:1013E000014B1A60704700003038024029B1064AAC
:1013F00012680243044B1A6004E0034A12688243F5
:10140000014B1A60704700001038024029B1064AAB
:1014100012680243044B1A6004E0034A12688243D4
:10142000014B1A60704700003838024029B1064A63
:1014300012680243044B1A6004E0034A12688243B4
:10144000014B1A60704700004038024029B1064A3B
:1014500012680243044B1A6004E0034A1268824394
:10146000014B1A607047000044380240F0B500217B
:1014700000220024022500260223324F3F6807F095
:101480000C0121B1042905D0082937D105E02E4FE0
:10149000076036E02D4F076033E02A4F3F1F3F685B
:1014A000C7F38056274F3F1F3F6807F03F036EB1D9
:1014B000264FB7FBF3F7DFF88CC0ACF1040CDCF877
:1014C00000C0CCF3881C07FB0CF40CE01E4FB7FBEC
:1014D000F3F7DFF870C0ACF1040CDCF800C0CCF31B
:1014E000881C07FB0CF4174F3F1F3F68C7F30147E9
:1014F0007F1C7D00B4FBF5F7076002E0124F076028
:1015000000BF00BF0F4F3F6807F0F0010909104FFF
:101510007A5C0768D74047600A4F3F6807F4E0519C
:10152000890A0B4F7A5C4768D7408760054F3F6850
:1015300007F46041490B064F7A5C4768D740C760A3
:10154000F0BD0000083802400024F40040787D011E
:101550000000002010B501460022002300204A119F
:10156000012A02D10A4C236808E0022A03D1084C60
:101570007034236802E0064C7434236801F01F02C3
:10158000012494401C400CB1012000E0002010BD5B
:10159000003802400021094A11701170012802D060
:1015A000042808D103E00121044A117004E0052158
:1015B000024A117000E000BF00BF7047703802405F
:1015C00001460020034A106820F4403008431060B0
:1015D000704700008C3802400149086770470000DE
:1015E0000000474210B5830143EA016343EA0273F6
:1015F000014C236010BD000088380240014908609A
:10160000704700003C0E4742002100F44072B2F5E2
:10161000407F08D1094A116821F4F811084A0240B4
:101620001143064A1160054A68321268C0F30B0381
:101630001A43024B68331A607047000008380240B2
:10164000FFFCFF0F38B50246002400940023002061
:10165000CA24184D2C6053242C6041B1154C1C3CFD
:1016600024681443134D1C3D2C6001201EE0114CD6
:101670001C3C246894430F4D1C3D2C6000BF0D4C56
:10168000183C246804EA1223009C641C0094009C0B
:10169000B4F5803F01D0002BF1D0064C183C2468F3
:1016A00004EA12240CB9002000E00120FF24014DBF
:1016B0002C6038BD2428004000B587B04FF40030BE
:1016C000FEF70EFF4FF40030049000208DF8140058
:1016D00008208DF8150001208DF8160004A8FEF7EB
:1016E00005FF29208DF8180000208DF819008DF8CD
:1016F0001A0001208DF81B0006A8FFF723FE002129
:101700004FF48070FFF79EFF00208DF8030001204A
:101710008DF800008DF8010005208DF80200C0074B
:1017200001904008029002208DF80C006A46C10129
:10173000002000F0ABF90121080300F033F901218A
:101740000802FFF77FFF4FF4807000F06DF84FF450
:101750000030FEF7C5FE07B000BD000010B54FF425
:10176000805000F0D7F838B14FF4805000F06AF89C
:101770004FF40030FEF7B4FE4FF4006001490883D7
:1017800010BD000000200240014600BF080900EB28
:101790008000420001F00F001044C0B270470146C3
:1017A000002204E0501CC2B2A1F10A00C1B20A2911
:1017B000F8DA100741EA1060704700000EB5012109
:1017C0000807FFF733FE0120FFF7F8FD0120FFF7C0
:1017D000E1FE00BF4120FFF7BDFE0028FAD04FF424
:1017E0008070FFF711FF0120FFF708FF00F068FB92
:1017F0007F200190FF20029000200090684600F0BA
:1018000003F910B901A000F07BFF0EBD0A0D2052B4
:10181000544320CAB1D6D3B3F5CABCBBAFCAA7B034
:10182000DC200D0A0000000081B241F08001044A72
:10183000126802F0800262EA0101014A11607047F9
:101840000C280040002101098AB242F08002044BBA
:101850001B6803F0800363EA0202014B1A607047C1
:101860000C28004008B50022009200200021104AF8
:10187000126802F04002CAB9421E0D4B1A6000BF46
:101880000B4A126802F04001009A521C0092009A22
:10189000B2F5803F01D00029F2D0054A126802F06B
:1018A00040020AB1012002E0002000E0012008BD52
:1018B0000C2800400348006820F0800001490860BF
:1018C000704700000C28004070B506460C46002505
:1018D0000E4800680E4900EA0105280CE070C5F3C7
:1018E0000420607005F03F00A070C5F34230207006
:1018F0005EB9E078FFF748FFE0706078FFF744FFDB
:101900006070A078FFF740FFA07070BD0428004011
:101910003FFFFF0030B501460020002200230C4CA1
:10192000246804F004020A4C383C24680C4002EAA3
:10193000D13544EA0503064C343C246804EA11120C
:101940001BB194B20CB1012000E0002030BD0000BA
:101950004028004070B506460C4600250F48006838
:101960000F4900EA0105C5F305402070C5F30620C4
:10197000607005F07F00A07005F48000000CE0703E
:101980005EB92078FFF700FF20706078FFF7FCFE5B
:101990006070A078FFF7F8FEA07070BD00280040CE
:1019A0007F7F7F00CA22174B1A6053221A6091B1C1
:1019B000144A1C3A126820F004031A43114B1C3BD2
:1019C0001A60104A1C32126800F004031A430D4BCF
:1019D0001C331A6011E00B4A1C3A126820F0040311
:1019E0009A43084B1C3B1A60064A1C32126800F0EE
:1019F00004039A43034B1C331A60FF22014B1A6005
:101A0000704700002428004030B504460025CA2055
:101A10001549086053200860FFF724FF00B91DE056
:101A200011481C38006820F040000F491C3908603C
:101A300008460068216808430B491C3908600A49B8
:101A40001439A068086008460068A18840EA01408F
:101A5000054914390860FFF72DFF0125FF200249D1
:101A60000860284630BD00002428004008B5014623
:101A70000020009004480090009800EB8100009046
:101A80000098006808BD0000502800402DE9F04192
:101A900005460E461446002765B93648006800F032
:101AA000400000B102E00020E07000BFA06800B973
:101AB00019E018E02F48006800F0400020B12078BD
:101AC000FFF762FE074602E00020E07000BFA0685A
:101AD00020B9207BFFF758FE074604E0207BFFF784
:101AE00053FE074600BF95B120780004617840EAB4
:101AF0000120A1780843E17840EA0140217B40EAD7
:101B00000160A1680843616840EA01071BE0207892
:101B1000FFF745FE4FEA00486078FFF740FE48EACD
:101B20000028A078FFF73BFE48EA0008E07848EA82
:101B30000048207BFFF733FE48EA0060A1680843B5
:101B4000616840EA0107CA200A491C310860532035
:101B50000860B6F5807F03D106481430076002E0C4
:101B6000044818300760FF2002491C310860BDE8B6
:101B7000F0810000082800402DE9F04105460C46A0
:101B8000002600274DB9607800F01000102804D11D
:101B9000607820F010000A30607005B908E06078C5
:101BA000FFF7F2FD0646A078FFF7EEFD064600BF00
:101BB00055B1E0780004617840EA0120A17808433B
:101BC000217840EA413611E0E078FFF7E8FD4FEA7E
:101BD00000486078FFF7E3FD48EA0028A078FFF7A7
:101BE000DEFD48EA0008207848EA4036CA2012495B
:101BF000086053200860FFF735FE08B9002714E09D
:101C00000E4830400C4920390860FFF753FE0A485F
:101C10001C38006800F0200030B900F051F908B914
:101C2000002702E0012700E00127FF2002490860A9
:101C30003846BDE8F0810000242800403FFFFF0047
:101C40002DE9F04105460C46002600274DB92E48E7
:101C5000006800F0400000B102E00020E07000BF2A
:101C60000DE02948006800F0400020B12078FFF71F
:101C70008BFD064602E00020E07000BF00BF55B1BA
:101C800020780004617840EA0120A1780843E178D7
:101C900040EA014611E02078FFF781FD4FEA004855
:101CA0006078FFF77CFD48EA0028A078FFF777FD11
:101CB00048EA0008E07848EA0046CA2012491C3188
:101CC000086053200860FFF7CDFD08B9002713E036
:101CD0000E4830400C4908390860FFF7EBFD0A4810
:101CE000006800F0200030B900F0EAF808B90027D9
:101CF00002E0012700E00127FF2003491C310860B2
:101D00003846BDE8F0810000082800407F7F7F0052
:101D10001CB500208DF8070001208DF804008DF817
:101D200005008DF8060001A90020FFF789FF43F2A6
:101D3000F221002000F0F4F801208DF800008DF869
:101D400002008DF801008DF8030069460020FFF7BE
:101D500013FF43F2F221002000F0E2F81CBD000066
:101D60009EB0002451E004A90020FFF7F3FD03A971
:101D70000020FFF7A9FD9DF81200A04243D09DF876
:101D80000C0000909DF80E309DF80D209DF80F106E
:101D90001EA000F0B5FC9DF80C009DF80E10CDE9DA
:101DA00000109DF80D309DF80F2026A105A800F029
:101DB000B7FC002005A924231A46CDE900103221E2
:101DC0000A20FEF77DFD9DF812309DF811209DF848
:101DD000101029A000F094FC9DF8120000909DF8CE
:101DE00011309DF810202DA105A800F099FC0020CD
:101DF00005A924231A46CDE9001064210A20FEF724
:101E00005FFD2E4800689DF81240ACE754686520DD
:101E100044617465203A2020593A323025302E3200
:101E200064202D204D3A25302E3264202D20443A56
:101E300025302E3264202D20573A25302E32640D65
:101E40000A0000005468652044617465203A20202F
:101E5000593A323025302E3264202D204D3A25302B
:101E60002E3264202D20443A25302E3264202D203D
:101E7000573A25302E3264005468652054696D65E8
:101E8000203A202025302E32643A25302E32643A12
:101E900025302E3264200D0A0D0A0000546865209A
:101EA00054696D65203A202025302E32643A253061
:101EB0002E32643A25302E3264000000042800409F
:101EC00008B50022009200200021CA22134B1A609C
:101ED00053221A60114A183A126822F0A0020F4BDE
:101EE000183B1A6000BF0D4A183A126802F0200130
:101EF000009A521C0092009AB2F5003F01D00029CE
:101F0000F1D0064A183A126802F020020AB1012004
:101F100000E00020FF22014B1A6008BD2428004089
:101F200008B500220092044A0092009A02EB800257
:101F30000092009A116008BD502800401CB5012194
:101F4000FC20FFF743FA02208DF804008DF805000D
:101F500000208DF806008DF80700012000906946EA
:101F6000DF48FEF7EFFB0C220021DD48FEF732FCD4
:101F7000022000906946DA48FEF7E4FB0C220121BA
:101F8000D748FEF727FC042000906946D448FEF7A6
:101F9000D9FB0C220221D248FEF71CFC082000903D
:101FA0006946CF48FEF7CEFB0C220321CC48FEF752
:101FB00011FC102000906946C948FEF7C3FB0C22B3
:101FC0000421C748FEF706FC202000906946C4485B
:101FD000FEF7B8FB0C220521C148FEF7FBFB4FF4CE
:101FE000805000906946BE48FEF7ACFB0C221146BB
:101FF000BB48FEF7EFFB4FF4005000906946B8482D
:10200000FEF7A0FB0C220D21B548FEF7E3FB4FF4D1
:10201000804000906946B248FEF794FB0C220E21E6
:10202000AF48FEF7D7FB4FF4004000906946AC483C
:10203000FEF788FB0C220F21A948FEF7CBFB0120FD
:1020400000906946A748FEF77DFB0C220021A548B9
:10205000FEF7C0FB022000906946A248FEF772FB23
:102060000C2201219F48FEF7B5FB04200090694631
:102070009C48FEF767FB0C2202219A48FEF7AAFB58
:102080004FF48040009069469748FEF75BFB0C22B6
:102090000E219548FEF79EFB4FF4004000906946E4
:1020A0009148FEF74FFB0C220F218F48FEF792FB61
:1020B0000120009069468C48FEF744FB0C22002169
:1020C0008948FEF787FB0220009069468648FEF7A4
:1020D00039FB0C2201218448FEF77CFB8020009014
:1020E00069468248FEF72EFB0C2207217F48FEF747
:1020F00071FB4FF48070009069467C48FEF722FB2C
:102100000C2208217948FEF765FB4FF4007000901F
:1021100069467648FEF716FB0C2209217348FEF744
:1021200059FB4FF48060009069467048FEF70AFB47
:102130000C220A216D48FEF74DFB4FF40060009021
:1021400069466A48FEF7FEFA0C220B216748FEF743
:1021500041FB4FF48050009069466448FEF7F2FA64
:102160000C2211466148FEF735FB4FF400500090F9
:1021700069465E48FEF7E6FA0C220D215B48FEF741
:1021800029FB4FF48040009069465848FEF7DAFA80
:102190000C220E215548FEF71DFB4FF40040009025
:1021A00069465248FEF7CEFA0C220F214F48FEF73F
:1021B00011FB4FF48070009069464B48FEF7C2FA5D
:1021C0000C2208214848FEF705FB4FF400700090F0
:1021D00069464548FEF7B6FA0C2209214248FEF747
:1021E000F9FA4FF48060009069463F48FEF7AAFA7A
:1021F0000C220A213C48FEF7EDFA40200090694687
:102200003B48FEF79FFA0C2206213948FEF7E2FA16
:102210001020009069463348FEF794FA0C220421FE
:102220003048FEF7D7FA2020009069462D48FEF787
:1022300089FA0C2205212B48FEF7CCFA01200090E8
:1022400069462C48FEF77EFA0C2200212948FEF749
:10225000C1FA4FF40060009069462148FEF772FA17
:102260000C220B211E48FEF7B5FA4FF400400090F7
:1022700069461C48FEF766FA0C220F211948FEF742
:10228000A9FA4FF48070009069461648FEF75AFA92
:102290000C2208211348FEF79DFA80200090694621
:1022A0001348FEF74FFA0C2207211148FEF792FA65
:1022B0000220009069460D48FEF744FA0C220121E5
:1022C0000A48FEF787FA0120009069460748FEF7A2
:1022D00039FA0C2200210548FEF77CFA1CBD0000EB
:1022E0000014024000180240000C0240001002409E
:1022F000001C02400008024000B593B0FFF71EFE2C
:1023000001210846FFF782F8022001900720029081
:102310000420039007200490022005900690079067
:1023200001200890099008200A9010200B9040206E
:102330000C904FF4C0700D9000200E904FF4006090
:102340000F90002010904FF40050119001A81290AF
:1023500008A8FEF749F900F002F813B000BD1FB558
:10236000002401200090082001900120029000200C
:10237000039000BF20210120FEF702F90028F9D1C7
:102380006846FEF721F90A2000F04EF8022000907E
:1023900008200190012002900020039000BF20211E
:1023A0000120FEF7EDF80028F9D16846FEF70CF998
:1023B0000320009008200190042002900020039048
:1023C00000BF20210120FEF7DBF80028F9D1684684
:1023D000FEF7FAF800BF20210120FEF7D1F800280F
:1023E000F9D16846FEF7F0F840F23124042000905D
:1023F0000820019001200290039400BF20210120B9
:10240000FEF7BEF80028F9D16846FEF7DDF840F285
:10241000AB20FEF78BF900BF20210120FEF7B0F8BA
:102420000028F9D11FBD000001B581B00020009047
:10243000054901984843009002E00098401E009032
:1024400000980028F9D10CBDA0860100704700005B
:102450000CB50020019000904148006840F48030A5
:102460003F49086000BF3E48006800F4003000901B
:102470000198401C0190009818B90198B0F5A04F40
:10248000F1D13748006800F4003010B1012000900D
:1024900001E0002000900098012860D130484030D1
:1024A000006840F080502E49403108602D48006897
:1024B00040F440402B49086029480830006828490A
:1024C000083108600846006840F40040086008468B
:1024D000006840F4A05008602348091F0860081FE6
:1024E000006840F08070091F086000BF1C48006849
:1024F00000F000700028F9D01A48006840F48030DD
:102500001849086000BF1748406800F48030002870
:10251000F9D01448006840F400301249086000BF48
:102520001048406800F400300028F9D040F20570EF
:102530000E4908600A480830006820F00300084986
:10254000083108600846006840F00200086000BFDB
:1025500003480830006800F00C000828F8D10CBDD2
:102560000038024000700040195A4007003C024009
:102570007047000010B51548006840F4700013491A
:1025800008601348006840F001001149086000200D
:102590000F49083108600E4800680E4908400C4990
:1025A00008600D48091D0860081F006820F480209D
:1025B000091F0860002006490C310860FFF748FF3A
:1025C0004FF0006001498039086010BD88ED00E0DF
:1025D00000380240FFFFF6FE1030002401F40072C4
:1025E000B2F5007F00D100BFCA430280704721B11D
:1025F000828942F40052828104E082894DF6FF73A1
:102600001A408281704702460020B1F5007F00D158
:1026100000BF13880B400BB1012000E00020704781
:102620002DE9FF4705460E460024A14600BFA046FF
:10263000B08900B100BF2C8A24F44054F0880443D0
:102640002C82AC8941F20C608443B0883189084304
:10265000718908430443AC81AC8A24F44074B08986
:102660000443AC826846FEF701FF2048854202D051
:102670001F48854202D1DDF80C9001E0DDF808909A
:10268000A88900F4004040B109EBC90000EB091033
:1026900031684900B0FBF1F707E009EBC90000EB36
:1026A000091031688900B0FBF1F76420B7FBF0F046
:1026B00004012009642101FB1078A88900F400407E
:1026C00040B1322000EBC800B0FBF1F000F0070091
:1026D000044308E0322000EB08106421B0FBF1F065
:1026E00000F00F0004432C81BDE8FF87001001407B
:1026F00000140140C1F308028280704700BFFEE76A
:102700000FB4054B10B503A9044A029800F02CF849
:1027100010BC5DF814FB0000D52B00084000002021
:102720000FB4084B10B504A902AA039800F01CF8D6
:10273000044602A9002000F048FA204610BC5DF8CB
:1027400014FB0000CB2B000802E008C8121F08C1D0
:10275000002AFAD170477047002001E001C1121F22
:10276000002AFBD1704700002DE9FF4F8DB00F46C6
:102770000546002606E025280BD0DDE90F1290471C
:102780006D1C761C28780028F5D111B03046BDE8C4
:10279000F08F0024A246A1460122EC4900E0044348
:1027A00015F8013F203B02FA03F00842F7D12878E0
:1027B0002A2810D06FF02F022878A0F130010929C3
:1027C00014D80AEB8A0102EB410144F0020400EB49
:1027D000010A6D1CF0E701CF5FEA000A03D544F45B
:1027E0000054CAF1000A44F002046D1C28782E2817
:1027F00017D115F8010F44F004042A280ED06FF009
:102800002F022878A0F1300109290AD809EB8901A3
:1028100002EB410100EB01096D1CF2E757F8049B44
:102820006D1C28786C280FD006DC4C2817D068283F
:102830000DD06A2814D104E0742810D07A280FD162
:102840000DE044F400140AE044F4801401E044F480
:1028500040146978814202D104F580146D1C6D1C0E
:102860002A786E2A1FD00CDC632A31D004DC002ABF
:102870008BD0582A11D1A3E0642A68D0692A0CD1E0
:1028800065E0732A2ED004DC6F2A73D0702A04D13D
:102890009BE0752A6FD0782A6ED01046DDE90F12C2
:1028A0009047761C50E1C4F30250022806D003285A
:1028B00009D0042801CF09D0066045E101CFF11706
:1028C000C0E9006140E101CF06803DE106703BE1D7
:1028D00017F8040B8DF8000000208DF80100EB467E
:1028E000012003E057F804BB4FF0FF3061074FF0C1
:1028F000000102D40DE008F10101884649450FDAD4
:102900008045F8DB1BF808100029F4D108E008F135
:10291000010188468142FADB1BF808100029F6D134
:10292000DDE90F23AAEB08008146214600F036F9C5
:10293000304400EB080604E0DDE90F121BF8010B40
:102940009047B8F10108F7D221464846F7E00A213E
:10295000C4F302534FF0000B0891022B04D001CFB7
:10296000C117032B09D00AE0FF1D27F00707F7E87E
:10297000020108E032E01FE020E000B2C117042BA2
:1029800001D140B2C117031E71F1000307DA4FF005
:10299000000CD0EB0C006CEB01012D2302E02305B1
:1029A00004D52B238DF82430012303E0E30701D065
:1029B0002023F7E7984658E00A2110E010210EE0A6
:1029C00010204FF0000B08900CE010214FF0000B8E
:1029D00044F004044FF00809089103E008214FF087
:1029E000000B0891C4F30253022B04D001CF002145
:1029F000032B06D006E0FF1D27F00707F7E80201CA
:102A000003E080B2042B00D1C0B24FF000082307CE
:102A10002BD5702A07D0DDF820C08CF0100C5CEAB2
:102A20000B0C05D00EE040238DF82430012308E084
:102A300050EA010306D030238DF824308DF825208C
:102A400002239846DDF820C08CF0080C5CEA0B0CE1
:102A50000BD150EA010301D1630706D530238DF86D
:102A600024304FF00108A9F10109582A04D038A2F6
:102A70000B9208AA0A920BE03AA2F9E75B46089A81
:102A8000FDF7C2FB0B9B9B5C0A9A521E0A921370C5
:102A900050EA0102F2D10A98ADEB000000F1200BE0
:102AA000600702D524F4803401E04FF00109D945D4
:102AB00002DDA9EB0B0000E0002000EB0B0141441C
:102AC0000890AAEB010AE00306D4DDE90F232146B2
:102AD000504600F063F806444FF0000908E009A9E9
:102AE00011F80900DDE90F12904709F10109761C80
:102AF000C145F4DBE0030CD5DDE90F232146504648
:102B000000F04CF8064404E0DDE90F123020904755
:102B1000761C0899481E08900029F5DC08E00A9800
:102B20000A990078491C0A91DDE90F129047761C3A
:102B3000BBF10001ABF1010BF1DC21465046DDE9B0
:102B40000F2300F019F806446D1C1BE6092801004C
:102B50003031323334353637383961626364656613
:102B600000000000303132333435363738394142D5
:102B700043444546000000002DE9F041044600258D
:102B80001E461746880404D405E039462020B04785
:102B90006D1C641EF9D52846BDE8F0812DE9F04191
:102BA000044600251E469046C80301D5302700E0A4
:102BB0002027880404D505E041463846B0476D1CFF
:102BC000641EF9D52846BDE8F0810A68531C0B60E5
:102BD0001070704770B504460D46E1B20548FFF726
:102BE00089FD00BF80210348FFF70DFD0028F9D0C3
:102BF000204670BD0010014010B5FEF7D9F9FDF771
:102C000067FBFDF71DFC2BA0FFF77AFDFEF77CF8B4
:102C1000FEF7BCF80120FEF70BFA0020FEF71AF9C8
:102C20004FF40040FDF70CFE0120FEF713F9FF20E2
:102C3000FEF72CF94FF40040FDF702FE4FF400417F
:102C40004FF47C40FEF7F6F8FEF7B8FD0020FEF7E3
:102C50000DFF43F2F221884204D0FEF72DFDFFF76D
:102C600057F822E07B20FEF775FC18B118A0FFF79B
:102C700047FD06E07A20FEF76DFC10B11AA0FFF7C1
:102C80003FFD1FA0FFF73CFD01210807FEF7CEFB2B
:102C90000120FEF793FBFFF713F94FF48070FEF766
:102CA000C3FD4FF40030FDF71BFCFFF759F800207F
:102CB00010BD00000A0DD5E2CAC7D2BBB8F6525407
:102CC00043C4D6D6D3CAB5D1E9200D0A000000000E
:102CD0000D0A20B7A2C9FAB5E7D4B4B8B4CEBB2E5A
:102CE0002E2E2E0D0A0000000D0A20B7A2C9FACD23
:102CF000E2B2BFB8B4CEBB2E2E2E2E0D0A000000BD
:102D00000D0A20B2BBD0E8D2AAD6D8D0C2C5E4D62C
:102D1000C35254432E2E2E2E0D0A00000000000038
:102D200000000000000000000000000000000000A3
:102D30000000000000000000000000000000000093
:102D40000000000000000000000000000000800102
:102D5000800180018001800180018001800180016B
:102D6000800180018001800100000000800180015D
:102D70000000000000000000000000000000000053
:102D8000CC00CC00CC00CC00CC00CC00000000007B
:102D90000000000000000000000000000000000033
:102DA0000000000000000000000000000000000023
:102DB0000000000000000000600C600C600C300699
:102DC0003006FE1FFE1F300638071803FE1FFE1FC9
:102DD000180318038C018C018C0100000000800096
:102DE000E003F80F9C0E8C1C8C188C009800F801E6
:102DF000E007800E801C8C188C189C18B80CF00F03
:102E0000E0038000800000000000000000000000DF
:102E100000000E181B0C110C1106110611031103F2
:102E20009B018E01C038C06C604460443044304423
:102E30001844186C0C380000000000000000E0018D
:102E4000F0033807180618063003F001F000F80008
:102E50009C310E33061E061C061C063FFC73F02137
:102E60000000000000000000000000000000000062
:102E70000C000C000C000C000C000C00000000000A
:102E80000000000000000000000000000000000042
:102E90000000000000000000000000000000000230
:102EA00000038001C000C0006000600030003000FE
:102EB0003000300030003000300030006000600032
:102EC000C000C000800100030002000000002000DC
:102ED0006000C000800180010003000300060006BE
:102EE00000060006000600060006000600030003B8
:102EF00080018001C0006000200000000000000090
:102F00000000000000000000C000C000D806F80764
:102F1000E00130033807000000000000000000005E
:102F200000000000000000000000000000000000A1
:102F3000000000000000000080018001800180018D
:102F40008001FC3FFC3F8001800180018001800105
:102F50000000000000000000000000000000000071
:102F60000000000000000000000000000000000061
:102F700000000000000000000000000000008001D0
:102F8000800100010001800000000000000000003E
:102F90000000000000000000000000000000000031
:102FA00000000000E007E007000000000000000053
:102FB0000000000000000000000000000000000011
:102FC0000000000000000000000000000000000001
:102FD0000000000000000000000000000000C00031
:102FE000C000000000000000000000000000000C15
:102FF000000C000600060006000300030003800327
:10300000800180018001C000C000C000600060003D
:103010000000000000000000000000000000E003CD
:10302000F007380E180C0C180C180C180C180C188B
:103030000C180C180C180C18180C380EF007E003BC
:10304000000000000000000000000000000000017F
:103050008001C001F0019801880180018001800198
:103060008001800180018001800180018001800158
:103070000000000000000000000000000000E0036D
:10308000F80F180C0C180C1800180018000C00068B
:1030900000038001C000600030001800FC1FFC1F0E
:1030A0000000000000000000000000000000E0013F
:1030B000F807180E0C0C0C0C000C0006C003C0071F
:1030C000000C001800180C180C18180CF807E00376
:1030D0000000000000000000000000000000000CE4
:1030E000000E000F000F800DC00C600C600C300C47
:1030F000180C0C0CFC3FFC3F000C000C000C000CEE
:103100000000000000000000000000000000F80FB8
:10311000F80F180018000C00EC03FC071C0E001C34
:103120000018001800180C181C0C180EF807E00303
:103130000000000000000000000000000000C007C8
:10314000F00F381C181818000C00CC03EC0F3C0EC4
:103150001C1C0C180C180C18181C380EF007E00377
:103160000000000000000000000000000000FC1F44
:10317000FC1F000C00060006000380038001C00154
:10318000C000E000600060007000300030003000DF
:103190000000000000000000000000000000E0034C
:1031A000F007380E180C180C180C3806F007F0074A
:1031B000180C0C180C180C180C18380CF80FE0032D
:1031C0000000000000000000000000000000E0031C
:1031D000F007380E1C0C0C180C180C181C1C381E90
:1031E000F81BE0190018000C000C1C0EF807F00189
:1031F00000000000000000000000000000000000CF
:1032000000000000000000008001800100000000BC
:1032100000000000000000000000000080018001AC
:10322000000000000000000000000000000000009E
:10323000000000000000000080018001000000008C
:10324000000000000000000000000000800180017C
:1032500000010001800000000000000000000000EC
:103260000000000000000000000000000010001C32
:10327000800FE003F8001800F800E003800F001C46
:10328000001000000000000000000000000000002E
:10329000000000000000000000000000F81F000017
:1032A00000000000F81F0000000000000000000007
:1032B000000000000000000000000000000000000E
:1032C00000000000000000000000000008003800BE
:1032D000F001C007001F0018001FC007F0013800F0
:1032E0000800000000000000000000000000E003F3
:1032F000F80F180C0C180C180018000C000600032E
:103300008001C000C000C00000000000C000C0007C
:1033100000000000000000000000000000000000AD
:10332000E00718180420C229224A1144094409441C
:10333000094409221113E20C024004201818E00786
:1033400000000000000000000000000000008003FA
:103350008003C006C006C006600C600C3018301830
:103360003018F83FF83F1C700C600C6006C006C0B7
:103370000000000000000000000000000000FC034E
:10338000FC0F0C0C0C180C180C180C0CFC07FC0F88
:103390000C180C300C300C300C300C18FC1FFC07D7
:1033A0000000000000000000000000000000C00756
:1033B000F01F38381C300C7006600600060006004E
:1033C00006000600060006600C701C30F01FE007C7
:1033D0000000000000000000000000000000FE03EC
:1033E000FE0F060E061806180630063006300630A8
:1033F00006300630063006180618060EFE0FFE03CD
:103400000000000000000000000000000000FC3F81
:10341000FC3F0C000C000C000C000C00FC1FFC1FFF
:103420000C000C000C000C000C000C00FC3FFC3FDE
:103430000000000000000000000000000000F83F55
:10344000F83F18001800180018001800F81FF81F9F
:1034500018001800180018001800180018001800AC
:103460000000000000000000000000000000E00F6D
:10347000F83F3C780E6006E007C00300030003FE3F
:1034800003FE03C007C006C00EC03CF0F83FE00FCB
:1034900000000000000000000000000000000C30F0
:1034A0000C300C300C300C300C300C30FC3FFC3F3E
:1034B0000C300C300C300C300C300C300C300C302C
:1034C000000000000000000000000000000080017B
:1034D00080018001800180018001800180018001E4
:1034E00080018001800180018001800180018001D4
:1034F00000000000000000000000000000000006C6
:10350000000600060006000600060006000600068B
:10351000000600060006180618063807F003E0014A
:103520000000000000000000000000000000063065
:103530000618060C060606038601C600660076001D
:10354000DE008E0106030606060C0618063006602D
:103550000000000000000000000000000000180053
:10356000180018001800180018001800180018009B
:10357000180018001800180018001800F81FF81F8D
:1035800000000000000000000000000000000EE04D
:103590001EF01EF01EF036D836D836D836D866CC97
:1035A00066CC66CCC6C6C6C6C6C6C6C686C386C3F5
:1035B00000000000000000000000000000000C30CF
:1035C0001C303C303C306C306C30CC30CC308C31EA
:1035D0000C330C330C360C360C3C0C3C0C380C30D9
:1035E0000000000000000000000000000000E007F4
:1035F000F81F1C380E70066003C003C003C003C070
:1036000003C003C003C006600E701C38F81FE0073B
:103610000000000000000000000000000000FC0F9F
:10362000FC1F0C380C300C300C300C300C18FC1F0C
:10363000FC070C000C000C000C000C000C000C0033
:103640000000000000000000000000000000E00793
:10365000F81F1C380E70066003E003C003C003C0EF
:1036600003C003C007E006630E3F1C3CF83FE0F7D1
:1036700000C0000000000000000000000000FE0F7D
:10368000FE1F06380630063006300638FE1FFE07DD
:1036900006030606060C06180618063006300660F5
:1036A0000000000000000000000000000000E00337
:1036B000F80F1C0C0C180C180C001C00F803E00F81
:1036C000001E0038063006300E301C1CF80FE007D4
:1036D0000000000000000000000000000000FE7F6D
:1036E000FE7F8001800180018001800180018001D6
:1036F00080018001800180018001800180018001C2
:1037000000000000000000000000000000000C307D
:103710000C300C300C300C300C300C300C300C30C9
:103720000C300C300C300C300C301818F81FE0073F
:103730000000000000000000000000000000036026
:103740000630063006300C180C180C18180C180C23
:10375000380E30063006700760036003C001C001F8
:1037600000000000000000000000000000000360F6
:10377000C361C361C36166336633663366336633E0
:1037800066336C1B6C1B6C1B2C1A3C1E380E380EDF
:1037900000000000000000000000000000000FE03A
:1037A0000C7018303018700C600EC0078003800356
:1037B000C003E006700C301C18180C300E6007E0D7
:1037C000000000000000000000000000000003C036
:1037D00006600C301C383818300C6006E007C00357
:1037E00080018001800180018001800180018001D1
:1037F0000000000000000000000000000000FC7F4E
:10380000FC7F006000300018000C000600038001FF
:10381000C0006000300018000C000600FE7FFE7F34
:103820000000000000000000000000000000E003B5
:10383000E003600060006000600060006000600005
:103840006000600060006000600060006000600078
:10385000600060006000E003E00300000000300052
:103860003000600060006000C000C000C000C00107
:1038700080018001800100030003000300060006B0
:103880000000000000000000000000000000E00355
:10389000E003000300030003000300030003000330
:1038A0000003000300030003000300030003000300
:1038B000000300030003E003E00300000000000039
:1038C000C001C00160036003600330063006180CBD
:1038D000180C0000000000000000000000000000C4
:1038E00000000000000000000000000000000000D8
:1038F00000000000000000000000000000000000C8
:103900000000000000000000000000000000FFFFB9
:10391000FFFF0000000000000000000000000C009D
:103920000C000C000C000C000C000000000000005B
:103930000000000000000000000000000000000087
:103940000000000000000000000000000000000077
:103950000000000000000000F003F8071C0C0C0C35
:10396000000FF00FF80C0C0C0C0C1C0FF80FF018DB
:10397000000000000000000000000000000018002F
:103980001800180018001800D803F80F380C181881
:1039900018181818181818181818380CF80FD80311
:1039A0000000000000000000000000000000000017
:1039B0000000000000000000C003F007300E180CEB
:1039C0001800180018001800180C300EF007C0037B
:1039D00000000000000000000000000000000018CF
:1039E0000018001800180018C01BF01F301C181811
:1039F00018181818181818181818301CF01FC01BA1
:103A000000000000000000000000000000000000B6
:103A10000000000000000000C003F00F300C181878
:103A2000F81FF81F180018003818301CF00FC007D6
:103A30000000000000000000000000000000800FF7
:103A4000C00FC000C000C000F007F007C000C000F9
:103A5000C000C000C000C000C000C000C000C00066
:103A60000000000000000000000000000000000056
:103A70000000000000000000E00DF80F180E0C0C14
:103A80000C0C0C0C0C0C0C0C0C0C180EF80FE00DA4
:103A9000000C0C0C1C06F807F001000000001800D8
:103AA0001800180018001800D807F80F381C18184C
:103AB0001818181818181818181818181818181886
:103AC0000000000000000000000000000000C00036
:103AD000C000000000000000C000C000C000C00026
:103AE000C000C000C000C000C000C000C000C000D6
:103AF0000000000000000000000000000000C00006
:103B0000C000000000000000C000C000C000C000F5
:103B1000C000C000C000C000C000C000C000C000A5
:103B2000C000C000C000F8007800000000000C00D9
:103B30000C000C000C000C000C0C0C060C038C018F
:103B4000CC006C00FC009C018C030C030C060C0CDC
:103B50000000000000000000000000000000C000A5
:103B6000C000C000C000C000C000C000C000C00055
:103B7000C000C000C000C000C000C000C000C00045
:103B80000000000000000000000000000000000035
:103B900000000000000000007C3CFF7EC7E383C102
:103BA00083C183C183C183C183C183C183C183C1F5
:103BB0000000000000000000000000000000000005
:103BC00000000000000000009807F80F381C1818CB
:103BD0001818181818181818181818181818181865
:103BE00000000000000000000000000000000000D5
:103BF0000000000000000000C003F00F300C181897
:103C000018181818181818181818300CF00FC003C6
:103C100000000000000000000000000000000000A4
:103C20000000000000000000D803F80F380C18183E
:103C300018181818181818181818380CF80FD8036E
:103C400018001800180018001800000000000000FC
:103C50000000000000000000C01BF01F301C1818FE
:103C600018181818181818181818301CF01FC01B2E
:103C700000180018001800180018000000000000CC
:103C80000000000000000000B007F00370003000EA
:103C900030003000300030003000300030003000A4
:103CA0000000000000000000000000000000000014
:103CB0000000000000000000E003F003380E180CC4
:103CC0003800F003C007000C180C380EF007E003B2
:103CD00000000000000000000000000000000000E4
:103CE0008000C000C000C000F007F007C000C000A6
:103CF000C000C000C000C000C000C000C0078007F6
:103D000000000000000000000000000000000000B3
:103D100000000000000000001818181818181818E3
:103D200018181818181818181818381CF01FE01947
:103D30000000000000000000000000000000000083
:103D400000000000000000000C18180C180C180CE3
:103D5000300630063006600360036003C001C00116
:103D60000000000000000000000000000000000053
:103D70000000000000000000C141C141C361636355
:103D8000636363633636363636361C1C1C1C1C1CBB
:103D90000000000000000000000000000000000023
:103DA00000000000000000001C38381C300C6006C9
:103DB00060036003600360036006300C381C1C382D
:103DC00000000000000000000000000000000000F3
:103DD0000000000000000000183030183018701883
:103DE000600C600CE00CC006C006800380038003FA
:103DF00080018001C001F0007000000000000000A0
:103E00000000000000000000FC1FFC1F000C00066A
:103E100000038001C000600030001800FC1FFC1F80
:103E2000000000000000000000000000000000038F
:103E30008001C000C000C000C000C000C000600021
:103E40006000300060004000C000C000C000C00042
:103E5000C000C000800100030000000000008001DD
:103E6000800180018001800180018001800180014A
:103E7000800180018001800180018001800180013A
:103E8000800180018001800180010000000060004D
:103E9000C000C00180018001800180018001000319
:103EA0000003000600030001800180018001800101
:103EB00080018001C00060000000000000000000E0
:103EC000000000000000000000000000F010F81FDB
:103ED000080F0000000000000000000000000000CB
:103EE00000000000000000000000000000000000D2
:103EF00000000000000000000000000000000000C2
:103F00000000000000000020002000200020002011
:103F100000200020000000200000000000000050F1
:103F200000500050000000000000000000000000F1
:103F3000000000000000000900090012007F0012CC
:103F4000007F001200240024000000000010003850
:103F50000054005000500038001400540054003841
:103F6000001000000000803000490049004AC032C3
:103F7000200520092009C010000000000000000CEE
:103F80000012001200140018002500230023801DD9
:103F90000000000000000040004000400000000061
:103FA0000000000000000000000000000000000809
:103FB0000010001000200020002000200020002021
:103FC0000010001000000040002000200010001031
:103FD0000010001000100010002000200000002041
:103FE00000700020005000000000000000000000F1
:103FF0000000000000000000000000080008007F32
:1040000000080008000000000000000000000000A0
:104010000000000000000000000000000000002080
:104020000020004000000000000000000000000030
:104030000070000000000000000000000000000010
:104040000000000000000000000000000000002050
:1040500000000000000000100010001000200020F0
:104060000020002000400040000000000000001080
:10407000002800440044004400440044002800108C
:104080000000000000000010003000500010001080
:1040900000100010001000100000000000000030B0
:1040A0000048004400040008001000200040007C8C
:1040B000000000000000003000480004000800106C
:1040C0000008004400480030000000000000000824
:1040D00000180018002800280048007C000800088C
:1040E000000000000000003C00200040007000487C
:1040F00000040044004800300000000000000018E8
:1041000000240040005000680044004400280010D3
:10411000000000000000007C0004000800100010F7
:10412000001000200020002000000000000000100F
:104130000028004400280010002800440028001037
:104140000000000000000010002800440044002C83
:1041500000140004004800300000000000000000CF
:10416000000000200000000000000000000000200F
:10417000000000000000000000000020000000001F
:1041800000000000000000200020004000000000AF
:104190000004000800300040003000080004000067
:1041A00000000000000000000000007C0000000093
:1041B000007C000000000000000000000000000083
:1041C00000400020001800040018002000400000FB
:1041D00000000000000000380064004400040008F3
:1041E0000010001000000010000000000000800F10
:1041F0004010A02EA0512051205120512053C04DDD
:1042000020204010000000080014001400140022B8
:10421000003E002200410041000000000000003C80
:10422000002200220022003C002200220022003C4A
:10423000000000000000000E0011002100200020FE
:10424000002000210011000E000000000000003CD2
:104250000022002100210021002100210022003C39
:10426000000000000000003E002000200020003E72
:10427000002000200020003E000000000000003E62
:10428000002000200020003C002000200020002012
:10429000000000000000000E001100210020002797
:1042A000002100210011000E00000000000000218C
:1042B000002100210021003F0021002100210021D8
:1042C000000000000000002000200020002000204E
:1042D0000020002000200020000000000000000856
:1042E00000080008000800080008004800480030E6
:1042F00000000000000000220024002800280038F0
:1043000000280024002400220000000000000020FB
:104310000020002000200020002000200020003E7F
:104320000000000000008020803180318031802A30
:10433000802A802A802A80240000000000000021BA
:10434000003100310029002900250023002300212D
:10435000000000000000000C0012002100210021DC
:10436000002100210012000C000000000000003CB1
:10437000002200220022003C00200020002000201B
:10438000000000000000000C0012002100210021AC
:10439000002100210016000D000100000000003E79
:1043A000002100210021003E002400220021802065
:1043B000000000000000001C002200220020001C61
:1043C000000200220022001C000000000000003E4D
:1043D000000800080008000800080008000800089D
:1043E0000000000000000021002100210021002128
:1043F000002100210012000C00000000000000411C
:1044000000410022002200220014001400140008C1
:104410000000000000004044404A402A802A802AD0
:10442000802A802A802A001100000000000000413C
:10443000002200140014000800140014002200419F
:1044400000000000000000410022002200140008CB
:104450000008000800080008000000000000007EBE
:104460000002000400080010001000200040007E40
:10447000000000000000003000200020002000208C
:10448000002000200020002000200020000000402C
:10449000004000200020002000200020001000101C
:1044A000000000000000006000200020002000202C
:1044B000002000200020002000200020000000102C
:1044C0000028002800280044000000000000000030
:1044D00000000000000000000000000000000000DC
:1044E00000000000000000000000007E00400020EE
:1044F00000000000000000000000000000000000BC
:10450000000000000000000000000038004400042B
:10451000003C00440044003C00000000000000405B
:104520000040005800640044004400440064005807
:1045300000000000000000000000003000480040C3
:10454000004000400048003000000000000000046F
:1045500000040034004C004400440044004C00348B
:10456000000000000000000000000038004400448B
:10457000007C0040004400380000000000000060A3
:10458000004000E00040004000400040004000408B
:10459000000000000000000000000034004C004457
:1045A00000440044004C003400040044000000407B
:1045B00000400058006400440044004400440044AB
:1045C00000000000000000400000004000400040EB
:1045D000004000400040004000000000000000409B
:1045E000000000400040004000400040004000400B
:1045F00000400040000000400040004800500060C3
:10460000005000500048004800000000000000403A
:10461000004000400040004000400040004000409A
:10462000000000000000000000000052006D004982
:104630000049004900490049000000000000000056
:10464000000000580064004400440044004400445A
:10465000000000000000000000000038004400449A
:104660000044004400440038000000000000000046
:1046700000000058006400440044004400640058F6
:10468000004000400000000000000034004C0044E6
:1046900000440044004C003400040004000000000A
:1046A000000000500060004000400040004000401A
:1046B0000000000000000000000000300048004042
:1046C00000300008004800300000000000000040FA
:1046D000004000E00040004000400040004000601A
:1046E00000000000000000000000004400440044FE
:1046F00000440044004C00340000000000000000B2
:104700000000004400440028002800280028001071
:1047100000000000000000000000004900490055B2
:104720000055005500550022000000000000000068
:104730000000004400280028001000280028004441
:1047400000000000000000000000004400440028B9
:1047500000280028001000100010001000000000C9
:1047600000000078000800100020002000400078C1
:1047700000000000000000100020002000200020A9
:104780000040002000200020002000200000002029
:104790000020002000200020002000200020002019
:1047A0000020002000000040002000200020002009
:1047B0000010002000200020002000200000000049
:1047C000000000000074005800000000000000001D
:1047D0000000000000000000007000500050005079
:1047E0000050005000500070000000000000000069
:1047F00000000000000000000000000000000000B9
:104800000000000000000000000010001000100078
:104810001000100010000000100000000000000058
:104820000000280028002800000000000000000010
:1048300000000000000000000000140014003E0012
:10484000140028007C002800280000000000000060
:1048500010003800540050003800140014005400B8
:10486000380010000000000000004400A800A8006C
:10487000500014001A002A0024000000000000006C
:1048800000002000500050002000E8009800980030
:104890006000000000000000000080008000800038
:1048A0000000000000000000000000000000000008
:1048B00000004000800080008000800080008000B8
:1048C00080008000000000000000800040004000E8
:1048D0004000400040004000400040000000000058
:1048E00000004000E0004000A000000000000000C8
:1048F0000000000000000000000000000000200098
:104900002000F8002000200000000000000000004F
:104910000000000000000000000000000000000097
:104920004000400000000000000000000000000007
:1049300000000000C00000000000000000000000B7
:104940000000000000000000000000000000000067
:1049500040000000000000000000200020002000B7
:104960004000400080008000800000000000000047
:104970000000600090009000900090009000900077
:104980006000000000000000000020006000A000A7
:104990002000200020002000200000000000000077
:1049A0000000600090001000100020004000800017
:1049B000F000000000000000000060009000100007
:1049C0006000100010009000600000000000000077
:1049D000000010003000500050009000F80010005F
:1049E0001000000000000000000070004000800087
:1049F000E0001000100090006000000000000000C7
:104A00000000600090008000A000D00090009000A6
:104A100060000000000000000000F0001000200016
:104A20002000200040004000400000000000000086
:104A300000006000900090006000900090009000E6
:104A40006000000000000000000060009000900086
:104A5000B000500010009000600000000000000056
:104A60000000000000004000000000000000000006
:104A700040000000000000000000000000004000B6
:104A800000000000000000004000400000000000A6
:104A900000000000000010006000800060001000B6
:104AA0000000000000000000000000000000000006
:104AB000F0000000F0000000000000000000000016
:104AC0000000000000008000600010006000800016
:104AD00000000000000000000000600090001000D6
:104AE00020004000400000004000000000000000E6
:104AF00000001C0022005B00A500A500A500A50089
:104B00009E00410000000000000020005000500006
:104B10005000500070008800880000000000000075
:104B20000000F00088008800F000880088008800FD
:104B3000F000000000000000000038004400840085
:104B40008000800084004400380000000000000065
:104B50000000E00090008800880088008800900035
:104B6000E0000000000000000000F800800080006D
:104B7000F800800080008000F800000000000000C5
:104B800000007800400040007000400040004000FD
:104B900040000000000000000000380044008400D5
:104BA00080009C00840044003800000000000000E9
:104BB0000000880088008800F800880088008800CD
:104BC00088000000000000000000800080008000DD
:104BD0008000800080008000800000000000000055
:104BE0000000100010001000100010009000900055
:104BF0006000000000000000000088009000A0009D
:104C0000E000A0009000900088000000000000007C
:104C10000000800080008000800080008000800014
:104C2000F00000000000000000008200C600C60086
:104C3000AA00AA00AA00AA0092000000000000003A
:104C400000008400C400A400A400940094008C0020
:104C500084000000000000000000300048008400D4
:104C60008400840084004800300000000000000040
:104C70000000F000880088008800F00080008000BC
:104C800080000000000000000000300048008400A8
:104C900084008400840058003400040000000000F8
:104CA00000007800440044007800500048004400B0
:104CB000420000000000000000007000880080003A
:104CC00070000800880088007000000000000000EC
:104CD0000000F8002000200020002000200020001C
:104CE0002000000000000000000084008400840018
:104CF00084008400840048003000000000000000B0
:104D00000000880088005000500050005000500003
:104D1000200000000000000000009200AA00AA008D
:104D2000AA00AA00AA00AA00440000000000000097
:104D3000000084004800480030003000480048006F
:104D400084000000000000000000880050005000B7
:104D500020002000200020002000000000000000B3
:104D60000000F80008001000200020004000800033
:104D7000F8000000000000000000C000800080007B
:104D80008000800080008000800080000000000023
:104D900000008000800040004000400040002000F3
:104DA00020000000000000000000C00040004000A3
:104DB0004000400040004000400040000000000073
:104DC00000004000A000A000A000000000000000C3
:104DD00000000000000000000000000000000000D3
:104DE00000000000000000000000F80000000000CB
:104DF00000008000400000000000000000000000F3
:104E00000000000000000000000000000000E000C2
:104E10001000700090009000700000000000000082
:104E2000000080008000A000D00090009000D00022
:104E3000A000000000000000000000000000600072
:104E400090008000800090006000000000000000E2
:104E50000000100010005000B00090009000B00062
:104E60005000000000000000000000000000600092
:104E70009000F00080009000600000000000000042
:104E80000000C0008000C000800080008000800022
:104E90008000000000000000000000000000500042
:104EA000B00090009000B000500010000000000022
:104EB000000080008000A000D000900090009000D2
:104EC0009000000000000000000080000000800052
:104ED0008000800080008000800000000000000052
:104EE00000008000000080008000800080008000C2
:104EF0008000800000000000000080008000900022
:104F0000A000C000A0009000900000000000000081
:104F10000000800080008000800080008000800011
:104F20008000000000000000000000000000A6005B
:104F3000DA0092009200920092000000000000004F
:104F4000000000000000A000D00090009000900041
:104F50009000000000000000000000000000600061
:104F600090009000900090006000000000000000A1
:104F7000000000000000A000D00090009000D000D1
:104F8000A0008000000000000000000000005000B1
:104F9000B00090009000B000500010000000000031
:104FA000000000000000A000C00080008000800021
:104FB0008000000000000000000000000000E00091
:104FC0009000400020009000600000000000000001
:104FD000000080008000C000800080008000800011
:104FE000C000000000000000000000000000900071
:104FF000900090009000B000500000000000000001
:1050000000000000000088008800500050005000A0
:1050100020000000000000000000000000009200DE
:10502000AA00AA00AA00AA00440000000000000094
:105030000000000000008800500020002000500008
:105040008800000000000000000000000000880050
:105050005000500050002000200020000000000000
:10506000000000000000F000100020004000800060
:10507000F0000000000000000000C0008000800080
:1050800080000000800080008000800000000000A0
:105090000000800080008000800080008000800090
:1050A00080008000000000000000C00040004000C0
:1050B0004000200040004000400040000000000090
:1050C0000000000000000000E800B0000000000048
:1050D000000000000000000000000000E000A00050
:1050E000A000A000A000A000E00000000000000060
:1050F0000000000000000000000000004000400030
:10510000400040004000400000004000A000A0001F
:10511000A0000000000000000000000000002400CB
:105120002400FE004800FC004800480038005400FD
:105130005000380014001400540038004400A80047
:10514000A800500014001A002A00240010002800B3
:105150002800100074004C004C00300010001000BB
:105160001000000000000000000000000800100017
:1051700010001000100010001000080010000800BF
:1051800008000800080008000800100000000000E7
:10519000240018003C00180024000000000000005B
:1051A000100010007C001000100000000000000043
:1051B00000000000000008000800100000000000CF
:1051C000000000003C0000000000000000000000A3
:1051D000000000000000000018001800080008008F
:1051E00008001000100020002000200018002400FB
:1051F00024002400240024002400180008001800C3
:1052000028000800080008000800080038004400D2
:10521000000004000800100020007C00180024009A
:1052200004001800040004002400180004000C000E
:105230001400240044007E00040004003C00200010
:105240002000380004000400240018001800240086
:105250002000380024002400240018003C00040032
:1052600008000800080010001000100018002400BA
:105270002400180024002400240018001800240032
:10528000240024001C00040024001800000000007A
:1052900010000000000010000000000000000000EE
:1052A00008000000000008001000000000000000DE
:1052B0000400180020001800040000000000000096
:1052C00000003C0000003C00000000000000000066
:1052D000200018000400180020000000180024001E
:1052E0000400080010001000000010003C00420004
:1052F0009900A500A5009D00420038003800440038
:10530000440044007C004400440044007800440011
:105310004400780044004400440078001C0022004F
:10532000420040004000420022001C007000480083
:105330004400440044004400480070007C004000E9
:1053400040007C004000400040007C003C00200009
:105350002000380020002000200020001C00220037
:10536000420040004E00420022001C004400440065
:1053700044007C004400440044004400100010003D
:1053800010001000100010001000100004000400B5
:105390000400040004002400240018004400480015
:1053A00050007000500048004800440020002000D9
:1053B000200020002000200020003C008200C600C9
:1053C000C600AA00AA00AA00AA0092004200620039
:1053D000520052004A004A004600420018002400D1
:1053E00042004200420042002400180078004400BD
:1053F00044004400780040004000400018002400B1
:1054000042004200420042002C001A007800440092
:105410004400780050004800440042003800440036
:105420004000380004004400440038007C001000B4
:105430001000100010001000100010004200420088
:105440004200420042004200240018004400440090
:105450002800280028002800280010009200AA0038
:10546000AA00AA00AA00AA00AA0044004200240040
:1054700024001800180024002400420044002800E2
:105480002800100010001000100010007C00040024
:10549000080010001000200040007C001C001000DC
:1054A000100010001000100010001C001000100070
:1054B0000800080008000800040004001C000400A4
:1054C000040004000400040004001C001000280074
:1054D0004400000000000000000000000000000088
:1054E000000000000000000000000000200010008C
:1054F000100000000000000000000000000000009C
:10550000180004001C00240024001C0020002000BF
:10551000280034002400240034002800000000008B
:1055200018002400200020002400180004000400BB
:1055300014002C00240024002C00140000000000A3
:10554000180024003C00200024001800000018006F
:1055500010001000180010001000100000001800CB
:10556000240024001800040024001800200020005B
:10557000280034002400240024002400100000002F
:1055800010001000100010001000100008000000B3
:105590000800080008000800280010002000200073
:1055A00024002800300028002400240010001000EF
:1055B000100010001000100010001000000000008B
:1055C000A600DA0092009200920092000000000013
:1055D00028003400240024002400240000000000DF
:1055E00018002400240024002400180000002800D3
:1055F00034002400380020002000200000001400A7
:105600002C0024001C000400040004000000000022
:105610002C003000200020002000200000000000AE
:1056200018002400100008002400180000001000DA
:1056300038001000100010001000180000000000DA
:1056400024002400240024002C001400000000008A
:10565000440044002800280028001000000000003A
:105660009200AA00AA00AA00AA00440000000000BC
:10567000440028001000100028004400000028000A
:10568000280028001000100010001000000000008A
:105690003C0004000800100020003C00000008004E
:1056A0001000100020001000100008001000100072
:1056B000100010001000100010001000000010007A
:1056C00008000800040008000800100000000000A6
:1056D0000000600092000C0000000000FF00FF00CE
:1056E000FF00FF00FF00FF00FF00FF000C57000855
:1056F0000000002044000000482700085057000820
:10570000440000200450000058270008000000005A
:105710000102030401020304060708090000000057
:105720000000FFFF000000D0000000001C2D00085A
:1057300010001800EC3E00080C000C00EC470008BC
:1057400008000C00EC5000080800080000000000F1
:04000005080001AD41
:00000001FF
