:020000040800F2
:10000000E8BE0020C1010008FD300008652000089E
:10001000F9300008D10D00088D4D000800000000E7
:1000200000000000000000000000000095450008EE
:1000300079140008000000008D310008F146000826
:10004000DB010008DB010008DB010008DB01000820
:10005000DB010008DB010008DB010008DB01000810
:10006000DB010008DB010008DB010008DB01000800
:10007000DB010008DB010008F11000081D11000879
:10008000DB010008DB010008DB010008DB010008E0
:10009000DB010008DB010008DB010008DB010008D0
:1000A000DB010008DB010008DB010008DB010008C0
:1000B000DB010008DB010008DB010008DB010008B0
:1000C000DB010008DB010008DB010008DB010008A0
:1000D000DB010008DB010008DB010008DB01000890
:1000E000DB010008DB010008DB010008DB01000880
:1000F000DB010008DB010008DB010008DB01000870
:10010000DB010008F5350008DB010008DB01000811
:10011000DB010008DB010008DB010008DB0100084F
:10012000DB010008DB010008DB01000849110008C1
:10013000DB010008DB010008DB010008DB0100082F
:10014000DB010008DB010008DB010008DB0100081F
:10015000DB010008DB010008DB010008DB0100080F
:10016000DB010008DB010008DB010008DB010008FF
:10017000DB010008DB010008DB010008DB010008EF
:10018000DB010008DB010008DB010008DB010008DF
:10019000DB010008DB010008DB010008DB010008CF
:1001A000DB010008DB010008DB010008DFF80CD0F0
:1001B00000F0B2FC00480047856C0008E8BE002053
:1001C0000648804706480047FEE7FEE7FEE7FEE7F1
:1001D000FEE7FEE7FEE7FEE7FEE7FEE76147000811
:1001E000AD01000881FB0020704701464FF0000080
:1001F00081EAE170A0EBE170704700002DE9F04F5B
:1002000082B001904FF000744FF000784FF000057D
:100210004FF0000952F804CB52F804EB0868CB6D9C
:10022000C0FB0C45D1F88000CEF1000EC3FB0E459B
:10023000D1F8DC30C0FB0C89C3FB0E8952F804CB2B
:1002400052F804EB48688B6DC0FB0C45D1F8840074
:10025000CEF1000EC3FB0E45D1F8D830C0FB0C899F
:10026000C3FB0E8952F804CB52F804EB88684B6D3F
:10027000C0FB0C45D1F88800CEF1000EC3FB0E4543
:10028000D1F8D430C0FB0C89C3FB0E8952F804CBE3
:1002900052F804EBC8680B6DC0FB0C45D1F88C001C
:1002A000CEF1000EC3FB0E45D1F8D030C0FB0C8957
:1002B000C3FB0E8952F804CB52F804EB0869CB6CEF
:1002C000C0FB0C45D1F89000CEF1000EC3FB0E45EB
:1002D000D1F8CC30C0FB0C89C3FB0E8952F804CB9B
:1002E00052F804EB48698B6CC0FB0C45D1F89400C4
:1002F000CEF1000EC3FB0E45D1F8C830C0FB0C890F
:10030000C3FB0E8952F804CB52F804EB88694B6C9E
:10031000C0FB0C45D1F89800CEF1000EC3FB0E4592
:10032000D1F8C430C0FB0C89C3FB0E8952F804CB52
:1003300052F804EBC8690B6CC0FB0C45D1F89C006B
:10034000CEF1000EC3FB0E45D1F8C030C0FB0C89C6
:10035000C3FB0E8901984FF4FE4E4EF0FF0E4FEA9C
:10036000946444EA85144FEAE47CBCEBE43F18BF94
:100370008CEA0E044FEA986848EA89184FEAE87C4C
:10038000BCEBE83F18BF8CEA0E080480A0F802809E
:1003900002F5707201F580514FF000744FF0007853
:1003A0004FF000054FF0000952F804CB0868D1F86F
:1003B0008030C0FB0C45C3FB0C8952F804CB486865
:1003C000D1F88430C0FB0C45C3FB0C8952F804CB38
:1003D0008868D1F88830C0FB0C45C3FB0C8952F803
:1003E00004CBC868D1F88C30C0FB0C45C3FB0C892A
:1003F00052F804CB0869D1F89030C0FB0C45C3FB20
:100400000C8952F804CB4869D1F89430C0FB0C45F4
:10041000C3FB0C8952F804CB8869D1F89830C0FB33
:100420000C45C3FB0C8952F804CBC869D1F89C3049
:10043000C0FB0C45C3FB0C8901984FF4FE4E4EF0F7
:10044000FF0E4FEA946444EA85144FEAE47CBCEB67
:10045000E43F18BF8CEA0E044FEA986848EA89180E
:100460004FEAE87CBCEBE83F18BF8CEA0E08A0F826
:100470004040A0F84280A2F57872A1F570614FF07B
:100480000F0C00F10400CDF800C001904FF0007493
:100490004FF000784FF000764FF0007A4FF00005F3
:1004A0004FF000094FF000074FF0000B52F804CB5B
:1004B00052F804EB0868CB6DC0FB0C45C0FB0E671F
:1004C000CEF1000EC3FB0C67C3FB0E45D1F8DC3048
:1004D000D1F88000C3FB0E89C3FB0CABCEF1000E3C
:1004E000C0FB0C89C0FB0EAB52F804CB52F804EBF6
:1004F00048688B6DC0FB0C45C0FB0E67CEF1000E4B
:10050000C3FB0C67C3FB0E45D1F8D830D1F884008B
:10051000C3FB0E89C3FB0CABCEF1000EC0FB0C89F4
:10052000C0FB0EAB52F804CB52F804EB88684B6D5D
:10053000C0FB0C45C0FB0E67CEF1000EC3FB0C6781
:10054000C3FB0E45D1F8D430D1F88800C3FB0E8927
:10055000C3FB0CABCEF1000EC0FB0C89C0FB0EAB95
:1005600052F804CB52F804EBC8680B6DC0FB0C4585
:10057000C0FB0E67CEF1000EC3FB0C67C3FB0E453C
:10058000D1F8D030D1F88C00C3FB0E89C3FB0CAB83
:10059000CEF1000EC0FB0C89C0FB0EAB52F804CBB1
:1005A00052F804EB0869CB6CC0FB0C45C0FB0E672E
:1005B000CEF1000EC3FB0C67C3FB0E45D1F8CC3067
:1005C000D1F89000C3FB0E89C3FB0CABCEF1000E3B
:1005D000C0FB0C89C0FB0EAB52F804CB52F804EB05
:1005E00048698B6CC0FB0C45C0FB0E67CEF1000E5A
:1005F000C3FB0C67C3FB0E45D1F8C830D1F894009B
:10060000C3FB0E89C3FB0CABCEF1000EC0FB0C8903
:10061000C0FB0EAB52F804CB52F804EB88694B6C6C
:10062000C0FB0C45C0FB0E67CEF1000EC3FB0C6790
:10063000C3FB0E45D1F8C430D1F89800C3FB0E8936
:10064000C3FB0CABCEF1000EC0FB0C89C0FB0EABA4
:1006500052F804CB52F804EBC8690B6CC0FB0C4594
:10066000C0FB0E67CEF1000EC3FB0C67C3FB0E454B
:10067000D1F8C030D1F89C00C3FB0E89C3FB0CAB92
:10068000CEF1000EC0FB0C89C0FB0EAB01F58071F2
:1006900001984FF4FE4E4EF0FF0E4FEA946444EA88
:1006A00085144FEAE47CBCEBE43F18BF8CEA0E04EF
:1006B0004FEA986848EA89184FEAE87CBCEBE83FC3
:1006C00018BF8CEA0E084FEA966646EA87164FEA8C
:1006D000E67CBCEBE63F18BF8CEA0E064FEA9A6A4E
:1006E0004AEA8B1A4FEAEA7CBCEBEA3F18BF8CEA75
:1006F0000E0ADDF800C000EBCC0E2EF8026B2EF8CF
:1007000002AB20F8024B20F8028BBCF1010C7FF405
:10071000BAAE02B0BDE8F08F2DE9F04F82B0019083
:100720004FF000744FF0000552F804CB52F804EB80
:100730000868CB6DCEF1000EC0FB0C45C3FB0E4527
:1007400052F804CB52F804EB48688B6DCEF1000EE2
:10075000C0FB0C45C3FB0E4552F804CB52F804EB2A
:1007600088684B6DCEF1000EC0FB0C45C3FB0E45F7
:1007700052F804CB52F804EBC8680B6DCEF1000EB2
:10078000C0FB0C45C3FB0E4552F804CB52F804EBFA
:100790000869CB6CCEF1000EC0FB0C45C3FB0E45C7
:1007A00052F804CB52F804EB48698B6CCEF1000E82
:1007B000C0FB0C45C3FB0E4552F804CB52F804EBCA
:1007C00088694B6CCEF1000EC0FB0C45C3FB0E4597
:1007D00052F804CB52F804EBC8690B6CCEF1000E52
:1007E000C0FB0C45C3FB0E4501984FF4FE4E4EF086
:1007F000FF0E4FEA946444EA85144FEAE47CBCEBB4
:10080000E43F18BF8CEA0E04048002F5707201F513
:1008100080514FF000744FF0000552F804CB086887
:10082000C0FB0C4552F804CB4868C0FB0C4552F89D
:1008300004CB8868C0FB0C4552F804CBC868C0FBE9
:100840000C4552F804CB0869C0FB0C4552F804CBA8
:100850004869C0FB0C4552F804CB8869C0FB0C45C5
:1008600052F804CBC869C0FB0C4501984FF4FE4E0A
:100870004EF0FF0E4FEA946444EA85144FEAE47C9C
:10088000BCEBE43F18BF8CEA0E040484A2F5787236
:10089000A1F570614FF00F0C00F10200CDF800C01F
:1008A00001904FF000744FF000764FF000054FF0CC
:1008B000000752F804CB52F804EB0868CB6DC0FB7C
:1008C0000C45C0FB0E67CEF1000EC3FB0E45C3FB0B
:1008D0000C6752F804CB52F804EB48688B6DC0FBF0
:1008E0000C45C0FB0E67CEF1000EC3FB0E45C3FBEB
:1008F0000C6752F804CB52F804EB88684B6DC0FBD0
:100900000C45C0FB0E67CEF1000EC3FB0E45C3FBCA
:100910000C6752F804CB52F804EBC8680B6DC0FBAF
:100920000C45C0FB0E67CEF1000EC3FB0E45C3FBAA
:100930000C6752F804CB52F804EB0869CB6CC0FB8F
:100940000C45C0FB0E67CEF1000EC3FB0E45C3FB8A
:100950000C6752F804CB52F804EB48698B6CC0FB6F
:100960000C45C0FB0E67CEF1000EC3FB0E45C3FB6A
:100970000C6752F804CB52F804EB88694B6CC0FB4F
:100980000C45C0FB0E67CEF1000EC3FB0E45C3FB4A
:100990000C6752F804CB52F804EBC8690B6CC0FB2F
:1009A0000C45C0FB0E67CEF1000EC3FB0E45C3FB2A
:1009B0000C6701F5807101984FF4FE4E4EF0FF0E6A
:1009C0004FEA946444EA85144FEAE47CBCEBE43FCC
:1009D00018BF8CEA0E044FEA966646EA87164FEA7D
:1009E000E67CBCEBE63F18BF8CEA0E06DDF800C0E3
:1009F00000EB8C0E2EF8026B20F8024BBCF1010CC0
:100A00007FF44CAF02B0BDE8F08F2DE9F05F0546F2
:100A1000002092469B4688460646814640241BE0BD
:100A2000284641464746224600F065F853465A4656
:100A3000C01A914110D311461846224600F04CF8D6
:100A40002D1A67EB01084F4622460120002100F0D5
:100A500043F817EB00094E41201EA4F10104DFDC2E
:100A6000484631462A464346BDE8F09F10B5431A32
:100A7000934209D28318881803E010F8011D03F887
:100A8000011D521EF9D210BD40EA01039B0703D09D
:100A900009E008C9121F08C0042AFAD203E011F8BD
:100AA000013B00F8013B521EF9D210BD30B50B4698
:100AB000014600202022012409E021FA02F59D428E
:100AC00005D303FA02F5491B04FA02F52844151E62
:100AD000A2F10102F1DC30BD202A04DB203A00FA49
:100AE00002F1002070479140C2F1200320FA03F385
:100AF000194390407047202A04DB203A21FA02F083
:100B00000021704721FA02F3D040C2F12002914047
:100B10000843194670470000064C074D06E0E068A0
:100B200040F0010394E8070098471034AC42F6D334
:100B3000FFF740FBB07F0308D07F03082DE9F84F93
:100B400004460E4637461CE1904D4834203CD4F80C
:100B50001C80D5F800A02D1DD4F8209028680090A6
:100B60002D1D41465046FFF73DFB83464946009800
:100B7000FFF738FBABEB00004000E0614946504610
:100B8000FFF730FB834641460098FFF72BFB5844A4
:100B900040002062D4F81880D5F800A02D1DD4F8AC
:100BA0002490286800902D1D41465046FFF71AFBFF
:100BB000834649460098FFF715FBABEB0000400069
:100BC000A06149465046FFF70DFB83464146009819
:100BD000FFF708FB584440006062D4F81480D5F851
:100BE00000A02D1DD4F82890286800902D1D4146A6
:100BF0005046FFF7F7FA834649460098FFF7F2FAA6
:100C0000ABEB00004000606149465046FFF7EAFA4E
:100C1000834641460098FFF7E5FA58444000A06239
:100C2000D4F81080D5F800A02D1DD4F82C90286899
:100C300000902D1D41465046FFF7D4FA83464946A1
:100C40000098FFF7CFFAABEB000040002061494667
:100C50005046FFF7C7FA834641460098FFF7C2FAAD
:100C600058444000E062D4F80C80D5F800A02D1D57
:100C7000D4F83090286800902D1D41465046FFF76B
:100C8000B1FA834649460098FFF7ACFAABEB000097
:100C90004000E06049465046FFF7A4FA83464146CB
:100CA0000098FFF79FFA584440002063D4F808806A
:100CB000D5F800A02D1DD4F83490286800902D1D83
:100CC00041465046FFF78EFA834649460098FFF7A3
:100CD00089FAABEB00004000A06049465046FFF7A0
:100CE00081FA834641460098FFF77CFA5844400059
:100CF0006063D4F80480D5F800A02D1DD4F8389096
:100D0000286800902D1D41465046FFF76BFA834638
:100D100049460098FFF766FAABEB000040006060C0
:100D200049465046FFF75EFA834641460098FFF772
:100D300059FA58444000A063D4F80080D5F800A0C8
:100D40002D1DD4F83C90286800902D1D414650463A
:100D5000FFF748FA834649460098FFF743FAABEBA2
:100D600000004000206049465046FFF73BFA8346AA
:100D700041460098FFF736FA58444000E0632034BB
:100D80007F1E002F3FF7E0AEBDE8F88FD47A03084E
:100D90001CB50121402002F0FBF94FF400700090D7
:100DA00001208DF8040000208DF8060002208DF847
:100DB000070000208DF805006946044801F0E4F8BA
:100DC0004FF40071014801F04AF91CBD00180240BF
:100DD00000BFFEE7014609B920207047002201E06C
:100DE000521C490001F000400028F9D01046F4E7F9
:100DF000014609B920207047002201E0521C490039
:100E000001F000400028F9D01046F4E710B5024682
:100E10001346002002E000241C54401C8842FADBE8
:100E200010BD70B500254FF4803400E0641E24B17D
:100E3000802002F0B3FB0028F8D014B9032528461F
:100E400070BD40F2FF5002F065FB2846F8E7000055
:100E50002DE9F041064600274848056801E047486B
:100E6000056805F045000028F9D005F0040030B110
:100E70000327042002F04EFB3846BDE8F08105F060
:100E8000010028B10127012002F044FB3846F4E7B5
:100E900002F07EFBB04202D010273846EDE740F268
:100EA000FF5002F037FB002002F098FB0446344864
:100EB000204008B93846E0E704F0004008B11C20A3
:100EC000DBE704F0804008B10920D6E704F00050C9
:100ED00008B10A20D1E704F0805008B10B20CCE71C
:100EE00004F0006008B10C20C7E704F0806008B18E
:100EF0000D20C2E704F0807008B10E20BDE704F4B5
:100F0000000008B10F20B8E704F4800008B11020F9
:100F1000B3E704F4001008B11120AEE704F4801028
:100F200008B11220A9E704F4002008B11320A4E7B7
:100F300004F4802008B114209FE704F4003008B1C5
:100F400015209AE704F4803008B1162095E704F4E0
:100F5000004008B1172090E704F4804008B1182041
:100F60008BE704F4005008B1192086E704F008006C
:100F700008B11A2081E738467FE70000342C014091
:100F800008E0FFFD70B500251048046801E00F4837
:100F9000046804F045000028F9D004F0040028B1EA
:100FA0000325042002F0B6FA284670BD04F00100C3
:100FB00028B10125012002F0ADFA2846F5E740F2FC
:100FC000FF5002F0A7FA2846EFE70000342C01405A
:100FD00070B500250B48046801E00A48046804F075
:100FE00045000028F9D004F0040028B103250420AE
:100FF00002F090FA284670BD40F2FF5002F08AFAE3
:101000002846F8E7342C01402DE9F04106460F460A
:101010004FF000082248056801E02148056805F006
:1010200045000028F9D005F0040038B14FF003085E
:10103000042002F06FFA4046BDE8F08105F001009F
:1010400030B14FF00108012002F064FA4046F3E7A6
:1010500002F09EFAB04203D04FF010084046EBE792
:1010600040F2FF5002F056FA002002F0B7FA0446B0
:1010700004F4604018B9200C38804046DCE704F4E2
:10108000005008B11320D7E704F4804008B11020C5
:10109000D2E704F4004008B10F20CDE74046CBE78B
:1010A000342C014070B500264FF480350F48046899
:1010B00002E06D1E0D48046804F0450008B9002DDB
:1010C000F7D115B104F0040028B10326042002F082
:1010D00021FA304670BD04F0400028B100264020BF
:1010E00002F018FA3046F5E73046F3E7342C0140B9
:1010F00010B50749074800F043F9012806D1044913
:10110000044800F03FF804480068804710BD000024
:101110000080001858600240B800002010B5074950
:10112000074800F02DF9012806D10449044800F0D1
:1011300029F804480068804710BD00002080002086
:1011400070600240B400002010B502F04FFF10BDE7
:101150000246094B9A4201D2084801E0064810387D
:1011600001F000531BB1064B0B40C36002E0044B7F
:101170000B40836070470000106402400060024032
:101180007D0F7D0F0246094B9A4201D2084801E0CB
:101190000648103801F000531BB1064B0B40C360EA
:1011A00002E0044B0B408360704700001064024073
:1011B000006002407D0F7D0F21B1026842F0010204
:1011C000026003E0026822F0010202607047000042
:1011D000016821F00101016000210160416081602E
:1011E000C1600161212141614A49884204D13D2108
:1011F000484A103A91608CE046491831884205D13E
:101200004FF47461434A103A916082E041493031B1
:10121000884205D14FF474113E4A103A916078E04B
:101220003C494831884205D14FF07461394A103A3F
:1012300091606EE037496031884204D13649354AC1
:10124000103AD16065E033497831884204D133499E
:10125000304A103AD1605CE02E499031884204D186
:101260002F492C4A103AD16053E02A49A8318842CC
:1012700005D14FF03D51274A103AD16049E0294944
:10128000884204D13D21274A083A116041E02549AE
:101290001831884205D14FF47461224A083A11602E
:1012A00037E020493031884205D14FF474111D4A8E
:1012B000083A11602DE01B494831884205D14FF0B2
:1012C0007461184A083A116023E016496031884277
:1012D00004D11149134A121F11601AE011497831E3
:1012E000884204D10D490F4A121F116011E00D49C7
:1012F0009031884204D10A490A4A121F116008E05D
:101300000849A831884204D14FF03D51054A121FC7
:1013100011607047106002403D000020400F002027
:1013200000003D201064024021B1026842F4802296
:10133000026003E0026822F480220260704722B15A
:10134000036843F40023036003E0036823F40023ED
:1013500003600161704721B1026842F0200202601F
:1013600003E0026822F0200202607047014600207C
:101370000A6802F001020AB1012000E00020704773
:1013800070B50246002000240025124EB24201D260
:10139000114B01E00F4B103B104E0E4036B11E2694
:1013A00006EAD124166806EA040502E0566906F04A
:1013B000800501F000560EB15C6800E01C68084E24
:1013C000344004EA010616B10DB1012000E000200E
:1013D00070BD000010640240006002403C0F3C0FF2
:1013E0007D0F7D0F10B501F080034BB122B1436931
:1013F00043F08003436103E0436923F080034361CA
:1014000080290BD02AB1036801F01E042343036036
:1014100004E0036801F01E04A343036010BD000054
:1014200010B500220268134B1A40CC680B682343A6
:101430004C6923438C692343CC6923430C6A2343BF
:101440004C6A23438C6A23434C6B23438C6B2343AA
:101450001A430260426922F00702D1E90B342343A8
:101460001A4342610B6943604B6883608B68C360B9
:1014700010BD00003F801CF07047000000B587B031
:101480000121084601F084FE0121102001F0B0FE88
:1014900007220A211F4800F0BFFD072209211D482D
:1014A00000F0BAFD00208DF81A0001208DF81B0015
:1014B00002208DF818000002059002208DF8190016
:1014C00005A9144800F060FD02208DF818004002C4
:1014D000059005A90F4800F057FD4FF4E130019049
:1014E0000020ADF80800ADF80A00ADF80C00ADF82A
:1014F00010000C20ADF80E0001A9074803F092F986
:101500000121054803F075F94021034803F068F90B
:1015100007B000BD00000240001001402DE9FF4F60
:1015200087B005460E46149C002E03DC00200BB04D
:10153000BDE8F08F002B02DA4FF0FF30F7E705939C
:10154000DFF858B309985BF82000DFF854B30BEBD1
:1015500040000190DFF84CB309985BF830C009985F
:101560000BEBC0000079029000221598404200F079
:10157000070129B114F8010BC1F1200B00FA0BF29D
:101580005B1A029898B9002006900BE04FF0000B10
:10159000069845F820B00698401C45F820B00698FB
:1015A000801C06900698B042F0DB0020BFE702984E
:1015B000012879D10198007800F00F00049001987B
:1015C000801C01904FF0000A65E0102B10DB14F82E
:1015D000010BC1F1180B00FA0BF0024314F8010BD8
:1015E000C1F1100B00FA0BF002431031103B22E066
:1015F000C818002802DC4FF0FF3098E7002B06DD0A
:1016000014F8010BC1F1180B00FA0BF00243082B80
:1016100006DD14F8010BC1F1100B00FA0BF00243C8
:1016200019440023481E4FF0004B4BFA00F00240D3
:101630004FF00B0A51442AE00498C0F1200022FA2E
:1016400000F0DDF804B03BF810804FEA183EA1EB43
:101650000E0102FA0EF2C8F30319B9F1000F05D01A
:1016600002F0004040EA09095200491EC8F303276E
:1016700027B102F0004007435200491E514502DAEB
:101680004FF0FF3053E745F8049B80C5B61E002E8F
:1016900001DD0B29D0DA002E97DCA1EB0A00034410
:1016A0000598C01A43E7FFE70298032802D0029882
:1016B000022876D1019800904FF0000AE2E0102B4A
:1016C00010DB14F8010BC1F1180B00FA0BF0024308
:1016D00014F8010BC1F1100B00FA0BF002431031AA
:1016E000103B22E0C818002802DC4FF0FF301EE754
:1016F000002B06DD14F8010BC1F1180B00FA0BF0FA
:101700000243082B06DD14F8010BC1F1100B00FA9F
:101710000BF0024319440023481E4FF0004B4BFAD4
:1017200000F002404FF00B0A5144A6E00098007808
:1017300000F00F0004900498C0F1200B22FA0BF087
:10174000401CDDF800B03BF810804FEA183EBEF1B7
:10175000000F08D10498091A04988240009800EB01
:101760004800009089E0A1EB0E0102FA0EF2C8F3E6
:101770000319C8F30327B9F10F0F33D102980328D7
:1017800030D10FB1012000E000200CF1010B5844D2
:10179000039001EB030B0398834503DA4FF0FF300E
:1017A000C5E678E008E014F8010BC1F1180B00FA67
:1017B0000BF002430831083B03988142F3DB002B16
:1017C00007DA19440023481E4FF0004B4BFA00F093
:1017D0000240CCF1200022FA00F08144A1EB0C0180
:1017E00002FA0CF2B9F1000F05D002F0004040EA15
:1017F00009095200491E0F2F2DD1029803282AD122
:101800000CF10100039001EB030B0398834502DA0E
:101810004FF0FF308BE608E014F8010BC1F1180B14
:1018200000FA0BF002430831083B03988142F3DBD6
:10183000002B07DA19440023481E4FF0004B4BFAE7
:1018400000F00240CCF1200022FA00F00744A1EBA6
:101850000C0102FA0CF227B102F0004007435200DB
:10186000491E514502DA4FF0FF3060E645F8049B0F
:1018700080C5B61E0198009000BF002E02DD0B2926
:10188000BFF654AF002E3FF71AAFA1EB0A00034496
:101890000598C01A4BE64FF0FF3048E68474030801
:1018A00060530308047503082DE9FF4F83B0054614
:1018B000109C002B03DC002007B0BDE8F08FDFF8A0
:1018C00058E105985EF82000DFF850E17044009080
:1018D000DFF84CE105985EF8200002900022119894
:1018E000404200F0070129B114F8010BC1F1200EAC
:1018F00000FA0EF25B1A0027019785E0102B10DB2F
:1019000014F8010BC1F1180E00FA0EF0024314F89E
:10191000010BC1F1100E00FA0EF002431031103B22
:1019200022E0C818002801DC3846C5E7002B06DD98
:1019300014F8010BC1F1180E00FA0EF00243082B47
:1019400006DD14F8010BC1F1100E00FA0EF002438F
:1019500019440023481E4FF0004E4EFA00F002409A
:101960000A2001900198014448E00298C0F120004B
:1019700022FA00F0DDF800E01EF800604FEA161BC6
:10198000A1EB0B0102FA0BF2C6F3C00CBCF1000F85
:1019900005D002F0004040EA0C0C5200491EC6F38C
:1019A0008008B8F1000F05D002F0004040EA0808B6
:1019B0005200491EC6F34009B9F1000F05D002F0EC
:1019C000004040EA09095200491E06F0010ABAF136
:1019D000000F05D002F0004040EA0A0A5200491EFA
:1019E0000198814201DA384666E745F804CB45F8AC
:1019F000048B45F8049B45F804AB3F1D0498C01EBA
:101A0000B84201DD0A29B0DA0498C01EB8423FF797
:101A100075AF384650E70000547603080476030893
:101A20005C76030801B504490098086000BF0248CD
:101A300000680028FBD108BD380000202DE9FF4FC9
:101A400087B0834698460020009008F00300604964
:101A500001EB801A08F003005E4951F82000029063
:101A60001F20B0EBA80F02DD4FEAA80000E01F2006
:101A70000746F81C1F2800DA00E01F200546002D4D
:101A800001DD284600E00020054600200390DAF83A
:101A9000040028410490DAF8080028410590DAF89B
:101AA0000C002841069000BF5BF8040B01900198E0
:101AB00020F00044042C03DA03A850F824606FE0FF
:101AC000102C0BDA5AF82460002F03DA794206FA58
:101AD00001F001E046FA07F0064661E0402C0BDA1F
:101AE000A4F110003C4951F8206030460299FEF7FD
:101AF00079FB0646FD1E45E064040025B4F1006F45
:101B000001DA24012D1DB4F1005F01DAA400AD1C3F
:101B1000B4F1804F01DA64006D1C3048844201DA70
:101B20002F4800E02F488146D9F800602146304612
:101B3000FEF758FBD9F80410461821463046FEF748
:101B400051FBD9F80810461821463046FEF74AFBEB
:101B5000D9F80C10461821463046FEF743FBD9F859
:101B600010104618204850F825103046FEF73AFB72
:101B7000C60030460299FEF735FB06461B4850F872
:101B800025003D1A002D0ADA6D426FF00040284111
:101B9000B04202DA6FF0004602E0AE4000E02E41B3
:101BA0000098304300900198002801DA704200E06C
:101BB0003046089908600898001D08900998401E52
:101BC000099000287FF470AF00980BB0BDE8F08F4B
:101BD0003851030828510308385203089A79825A69
:101BE000F85203080C53030840530308205303081A
:101BF0002DE9FC4107460D460026002400200090F8
:101C0000019008205B4908601020486040208860EF
:101C10000020C8604FF480600861084601F01CFD98
:101C20001020FFF715F9044614B12046BDE8FC81E9
:101C30005148008800044F49086037204860402020
:101C400088600020C8604FF480600861084601F099
:101C500003FD3720FFF7FCF804460CB12046E5E70A
:101C60004FF0FF3045490860082048603020886008
:101C70000220C8600020086101204861084601F088
:101C800061FC00203B4908603320486040208860A8
:101C90000020C8604FF480600861084601F0DCFC59
:101CA0003320FFF7D5F804460CB12046BEE709E023
:101CB0004FF4001001F072FC20B101F0C7FC4DF8A8
:101CC0002600761C2E48006840F22A610840002851
:101CD000EED0082001F062FC28B1082001F01AFCC7
:101CE00004242046A2E7022001F058FC28B102207B
:101CF00001F010FC0224204698E7202001F04EFC61
:101D000028B1202001F006FC062420468EE74FF47F
:101D1000007001F043FC30B14FF4007001F0FAFBA9
:101D20000724204682E740F2FF5001F0F3FB0098C1
:101D30000006009901F47F4140EA0120009901F476
:101D40007F0140EA1120009940EA11606860019823
:101D50000006019901F47F4140EA0120019901F454
:101D60007F0140EA1120019940EA11602860204675
:101D70005CE70000A8510020C0000020BC510020FA
:101D8000342C01402DE9F04F89B004460F469246AD
:101D90001D46002D5BD10AF00100002853D080348D
:101DA000D4F800B004F580742068089004F58074BD
:101DB0002068079004F580742068069004F580740C
:101DC0002068059004F580742068049004F5807400
:101DD0002068039004F580742068029004F58074F4
:101DE0002068019004F58074A4F51064CBF1000024
:101DF000206004F5807408984042206004F58074E7
:101E000007984042206004F58074069840422060A4
:101E100004F5807405984042206004F580740498AD
:101E20004042206004F5807403984042206004F52D
:101E3000807402984042206004F58074019840420A
:101E4000206004F58074002009B0BDE8F08F4FF0E9
:101E500000090AF0010000284AD0C84644E026687C
:101E6000F017C5F11F0146FA01F1814206D0C5F114
:101E70001F0201219140491E81EA000606FA05F081
:101E800020602068FEF7B1F940EA09098034206833
:101E90004642F017C5F11F0146FA01F1814206D012
:101EA000C5F11F0201219140491E81EA000606FA90
:101EB00005F020602068FEF798F940EA09098034AF
:101EC0003E68F017C5F11F0146FA01F1814206D0C4
:101ED000C5F11F0201219140491E81EA000606FA60
:101EE00005F001C708F10208B8F1120FB7DB49E0AD
:101EF0004FF0000843E02668F017C5F11F0146FACD
:101F000001F1814206D0C5F11F0201219140491E15
:101F100081EA000606FA05F020602068FEF765F900
:101F200040EA090980342668F017C5F11F0146FA16
:101F300001F1814206D0C5F11F0201219140491EE5
:101F400081EA000606FA05F020602068FEF74DF9E8
:101F500040EA090980343E68F017C5F11F0146FACE
:101F600001F1814206D0C5F11F0201219140491EB5
:101F700081EA000606FA05F001C708F10208B8F187
:101F8000120FB8DB48465FE7F0B50A460021002390
:101F9000002400BF3DE0012505FA01F3156805EABC
:101FA00003049C4234D105684F000326BE40B5436C
:101FB000056015794E00B540066835430560157912
:101FC000012D02D01579022D16D185684F00032608
:101FD000BE40B543856055794E00B54086683543AF
:101FE0008560456801268E40B54345604568967911
:101FF0008E40B6B235434560C5684F000326BE40EB
:10200000B543C560D5794E00B540C6683543C56057
:10201000491C1029BFD3F0BDF0B5002300244D07A3
:10202000ED0E02FA05F3CE1000F1200555F826500A
:102030004E07F70E0F26BE40B543CF1000F1200625
:1020400046F82750CE1000F1200555F8265045EAF5
:102050000304CE1000F1200545F82640F0BD418371
:102060007047000002A002F0C7FF00BFFEE70000BB
:10207000686172646661756C742121210A00000038
:102080002DE9FF4F99B00F469046269D4FF000096D
:10209000002424E01C98406906901C98806920B1B7
:1020A0006869A04201DD00200690E8680590286973
:1020B000A04201DD00200590A869059908EB840283
:1020C000CDE9001402903946069B199800F0A8FC4F
:1020D00040EA09091998483019902437641C286887
:1020E000A042D7DC17E0E86805902869A04201DD2E
:1020F00000200590A86908EB8402CDE9004039462C
:10210000059B199800F096FB40EA09091998483098
:1021100019902437641C6868A042E4DC049449E008
:10212000E86805902869A04201DD0020059007A914
:102130003846059A02F0B6FE4FF0000BE007039018
:1021400000262FE0700007A951F820004FEA800A0E
:102150004BEA0A0B08EB062040F824A05046FEF795
:1021600044F840EA09097000401C07A951F8200012
:102170004FEA800A03988AEAE07004F0010100EB5C
:10218000010A4BEA0A0B7000401C08EBC01040F833
:1021900024A05046FEF729F840EA0909002047F834
:1021A0002600761C092ECDDB2437BBF1000F00D0B2
:1021B0000494641CA868A042B2DC0AE0002605E092
:1021C000002008EBC61141F82400761C122EF7DB24
:1021D000641C202CF2DB484608B9202208E00021CC
:1021E00001E0491C400000F00042002AF9D00A46F4
:1021F000521EEA6104981DB0BDE8F08F21B102883B
:1022000042F48062028004E002884FF6FF331A40F5
:102210000280704770B5024600240025002300208C
:10222000958A138B1B0445EA030626F07F4404EAD3
:1022300001068E4201D1012000E0002070BD21B1D5
:10224000028842F00102028004E002884FF6FE7329
:102250001A400280704700001CB50121480500F0BB
:10226000A7FF0121022000F093FF0121880300F065
:10227000BFFF042206211048FFF7CEFE04220721EB
:102280000D48FFF7C9FE4020009002208DF80400A1
:102290008DF8050001208DF8060000208DF807005C
:1022A00069460548FFF770FE8020009069460248A5
:1022B000FFF76AFE1CBD00000004024021B1028845
:1022C00042F48072028004E002884FF6FF631A40F5
:1022D0000280704721B1028842F40072028004E05B
:1022E00002884FF6FF531A40028070470CB5024631
:1022F000002000230193009300920B0F019321F023
:102300007F41019B1BB1009B1433009303E0090C38
:10231000009B18330093009B1B680B400BB10120FE
:1023200000E000200CBD00002DE9FF4704460D46EB
:102330000026B1460427DFF8CC80A6884FF6C0708F
:102340000640684600F074FFDDF808802E48B8FBB0
:10235000F0F01FFA80F946EA0906A68020884FF6B9
:10236000FE710840208000262849286888420CD841
:1023700028684000B8FBF0F087B2042F00DA042789
:102380003E4309F10100208427E0E8884BF6FF7105
:10239000884206D1286800EB4000B8FBF0F087B215
:1023A00009E0286800EBC00101EB0010B8FBF0F079
:1023B00087B247F48047C7F30B0008B947F001071D
:1023C00047F4004006434FF4967009FB00F04FF4C9
:1023D0007A7190FBF1F0401C2084A683208840F0A5
:1023E0000100208026884FF6F5300640A8886989CC
:1023F000084306432680A889298908432081BDE82F
:10240000FF87000000127A0040420F00A086010002
:102410001FB50020ADF804004BF6FF70ADF80600C4
:102420000A20ADF808004FF48060ADF80A00000102
:10243000ADF80C000748009069460748FFF774FFA5
:1024400001210548FFF7FBFE01210348FFF7D6FEF7
:102450001FBD0000801A06000054004012B141F078
:10246000010101E001F0FE01018270470182704725
:1024700021B1828B42F48062828304E0828B4FF62A
:10248000FF331A40828370471CB501214FF48770D7
:1024900000F07EFE02208DF804008DF8050000207B
:1024A0008DF806008DF807004FF4805000906946C3
:1024B0001A48FFF769FD0820009069461848FFF7A1
:1024C00063FD0420009069461648FFF75DFD082073
:1024D000009069461448FFF757FD40200090694678
:1024E0001048FFF751FD05220C210C48FFF794FD21
:1024F000052203210A48FFF78FFD06220221094821
:10250000FFF78AFD052203210748FFF785FD052215
:1025100006210448FFF780FD1CBD000000040240B6
:10252000000C024000080240002002402DE9F04F5C
:102530000025022300244FF0010900220026002775
:1025400094469046B0F81CA04FF2400B0AEA0B0AE2
:10255000A0F81CA04FF0020AA0F820A0858BD1F8AB
:1025600008A0BAF1020F01D100BF82E0B1F804A0C7
:10257000BAF1000F02D14FF0010901E04FF002095A
:10258000DFF834A1DAF800A00AF4000ABAF1000F6B
:1025900009D0DFF824A1DAF800A02AF4000ADFF855
:1025A00018B1CBF800A0DFF810A10AF17C0ADAF824
:1025B00000A0CAF3881CDFF800A10AF17C0ADAF84F
:1025C00000A0CAF30278DFF8F0A0AAF1040ADAF852
:1025D00000A00AF03F07DFF8E0A0AAF1040ADAF849
:1025E00000A00AF4800ABAF5800F08D1DFF8CCA069
:1025F000BAFBF7FA0AFB0CFABAFBF8F607E0DFF8C9
:10260000C0A0BAFBF7FA0AFB0CFABAFBF8F6B1F86D
:1026100006A0BAF5007F0ED14FEA162A0AEB8A0A05
:102620004FEA4A0AD1F808B0BAFBFBFA0AF1050AE8
:102630001FFA8AF20FE04FEA491AB6FBFAFA0AEBE0
:102640008A0A4FEA4A0AD1F808B0BAFBFBFA0AF143
:10265000050A1FFA8AF24FF00A0AB2FBFAF202F0F8
:102660000104A2EB040ACAF34F034FF6FF7A0AEA09
:102670000424022B01DBFF2B01DD02230024B1F82F
:1026800006A04AEA040A4AEA030AA0F820A0B1F820
:1026900004A0B1F80CB04AEA0B0AB1F802B04AEA59
:1026A0000B0AB1F800B04AEA0B0A4AF4006A4AEA97
:1026B00005058583BDE8F08F0838024040787D012C
:1026C0000024F40010B501210148FEF775FD10BD8E
:1026D0007060024010B500210448FEF76DFD002136
:1026E00002481838FEF768FD10BD00007060024017
:1026F0002DE9FF4104460D4616460027B846002046
:1027000000F02AFE012000F02DFE00BF08E03B2073
:1027100000F002FE8046B8F1010F00D103E07F1CFB
:10272000B7F5FA7FF3D300BF0121880300F040FD25
:102730000D4801F0D7FE4FF40070ADF80000ADF881
:102740000240ADF80450ADF8060002960020ADF846
:102750000C0069460448FFF7E9FE01210248FFF733
:1027600087FEBDE8FF8100000038004070B590B0E2
:1027700004460E4615460121480500F009FD2A4889
:10278000FEF726FD00BF2848FEF7F0FD0028FAD12D
:1027900026492548FEF7F6FC0020009024480190C9
:1027A0000294402003900495002005904FF480602F
:1027B0000690400007908000089040110990400268
:1027C0000A9000200B900C900D900E9069461648D0
:1027D000FEF726FE002221461348FEF7B0FD4FF417
:1027E000002231461048FEF7AAFD01210E48FEF7EF
:1027F0009BFD012210210C48FEF7F4FD012202216D
:102800000B480C3801F064FE0F208DF83C000020CE
:102810008DF83D0001208DF83E008DF83F000FA897
:1028200000F06EFC10B070BD706002403DF000A082
:102830000C3800402DE9FF4FA5B080460D461746E5
:1028400000202490339807281BDA3398C0F1070042
:102850002490002412E058F824002499084148F8F4
:102860002400601C58F8200024990841611C48F895
:10287000210028682499084101C5A41C122CEADB18
:10288000243D12A9404604F073F918A908F1040088
:1028900004F06EF91EA908F1080004F069F9694610
:1028A0002846289A02F0FEFADFF870A100260024DC
:1028B00090E05DF824004FEA80094846FDF795FC5A
:1028C0000643600147F82090E01C5DF820004FEAC5
:1028D00080094846FDF789FC0643E01C400147F8A3
:1028E0002090E21C12AB53F822105AF82400FDF796
:1028F00079FCA11D5DF8211000EB81094846FDF728
:1029000074FC0643A01D400147F82090C4F1050265
:1029100012AB53F82210E21C5AF82200FDF762FCB9
:1029200004F109015DF8211000EB81094846FDF72B
:102930005CFC064304F10900400147F82090C4F113
:10294000020212AB53F82210A21D5AF82200FDF722
:1029500049FC834604F1090212AB53F822105AF8DD
:102960002400FDF73FFC0BEB000104F10C005DF8C7
:10297000200001EB80094846FDF737FC064304F1CF
:102980000C00400147F8209012AA52F8241004F1DC
:1029900009025AF82200FDF725FC8346C4F10B0218
:1029A00012AB53F82210E21C5AF82200FDF71AFC71
:1029B0000BEB000104F10F005DF8200001EB800932
:1029C0004846FDF712FC064304F10F00400147F8AA
:1029D0002090641C032CFFF66CAF062405E012A8BF
:1029E00050F82400801001C5641C092CF7DB0C246E
:1029F00005E012A850F82400801001C5641C122CB8
:102A0000F7DB243D29463846249B329AFFF7BAF972
:102A10000643304629B0BDE8F08F00006478030813
:102A20002DE9FF4FAFB005460E46934600200746FE
:102A3000099044353E98072825DA3E98C0F10700F2
:102A40002E9008241CE055F804092E990841C71B54
:102A50000998381A099055F804092E990841C71B9E
:102A60001CAA04F10901099842F821001CA840F8A9
:102A7000247056F824002E99084146F82400641E5C
:102A8000002CE0DA18E000202E90082412E055F81F
:102A90000419CF1B0998381A099055F80419CF1B4F
:102AA0001CAA04F10901099842F821001CA840F869
:102AB0002470641E002CEADA2598401025901C989A
:102AC00040101C901CA803F065FF25A803F062FFCE
:102AD0000DF1900A614800904FF000093C980028E1
:102AE00055D13298002852D1DFF8748100244BE090
:102AF0000098006803900098001F0090DAF8240006
:102B000005905AF80409049005990398FDF76AFBAB
:102B10000590049880100490306840420890DDE9E8
:102B20000410401A0790DDE90401084401C6DDE9FC
:102B30000710401A069058F8041B0698FDF752FB40
:102B40000146079800EB8100029058F8041B069894
:102B5000FDF748FB0146089800EB810001906101F8
:102B600002984BF82100C4F11101490101984BF87A
:102B700021000298FDF739FB40EA09090198FDF7A9
:102B800034FB40EA0909641C092CB1DB59E00AA9AD
:102B900030463C9A02F086F9329800EBC000314989
:102BA00001EB001800244AE00098006803900098A8
:102BB000001F0090DAF8240005905AF804090490E8
:102BC00005990398FDF70EFB05900498801004907A
:102BD000DDE90401401A0790DDE90401084401C65B
:102BE00058F824100798FDF7FDFA0AA951F82410A7
:102BF000084480000290C4F1110058F82010079892
:102C0000FDF7F0FAC4F111010AAA52F821100844A4
:102C100080000190610102984BF82100C4F111017C
:102C2000490101984BF821000298FDF7DEFA40EACD
:102C300009090198FDF7D9FA40EA0909641C092C31
:102C4000B2DB243E314658462E9B3D9AFFF79AF858
:102C500040EA0909484633B0BDE8F08F847603089E
:102C6000887603084477030810B50A4600B910BDFA
:102C7000002103E0002322F81130491C00F2C47344
:102C800018CB6343D0F8BC4763438B42F2DC00BFF0
:102C9000EDE72DE9FF4F89B00D461646099C24B992
:102CA0006FF004000DB0BDE8F08F2046296806F0F3
:102CB000EFFD8146B9F1000F02DA6FF00500F1E790
:102CC0002868484428602046296806F06FFF82463D
:102CD000BAF1000F06DA20460C99FFF7C5FF6FF036
:102CE0000600DFE728685044286009EB0A013068D5
:102CF000401A3060D4F8B80710B1D4F8B007A8B3C0
:102D0000D4F8B00750BB0120C4F8B00732682B6874
:102D1000A3EB0903A3EB0A01286800F04CF9C4F8FF
:102D2000B407D4F8B407002806DA20460C99FFF758
:102D30009BFF6FF00200B5E704F2B47420684844CA
:102D400050440690D4E904104143E2680698424397
:102D5000D00090FBF1F06060A4F2B474204604F05F
:102D600096FED4F8B4170844C4F8CC07169808B3F4
:102D70003068C4F8CC07D4F8D80718B9D4F8CC0711
:102D8000002806DC20460C99FFF76EFF6FF0050067
:102D900088E7D4F8CC07C4F8DC07286802902868D4
:102DA000D4F8CC17084428603068D4F8CC17401AFF
:102DB00030605FE0D4F8CC073168884206DD2046F9
:102DC0000C99FFF751FF4FF0FF306BE7D4F8D8179D
:102DD000D4F8DC0788422BDB04F11C00D4F8DC3784
:102DE0001844D4F8D837C11A1A4604F11C00FDF76C
:102DF0003DFED4F8CC27296804F11C03D4F8D8C7C9
:102E00000CEB0300FDF732FE04F2CC742168E0689D
:102E100008442061286821680844286030682168D7
:102E2000A4F2CC74401A306004F11C00029021E03E
:102E3000D4F8CC27296804F11C03D4F8DCC70CEBC8
:102E40000300FDF713FE04F2CC74216820690844E6
:102E50002061286821680844286030682168A4F24D
:102E6000CC74401A306020460C99FFF7FDFE6FF0DD
:102E7000010017E700200890D4F8DC07C000079095
:102E8000002791E04FF0000850E008980590CDE948
:102E9000007808AA2046079B029906F0F3FD8346B6
:102EA0000598C0EBCB0008990844049004F5FC6039
:102EB00000EBC70050F828100498081A03900298F5
:102EC0005844029007990498081A0790BBF1000F24
:102ED00003DB03990798884206DA20460C99FFF72E
:102EE000C3FE6FF00700DDE608980590CDE9007895
:102EF00008AA2046DDE9021304F0D7FD8346BBF1A2
:102F0000000F06DA20460C99FFF7AEFE6FF00800BE
:102F1000C8E60298584402900598C0EBCB00089987
:102F200001440798401A079008F10108D4F8BC073B
:102F30004045AADC3946204605F006F8002806DAA6
:102F400020460C99FFF790FE6FF00900AAE64FF0BB
:102F500000080FE042463946204605F0F6FF0028FB
:102F600006DA20460C99FFF77FFE6FF00A0099E61B
:102F700008F10108D4F8BC074045EBDCD4F8C807D9
:102F80007843D4F8BC2750430C9A02EB400120460A
:102F900006F0F2FB002806DA20460C99FFF764FEE3
:102FA0006FF00B007EE67F1CD4F8C407B8423FF7F1
:102FB00069AF002076E62DE9F04106460D4617463A
:102FC0004FF00008344627E03946204600F025F847
:102FD00080464444B8F1000F03DA4FF0FF30BDE8FB
:102FE000F08120782978884212D160786978884207
:102FF0000ED1A07800F0FC00A97801F0FC01884215
:1030000006D1A878C0F3400000B1641EA01BE6E71B
:10301000E41C08F103003F1AD6E702460B460021E4
:103020000BE0505CFF2807D1481C105C00F0E0006A
:10303000E02801D108467047491C581E8842F0DC40
:103040004FF0FF30F7E770B50446254605B970BD6F
:10305000284605F051FF00BFF9E7000010B5024611
:10306000104618B1D0F8D037032B08D000230B60DE
:103070004B608B60CB600B614B618B611CE000F59A
:10308000F76003680B6043684B6083688B601023B4
:10309000CB60037F03EB4303084C04EB43048369D9
:1030A0005B1E34F91330446863430B6183694B61E1
:1030B000037FA0F5F7608B6110BD0000824C030810
:1030C00010B504F091FC0446204610BD0748006F7F
:1030D00000F4002018B100200549087002E001202A
:1030E00003490870012003490870704700600240DE
:1030F000310000203000002000BFFEE770470000D4
:1031000070B5002100230F22C4781CB3174C24682B
:1031100004F4E064C4F5E064C4F30721C1F10404DD
:10312000E3B20A4144789C40E1B2847814402143E0
:103130000C07210E0E4C05786155047804F01F052C
:103140000124AC4005786D11AD0005F1E025C5F80E
:10315000004109E0047804F01F050124AC40054D4E
:103160000678761145F8264070BD00000CED00E0B1
:1031700000E400E080E100E002490143024A1160FE
:10318000704700000000FA050CED00E070470000F9
:1031900029B1064A12680243044B1A6004E0034A4C
:1031A00012688243014B1A607047000030380240B9
:1031B00029B1064A12680243044B1A6004E0034A2C
:1031C00012688243014B1A60704700004038024089
:1031D00029B1064A12680243044B1A6004E0034A0C
:1031E00012688243014B1A60704700002038024089
:1031F00029B1064A12680243044B1A6004E0034AEC
:1032000012688243014B1A60704700004438024044
:1032100029B1064A12680243044B1A6004E0034ACB
:1032200012688243014B1A60704700002438024044
:10323000F0B5002100220024022500260223324F8F
:103240003F6807F00C0121B1042905D0082937D1C6
:1032500005E02E4F076036E02D4F076033E02A4F20
:103260003F1F3F68C7F38056274F3F1F3F6807F057
:103270003F036EB1264FB7FBF3F7DFF88CC0ACF11C
:10328000040CDCF800C0CCF3881C07FB0CF40CE049
:103290001E4FB7FBF3F7DFF870C0ACF1040CDCF89D
:1032A00000C0CCF3881C07FB0CF4174F3F1F3F688E
:1032B000C7F301477F1C7D00B4FBF5F7076002E010
:1032C000124F076000BF00BF0F4F3F6807F0F001CB
:1032D0000909104F7A5C0768D74047600A4F3F687A
:1032E00007F4E051890A0B4F7A5C4768D740876042
:1032F000054F3F6807F46041490B064F7A5C476809
:10330000D740C760F0BD0000083802400024F40038
:1033100040787D011400002010B5014600220023F2
:1033200000204A11012A02D10A4C236808E0022A2F
:1033300003D1084C7034236802E0064C74342368CF
:1033400001F01F02012494401C400CB1012000E058
:10335000002010BD0038024001490860704700009D
:103360005C014742014988667047000000004742FF
:10337000C168042922DB03685A1C02601A7812060D
:10338000426003685A1C02601A78436843EA0242AA
:10339000426003685A1C02601A78436843EA0222BA
:1033A000426003685A1C02601A7843681A434260FC
:1033B00020228260C268121FC2601CE000224260AC
:1033C00009E003685A1C02601A7843681A43426095
:1033D0004268120242600A1EA1F10101F1D1C368E4
:1033E000C3F10303DB0042689A404260C268D20026
:1033F00082600022C26070477CB505460024002030
:103400000090019000F0EAF800F0007010B10E2476
:1034100020467CBD3D49098888B26946FEF7E8FB35
:1034200004460CB12046F4E7012D36D1019800F492
:10343000802000282ED035480088000434490860D8
:1034400037204860402088600020C860A8020861DA
:10345000084600F001F93720FDF7FAFC04460CB1EC
:103460002046D6E702202A4908600620486040200E
:1034700088600020C8604FF480600861084600F052
:10348000EBF80620FDF7E4FC04460CB12046C0E74B
:103490002046BEE725242046BBE7019800F4803093
:1034A00078B31A480088000419490860372048603A
:1034B000402088600020C8604FF4806008610846A2
:1034C00000F0CAF83720FDF7C3FC04460CB12046D3
:1034D0009FE700200E490860062048604020886071
:1034E0000020C8604FF480600861084600F0B4F81E
:1034F0000620FDF7ADFC04460CB1204689E72046C6
:1035000087E7FFE72524204683E70000C00000206E
:10351000A85100200149086070470000382C014084
:103520000149086070470000382C014001490860DB
:1035300070470000A08025420149086070470000E4
:103540008C85254200210B4B02681A601B1D4268C6
:103550001A601A1D116821F0F701D0E902231A43FD
:1035600003691A4343691A431143024A083211603E
:1035700070470000242C014010B50121C802FFF75C
:1035800047FE00214FF40060FFF742FE10BD00002F
:1035900001480068C0B27047102C0140014600206D
:1035A000034A12680A400AB1012000E00020704777
:1035B000342C014001460020034A12680A400AB137
:1035C000012000E000207047342C014002480068D0
:1035D00000F0030070470000002C014008B50146D0
:1035E000002000900248084400900098006808BD40
:1035F000142C014010B500F00DFD10BD29B1064A94
:1036000012680243044B1A6004E0034A12688243C2
:10361000014B1A60704700003C2C014000210A4A0F
:10362000116847F6FF629143027D83681A4343683D
:103630001A43C3681A4303681A4303691A431143C0
:10364000014A116070470000042C014001480068E5
:1036500070470000802C01400021094B02681A606D
:103660001A1D11686FF30A01D0E901231A43C368D8
:103670001A4303691A431143014A121D116070472E
:10368000082C01400149086070470000002C0140EF
:1036900008B5012000909DF8000008BD70B50446F3
:1036A000002520480068032802D12725284670BD40
:1036B0001C48006838B11B480068012803D019482D
:1036C000006802282CD1B4F5805F02D12725284656
:1036D000EDE7B4F5006F13D10120FFF78DFE05462D
:1036E000F5B90020104908750860486088604FF4FB
:1036F0000060C860002008610846FFF78FFF0FE0F8
:103700000020FFF779FE054655B9002006490875E7
:10371000086048608860C86008610846FFF77EFF5F
:103720002846C4E7BC00002090510020F0B50146B7
:1037300000200022C04B1B7881F85630BF4B1B88FD
:10374000A1F85430BE4B1B681A0E93090B70C2F3DC
:1037500083034B7002F003038B70B94B1B68C3F3F8
:103760000742CA70B64B1B88C3F307220A71B44BD9
:103770001A784A715B681A0E1301CB80B04B5B68F4
:10378000C3F30742CB8843EA1213CB8002F00F0346
:103790000B72AB4B9B88C3F30722D3094B72C2F366
:1037A00080138B72C2F34013CB72C2F300130B73FE
:1037B00000234B73A04B1B681BB19F4B1B68012B55
:1037C0004FD193071B0D0B619D4B1A790B6943EA8F
:1037D00082030B619A4B9B681A0E0B6943EA9213A2
:1037E0000B61C2F3C2030B7502F007034B75944BD8
:1037F0009B68C3F3074253098B75C2F38203CB75F1
:1038000093075B0F0B768E4B1B89C3F307220B7E4E
:1038100043EAD2130B760B695B1C0024C1E9123416
:103820000B7ED1E912469B1C012505FA03F3DF1735
:10383000A4FB035C06FB03C304FB0733C1E912537B
:103840000C7A0123A3400B650027D1E912560B6DBA
:10385000A5FB034C06FB03C305FB0733C1E9124379
:1038600036E0754B1B68022B32D1754B1A799306E3
:103870009B0A0B61724B9B681A0E0B6943EA022389
:103880000B616F4B9B68C3F307420B6913430B61DA
:103890006B4B1B89C3F307220B6900245B1C44EBB1
:1038A00004074FF400760025A3FB064C07FB06C671
:1038B00003FB05664FF480650027A4FB053C06FB6F
:1038C00005C504FB0754C1E912344FF400730B65BE
:1038D000C2F3801301F8193F93065B0E4B70584BEF
:1038E0001A7A4B7843EAD2134B7002F07F038B7045
:1038F000534BDB681A0ED309CB70C2F341130B7123
:10390000C2F382034B7193071B0F8B714C4BDB6827
:10391000C3F307428B7943EA92138B71C2F34013CE
:10392000CB7100230B7202F001034B72444B9B8955
:10393000C3F30722D3098B72C2F38013CB72C2F395
:1039400040130B73C2F300134B73C2F381038B73E9
:1039500002F00303CB733A4B1A7B53080B74012319
:103960004B74384B1B681A0ECA741939354B1B68D7
:10397000C3F307421402CC85324B1B88C3F30722E2
:10398000CB8D1343CB852F4B1A7814060C635B68E1
:103990001A0E0B6B43EA02440C632A4B5B68C3F3B9
:1039A00007420B6B43EA02240C63264B9B88C3F34C
:1039B00007220B6B13430B63224B1A7934235A549F
:1039C000204B9B681A0E35235A541E4B9B68C3F339
:1039D000074214068C631B4B1B89C3F307228B6BB6
:1039E00043EA02448C63174B1A7A8B6B43EA022436
:1039F0008C63144BDB681A0E8B6B13438B63114B78
:103A0000DB68C3F307423C235B5C43EA12143C23AC
:103A10005C5413071C0DCC870A4B9B89C3F3072208
:103A2000CB8F1343CB87074B1A7B540840235C543E
:103A3000012441235C54F0BDBC000020C0000020E4
:103A4000085100201851002008B500200090FFF711
:103A50001FFE012809D1684600F0CAFB08B1FF200B
:103A600008BD0098C0F34320FAE7FF20F8E710B53F
:103A70000424FFF7E9FF0446042C01D1002010BD07
:103A8000FF2C01D10220FAE70120F8E71CB5002045
:103A900001904FF4C060FFF76FFB31208DF80000FC
:103AA00001208DF8010000208DF8020001208DF822
:103AB00003006846FFF724FB3B208DF8000001203F
:103AC0008DF801006846FFF71BFB00F06DF9FFF76A
:103AD00053FD00F0BBF901909DF8040010B19DF872
:103AE00004001CBD00F032F801909DF8040010B1F4
:103AF0009DF80400F5E70020124908750860486049
:103B00008860C86008610846FFF788FD0E48FFF727
:103B10000DFE01909DF8040040B90B48B0F8540028
:103B200002041046002100F047FB01909DF80400BC
:103B300020B94FF40060FFF7B1FD01909DF804003B
:103B4000CFE70000905100203851002038B5002404
:103B500001200090FFF73AFD10B92524204638BD1A
:103B600044480068042828D0002043490860022007
:103B70004860C02088600020C8604FF48060086101
:103B80000846FFF769FDFDF7FDF904460CB1204634
:103B9000E5E70020FFF722FD384908600420FFF721
:103BA0001DFD364948600820FFF718FD334988603D
:103BB0000C20FFF713FD3149C8602E48006858B14A
:103BC0002C480068012807D02A480068062803D03E
:103BD00028480068022816D10020274908600320E1
:103BE0004860402088600020C8604FF48060086111
:103BF0000846FFF731FD69460320FDF705FA044644
:103C00000CB12046ABE71B48006804282ED0BDF855
:103C100000001B490860BDF8000000041649086058
:103C200009204860C02088600020C8604FF4806090
:103C300008610846FFF710FDFDF7A4F904460CB132
:103C400020468CE70020FFF7C9FC0E4908600420DD
:103C5000FFF7C4FC0B4948600820FFF7BFFC094987
:103C600088600C20FFF7BAFC0649C8600024204693
:103C700075E70000BC000020A8510020185100206A
:103C8000C00000200851002030B58FB004460D461A
:103C90004FF0FA511E48FDF75BFA00211C48FDF772
:103CA0008BFA1B48FDF794FA4FF00060009019481A
:103CB00001900294002003900120049000200590C0
:103CC0004FF48060069080000790800008900020EC
:103CD00009904FF440300A9004200B9003200C9080
:103CE0004FF400000D9080100E9069460848FDF7D3
:103CF00097FB012210210648FDF774FB20210448A0
:103D0000FDF729FB01210248FDF756FA0FB030BD3F
:103D100058640240802C014030B58FB004460D46F7
:103D20004FF0FA511E48FDF713FA00211C48FDF729
:103D300043FA1B48FDF74CFA4FF000600090194819
:103D400001900294402003900120049000200590EF
:103D50004FF480600690800007908000089000205B
:103D600009904FF440300A9004200B9003200C90EF
:103D70004FF400000D9080100E9069460848FDF742
:103D80004FFB012210210648FDF72CFB202104489F
:103D9000FDF7E1FA01210248FDF70EFA0FB030BD40
:103DA00058640240802C01401CB501210C20FFF713
:103DB000EFF90C2208212348FEF72EF90C220921E5
:103DC0002048FEF729F90C220A211E48FEF724F9A3
:103DD0000C220B211B48FEF71FF90C221146194833
:103DE000FEF71AF90C2202211748FEF715F94FF4D5
:103DF0007060009002208DF805008DF8040000200E
:103E00008DF8060001208DF8070069460D48FEF781
:103E1000BBF80420009069460B48FEF7B5F84FF454
:103E20008050009000208DF8070069460548FEF795
:103E3000ABF80121C802FFF7DBF901218805FFF784
:103E4000A7F91CBD00080240000C0240F8B5002094
:103E50000090002500240026002776205F49087581
:103E60000020086048608860C86008610846FFF765
:103E7000D5FB0320FFF706FC0120FFF757FB0020CE
:103E80005749086048608860C8604FF480600861E6
:103E90000846FFF7E1FBFCF7C4FF00909DF8000027
:103EA00010B19DF80000F8BD4FF4D5704C49086082
:103EB00008204860402088600020C8604FF480607F
:103EC00008610846FFF7C8FBFDF7ECF800909DF885
:103ED000000020B9012043490860870712E0002054
:103EE0003F49086037204860402088600020C86053
:103EF0004FF4806008610846FFF7AEFB3720FCF7FF
:103F0000A7FF009000203649086037204860402015
:103F100088600020C8604FF4806008610846FFF7A1
:103F20009BFB3720FCF794FF00909DF800000028D1
:103F300051D13BE000202A490860372048604020EA
:103F400088600020C8604FF4806008610846FFF771
:103F500083FB3720FCF77CFF00909DF8000010B138
:103F60009DF800009FE7204838431D49086029203C
:103F70004860402088600020C8604FF4806008617D
:103F80000846FFF769FBFDF723F800909DF8000055
:103F900010B19DF8000086E70020FFF71FFB0546E3
:103FA000012080EAD57080F00106641C1EB94FF62E
:103FB000FF708442BED34FF6FF70844204D31B20AF
:103FC00000909DF800006EE705F08040051E02D0CD
:103FD0000220044908609DF8000064E79051002029
:103FE000A8510020BC0000200000108010B5074838
:103FF000006800F0C05040B10120054908604FF052
:10400000C25102485830FDF7A3F810BD00640240C9
:10401000D000002010B54FF48070FFF7CBFA50B1FC
:104020000020254908704FF48070FFF779FA0120CD
:104030002249086037E00220FFF7BCFA30B10220C5
:10404000FFF76EFA02201C4908702CE00820FFF7E9
:10405000B1FA30B10820FFF763FA0420164908705E
:1040600021E02020FFF7A6FA30B12020FFF758FA10
:1040700006201149087016E01020FFF79BFA30B1B6
:104080001020FFF74DFA05200B4908700BE04FF4A4
:104090000070FFF78FFA30B14FF40070FFF740FA6D
:1040A00007200549087000214CF23A30FFF7A6FAC4
:1040B0000148007810BD0000C8000020CC0000209E
:1040C0002DE9F047814614461D46DDE908680027C2
:1040D00000203249087032490860012031490860E7
:1040E000002031490860012140F22A30FFF786FAAA
:1040F00008FB06F14846FFF7C7FD0120FFF71CFA51
:104100002A480068022808D106020202002320463D
:104110002946FCF77AFC04460D4625480660102027
:1041200023494860402088600020C8604FF48060C8
:1041300008610846FFF790FA1020FCF789FE074651
:1041400017B13846BDE8F0874FF0FF3019490860D5
:1041500008FB06F04860902088600220C8600020BC
:104160000861012048610846FFF7ECF91048046037
:1041700012200F494860402088600020C8604FF43A
:10418000806008610846FFF767FA1220FCF760FEBE
:1041900007460FB13846D5E73846D3E7C8000020B8
:1041A000CC000020C40000202C2C0140BC000020CA
:1041B000A8510020BC51002070B504460D460026D1
:1041C0000A480460072009494860402088600020B0
:1041D000C8604FF4806008610846FFF73DFA072089
:1041E000FCF736FE0646304670BD0000A8510020A0
:1041F00070B50446002514B92625284670BD0F4821
:10420000008800040E4908600D2048604020886046
:104210000020C8604FF4806008610846FFF71CFA70
:104220000D20FCF715FE05460DB12846E6E70020F7
:10423000FFF7D4F920602846E0E70000C000002026
:10424000A851002010B5002400200A4908600C2065
:104250004860402088600020C8604FF4806008619A
:104260000846FFF7F9F90C20FCF7F2FD044620465A
:1042700010BD0000A851002070B500256C1E00E0A4
:10428000641E1848006838B91748006820B91748F4
:10429000007808B9002CF3D1002012490860441EB0
:1042A00000E0641E1248006800F4005008B1002CC1
:1042B000F7D110480068012805D1FFF7C3FF054674
:1042C00000200C4908600CB905B9042540F2FF50E4
:1042D000FFF720F90548007810B10448007870BD58
:1042E0002846FCE7D0000020CC000020C8000020B9
:1042F000342C0140C400002070B500256C1E00E085
:10430000641E1848006838B91748006820B9174873
:10431000007808B9002CF3D1002012490860441E2F
:1043200000E0641E1248006800F4805008B1002CC0
:10433000F7D110480068012805D1FFF783FF054633
:1043400000200C4908600CB905B9042540F2FF5063
:10435000FFF7E0F80548007810B10448007870BD18
:104360002846FCE7D0000020CC000020C800002038
:10437000342C0140C40000202DE9F0478146154649
:104380001E46DDE9087800240020494908704949A3
:104390000860012048490860002048490860012160
:1043A00040F21A30FFF72AF908FB07F14846FFF7F9
:1043B000B3FC0120FFF7C0F841480068022808D18B
:1043C00007020202002328463146FCF71EFB054681
:1043D0000E463C48076010203A49486040208860FB
:1043E0000020C8604FF4806008610846FFF734F988
:1043F0001020FCF72DFD044614B12046BDE8F087DF
:104400003148008800042F49086037204860402068
:1044100088600020C8604FF4806008610846FFF79C
:104420001BF93720FCF714FD04460CB12046E5E7E4
:104430002448C0F800801720224948604020886046
:104440000020C8604FF4806008610846FFF704F957
:104450001720FCF7FDFC04460CB12046CEE71948B6
:104460000560192017494860402088600020C86016
:104470004FF4806008610846FFF7EEF81920FCF75A
:10448000E7FC04460CB12046B8E74FF0FF300F4977
:10449000086008FB07F04860902088600020C86032
:1044A0000861012048610846FFF74CF82046A5E75F
:1044B000C8000020CC000020C40000202C2C0140AB
:1044C000BC000020A8510020C0000020BC510020EA
:1044D0001AB183880B43838002E083888B438380F7
:1044E0007047000010B504462448844208D10121D9
:1044F0008014FEF78DFE0021A014FEF789FE3CE03B
:104500001F48844208D101210014FEF761FE0021FA
:104510002014FEF75DFE30E01A48844208D10121E4
:10452000C013FEF755FE0021E013FEF751FE24E014
:104530001548844208D101214014FEF769FE00218C
:104540006014FEF765FE18E01048844209D101218D
:104550000805FEF75DFE00214FF48010FEF758FEBF
:104560000BE00B48844208D101214805FEF750FEBC
:1045700000214FF40010FEF74BFE10BD003001404B
:1045800000380040003C0040003401400050014031
:1045900000540140704700000CB5002001900090CD
:1045A0004E48006840F480304C49086000BF4B48DA
:1045B000006800F4003000900198401C01900098C1
:1045C00018B90198B0F5A04FF1D14448006800F443
:1045D000003010B10120009001E000200090009810
:1045E000012860D13D484030006840F080503B4990
:1045F000403108603A48006840F44040384908605B
:1046000036480830006835490831086008460068B7
:1046100040F4004008600846006840F4A05008607C
:104620003048091F0860081F006840F08070091FAB
:10463000086000BF2948006800F000700028F9D029
:104640002748006840F480302549086000BF2448AE
:10465000406800F480300028F9D02148006840F418
:1046600000301F49086000BF1D48406800F400305A
:104670000028F9D040F205701B490860174808303F
:10468000006820F0030015490831086008460068FA
:1046900040F00200086000BF10480830006800F0D9
:1046A0000C000828F8D10D480830006820F40000FC
:1046B0000A49083108600D480849843108600748F4
:1046C000006840F080600549086000BF034800684A
:1046D00000F000600028F9D00CBD00000038024056
:1046E00000700040195A4007003C024080400030F2
:1046F00010B500F069F810BD30B515480068154ACE
:10470000B0FBF2F1481EB0F1807F01D301201BE025
:10471000481E4FF0E022506150170F22002807DAA0
:1047200013071D0E0C4B00F00F04241F1D5503E052
:1047300013071C0E094B1C5400BF00204FF0E02251
:10474000906107201061002008B100BFFEE730BD76
:1047500000000020A086010018ED00E000E400E069
:1047600010B51548006840F47000134908601348FC
:10477000006840F001001149086000200F4908312D
:1047800008600E4800680E4908400C4908600D4852
:10479000091D0860081F006820F48020091F0860B8
:1047A000002006490C310860FFF7F6FE4FF000606C
:1047B00001498039086010BD88ED00E000380240F2
:1047C000FFFFF6FE103000240448006820B10348C3
:1047D0000068401E01490860704700003800002052
:1047E00001F40072B2F5007F00D100BFCA4302801D
:1047F000704721B1828942F40052828104E08289AB
:104800004DF6FF731A408281704702460020B1F5D1
:10481000007F00D100BF13880B400BB1012000E0E6
:10482000002070472DE9FF4705460E460024A146AB
:1048300000BFA046B08900B100BF2C8A24F44054C8
:10484000F08804432C82AC8941F20C608443B08828
:1048500031890843718908430443AC81AC8A24F44C
:104860004074B0890443AC826846FEF7E1FC2048FE
:10487000854202D01F48854202D1DDF80C9001E04C
:10488000DDF80890A88900F4004040B109EBC900A8
:1048900000EB091031684900B0FBF1F707E009EBC4
:1048A000C90000EB091031688900B0FBF1F7642002
:1048B000B7FBF0F004012009642101FB1078A889FE
:1048C00000F4004040B1322000EBC800B0FBF1F032
:1048D00000F00700044308E0322000EB08106421D8
:1048E000B0FBF1F000F00F0004432C81BDE8FF871E
:1048F0000010014000140140C1F30802828070479B
:104900002DE9F84F81460E4615461F46DDE90AA8F7
:104910006A49F06811F810B0F06801EB4000407887
:104920000090706902285ED1B06958B1002405E09A
:104930005946484604F0E1FA2855641C082CF7DB78
:10494000032400E0002420E05946484604F0D5FA4C
:10495000C1B204EB440205F11700815459464846A0
:1049600004F0CBFAC1B204EB440205F11700104485
:1049700041705946484604F0C0FAC1B204EB440203
:1049800005F1170010448170641C062CDCDB20E06C
:104990004846009904F0B1FAC1B204EB440205F1B3
:1049A000170081544846009904F0A7FAC1B204EBFD
:1049B000440205F11700104441704846009904F084
:1049C0009CFAC1B204EB440205F117001044817057
:1049D000641C0C2CDCDB002185F83D1085F83C10B4
:1049E00085F83B1068E0BAF1000F15D1002405E00E
:1049F0005946484604F081FA2855641C0B2CF7DB15
:104A00000B2405E04846009904F077FA2855641C09
:104A1000152CF7DBBDE8F88F0024386838B103E0C7
:104A200018F804002855641C062CF9DB08E005E0A2
:104A30005946484604F061FA2855641C062CF7DBF9
:104A4000786838B103E018F804002855641C0B2C72
:104A5000F9DB08E005E05946484604F04EFA2855CF
:104A6000641C0B2CF7DBB86838B103E018F80400BD
:104A70002855641C102CF9DB08E005E04846009935
:104A800004F03BFA2855641C102CF7DBF86838B1A9
:104A900003E018F804002855641C152CF9DB08E025
:104AA00005E04846009904F028FA2855641C152CA6
:104AB000F7DB00206875A87500BFABE7DC7603085C
:104AC0002DE9FF4F8DB089469046DDF870B0D9F8DA
:104AD0000C400020029001901B9800F0010010B1E2
:104AE0001A98012849D0B4F5C87F13DA201105219E
:104AF00090FBF1F00790201190FBF1F201FB120006
:104B00000890C4F38100099004F003000A904FF06C
:104B1000000A76E0B4F5FA7F14DAA4F5C874A010A0
:104B2000052190FBF1F00790A01090FBF1F201FB42
:104B30001200089004F00300099000200A904FF042
:104B4000010A5EE0A4F5FA74032094FBF0F00790EC
:104B5000032094FBF0F100FB1140089000200A9024
:104B60000990D9F8180018B108980990079808908A
:104B7000012002904FF0020A43E004F0010001908E
:104B80006410B42C1CDA242094FBF0F0079024204D
:104B900094FBF0F100FB1140062190FBF1F008902E
:104BA000242094FBF0F100FB1140062190FBF1F270
:104BB00001FB1200099000200A904FF0030A20E048
:104BC000F42C0EDAB43CC4F301100790C4F3810056
:104BD000089004F00300099000200A904FF0040AA6
:104BE0000FE0F43C032094FBF0F00790032094FBCB
:104BF000F0F100FB1140089000200A9009904FF05E
:104C0000050A00200C90D9F81400022806D1D9F822
:104C1000180008B1022000E001200C9000250CE0F3
:104C20000AEB4A00584901EB80010C9801EB800027
:104C3000405D03A941F825006D1C042DF0DB1B9895
:104C400000F00100C0B11A98012815D100250EE02E
:104C500007A850F825100BF1040040F8251003A810
:104C600050F825100BF1140040F825106D1C042D90
:104C7000EEDB0198CBF800000298C9F83C00D9F8A7
:104C80001400022859D1D9F8180090B101200799D1
:104C90008840401E0B90002706E007990D9804F00D
:104CA0002CF908F807007F1C062FF6DB03270126E6
:104CB00001E00027002636E007A810F826100120A2
:104CC0008840401E0B90002527E007A850F82610CA
:104CD0000D9804F012F9C1B207EB470208F1170072
:104CE000815407A850F826100D9804F006F9C1B2B7
:104CF00007EB470208F117001044417007A850F86D
:104D000026100D9804F0F9F8C1B207EB470208F13C
:104D10001700104481706D1C7F1C03A850F82600FA
:104D2000A842D2DC761C032EC6DD002188F83D1097
:104D300088F83C1088F83B1022E00027002618E095
:104D400007A810F8261001208840401E0B9000256F
:104D500009E007A850F826100D9804F0CEF808F8DE
:104D600007006D1C7F1C03A850F82600A842F0DC49
:104D7000761C032EE4DD002088F8160088F8150064
:104D800011B0BDE8F08F0000FC76030800BFFEE71D
:104D900010B502A000F030F9002010BD49324320C8
:104DA00054696D656F7574206572726F72210000B1
:104DB00070B505460C4601213548FDF77FFA4FF4E2
:104DC00080403449086008E032490868411E314A91
:104DD000116010B9FFF7DCFF70BD2F492C48FDF7BB
:104DE00019FA0028F0D0002234212948FDF736FBBB
:104DF0004FF480402749086008E026490868411EB2
:104E0000244A116010B9FFF7C3FFE5E723492048A2
:104E1000FDF700FA0028F0D0FE2000EA4500C4F3B8
:104E2000002240EA02011A48FDF720FB4FF48040BF
:104E30001849086008E017490868411E154A1160C2
:104E400010B9FFF7A5FFC7E71449891E1048FDF701
:104E5000E1F90028EFD0E1B20D48FDF707FB4FF470
:104E600020300C49086007E00A490868411E094AD9
:104E7000116008B9FFF78CFF09490548FDF736FABC
:104E80000028F1D001210248FDF724FA0120A3E710
:104E9000005400403C000020010003008200070095
:104EA000040000102DE9F04F85B006460D46174668
:104EB0000396022F6CD107EBC7004E4901EB00149B
:104EC000B168A069FBF78EF98346B1692068FBF7EA
:104ED00089F9584428607168E069FBF783F98346D3
:104EE000F1696068FBF77EF9584468603168206AB0
:104EF000FBF778F98346316AA068FBF773F95844E9
:104F0000A8603168606AFBF76DF98346316AE06832
:104F1000FBF768F95844E8607168A06AFBF762F92A
:104F20008346F1692069FBF75DF958442861B1684F
:104F3000E06AFBF757F98346B1696069FBF752F9FC
:104F4000584468617169A069FBF74CF9A86131693F
:104F5000E069FBF747F9E861F168206AFBF742F97D
:104F60002862F168606AFBF73DF968623169A06AFE
:104F7000FBF738F9A8627169E06AFBF733F9E86278
:104F8000002068642864E863A863686328632EE0EF
:104F900007EBC700174901EB001000F1480404F1CA
:104FA00044000090A84605F1440A4FF009091BE0AF
:104FB0000398006804900398001D039001CC0290B0
:104FC0000098006801900098001F009004990298D2
:104FD000FBF708F948F8040B04990198FBF702F96C
:104FE0004AF80409A9F10109B9F1000FE0DC05B0A4
:104FF000BDE8F08F447703080FB4054B10B503A943
:10500000044A029800F018F810BC5DF814FB000088
:1050100015670008D800002002E008C8121F08C168
:10502000002AFAD170477047002001E001C1121F29
:10503000002AFBD1704700002DE9FF4F8BB09A4644
:105040000F460546002606E025280BD052460D994E
:1050500090476D1C761C28780028F5D10FB030469B
:10506000BDE8F08F0024A0460122604900E004431F
:1050700015F8013F203B02FA03F00842F7D12878E7
:105080002E2817D115F8010F44F004042A280ED059
:105090006FF02F022878A0F1300109290AD808EB17
:1050A000880102EB410100EB01086D1CF2E757F8A3
:1050B000048B6D1C287869283ED006DC0028CDD0F2
:1050C00063280BD0642804D136E0732810D07528EB
:1050D0004BD052460D999047761C85E017F8040B8B
:1050E0008DF8000000208DF80100E946012003E062
:1050F00057F8049B4FF0FF3061074FF0000401D4D4
:105100000AE0641C44450DDA8442FADB19F8041005
:105110000029F6D106E0641C8442FCDB19F8041077
:105120000029F8D1264404E019F8010B52460D99E4
:105130009047641EF8D257E001CF4FF00A0B0028C9
:1051400002DA40422D2102E0210504D52B218DF801
:105150002410012103E0E10705D02021F7E70DF13C
:10516000200908910CE00021F9E701CF4FF00A0B6C
:10517000F9E75946FBF79AFC01F1300209F8012DD5
:105180000028F6D1ADEB090000F1200B600701D437
:105190004FF00108D84502DDA8EB0B0000E000202D
:1051A0008046002406E009A85246005D0D9990470C
:1051B000641C761C08988442F5DB04E030205246DB
:1051C0000D999047761CB8F10001A8F10108F5DCB3
:1051D00005E019F8010B52460D999047761CBBF17A
:1051E0000001ABF1010BF4DC6D1C34E70928010070
:1051F00070B504460D4600202071401EE06229462D
:10520000204601F0DDFD08B1032070BD94F82E1298
:1052100094F82F0241EA00204AF65521884201D035
:105220000220F2E794F86900010694F8680041EA68
:10523000004194F8670041EA002094F866100843A2
:1052400020F07F400D49884201D10020DDE794F82D
:105250008500010694F8840041EA004194F8830037
:1052600041EA002094F88210084320F07F4003496F
:10527000884201D10020C8E70120C6E7464154001A
:10528000024600E0521C107810B110788842F9D123
:10529000107870470246891E5069801E884201D8E6
:1052A000002070479378906A01FB0300F9E7000043
:1052B0002DE9F04705460C46207820F04000401EBE
:1052C00000EB800101EBC00600274FF0010800BF92
:1052D0001A48C05D205C1949C95D2144497840EAFB
:1052E0000129B8F1000F10D0484600F08BFF80462E
:1052F000FF2E07D23146761C35F8110000F082FFF0
:10530000404508D00020BDE8F0874FF6FF7081458A
:1053100001D00020F7E7781C07460D28D8D3207865
:1053200000F0400038B1B8F1000F04D035F8160095
:1053300008B10020E7E70120E5E700004C9E0008E7
:105340002DE9F04704468946B9F1000F06D1E76818
:1053500017B16069B84215D8012713E049462046C5
:1053600001F04EFA0646022E02D20120BDE8F08777
:10537000701C08B93046F9E76069B04201D930467F
:10538000F4E74F463D4600BF6D1C6069A84204D853
:105390000225BD4201D90020E8E72946204601F058
:1053A0002FFA064606B909E0701C08B1012E01D19A
:1053B0003046DBE7BD42E7D10020D7E700BF6FF002
:1053C00070422946204601F0A9FF8046B8F1000F3F
:1053D00008D1B9F1000F05D02A464946204601F010
:1053E0009DFF8046B8F1000F0BD1E5602069401C9D
:1053F00078B12069401E2061607940F00100607141
:1054000007E0B8F1010F02D14FF0FF3000E00120BA
:1054100005462846AAE700002DE9F34F83B08146F0
:1054200004980068019002E00198401C01900198E6
:1054300000782F28F8D0019800785C28F4D0D9F8AB
:105440001CA000252F4600BF38467F1C01990C5C2C
:10545000202C03DB2F2C01D05C2C00D132E0FF2D5F
:1054600003D3062005B0BDE8F08FE4B2812C13DB36
:10547000E0B2FE2810DC38467F1C01990E5C402EFD
:1054800001DB7E2E05DD802E01DBFE2E01DD0620F8
:10549000E8E706EB042084B20121204600F074FE08
:1054A00004460CB90620DDE7802C06DA214671A0FF
:1054B000FFF7E6FE08B10620D4E728466D1C2AF85F
:1054C0001040C1E700BF0198C11904980160202C69
:1054D00001DA042000E00020804608E0681E3AF867
:1054E0001040202C02D02E2C00D002E06D1E002D8A
:1054F000F4D100BF0DB90620B4E700202AF815004A
:105500000B222021D9F8180001F050FC002700E000
:105510007F1C3AF817002028FAD03AF817002E28F6
:10552000F6D00FB148F0030800E06D1E25B1681EEB
:105530003AF810002E28F8D10020064602904FF0CD
:10554000080B00BF38467F1C3AF8104004B963E0EE
:10555000202C03D02E2C04D1AF4202D048F00308F7
:10556000F0E70298584501D2AF4214D1BBF10B0FBE
:1055700002D148F003084FE0AF4201D048F00308E1
:10558000AF4200D948E02F46082002904FF00B0BA5
:10559000B006060ED6E7802C09DB204600F032FE6E
:1055A0000021009000F0F0FD044648F00208FF2CB6
:1055B00011DDABF101000299884204D848F00308DC
:1055C000CDF808B0BEE72212D9F818300298411C75
:1055D00002911A5419E024B1214629A0FFF750FE88
:1055E00018B15F2448F003080FE0412C04DB5A2C6B
:1055F00002DC46F0020608E0612C06DB7A2C04DCB3
:1056000046F00106A4F1200084B2D9F818300298BF
:10561000411C02911C5495E700BFD9F8180000788E
:10562000E52803D10520D9F818100870BBF1080F40
:1056300001D1B006060E06F00C000C2803D006F0CF
:105640000300032801D148F0020808F0020058B90D
:1056500006F00300012801D148F0100806F00C0004
:10566000042801D148F00808D9F8180080F80B8008
:105670000020F7E6222A3A3C3E3F7C7F00000000F3
:105680002B2C3B3D5B5D00002DE9F04104460E46AE
:105690000021204600F0CEF90546EDB9002700BFF5
:1056A0002169206801F08CFB054605B113E06069B3
:1056B0000078E52802D06069007820B9781C074698
:1056C000B04201D107E000270121204600F07FF819
:1056D0000546002DE4D000BF042D00D10725284643
:1056E000BDE8F0812DE9F04704460021204600F096
:1056F000A1F9074617B13846BDE8F0874FF0FF091A
:10570000CA464FF6FF70208400BF2169206801F06F
:1057100057FB074607B157E065692E780EB9042795
:1057200052E0E87A00F03F08E52E05D008F00800C6
:1057300040B1B8F10F0F05D04FF0FF094FF6FF70E1
:1057400020843AE0B8F10F0F1CD1E06978B306F07D
:10575000400030B195F80DA026F04006B146E08833
:1057600020844E450AD1687B504507D12946E0691F
:10577000FFF79EFD10B1A9F1010000E0FF2000F04D
:10578000FF091AE0B9F1000F05D1284601F0C8FE63
:10579000504500D118E0A069C07A00F0010038B986
:1057A0000B222846A16901F0E1FA08B90CE004E0F7
:1057B0004FF0FF094FF6FF7020840021204600F0D3
:1057C00006F80746002FA0D000BF384694E72DE921
:1057D000F04104468846E088461CB0B208B1206912
:1057E00010B90420BDE8F08121684889C11700EB99
:1057F000D1614911B6FBF1F201FB1261002972D1AE
:105800002069401C2061E06828B920680089B04206
:1058100069D80420E6E721684889C11700EBD16107
:105820004911B6FBF1F122689278521E114000290D
:1058300059D1E168206800F0E3FF0546012D01D849
:105840000220CFE7681C08B90120CBE72068406937
:10585000A84242D8B8F1000F01D10420C2E7E168A4
:105860002068FFF76DFD05460DB90720BAE7012D49
:1058700001D10220B6E7681C08B90120B2E7206810
:1058800001F0C2FE08B10120ACE721684A8901F1AC
:105890003000002101F08AFA29462068FFF7FAFC5F
:1058A0002168C86200270EE0012021680871206885
:1058B00001F0AAFE08B1012094E72068C06A401CEC
:1058C0002168C8627F1C20688078B842ECD82068C4
:1058D000C06AC01B2168C86200BFE5602946206815
:1058E000FFF7D8FC2061E68021684889C11700EBEA
:1058F000D1614911B6FBF1F201FB1261226830322D
:1059000002EB4111616100206CE72DE9FE4F044676
:10591000D4F81880D4F81C900C224146684601F057
:1059200038FA00BF9DF80B0000F0010020B3002002
:1059300088F80B00E06101260CE033464A466946D0
:10594000404600F0F9FE2046FFF7CCFE054605B1C3
:1059500002E0761C642EF0D300BF642E02D1072033
:10596000BDE8FE8F042D01D02846F9E79DF80B0015
:1059700088F80B00C4F81C909DF80B0000F00200A2
:1059800060B1002600E0761C39F816000028FAD134
:1059900006F119000D21B0FBF1F700E001273946AF
:1059A0002046FFF771FE054645BB781E071E25D031
:1059B000E088C11B204600F03DF80546F5B9A06916
:1059C00001F0AEFD824600BF2169206801F0F8F9C0
:1059D000054605B111E0FAB253466169E06900F08D
:1059E00011FE01202168087100212046FFF7EFFE1B
:1059F000054615B9781E071EE6D100BFC5B9216955
:105A0000206801F0DDF9054695B920220021606982
:105A100001F0CCF90B22D4E9050101F0BAF9A06933
:105A2000C07A00F0180061690873012021680871CC
:105A3000284695E72DE9F04104460E46E680A56824
:105A4000012D03D020684069A84202D80220BDE899
:105A5000F0812DB920680078032801D12068456ABB
:105A600045B920680089B04201D80220EFE72068DC
:105A7000476A24E021684889C11700EBD1614911C8
:105A80002268927811FB02F812E02946206800F0A3
:105A9000B7FE0546681C08B90120D8E7022D03D3DC
:105AA00020684069A84201D80220D0E7A6EB08068A
:105AB0004645EAD229462068FFF7ECFB0746E56039
:105AC0000FB90220C3E721684889C11700EBD161F3
:105AD0004911B6FBF1F13944216121684889C117A8
