:020000040800F2
:10000000C8280020C101000819040008AB0300083B
:100010001504000835020008010D0008000000006A
:100020000000000000000000000000006D0A000851
:1000300039020008000000001B040008910B0008B2
:10004000DB010008DB010008DB010008DB01000820
:10005000DB010008DB010008DB010008DB01000810
:10006000DB010008DB010008DB010008DB01000800
:10007000DB010008DB010008DB010008DB010008F0
:10008000DB010008DB010008DB010008DB010008E0
:10009000DB010008DB010008DB010008DB010008D0
:1000A000DB010008DB010008DB010008DB010008C0
:1000B000DB010008DB010008DB010008DB010008B0
:1000C000DB010008DB010008DB010008DB010008A0
:1000D000DB010008DB010008DB010008DB01000890
:1000E000DB010008DB010008DB010008DB01000880
:1000F000DB010008DB010008DB010008DB01000870
:10010000DB010008DB010008DB010008DB0100085F
:10011000DB010008DB010008DB010008DB0100084F
:10012000DB010008DB010008DB010008DB0100083F
:10013000DB010008DB010008DB010008DB0100082F
:10014000DB010008DB010008DB010008DB0100081F
:10015000DB010008DB010008DB010008DB0100080F
:10016000DB010008DB010008DB010008DB010008FF
:10017000DB010008DB010008DB010008DB010008EF
:10018000DB010008DB010008DB010008DB010008DF
:10019000DB010008DB010008DB010008DB010008CF
:1001A000DB010008DB010008DB010008DFF80CD0F0
:1001B00000F02EF800480047C92E0008C82800208B
:1001C0000648804706480047FEE7FEE7FEE7FEE7F1
:1001D000FEE7FEE7FEE7FEE7FEE7FEE7950B000819
:1001E000AD01000830B50B46014600202022012455
:1001F00009E021FA02F59D4205D303FA02F5491BF5
:1002000004FA02F52844151EA2F10102F1DC30BD0A
:10021000064C074D06E0E06840F0010394E8070053
:1002200098471034AC42F6D3FFF7C4FF5CE80208ED
:100230007CE8020800BFFEE77047000000B587B009
:100240000121084600F0EAF80121102000F0F6F83C
:1002500007220A211D4800F085F8072209211B48C2
:1002600000F080F800208DF81A0001208DF81B00A6
:1002700002208DF818000002059002208DF8190068
:1002800005A9124800F026F802208DF81800400257
:10029000059005A90D4800F01DF84FF4E1300190DC
:1002A0000020ADF80800ADF80A00ADF80C00ADF87C
:1002B00010000C20ADF80E0001A9054800F0B2FCBA
:1002C0000121034800F094FC07B000BD000002408B
:1002D00000100140F0B50A4600210023002400BFB1
:1002E0003DE0012505FA01F3156805EA03049C4287
:1002F00034D105684F000326BE40B543056015792B
:100300004E00B5400668354305601579012D02D0D1
:100310001579022D16D185684F000326BE40B543DE
:10032000856055794E00B5408668354385604568DF
:1003300001268E40B5434560456896798E40B6B239
:1003400035434560C5684F000326BE40B543C560D0
:10035000D5794E00B540C6683543C560491C1029A3
:10036000BFD3F0BDF0B5002300244D07ED0E02FA17
:1003700005F3CE1000F1200555F826504E07F70E74
:100380000F26BE40B543CF1000F1200646F8275097
:10039000CE1000F1200555F8265045EA0304CE1092
:1003A00000F1200545F82640F0BD00BFFEE7000043
:1003B0001CB50121802000F031F84FF480600090DE
:1003C00001208DF8040000208DF8060001208DF832
:1003D000070000208DF8050069460D48FFF77AFFF9
:1003E0004FF40060009069460948FFF773FF4FF42F
:1003F0008050009069460648FFF76CFF4FF480601C
:1004000003491831088040000880400008801CBD66
:10041000001C024000BFFEE77047704729B1064A42
:1004200012680243044B1A6004E0034A12688243D4
:10043000014B1A60704700003038024029B1064A6B
:1004400012680243044B1A6004E0034A12688243B4
:10045000014B1A607047000044380240F0B500219B
:1004600000220024022500260223324F3F6807F0B5
:100470000C0121B1042905D0082937D105E02E4F00
:10048000076036E02D4F076033E02A4F3F1F3F687B
:10049000C7F38056274F3F1F3F6807F03F036EB1F9
:1004A000264FB7FBF3F7DFF88CC0ACF1040CDCF897
:1004B00000C0CCF3881C07FB0CF40CE01E4FB7FB0C
:1004C000F3F7DFF870C0ACF1040CDCF800C0CCF33B
:1004D000881C07FB0CF4174F3F1F3F68C7F3014709
:1004E0007F1C7D00B4FBF5F7076002E0124F076048
:1004F00000BF00BF0F4F3F6807F0F0010909104F20
:100500007A5C0768D74047600A4F3F6807F4E051BC
:10051000890A0B4F7A5C4768D7408760054F3F6870
:1005200007F46041490B064F7A5C4768D740C760C3
:10053000F0BD0000083802400024F40040787D013E
:100540000000002021B1028842F04002028004E055
:1005500002884FF6BF731A400280704770B5054697
:100560000C461646402010490880032000F0B0F9E0
:10057000C4F3074000F0ACF9C4F3072000F0A8F979
:10058000E0B200F0A5F904E0FF2000F0A1F9287026
:100590006D1C301EA6F101018EB2F5D1402002493A
:1005A000891E088070BD00001A1402402DE9F05F1A
:1005B00007460E4614464FF00008C146C2460025C5
:1005C000AB4606F0FF0ACAF10000C5B22046E117AB
:1005D00004EB1161C1F30728E11704EB1161091263
:1005E000A4EB012101F0FF09BAF1000F20D1B8F10D
:1005F000000F05D122463146384600F0D7F864E0B6
:1006000009E04FF480723146384600F0CFF806F525
:10061000807607F58077B8F10000A8F1010101F0BC
:10062000FF08EED14A463146384600F0BFF84CE0AC
:10063000B8F1000F18D1A94510DDA9EB050000F0B5
:10064000FF0B2A463146384600F0B0F82E442F44BE
:100650005A463146384600F0A9F836E0224631467F
:10066000384600F0A3F830E0601B84B22046E11762
:1006700004EB1161C1F30728E11704EB11610912C2
:10068000A4EB012101F0FF092A463146384600F06B
:100690008DF82E442F4409E04FF4807231463846DD
:1006A00000F084F806F5807607F58077B8F1000051
:1006B000A8F1010101F0FF08EED1B9F1000F04D05B
:1006C0004A463146384600F071F8BDE8F09F000018
:1006D00000B587B001212020FFF7A0FE0121080509
:1006E000FFF7ACFE052207212E48FFF73BFE05224F
:1006F00008212C48FFF736FE052209212948FFF77B
:1007000031FE8020009002208DF805008DF8040055
:1007100000208DF806008DF8070069462148FFF794
:10072000D9FD4FF48070009069461E48FFF7D2FD56
:100730004FF40070009069461A48FFF7CBFD402047
:10074000009001208DF8040069461648FFF7C2FDAD
:1007500040201449183108800020ADF808004FF4FB
:100760008270ADF80A000020ADF80C000220ADF850
:100770000E000120ADF810004002ADF8120000207C
:10078000ADF81400ADF816000720ADF8180002A966
:10079000054800F02DF901210348FFF7D3FE07B00B
:1007A00000BD0000001402400050014070B5054635
:1007B0000C46164600F0F2F840201449088002204A
:1007C00000F086F8C4F3074000F082F8C4F3072075
:1007D00000F07EF8E0B200F07BF8B6F5807F04DD33
:1007E0004FF480760AA000F08DFA03E0287800F03C
:1007F0006FF86D1C301EA6F101018EB2F6D14020BB
:100800000249891E088000F09FF870BD1A1402404A
:100810003C3C2D464C4153482D4552524F522D3EA3
:100820003E205350495F464C4153485F50616765D5
:10083000577269746520746F6F206C6172676521EF
:100840000A0000002DE9F0410024002500260027C1
:1008500040200E4908809F2000F03AF8FF2000F069
:1008600037F80546FF2000F033F80646FF2000F079
:100870002FF8074640200549891E0880280440EAD1
:10088000062040EA07042046BDE8F0811A14024021
:1008900010B5044600F082F800F056F840200B49ED
:1008A0000880202000F014F8C4F3074000F010F88E
:1008B000C4F3072000F00CF8E0B200F009F8402083
:1008C0000249891E088000F03FF810BD1A1402404A
:1008D00010B504464FF48050194908600AE01849E1
:1008E0000868411E164A116020B9002000F09EF8E9
:1008F000C0B210BD0221134800F06CF80028EED001
:100900002146104800F072F84FF480500C490860FE
:100910000AE00B490868411E094A116020B901200C
:1009200000F084F8C0B2E4E70121064800F052F874
:100930000028EED0034800F056F8C0B2D9E7000016
:100940005C0000200050014010B5002440201149F7
:1009500008800520FFF7BCFF4FF480500E49086067
:1009600000BFFF20FFF7B4FF04460B490868411E93
:10097000094A116018B9042000F058F810BD04F0BD
:1009800001000028EDD140200249891E088000BFE7
:10099000F4E700001A1402405C00002010B540206B
:1009A000044908800620FFF793FF40200149891E73
:1009B000088010BD1A14024010B540200449088078
:1009C000AB20FFF785FF40200149891E088010BD3C
:1009D0001A1402400246002013890B400BB101207B
:1009E00000E0002070470146888970478181704788
:1009F00010B50022028802F441520B884C88234330
:100A00008C882343CC8823430C8923434C8923437C
:100A10008C892343CC8923431A430280838B4FF272
:100A2000FF74234083830B8A038210BD10B50446F4
:100A3000214602A000F066F9002010BD3C3C2D4686
:100A40004C4153482D4552524F522D3E3E2053505B
:100A50004920B5C8B4FDB3ACCAB1216572726F72DA
:100A6000436F6465203D2025640A00007047000044
:100A70000CB50020019000904148006840F480309F
:100A80003F49086000BF3E48006800F40030009015
:100A90000198401C0190009818B90198B0F5A04F3A
:100AA000F1D13748006800F4003010B10120009007
:100AB00001E0002000900098012860D130484030CB
:100AC000006840F080502E49403108602D48006891
:100AD00040F440402B490860294808300068284904
:100AE000083108600846006840F400400860084685
:100AF000006840F4A05008602348091F0860081FE0
:100B0000006840F08070091F086000BF1C48006842
:100B100000F000700028F9D01A48006840F48030D6
:100B20001849086000BF1748406800F4803000286A
:100B3000F9D01448006840F400301249086000BF42
:100B40001048406800F400300028F9D040F20570E9
:100B50000E4908600A480830006820F00300084980
:100B6000083108600846006840F00200086000BFD5
:100B700003480830006800F00C000828F8D10CBDCC
:100B80000038024000700040195A4007003C024003
:100B90007047000010B51248006840F0010010498D
:100BA000086000200E49083108600D4800680D49B2
:100BB00008400B4908600C48091D0860081F0068C0
:100BC00020F48020091F0860002005490C310860CE
:100BD000FFF74EFF4FF000600449086010BD0000B1
:100BE00000380240FFFFF6FE1030002408ED00E060
:100BF00021B1828942F40052828104E082894DF65B
:100C0000FF731A408281704702460020B1F5007FD1
:100C100000D100BF13880B400BB1012000E0002081
:100C2000704700002DE9FF4705460E460024A14607
:100C300000BFA046B08900B100BF2C8A24F4405404
:100C4000F08804432C82AC8941F20C608443B08864
:100C500031890843718908430443AC81AC8A24F488
:100C60004074B0890443AC826846FFF7F7FB204824
:100C7000854202D01F48854202D1DDF80C9001E088
:100C8000DDF80890A88900F4004040B109EBC900E4
:100C900000EB091031684900B0FBF1F707E009EB00
:100CA000C90000EB091031688900B0FBF1F764203E
:100CB000B7FBF0F004012009642101FB1078A8893A
:100CC00000F4004040B1322000EBC800B0FBF1F06E
:100CD00000F00700044308E0322000EB0810642114
:100CE000B0FBF1F000F00F0004432C81BDE8FF875A
:100CF0000010014000140140C1F3080282807047D7
:100D000000BFFEE70FB4054B10B503A9044A0298D3
:100D100000F018F810BC5DF814FB0000252C00084A
:100D20006C00002002E008C8121F08C1002AFAD196
:100D300070477047002001E001C1121F002AFBD15B
:100D4000704700002DE9FF4F8BB09A460F460546CD
:100D5000002606E025280BD052460D9990476D1CC1
:100D6000761C28780028F5D10FB03046BDE8F08F0A
:100D70000024A0460122604900E0044315F8013F29
:100D8000203B02FA03F00842F7D128782E2817D129
:100D900015F8010F44F004042A280ED06FF02F023A
:100DA0002878A0F1300109290AD808EB880102EB64
:100DB000410100EB01086D1CF2E757F8048B6D1C34
:100DC000287869283ED006DC0028CDD063280BD0D7
:100DD000642804D136E0732810D075284BD05246D1
:100DE0000D999047761C85E017F8040B8DF80000EC
:100DF00000208DF80100E946012003E057F8049B2C
:100E00004FF0FF3061074FF0000401D40AE0641C8A
:100E100044450DDA8442FADB19F804100029F6D1B2
:100E200006E0641C8442FCDB19F804100029F8D1A8
:100E3000264404E019F8010B52460D999047641EB0
:100E4000F8D257E001CF4FF00A0B002802DA4042F7
:100E50002D2102E0210504D52B218DF8241001213C
:100E600003E0E10705D02021F7E70DF12009089103
:100E70000CE00021F9E701CF4FF00A0BF9E75946E2
:100E8000FFF7B0F901F1300209F8012D0028F6D181
:100E9000ADEB090000F1200B600701D44FF0010811
:100EA000D84502DDA8EB0B0000E0002080460024BE
:100EB00006E009A85246005D0D999047641C761C17
:100EC00008988442F5DB04E0302052460D999047A3
:100ED000761CB8F10001A8F10108F5DC05E019F86D
:100EE000010B52460D999047761CBBF10001ABF106
:100EF000010BF4DC6D1C34E70928010070B50446D1
:100F00000D4600202071401EE0622946204602F076
:100F100055FA08B1032070BD94F82E1294F82F02F0
:100F200041EA00204AF65521884201D00220F2E72A
:100F300094F86900010694F8680041EA004194F8C9
:100F4000670041EA002094F86610084320F07F40D3
:100F50000D49884201D10020DDE794F885000106A3
:100F600094F8840041EA004194F8830041EA0020AB
:100F700094F88210084320F07F400349884201D151
:100F80000020C8E70120C6E746415400024600E0C1
:100F9000521C107810B110788842F9D1107870473F
:100FA0000246891E5069801E884201D80020704781
:100FB0009378906A01FB0300F9E700002DE9F04700
:100FC00080460C46A17EE07E41EA002010B1002060
:100FD000BDE8F087207800F03F00401E00EB800164
:100FE00001EBC0064FF00109002524E01A48405DDE
:100FF000205C1949495D2144497840EA0127B9F14B
:10100000000F11D0FF2E0BD2384601F069FB82464B
:101010003146761C38F8110001F062FB824501D0A0
:101020000020D5E7B94605E04FF6FF70874201D0B2
:101030000020CDE76D1C0D2DD8D3207800F04000A6
:1010400038B1B9F1000F04D038F8160008B100200B
:10105000BEE70120BCE70000603700082DE9F0473B
:1010600004468946B9F1000F06D1E76817B16069F7
:10107000B84215D8012713E04946204601F04AFE40
:101080000646022E02D20120BDE8F087701C08B986
:101090003046F9E76069B04201D93046F4E74F467F
:1010A0003D4600BF6D1C6069A84204D80225BD42C0
:1010B00001D90020E8E72946204601F02BFE06462C
:1010C00006B909E0701C08B1012E01D13046DBE7FA
:1010D000BD42E7D10020D7E700BF6FF0704229463C
:1010E000204602F085F98046B8F1000F08D1B9F129
:1010F000000F05D02A464946204602F079F980467D
:10110000B8F1000F0BD1E5602069401C78B120696F
:10111000401E2061607940F00100607107E0B8F185
:10112000010F02D14FF0FF3000E0012005462846B4
:10113000AAE700002DE9F34F83B0814604980068C8
:10114000019002E00198401C0190019800782F283E
:10115000F8D0019800785C28F4D0D9F81CA00025BC
:101160002F4600BF38467F1C01990C5C202C03DB06
:101170002F2C01D05C2C00D132E0FF2D03D30620B0
:1011800005B0BDE8F08FE4B2812C13DBE0B2FE289D
:1011900010DC38467F1C01990E5C06EB042084B2FB
:1011A000402E01DB7E2E05DD802E01DBFE2E01DDD3
:1011B0000620E5E70121204601F054FA04460CB967
:1011C0000620DDE7802C06DA214671A0FFF7DEFE5F
:1011D00008B10620D4E728466D1C2AF81040C1E764
:1011E00000BF0198C11904980160202C01DA042085
:1011F00000E00020804608E0681E3AF81040202CED
:1012000002D02E2C00D002E06D1E002DF4D100BFC4
:101210000DB90620B4E700202AF815000B22202182
:10122000D9F8180002F0C0F8002700E07F1C3AF857
:1012300017002028FAD03AF817002E28F6D00FB160
:1012400048F0030800E06D1E25B1681E3AF8100052
:101250002E28F8D10020064602904FF0080B00BF60
:1012600038467F1C3AF8104004B963E0202C03D0C4
:101270002E2C04D1AF4202D048F00308F0E70298C8
:10128000584501D2AF4214D1BBF10B0F02D148F047
:1012900003084FE0AF4201D048F00308AF4200D945
:1012A00048E02F46082002904FF00B0BB006060EC8
:1012B000D6E7802C09DB204601F012FA00210090CD
:1012C00001F0D0F9044648F00208FF2C11DDABF123
:1012D00001000299884204D848F00308CDF808B00C
:1012E000BEE72212D9F818300298411C02911A5414
:1012F00019E024B1214629A0FFF748FE18B15F2468
:1013000048F003080FE0412C04DB5A2C02DC46F0C5
:10131000020608E0612C06DB7A2C04DC46F00106AC
:10132000A4F1200084B2D9F818300298411C02912F
:101330001C5495E700BFD9F818000078E52803D1C0
:101340000520D9F818100870BBF1080F01D1B006BC
:10135000060E06F00C000C2803D006F0030003284C
:1013600001D148F0020808F0020058B906F0030065
:10137000012801D148F0100806F00C00042801D122
:1013800048F00808D9F8180080F80B800020F7E62C
:10139000222A3A3C3E3F7C7F000000002B2C3B3D44
:1013A0005B5D00002DE9F04104460E460021204619
:1013B00000F0CDF90546EDB9002700BF216920688E
:1013C00001F0FCFF054605B113E060690078E528EF
:1013D00002D06069007820B9781C0746B04201D17C
:1013E00007E000270121204600F07FF80546002D88
:1013F000E4D000BF042D00D107252846BDE8F081C8
:101400002DE9F04704460021204600F0A0F90746E8
:1014100017B13846BDE8F0874FF0FF09CA464FF6CE
:10142000FF70208400BF2169206801F0C7FF0746D4
:1014300007B157E065692E780EB9042752E0E87AC3
:1014400000F03F08E52E05D008F0080040B1B8F1E3
:101450000F0F05D04FF0FF094FF6FF7020843AE0E0
:10146000B8F10F0F1CD1E06978B306F0400030B13D
:1014700095F80DA026F04006B146E08820844E4540
:101480000AD1687B504507D12946E069FFF796FDF0
:1014900010B1A9F1010000E0FF2000F0FF091AE0FF
:1014A000B9F1000F05D1284602F0A4F8504500D14B
:1014B00018E0A069C07A00F0010038B90B22284674
:1014C000A16901F051FF08B90CE004E04FF0FF09F9
:1014D0004FF6FF7020840021204600F006F80746F2
:1014E000002FA0D000BF384694E72DE9F041044614
:1014F0008846E088461CB0B208B1206910B90420C3
:10150000BDE8F08121684889C11700EBD16149111C
:10151000B6FBF1F201FB1261002971D12069401C78
:101520002061E06828B920680089B04268D80420AA
:10153000E6E721684889C11700EBD1614911B6FB84
:10154000F1F122689278521E1140002958D1E168C9
:10155000206801F0DFFB0546012D01D80220CFE70E
:10156000681C08B90120CBE720684069A84241D82F
:10157000B8F1000F01D10420C2E7E1682068FFF74D
:101580006DFD05460DB90720BAE7012D01D10220F6
:10159000B6E7681C08B90120B2E7206802F09EF89F
:1015A00008B10120ACE721684A8901F1300000212F
:1015B00001F0FAFE29462068FFF7F2FC2168C862B4
:1015C00000270EE0012021680871206802F086F8EB
:1015D00008B1012094E72068C06A401C2168C862F5
:1015E0007F1C20688078B842ECD82068C06AC01B95
:1015F0002168C862E56029462068FFF7D1FC2061B8
:10160000E68021684889C11700EBD1614911B6FB1A
:10161000F1F201FB12612268303202EB411161618B
:1016200000206DE72DE9FE4F0446D4F81880D4F869
:101630001C900C224146684601F0A9FE00BF9DF8AF
:101640000B0000F0010020B3002088F80B00E061DF
:1016500001260CE033464A466946404601F0F4FA5A
:101660002046FFF7CDFE054605B102E0761C642E4C
:10167000F0D300BF642E02D10720BDE8FE8F042DF9
:1016800001D02846F9E79DF80B0088F80B00C4F854
:101690001C909DF80B0000F0020060B1002600E0F5
:1016A000761C39F816000028FAD106F119000D2130
:1016B000B0FBF1F700E0012739462046FFF772FE44
:1016C000054645BB781E071E25D0E088C11B204675
:1016D00000F03DF80546F5B9A06901F08BFF8246A0
:1016E00000BF2169206801F069FE054605B111E0DF
:1016F000FAB253466169E06901F00CFA01202168F1
:10170000087100212046FFF7F0FE054615B9781E46
:10171000071EE6D100BFC5B92169206801F04EFE61
:10172000054695B920220021606901F03DFE0B229B
:10173000D4E9050101F02BFEA069C07A00F0180081
:1017400061690873012021680871284695E72DE931
:10175000F04104460E46E680A568012D03D02068BE
:101760004069A84202D80220BDE8F0812DB9206866
:101770000078032801D12068456A45B920680089AE
:10178000B04201D80220EFE72068476A24E02168D0
:101790004889C11700EBD16149112268927811FB89
:1017A00002F812E02946206801F0B4FA0546681CE8
:1017B00008B90120D8E7022D03D320684069A84268
:1017C00001D80220D0E7A6EB08064645EAD2294612
:1017D0002068FFF7E5FB0746E5600FB90220C3E785
:1017E00021684889C11700EBD1614911B6FBF1F1BD
:1017F0003944216121684889C11700EBD161491141
:10180000B6FBF1F201FB12612268303202EB4111AA
:1018100061610020A8E770B50446012614B1012CCF
:1018200011D100E011E0FEF753FF4FF4FA7500BF4D
:10183000681E80B2051EFBD1FFF7BEF8012000F044
:1018400049F8064601E0012600BF00BF304670BDE2
:1018500010B50346042013B1012B16D100E016E0A9
:10186000012904D0022906D003290BD107E04FF447
:101870002064146006E04FF48054148002E00124D8
:10188000146000BF00BF002001E0042000BF00BFC3
:1018900010BD2DE9F04105460E4614461F464FF097
:1018A000040815B1012D0ED100E00FE004F5C0646D
:1018B0004FF6FF7000EA073221033046FEF74EFE76
:1018C0004FF0000802E04FF0040800BF00BF4046A0
:1018D000BDE8F08170B50446012514B1012C0BD18F
:1018E00000E00BE0FEF7AEFF0649884202D125F08A
:1018F000010500E0012501E0012500BF00BF2846E9
:1019000070BD00001940EF002DE9F04707468846FA
:1019100014461D464FF0040915B90420BDE8F087B0
:1019200017B1012F12D100E013E004F5C0642603C3
:101930003046FEF7ADFF4FF6FF7000EA0532314644
:101940004046FEF733FE4FF0000902E04FF0040975
:1019500000BF00BF4846E1E770B50546284600F0E5
:1019600022FD044634B9284601F0E1FE04460CB9D4
:1019700000202860204670BD2DE9F74F90B09146B9
:101980001198012803DD132013B0BDE8F08F10A8D3
:1019900001F064FA0F900F98002801DA0B20F3E7AA
:1019A000FA490F9851F820500DB90C20ECE70020AF
:1019B00028700F98C0B20C9000200B900C98FFF785
:1019C0002AFF0190019800F0010008B10320DBE735
:1019D000019800F0040008B10A20D5E705F10A02D9
:1019E00002210C98FFF734FF38B96889B0F5805FA1
:1019F00003DC6889B0F5007F01DA0120C4E700BF8D
:101A000004AA01210C98FFF723FF10B9049880283D
:101A100001D20120B8E7119808B1002000E03F2072
:101A200082460498A0EB0A000490A9F1010000EAA4
:101A3000090008B14FF00009B9F1000F1AD1688907
:101A4000C11700EBD15149124FF4FA6292FBF1F148
:101A5000049AB2FBF1F10A914FF0000B01E00BF197
:101A6000010BCB4830F81B100A988142F7D8C948BF
:101A700030F81B90B9F5007F02D36889B9FBF0F903
:101A8000B9F1000F01D14FF00109B9F1800F01D96F
:101A90004FF080090498B0FBF9F8012640F6F67083
:101AA000804500D302264FF6F670804500D303260A
:101AB000032E0CD1082000EB880069890844401EE1
:101AC000B0FBF1F7202003900020029019E0012ED6
:101AD00005D108EB4800401C4008C01C02E04FEA5A
:101AE0004800001D074668893844401E6989B0FBDC
:101AF000F1F70120039068894FF48041B1FBF0F0C9
:101B00000290039850440790079838440690029931
:101B100006980844059005984844A0EB0A000499EB
:101B2000884201D90E202FE709AA03210C98FFF75C
:101B30008FFE28B9099818B10998B0F5004F01D95E
:101B400001200990099905980844401E491E8843C0
:101B5000099009990598081A0990032E08D1099946
:101B6000039808440390099907980844079001E0F6
:101B700009980744DDE90301081AC11B0298081AF5
:101B8000B0FBF9F8022E03D140F6F670804505D37C
:101B9000032E05D14FF6F670804501D20E20F3E6F4
:101BA000032E02D10C200D9010E0012E06D10498D6
:101BB000B0F5803F02D201200D9007E00498B0F507
:101BC000803F01D2042000E006200D9000BF119854
:101BD00010B1F0200E9043E06A89002105F1300039
:101BE00001F0E2FB05F5F77401206070A0700020A1
:101BF000E0700D982071FE206071049850443F21E0
:101C0000B0FBF1F0FF21B0FBF1F009903F21099802
:101C100041EA9000A0710998E0713F2020720021F4
:101C20006172A172E172049820730498010A6173D1
:101C30000498010CA1730498010EE173552185F8F5
:101C40002E12AA2185F82F120123002205F130015E
:101C50000C98FFF759FE08B1012095E6F8200E9088
:101C600005F130046A890021204601F09DFB0B221A
:101C700049A1204601F08BFBB5F80AB084F80BB0FF
:101C80004FEA1B21217384F80D900398A0730398E9
:101C9000010AE17301202074032E01D1002001E02C
:101CA0004FF40070834684F811B04FEA1B21A174F1
:101CB0000498B0F5803F05D20498E0740498010AB6
:101CC000217510E0049884F820000498C0F30721DF
:101CD000212001550498C0F30741222001550498A2
:101CE000010E232001550E9860753F2020760021BB
:101CF0006176FF20A076E17684F81CA04FEA1A21D5
:101D000061774FEA1A41A1774FEA1A61E17701F052
:101D1000A1F80990032E4BD1099884F84300099843
:101D2000C0F30721442001550998C0F3074145201D
:101D300001550998010E4620015584F82470C7F317
:101D4000072125200155C7F3074126200155390EEB
:101D500027200155022084F82C0000212D20015558
:101D60002E2001552F200155012084F8300031200C
:101D70000155062084F8320033200155802084F874
:101D80004000292084F8420013220BE0600000206C
:101D90006E37000884370008EBFE904D53444F53D4
:101DA000352E30008AA104F1470001F0F0FA1FE05F
:101DB000099884F827000998C0F3072128200155C5
:101DC0000998C0F30741292001550998010E2A20DE
:101DD0000155A775390AE175802084F8240029206F
:101DE00084F8260013227FA104F12B0001F0CFFA22
:101DF000552084F8FE01AA2140F2FF10015501236D
:101E0000524621460C98FFF77FFD08B10120BBE543
:101E1000032E06D101230AF1060221460C98FFF792
:101E200073FD079808904FF0000B5FE06A8900216E
:101E3000204601F0B9FA0E980990032E14D0012E15
:101E400001D16D4801E06FF0FF0009990843099046
:101E5000099820700998000A60700998000CA07019
:101E60000998000EE07019E0099860F0FF000990F1
:101E7000099820700998000A60700998000CA070F9
:101E80000998000EE070FF202071FF216171A1719F
:101E9000E17120726172A1720F21E1720898411CF8
:101EA00002460123089121460C98FFF72DFD08B149
:101EB000012069E56A890021204601F075FA0120B8
:101EC00009900EE00898411C024601230891214622
:101ED0000C98FFF719FD08B1012055E50998401C41
:101EE00009900998B842EDD30BF1010BBBF1000F3B
:101EF0009CD0032E01D1484600E00298834600BFE3
:101F00000898411C02460123089121460C98FFF7CE
:101F1000FBFC08B1012037E5ABF10100B0F1000B8B
:101F2000EED1032E49D15220207060706120A07044
:101F30004120E070722084F8E401722140F2E51043
:101F400001554121401C01556121401C0155A8F15A
:101F5000010084F8E801C0F3072140F2E9100155BF
:101F6000A8F10100C0F307414FF4F5700155A8F145
:101F70000100010E40F2EB100155022084F8EC0143
:101F8000002140F2ED100155401C0155401C015547
:101F9000552084F8FE01AA2140F2FF1001550123CB
:101FA0000AF1010221460C98FFF7AEFC01230AF169
:101FB000070221460C98FFF7A7FC002211460C9857
:101FC000FFF746FC08B10120DEE40020DCE400005D
:101FD0004E4F204E414D4520202020464154333263
:101FE000202020004E4F204E414D452020202046ED
:101FF000415420202020200000FFFF00F7B582B0D0
:1020000016460398019001A800F028FF0546002D10
:1020100002DA0B2005B0F0BD0E4850F825400CB197
:1020200000202070029810B1002002990870094920
:10203000029841F82500029808B1012E01D0002035
:10204000E8E7002203A902A800F078FB074638461B
:10205000E0E70000600000202DE9F743ADF50C7DBE
:102060000546164625B909200DF50F7DBDE8F0831C
:102070000020286006F01F0626F001028DA983A823
:1020800000F05CFB0746002F74D180A88990CDF842
:1020900028D283A88D9900F07DFD0746889C0FB952
:1020A00004B9062706F01C0000285CD04FB1042FAD
:1020B00003D183A8FFF7B6FA074646F00806889CC6
:1020C00009E0E07A00F0110008B1072703E006F00C
:1020D000040000B10827002F55D106F008000028A1
:1020E00051D000F0B7FE804684F80E804FEA1821E8
:1020F000E1734FEA184121744FEA1861617484F862
:1021000016804FEA1821E1754FEA184121764FEA0F
:10211000186161760020E072207700216177A17755
:10212000E1772146839800F0BEFE814600212046DB
:1021300001F058FA012083990871B9F1000F22D0FB
:102140008398D0F82C804946839801F015FA074609
:10215000CFB9A9F101008399C8604146839801F085
:102160002DF907460FE077B9E07A00F0100010B1C2
:10217000042708E02DE006F0020020B1E07A00F02C
:10218000010000B1072747B906F0080008B146F082
:1021900020068398C06AE8612C62D7B9AE7100202E
:1021A000E8712146839800F07EFE2861E07F0106F9
:1021B000A07F41EA0041607F41EA0020217F08437F
:1021C000E8600020A860A861839828602868C0881B
:1021D000A880384648E72DE9FF4F85B004461546EC
:1021E0009A46DDF818B00020CAF80000204601F039
:1021F0009EFA0490049818B1049809B0BDE8F08FD5
:10220000E07908B1E079F8E7A07900F0010008B9B9
:102210000720F2E7D4E90210401A029002988542A2
:1022200000D9029DBAE021684989A068B0FBF1F2AB
:1022300001FB1200002877D121684989A068B0FB12
:10224000F1F021688978491E084000F0FF09B9F1D2
:10225000000F17D1A06810B92069039004E06169EC
:10226000206800F057FD03900398022802D2022054
:10227000E071C2E70398401C10B90120E071BCE78F
:102280000398606161692068FEF78AFE064616B908
:102290000220E071B1E74E4420684089B5FBF0F8B8
:1022A000B8F1000F2DD009EB080021688978884229
:1022B00003D920688078A0EB090821684878434654
:1022C00032465946FFF7E5FA10B10120E07194E774
:1022D000A07900F0400078B1A069801B40450BD286
:1022E000A169891B23685B8901FB03B021684A89C6
:1022F00004F1240101F04BF82068408900FB08F745
:1023000042E0A069B04220D0A07900F0400080B146
:1023100021684878012304F12401A269FFF7F4FA47
:1023200018B10120E07168E710E0A07920F04000CA
:10233000A071216848780123324604F12401FFF797
:10234000A8FA10B10120E07157E7A6612168498918
:10235000A068B0FBF1F201FB1200216849890F1A55
:10236000AF4200D92F4621684989A068B0FBF1F23D
:1023700001FB120104F1240008443A460146019091
:10238000584601F004F800BFBB44A0683844A06080
:10239000DAF800003844CAF80000ED1B002D7FF485
:1023A00042AF002029E72DE9F0410446204601F024
:1023B000BEF90746002F4CD1A07900F0200000287C
:1023C00047D0A07900F0400078B121684878012317
:1023D00004F12401A269FFF797FA10B10120BDE8CA
:1023E000F081A07920F04000A071E169206800F040
:1023F000E5FF0746002F2CD1256AE87A40F020003F
:10240000E872207B2877A089010A6977E068010CCF
:10241000A977E068010EE9772846216901F0E2F822
:1024200000F018FD0646AE75310AE975310C2976C3
:10243000310E69760020A8740021E974A07920F09B
:102440002000A071012021680871206801F0E2F8E5
:1024500007463846C3E72DE9FF4F83B004461546CB
:102460009B46049801900020CBF80000204601F024
:102470005EF90290029818B1029807B0BDE8F08F9B
:10248000E07908B1E079F8E7A07900F0020008B936
:102490000720F2E7A0682844A168884200D20025FE
:1024A000CFE021684989A068B0FBF1F201FB12007E
:1024B00000287ED121684989A068B0FBF1F021682D
:1024C0008978491E084000F0FF0ABAF1000F1ED1BA
:1024D000A06838B9276957B900212068FEF7BEFD0A
:1024E000074604E061692068FEF7B8FD074607B9B2
:1024F000AAE0012F02D10220E071BEE7781C10B9DA
:102500000120E071B9E76761206900B92761A0790E
:1025100000F0400078B121684878012304F12401DB
:10252000A269FFF7F1F910B10120E071A5E7A079E8
:1025300020F04000A07161692068FEF731FD064679
:1025400016B90220E07198E7564420684089B5FB2F
:10255000F0F9B9F1000F31D00AEB09002168897850
:10256000884203D920688078A0EB0A09216848785E
:102570004B4632460199FFF7C7F910B10120E071CF
:102580007BE7A069801B484511D2A069831B2068A6
:10259000B0F80AC0019803FB0C012068428904F1DD
:1025A000240000F0F4FEA07920F04000A071206823
:1025B00000E017E0408900FB09F835E0A069B0426F
:1025C0000FD0D4E9020188420BD221684878012358
:1025D000324604F12401FFF75CF910B10120E071EB
:1025E0004BE7A66121684989A068B0FBF1F201FBC5
:1025F000120021684989A1EB0008A84500D9A84626
:1026000021684989A068B0FBF1F201FB120104F1D5
:102610002400084442460090019900F0B8FEA079D9
:1026200040F04000A07100BF019840440190A068B4
:102630004044A060DBF800004044CBF80000A5EB6C
:102640000805002D7FF42DAF00BFD4E902018842B8
:1026500001D9A068E060A07940F02000A0710020BE
:102660000BE700002DE9F04102460F46802A01DA0F
:1026700010462FE01FB1184B45F2205602E0174BD1
:1026800045F220560025102416E0A6EB050C0CEBB5
:10269000DC7805EB68014FEA410C33F81CC0944527
:1026A00000D10BE04FEA410C33F81CC0944501DA2D
:1026B0000D4600E00E46641E002CE6D100BF34B18A
:1026C0004FF0010C0CEB410C33F81CC001E04FF053
:1026D000000C6046BDE8F0811E8C01089A370008A6
:1026E00030B5802807DA612823DB7A2821DCA0F1C5
:1026F0002005A8B21DE00C2200234FF4F77400BFA0
:10270000E51A03EB55010B4D35F81150854200D108
:102710000AE0084D35F81150854201DA0B4600E019
:102720000C46551E2A1EEBD100BF12B1024D35F8E2
:10273000110030BDA2E002087EE402082DE9F74F47
:102740008AB000210A9801600B9800F087FB09907D
:102750000998002803DA0B200DB0BDE8F08FE94995
:10276000099851F820400CB90C20F5E70A9804604C
:10277000207878B16078FFF7ADF8814609F0010064
:1027800040B90C9820B109F0040008B10A20E3E731
:102790000020E1E700202070099860706078FFF762
:1027A0003AF8814609F0010008B10320D4E70C98FB
:1027B00020B109F0040008B10A20CDE7607804F1E7
:1027C0000A020221FFF744F838B96089B0F5007FAA
:1027D00003DB6089B0F5805F01DD0120BCE70027E5
:1027E00039462046FEF78AFB0546012D01D09DBBE8
:1027F00032E000261AE004F5F77000EB061898F8AE
:10280000040070B198F80B00010698F80A0041EA3C
:10281000004198F8090041EA002098F808100843A0
:1028200000E0002002A941F82600761C042EE2D325
:10283000002606B1761E00BF02A850F8267027B108
:1028400039462046FEF75AFB00E0022005461DB13E
:10285000701C06460428EFD3032D01D101207BE72D
:102860000DB10D2078E73B20015D94F83C0041EA72
:1028700000206189884201D00D206DE74620015D6E
:1028800094F8470041EA002ABAF1000F0ED194F8FB
:102890005700010694F8560041EA004194F85500AB
:1028A00041EA002094F8541040EA010AC4F818A044
:1028B0004020005DE070E078012804D0E078022834
:1028C00001D00D2048E7E0780AFB00FA3D20005DCA
:1028D000A070A07818B1A078411E084008B10D2062
:1028E0003AE74120015D94F8420041EA002020814E
:1028F0006089C11700EBD1614911228992FBF1F384
:1029000001FB132109B10D2026E74320015D94F856
:10291000440041EA00200890089870B994F85300E8
:10292000010694F8520041EA004194F8510041EA4E
:10293000002094F85010084308903E20015D94F860
:102940003F0041EA00200190019808B90D2003E7FB
:102950006089C11700EBD1614911228992FBF1F224
:102960000199514411440791DDE90710884201D2D1
:102970000D20F1E6DDE90710401AA178B0FBF1FB6C
:10298000BBF1000F01D10D20E6E6012540F6F670FF
:10299000834500D302254FF6F670834500D3032507
:1029A0000BF102006061E7610198384420620798EA
:1029B0003844A062032D16D1208908B10D20CBE642
:1029C00094F85F00010694F85E0041EA004194F833
:1029D0005D0041EA002094F85C1008436062606981
:1029E0008000069014E0208908B90D20B4E6206A22
:1029F00050446062022D02D16069400007E0207DF2
:102A000000F00100616901EB410100EB510006900B
:102A10006089401E069908446189B0FBF1F0A16904
:102A2000884201D90D2097E64FF0FF302061E06029
:102A300080206071032D5AD194F8601094F86100E1
:102A400041EA0020012852D1791C204600F0B6FC52
:102A5000E8BB0020607194F82E1294F82F0241EA2E
:102A600000204AF65521884241D13320005D0106FD
:102A70003220005D41EA00413120005D41EA002042
:102A800094F8301008432049884230D194F8170256
:102A9000010694F8160241EA004194F8150241EA51
:102AA000002094F814120843184988421FD194F862
:102AB0001B02010694F81A0241EA004194F8190237
:102AC00041EA002094F818120843206100E00EE06B
:102AD00094F81F02010694F81E0241EA004194F89E
:102AE0001D0241EA002094F81C120843E0602570A2
:102AF00007480088401C80B205490880E08000201B
:102B00002AE6000060000020525261417272416169
:102B100068000020F0B504461D464D730F27CF72A4
:102B200000270F738F76BC4681F81BC0571E07EB3A
:102B3000870C0CEBC706002738463B4600BF4FF614
:102B4000FF77B84203D03746761C34F81700DFF819
:102B500040C01CF803C001F80C000712DFF830C0B9
:102B60001CF803C08C448CF8017008B94FF6FF7054
:102B70005F1C3B460D2FE2D34FF6FF77B84202D0E1
:102B800034F816700FB942F040020A70F0BD000030
:102B9000603700082DE9F3410446019800782F289A
:102BA00003D0019800785C2802D10198401C019064
:102BB0000020A06001980078202807D2002120463C
:102BC000FEF7C5FD05460020606128E000BF01A9B1
:102BD0002046FEF7AFFA054605B11FE02046FEF796
:102BE0000FFC0546A069C67A3DB1042D04D100BF93
:102BF00006F0040000B9052510E006F0040000B15D
:102C00000CE06769F87A00F0100008B9052505E0C6
:102C10003946206800F047F9A060D8E700BF284691
:102C2000BDE8FC8170B504460D46E1B20548FEF7EB
:102C300063F800BF80210348FDF7E6FF0028F9D0C4
:102C4000204670BD001001402DE9FF4F83B00746BC
:102C500091461E460B223846049900F098FB052E3B
:102C600019D9B04612E039F802BB00250CE05846ED
:102C700068F35F0080464FEA6B0B08F4803010B1B8
:102C8000234888EA00086D1C102DF0D3B9F8000025
:102C90000028E8D14646072500BF06F00F0000F1E6
:102CA000300ABAF1390F03DD0AF1070000F0FF0A1C
:102CB00028466D1E01A901F800A03609002EECD1AE
:102CC0007E20485500240BE0385D812807DB385D05
:102CD000FE2804DC681EA04200D106E0641C641CCF
:102CE000AC4202D2385D2028EED100BF00BF082DD3
:102CF00004D228466D1C01A9095C00E02021204671
:102D0000641C3954082CF2D307B0BDE8F08F0000E2
:102D1000211001002DE9F05F04460D46022D02D37B
:102D20006069A84202D84FF001098FE04FF0FF39E7
:102D30002078012804D002283CD003287ED157E017
:102D40002F4607EB57076089B7FBF0F0216A00EBCD
:102D5000010A5146204600F031FB00B175E03846CB
:102D60007F1C6189B0FBF1F201FB120104F130001C
:102D700010F801806089B7FBF0F0216A00EB010ACE
:102D80005146204600F01AFB00B15EE06089B7FBB7
:102D9000F0F100FB117104F13000405C48EA0028BA
:102DA00005F0010010B14FEA181001E0C8F30B0064
:102DB00081464AE0B4F80AA00AEBDA704010B5FB8D
:102DC000F0F0216A00EB010B5946204600F0F6FABC
:102DD00000B13AE068006189B0FBF1F201FB120139
:102DE00004F130000E183078717840EA01292CE0A7
:102DF000B4F80AA04FEAEA700AEB90708010B5FBB5
:102E0000F0F0216A00EB010B5946204600F0D6FA9B
:102E100000B11AE0A8006189B0FBF1F201FB1201D8
:102E200004F130000E18F0780006B17840EA014055
:102E3000717840EA01203178084300E002E020F098
:102E4000704902E04FF0010900BF00BF4846BDE8ED
:102E5000F09F0000004870470000214670B5024610
:102E60004FF0FF301568E5B1116800E0491C0D789E
:102E7000202D02D30D783A2DF8D10D783A2D0FD1AF
:102E8000146814F8015BA5F130030A2B07D28C42B9
:102E900005D1022B03D218464D1C2946156070BD82
:102EA000002000BFFBE710B502468C7ECB7E44EAD3
:102EB00003201378032B05D10C7D4B7D44EA0323BB
:102EC00040EA034010BD0000FDF772FA4FF4806045
:102ED0006F490880400008804000891C0880FDF789
:102EE000ADF96CA0FDF70EFF012276A17648FFF741
:102EF00085F876490870084600780D282DD174A011
:102F0000FDF700FF002211466EA0FEF735FD6F4968
:102F100008700846007888B978A0FDF7F3FE012212
:102F200068A10020FFF76AF868490870012265A1CE
:102F30006548FFF763F8654908701EE04FF480604C
:102F40005349891C08804000891E08804000088081
:102F500072A0FDF7D7FE00BFFEE75C48007848B1DD
:102F60005A48017873A0FDF7CDFE7CA0FDF7CAFE9C
:102F700000BFFEE783A0FDF7C5FE8CA0FDF7C2FEF3
:102F80000A2295A19A48FFF767F850490870084649
:102F90000078002820D197A0FDF7B4FEA54B44226D
:102FA000A5499348FFF757FA484908700846007842
:102FB00048B9A0480168A1A0FDF7A4FE9E49A8A0B9
:102FC000FDF7A0FE04E041480178ADA0FDF79AFEB0
:102FD0008748FEF7C1FC0CE04FF480602C49891C47
:102FE00008804000891E088040000880AAA0FDF7E4
:102FF00089FEB0A0FDF786FE012277A17C48FFF78D
:103000002BF83249087008460078002828D14FF480
:1030100080601F4908804000891C08804000891E8C
:103020000880AEA0FDF76EFE824B4FF48062B0497F
:103030006F48FFF7D0F8254908700846007848B96E
:103040007C480168ABA0FDF75DFEA949B2A0FDF781
:1030500059FE12E01D480178B7A0FDF753FE0CE0C1
:103060004FF480600A49891C08804000891E08804E
:1030700040000880B6A0FDF745FE5D48FEF76CFCF9
:10308000012210A10020FEF7B9FF00BFFEE70000FB
:10309000181C02402A2A2A2A2A2A20D5E2CAC7D284
:1030A000BBB8F653504920464C41534820CEC4BCCF
:1030B000FECFB5CDB3CAB5D1E9202A2A2A2A2A2AB9
:1030C0000D0A0000313A00007000002010000020BE
:1030D000A1B7464C415348BBB9C3BBD3D0CEC4BC47
:1030E000FECFB5CDB3A3ACBCB4BDABBDF8D0D0B8AA
:1030F000F1CABDBBAF2E2E2E0D0A0000A1B7464C63
:10310000415348D2D1B3C9B9A6B8F1CABDBBAFCEFD
:10311000C4BCFECFB5CDB3A1A30D0A00A1B6A1B624
:10312000B8F1CABDBBAFCAA7B0DCA1A3A1B7A1B714
:103130000D0A0000A3A1A3A1CDE2B2BF466C61734A
:1031400068B9D2D4D8CEC4BCFECFB5CDB3CAA7B06F
:10315000DCA1A3282564290D0A000000A3A1A3A1D6
:10316000BFC9C4DCD4ADD2F2A3BA53504920466CD7
:10317000617368B3F5CABCBBAFB2BBB3C9B9A6A192
:10318000A30D0A00A1B7CEC4BCFECFB5CDB3B9D252
:10319000D4D8B3C9B9A6A3ACBFC9D2D4BDF8D0D0D6
:1031A000B6C1D0B4B2E2CAD40D0A00000D0A2A2A70
:1031B0002A2A2A2A20BCB4BDABBDF8D0D0CEC4BCCC
:1031C000FED0B4C8EBB2E2CAD42E2E2E202A2A2A70
:1031D0002A2A2A0D0A000000313A4661744673B665
:1031E000C1D0B4B2E2CAD4CEC4BCFE2E747874008E
:1031F000A0100020A1B7B4F2BFAA2FB4B4BDA84656
:1032000061744673B6C1D0B4B2E2CAD4CEC4BCFEB7
:103210002E747874CEC4BCFEB3C9B9A6A3ACCFF2E9
:10322000CEC4BCFED0B4C8EBCAFDBEDDA1A30D0A5E
:10323000000000001400002018000020A1B7CEC438
:10324000BCFED0B4C8EBB3C9B9A6A3ACD0B4C8EB2C
:10325000D7D6BDDACAFDBEDDA3BA25640A000000D8
:10326000A1B7CFF2CEC4BCFED0B4C8EBB5C4CAFD82
:10327000BEDDCEAAA3BA0D0A25730D0A0000000018
:10328000A3A1A3A1CEC4BCFED0B4C8EBCAA7B0DC36
:10329000A3BA282564290A00A3A1A3A1B4F2BFAA56
:1032A0002FB4B4BDA8CEC4BCFECAA7B0DCA1A30D88
:1032B0000A0000002A2A2A2A2A2A20BCB4BDABBD53
:1032C000F8D0D0CEC4BCFEB6C1C8A1B2E2CAD42EDA
:1032D0002E2E202A2A2A2A2A2A0D0A00A1B7B4F261
:1032E000BFAACEC4BCFEB3C9B9A6A1A30D0A0000F3
:1032F000C4200020A1B7CEC4BCFEB6C1C8A1B3C9CA
:10330000B9A62CB6C1B5BDD7D6BDDACAFDBEDDA300
:10331000BA25640D0A000000A1B7B6C1C8A1B5C3A3
:10332000B5C4CEC4BCFECAFDBEDDCEAAA3BA0D0A8A
:103330002573200D0A000000A3A1A3A1CEC4BCFEEA
:10334000B6C1C8A1CAA7B0DCA3BA282564290A005F
:10335000A3A1A3A1B4F2BFAACEC4BCFECAA7B0DC8D
:10336000A1A30D0A00000000F0B503461C460D465F
:10337000002000BF161EA2F1010207D014F8017B45
:1033800015F801CBA7EB0C06301EF3D0F0BD70B5DD
:1033900003460C4603E014F8015B03F8015B151EBD
:1033A000A2F10102F7D170BD30B5034601E003F888
:1033B000011B141EA2F10102F9D130BD70B5044603
:1033C0000D460026E06AA84210D0204600F086F99B
:1033D00006465EB9607801232A4604F13001FEF703
:1033E00058FA10B14FF0FF350126E562304670BD46
:1033F0002DE9F05F04460E461746022E02D360699F
:10340000B04202D84FF00208B3E02078012804D07F
:10341000022852D0032872D172E0B14609EB590953
:103420006089B9FBF0F0216A00EB010A51462046A1
:10343000FFF7C4FF8046B8F1000F00D098E048467F
:1034400009F101096189B0FBF1F201FB120104F1FC
:1034500030000D1806F0010020B1F9B2287861F3B0
:103460001F1000E038462870012020716089B9FBE8
:10347000F0F0216A00EB010A51462046FFF79EFF5B
:103480008046B8F1000F00D072E06089B9FBF0F11E
:1034900000FB119104F130000D1806F0010010B18D
:1034A000C7F3071005E0287800F0F000C7F3032108
:1034B00008432870012020715AE0B4F80AA00AEBF2
:1034C000DA704010B6FBF0F0216A00EB010B5946B0
:1034D0002046FFF773FF8046B8F1000F00D047E0A9
:1034E00070006189B0FBF1F201FB120104F13000C0
:1034F0000D182F70380A68700120207138E034E010
:10350000B4F80AA04FEAEA700AEB90708010B6FB9C
:10351000F0F0216A00EB010B59462046FFF74EFF01
:103520008046B8F1000F00D022E0B0006189B0FB06
:10353000F1F201FB120104F130000D18E8780006E9
:10354000A97840EA0140697840EA012029780843D7
:1035500000F0704007432F70380A6870380CA8706C
:10356000380EE8700120207102E04FF0020800BF21
:1035700000BF4046BDE8F09F2DE9F04104460E46ED
:10358000022E02D36069B04201D8022727E000274B
:1035900021E031462046FFF7BDFB054605B91DE099
:1035A000012D01D1022719E0681C08B9012715E097
:1035B000002231462046FFF71BFF074607B10DE00A
:1035C0002069401C30B12069401C2061607940F0C6
:1035D000010060712E466069B042DAD800BF3846FB
:1035E000BDE8F08181760B0AC3760A0C02750B0EDA
:1035F0004375704730B5014600200B2200BF4310D1
:1036000003EBC01411F8015B6319D8B2531E1A1EE4
:10361000F5D130BD70B50446204600F05FF8054690
:10362000002D59D1207803284FD1607901284CD141
:103630006289002104F13000FFF7B6FE552184F8BD
:103640002E12AA2184F82F12522084F83000522121
:10365000312001556121322001554121332001558E
:10366000722184F8141284F81512412184F816127C
:10367000612184F81712217C84F81812208A010A2B
:1036800084F819122069010C84F81A122069010EBD
:1036900084F81B12217B84F81C12A089010A84F88B
:1036A0001D12E068010C84F81E12E068010E84F817
:1036B0001F12E069401CE0626078012304F13001D0
:1036C000E26AFEF721F9002060716078002211465D
:1036D000FEF7BEF800B10125284670BD2DE9F04186
:1036E000044600272079F8B1E56A607801232A466C
:1036F00004F13001FEF708F908B1012714E00020B9
:103700002071206A281AA16988420DD2E67809E062
:10371000A0690544607801232A4604F13001FEF7D0
:10372000F3F8761E022EF3D23846BDE8F08170B56C
:1037300005462C4684B1206870B12068007858B1E5
:103740002068C088A188884206D121684878FEF7A1
:10375000C1F800F0010008B1092070BD0020FCE7AD
:1037600001030507090E10121416181C1E00000490
:10377000000200018000400020001000080004004A
:1037800002000000008000400020001000080040FF
:1037900000200010000800040002A400E8A1A70017
:1037A000ECA1A800A7A1B000E3A1B100C0A1B7009F
:1037B000A4A1D700C1A1E000A4A8E100A2A8E8004C
:1037C000A8A8E900A6A8EA00BAA8EC00ACA8ED00F9
:1037D000AAA8F200B0A8F300AEA8F700C2A1F900B1
:1037E000B4A8FA00B2A8FC00B9A80101A1A813016D
:1037F000A5A81B01A7A82B01A9A84401BDA84801A1
:10380000BEA84D01ADA86B01B1A8CE01A3A8D001FF
:10381000ABA8D201AFA8D401B3A8D601B5A8D801EE
:10382000B6A8DA01B7A8DC01B8A85102BBA86102AA
:10383000C0A8C702A6A1C902A5A1CA0240A8CB027E
:1038400041A8D90242A89103A1A69203A2A693037C
:10385000A3A69403A4A69503A5A69603A6A69703DC
:10386000A7A69803A8A69903A9A69A03AAA69B03AC
:10387000ABA69C03ACA69D03ADA69E03AEA69F037C
:10388000AFA6A003B0A6A103B1A6A303B2A6A4034A
:10389000B3A6A503B4A6A603B5A6A703B6A6A80318
:1038A000B7A6A903B8A6B103C1A6B203C2A6B303C3
:1038B000C3A6B403C4A6B503C5A6B603C6A6B7037C
:1038C000C7A6B803C8A6B903C9A6BA03CAA6BB034C
:1038D000CBA6BC03CCA6BD03CDA6BE03CEA6BF031C
:1038E000CFA6C003D0A6C103D1A6C303D2A6C403EA
:1038F000D3A6C503D4A6C603D5A6C703D6A6C803B8
:10390000D7A6C903D8A60104A7A71004A1A711042C
:10391000A2A71204A3A71304A4A71404A5A715041F
:10392000A6A71604A8A71704A9A71804AAA71904EC
:10393000ABA71A04ACA71B04ADA71C04AEA71D04BB
:10394000AFA71E04B0A71F04B1A72004B2A721048B
:10395000B3A72204B4A72304B5A72404B6A725045B
:10396000B7A72604B8A72704B9A72804BAA729042B
:10397000BBA72A04BCA72B04BDA72C04BEA72D04FB
:10398000BFA72E04C0A72F04C1A73004D1A73104BC
:10399000D2A73204D3A73304D4A73404D5A735045F
:1039A000D6A73604D8A73704D9A73804DAA739042C
:1039B000DBA73A04DCA73B04DDA73C04DEA73D04FB
:1039C000DFA73E04E0A73F04E1A74004E2A74104CB
:1039D000E3A74204E4A74304E5A74404E6A745049B
:1039E000E7A74604E8A74704E9A74804EAA749046B
:1039F000EBA74A04ECA74B04EDA74C04EEA74D043B
:103A0000EFA74E04F0A74F04F1A75104D7A7102049
:103A10005CA9132043A81420AAA1152044A81620AD
:103A2000ACA11820AEA11920AFA11C20B0A11D206F
:103A3000B1A1252045A82620ADA13020EBA1322040
:103A4000E4A13320E5A1352046A83B20F9A1AC2014
:103A500080000321E6A1052147A8092148A81621D5
:103A6000EDA1212159A96021F1A26121F2A26221D7
:103A7000F3A26321F4A26421F5A26521F6A26621D6
:103A8000F7A26721F8A26821F9A26921FAA26A21A6
:103A9000FBA26B21FCA27021A1A27121A2A2722122
:103AA000A3A27321A4A27421A5A27521A6A27621A6
:103AB000A7A27721A8A27821A9A27921AAA2902160
:103AC000FBA19121FCA19221FAA19321FDA19621B4
:103AD00049A897214AA898214BA899214CA80822C7
:103AE000CAA10F22C7A11122C6A115224DA81A22D0
:103AF000CCA11D22D8A11E22DEA11F224EA8202269
:103B0000CFA123224FA82522CEA12722C4A128225B
:103B1000C5A12922C9A12A22C8A12B22D2A12E22C5
:103B2000D3A13422E0A13522DFA13622C3A137225E
:103B3000CBA13D22D7A14822D6A14C22D5A1522209
:103B400050A86022D9A16122D4A16422DCA16522FF
:103B5000DDA1662251A8672252A86E22DAA16F2247
:103B6000DBA1952292A89922D1A1A522CDA1BF22A5
:103B700053A81223D0A16024D9A26124DAA262241E
:103B8000DBA26324DCA26424DDA26524DEA2662419
:103B9000DFA26724E0A26824E1A26924E2A27424DF
:103BA000C5A27524C6A27624C7A27724C8A2782409
:103BB000C9A27924CAA27A24CBA27B24CCA27C24D9
:103BC000CDA27D24CEA27E24CFA27F24D0A28024A9
:103BD000D1A28124D2A28224D3A28324D4A2842479
:103BE000D5A28524D6A28624D7A28724D8A2882449
:103BF000B1A28924B2A28A24B3A28B24B4A28C24B9
:103C0000B5A28D24B6A28E24B7A28F24B8A2902488
:103C1000B9A29124BAA29224BBA29324BCA2942458
:103C2000BDA29524BEA29624BFA29724C0A2982428
:103C3000C1A29924C2A29A24C3A29B24C4A2002593
:103C4000A4A90125A5A90225A6A90325A7A904259C
:103C5000A8A90525A9A90625AAA90725ABA908256C
:103C6000ACA90925ADA90A25AEA90B25AFA90C253C
:103C7000B0A90D25B1A90E25B2A90F25B3A910250C
:103C8000B4A91125B5A91225B6A91325B7A91425DC
:103C9000B8A91525B9A91625BAA91725BBA91825AC
:103CA000BCA91925BDA91A25BEA91B25BFA91C257C
:103CB000C0A91D25C1A91E25C2A91F25C3A920254C
:103CC000C4A92125C5A92225C6A92325C7A924251C
:103CD000C8A92525C9A92625CAA92725CBA92825EC
:103CE000CCA92925CDA92A25CEA92B25CFA92C25BC
:103CF000D0A92D25D1A92E25D2A92F25D3A930258C
:103D0000D4A93125D5A93225D6A93325D7A934255B
:103D1000D8A93525D9A93625DAA93725DBA938252B
:103D2000DCA93925DDA93A25DEA93B25DFA93C25FB
:103D3000E0A93D25E1A93E25E2A93F25E3A94025CB
:103D4000E4A94125E5A94225E6A94325E7A944259B
:103D5000E8A94525E9A94625EAA94725EBA948256B
:103D6000ECA94925EDA94A25EEA94B25EFA9502537
:103D700054A8512555A8522556A8532557A854256F
:103D800058A8552559A856255AA857255BA858253F
:103D90005CA859255DA85A255EA85B255FA85C250F
:103DA00060A85D2561A85E2562A85F2563A86025DF
:103DB00064A8612565A8622566A8632567A86425AF
:103DC00068A8652569A866256AA867256BA868257F
:103DD0006CA869256DA86A256EA86B256FA86C254F
:103DE00070A86D2571A86E2572A86F2573A870251F
:103DF00074A8712575A8722576A8732577A88125E2
:103E000078A8822579A883257AA884257BA885258A
:103E10007CA886257DA887257EA8882580A8892559
:103E200081A88A2582A88B2583A88C2584A88D2526
:103E300085A88E2586A88F2587A8932588A89425F0
:103E400089A895258AA8A025F6A1A125F5A1B225C6
:103E5000F8A1B325F7A1BC258BA8BD258CA8C62544
:103E6000F4A1C725F3A1CB25F0A1CE25F2A1CF2542
:103E7000F1A1E2258DA8E3258EA8E4258FA8E525EC
:103E800090A80526EFA10626EEA1092691A84026B6
:103E9000E2A14226E1A10030A1A10130A2A102309D
:103EA000A3A10330A8A10530A9A1063065A9073058
:103EB00096A90830B4A10930B5A10A30B6A10B30DB
:103EC000B7A10C30B8A10D30B9A10E30BAA10F3096
:103ED000BBA11030BEA11130BFA1123093A8133086
:103EE000FEA11430B2A11530B3A11630BCA1173019
:103EF000BDA11D3094A81E3095A8213040A92230C4
:103F000041A9233042A9243043A9253044A92630B1
:103F100045A9273046A9283047A9293048A941306A
:103F2000A1A44230A2A44330A3A44430A4A44530A9
:103F3000A5A44630A6A44730A7A44830A8A4493079
:103F4000A9A44A30AAA44B30ABA44C30ACA44D3049
:103F5000ADA44E30AEA44F30AFA45030B0A4513019
:103F6000B1A45230B2A45330B3A45430B4A45530E9
:103F7000B5A45630B6A45730B7A45830B8A45930B9
:103F8000B9A45A30BAA45B30BBA45C30BCA45D3089
:103F9000BDA45E30BEA45F30BFA46030C0A4613059
:103FA000C1A46230C2A46330C3A46430C4A4653029
:103FB000C5A46630C6A46730C7A46830C8A46930F9
:103FC000C9A46A30CAA46B30CBA46C30CCA46D30C9
:103FD000CDA46E30CEA46F30CFA47030D0A4713099
:103FE000D1A47230D2A47330D3A47430D4A4753069
:103FF000D5A47630D6A47730D7A47830D8A4793039
:10400000D9A47A30DAA47B30DBA47C30DCA47D3008
:10401000DDA47E30DEA47F30DFA48030E0A48130D8
:10402000E1A48230E2A48330E3A48430E4A48530A8
:10403000E5A48630E6A48730E7A48830E8A4893078
:10404000E9A48A30EAA48B30EBA48C30ECA48D3048
:10405000EDA48E30EEA48F30EFA49030F0A4913018
:10406000F1A49230F2A49330F3A49B3061A99C3068
:1040700062A99D3066A99E3067A9A130A1A5A23092
:10408000A2A5A330A3A5A430A4A5A530A5A5A630BC
:10409000A6A5A730A7A5A830A8A5A930A9A5AA308C
:1040A000AAA5AB30ABA5AC30ACA5AD30ADA5AE305C
:1040B000AEA5AF30AFA5B030B0A5B130B1A5B2302C
:1040C000B2A5B330B3A5B430B4A5B530B5A5B630FC
:1040D000B6A5B730B7A5B830B8A5B930B9A5BA30CC
:1040E000BAA5BB30BBA5BC30BCA5BD30BDA5BE309C
:1040F000BEA5BF30BFA5C030C0A5C130C1A5C2306C
:10410000C2A5C330C3A5C430C4A5C530C5A5C6303B
:10411000C6A5C730C7A5C830C8A5C930C9A5CA300B
:10412000CAA5CB30CBA5CC30CCA5CD30CDA5CE30DB
:10413000CEA5CF30CFA5D030D0A5D130D1A5D230AB
:10414000D2A5D330D3A5D430D4A5D530D5A5D6307B
:10415000D6A5D730D7A5D830D8A5D930D9A5DA304B
:10416000DAA5DB30DBA5DC30DCA5DD30DDA5DE301B
:10417000DEA5DF30DFA5E030E0A5E130E1A5E230EB
:10418000E2A5E330E3A5E430E4A5E530E5A5E630BB
:10419000E6A5E730E7A5E830E8A5E930E9A5EA308B
:1041A000EAA5EB30EBA5EC30ECA5ED30EDA5EE305B
:1041B000EEA5EF30EFA5F030F0A5F130F1A5F2302B
:1041C000F2A5F330F3A5F430F4A5F530F5A5F630FB
:1041D000F6A5FC3060A9FD3063A9FE3064A9053165
:1041E000C5A80631C6A80731C7A80831C8A8093133
:1041F000C9A80A31CAA80B31CBA80C31CCA80D3103
:10420000CDA80E31CEA80F31CFA81031D0A81131D2
:10421000D1A81231D2A81331D3A81431D4A81531A2
:10422000D5A81631D6A81731D7A81831D8A8193172
:10423000D9A81A31DAA81B31DBA81C31DCA81D3142
:10424000DDA81E31DEA81F31DFA82031E0A8213112
:10425000E1A82231E2A82331E3A82431E4A82531E2
:10426000E5A82631E6A82731E7A82831E8A82931B2
:10427000E9A82032E5A22132E6A22232E7A22332C7
:10428000E8A22432E9A22532EAA22632EBA22732A2
:10429000ECA22832EDA22932EEA231325AA9A33281
:1042A00049A98E334AA98F334BA99C334CA99D331E
:1042B0004DA99E334EA9A1334FA9C43350A9CE3383
:1042C00051A9D13352A9D23353A9D53354A9004EA1
:1042D000BBD2014EA1B6024E4081034EDFC6044E52
:1042E0004181054E4281064E4381074EF2CD084E74
:1042F000C9D5094EFDC80A4ECFC90B4EC2CF0C4ED0
:10430000A2D80D4EBBB20E4EEBD30F4E4481104ED1
:10431000A4D8114EF3B3124E4581134EA8D7144EB4
:10432000D2C7154EA7D8164EC0CA174E4681184E92
:10433000F0C7194EFBB11A4EB5D21B4ED4B41C4E69
:10434000ABB61D4EBFCB1E4EA9D81F4E4781204E87
:104350004881214E4981224EAAB6234E4A81244EDD
:10436000BDC1254ECFD1264E4B81274EA5C9284E23
:10437000ADD8294E4C812A4EF6B82B4EBED12C4ECC
:10438000DCE32D4ED0D62E4E4D812F4E4E81304E39
:10439000E1B7314E4F81324EAEB4334E5081344E80
:1043A000D9C1354E5181364EBCD8374E5281384E28
:1043B000E8CD394EA4B53A4EAACE3B4EF7D63C4E88
:1043C00053813D4EF6C03E4ED9BE3F4EAFD8404E13
:1043D0005481414E5581424E5681434ECBC4444E8A
:1043E0005781454EC3BE464E5881474EB1D8484EC0
:1043F000B4C3494EE5D24A4E59814B4EAED64C4ECF
:10440000DACE4D4EA7D54E4EF5BA4F4EA6B7504E0A
:10441000D6C0514E5A81524EB9C6534ED2C5544E93
:10442000C7C7554E5B81564ED4B9574E5C81584E26
:10443000CBB3594ED2D25A4E5D815B4E5E815C4EFB
:10444000BFD85D4EC5BE5E4EF2C65F4EB2D2604E64
:10445000B0CF614EE7CF624E5F81634E6081644EA4
:104460006181654E6281664EE9CA674E6381684E1E
:104470006481694EC0D86A4E65816B4E66816C4E10
:1044800067816D4E68816E4E69816F4E6A81704E94
:10449000F2C2714ED2C2724E6B81734EE9C8744E35
:1044A0006C81754E6D81764E6E81774E6F81784E40
:1044B0007081794E71817A4E72817B4E73817C4E10
:1044C00074817D4E75817E4EACC77F4E7681804E65
:1044D0007781814E7881824E7981834E7A81844EB4
:1044E0007B81854E7C81864ECBC1874E7D81884EF7
:1044F000E8D3894EF9D58A4E7E818B4EC2CA8C4E46
:10450000FEB68D4EA1D88E4EDAD38F4EF7BF904EA9
:104510008081914EC6D4924EA5BB934EC1D8944E85
:10452000E5CE954EAEBE964E8181974E8281984ED5
:10453000A8D8994E83819A4EC7D19B4EA9D09C4E44
:1045400084819D4E85819E4E86819F4EBDD8A04E12
:10455000EFD9A14EF6CDA24EBABFA34E8781A44E8D
:10456000BBBDA54EA5BAA64EE0D2A74EFAB2A84E44
:10457000E0BAA94EB6C4AA4E8881AB4EEDCFAC4E80
:10458000A9BEAD4EA4CDAE4EC1C1AF4E8981B04ED5
:104590008A81B14E8B81B24ED7C7B34EF1D9B44E9A
:1045A0008C81B54EF4D9B64E8D81B74E8E81B84E02
:1045B0008F81B94E9081BA4ECBC8BB4EE9D8BC4E64
:1045C0009181BD4E9281BE4E9381BF4EDAD2C04ED4
:1045D000B2CAC14ECAC8C24EECD8C34EEAD8C44E05
:1045E000C6D8C54EF6BDC64ECDC6C74EF0B3C84EF2
:1045F0009481C94EEBD8CA4EF1BDCB4EE9BDCC4E2D
:104600009581CD4ED4C8CE4ED3B4CF4E9681D04EE8
:104610009781D14ED8C2D24E9881D34ED6B2D44EC5
:10462000D0D7D54ECBCAD64EFBCBD74ECCD5D84E55
:10463000B6B8D94EC9CFDA4E9981DB4E9A81DC4E9D
:104640009B81DD4EDAD9DE4EF0D8DF4EAAC7E04EB0
:104650009C81E14EEED8E24E9D81E34EFAB4E44EE9
:10466000EEC1E54ED4D2E64E9E81E74E9F81E84EE4
:10467000EDD8E94EA081EA4EC7D2EB4EEFD8EC4E12
:10468000C7C3ED4EA181EE4EA281EF4EA381F04E45
:10469000F6D1F14EA481F24ED9D6F34EF2D8F44EB3
:1046A000A581F54EF5D8F64EFEBCF74EDBBCF84EB4
:1046B000A681F94EA781FA4EA881FB4ECEC8FC4ECA
:1046C000A981FD4EDDB7FE4EAA81FF4EC2B7004F55
:1046D000AB81014FF3C6024FAC81034FAD81044F54
:1046E000AE81054FAF81064FB081074FB181084FB2
:1046F000B281094FF8D80A4FC1D20B4FB3810C4F8A
:10470000B4810D4FE9CE0E4FBFBC0F4FFCB7104F19
:10471000A5B7114FDDD0124FB581134FB681144F9D
:10472000B781154FB881164FB981174FDAD6184F98
:10473000C5D3194FEFBB1A4FE1BB1B4FF1D81C4F2C
:10474000BA811D4FBB811E4FA1C91F4FB0CE204F54
:10475000ABB4214FBC81224FF3D8234FBD81244FEE
:10476000CBC9254FF6D8264FD7C2274FF7D8284FA9
:10477000BE81294FBF812A4FB1CE2B4FF9D82C4F84
:10478000C0812D4FC1812E4FC2812F4FAEB2304F0D
:10479000C0B9314FC381324FA3D9334FC481344F95
:1047A000E9B0354FC581364FE6C1374FC681384F26
:1047B000ECC9394FC7813A4FC5CB3B4FC8813C4FFD
:1047C000C6CB3D4FA4D93E4FC9813F4FCA81404F10
:1047D000CB81414FCC81424FCD81434FE8B5444F0F
:1047E000CE81454FCF81464FABB5474FD081484F23
:1047F000D181494FD2814A4FD3814B4FD4814C4F05
:10480000D5814D4FBBCE4E4FCDB54F4FA1D7504F59
:10481000F4D7514FD3D3524FD681534FE5CC544F99
:10482000D781554FCEBA564FD881574FA2D9584F3E
:10483000DCD9594FE0D35A4FFDD85B4FF0B75C4FEE
:10484000F7D75D4FFED85E4FFAD85F4FA1D9604FC2
:10485000E3C4614FD981624FDA81634FB6D3644FAD
:10486000F4D8654FDDD9664FDB81674FFBD8684FC1
:10487000DC81694FE5C56A4FDD816B4FDE816C4F8E
:10488000D0C06D4FDF816E4FE0816F4FF0D1704F20
:10489000DBB0714FE181724FE281734FD1BC744F35
:1048A000A6D9754FE381764FA5D9774FE481784F2C
:1048B000E581794FE6817A4FE7817B4FACD97C4F18
:1048C000AED97D4FE8817E4FABD97F4FB9CA804FBB
:1048D000E981814FEA81824FEB81834FA9D9844FCF
:1048E000B6D6854FEC81864FED81874FEE81884F9C
:1048F000DEB3894FA8D98A4FEF818B4FFDC08C4F13
:10490000F0818D4FCCCA8E4FF1818F4FAAD9904F35
:10491000F281914FA7D9924FF381934FF481944F35
:10492000B0D9954FF581964FF681974FB1B6984F14
:10493000F781994FF8819A4FF9819B4FA9B99C4F04
:10494000FA819D4FC0D29E4FFB819F4FFC81A04FAB
:10495000C0CFA14FFD81A24FFE81A34FC2C2A44F81
:104960004082A54FC4BDA64FECD5A74FE0B2A84FDB
:10497000C8C7A94FEBBFAA4FADD9AB4F4182AC4FCF
:10498000AFD9AD4F4282AE4FEACEAF4FEEBAB04F85
:104990004382B14F4482B24F4582B34F4682B44FF7
:1049A0004782B54FD6C7B64F4882B74F4982B84FF6
:1049B0004A82B94F4B82BA4F4C82BB4F4D82BC4F9B
:1049C0004E82BD4F4F82BE4F5082BF4FE3B1C04FAA
:1049D0005182C14F5282C24F5382C34FD9B4C44F88
:1049E000EDB6C54FB4D9C64F5482C74F5582C84F94
:1049F0005682C94F5782CA4FA1BFCB4F5882CC4F66
:104A00005982CD4F5A82CE4FDED9CF4FCEC7D04F2D
:104A1000FEC0D14FB8D9D24F5B82D34F5C82D44F06
:104A20005D82D54F5E82D64F5F82D74FD7CBD84FAE
:104A3000FDB7D94F6082DA4FB5D9DB4F6182DC4FC9
:104A4000B7D9DD4FA3B1DE4FE1D3DF4FB9D9E04F86
:104A50006282E14FC5D0E24F6382E34FB6D9E44FA3
:104A60006482E54F6582E64FB1D9E74F6682E84F31
:104A7000B2D9E94FA9C1EA4FB3D9EB4F6782EC4FE6
:104A80006882ED4FF3BCEE4FDED0EF4FA9B8F04F88
:104A90006982F14FE3BEF24F6A82F34FBDD9F44F02
:104AA0006B82F54F6C82F64F6D82F74F6E82F84F36
:104AB000BAD9F94F6F82FA4FB3B0FB4F7082FC4FF7
:104AC0007182FD4F7282FE4FC2D9FF4F7382005038
:104AD00074820150758202507682035077820450AE
:104AE00078820550798206507A8207507B8208507E
:104AF0007C8209507D820A507E820B5080820C504D
:104B0000C4D90D50B6B10E5081820F50BFD910508C
:104B10008282115083821250B9B51350848214508E
:104B2000F3BE155085821650868217508782185022
:104B3000C8CC1950F2BA1A50D0D21B5088821C50DF
:104B4000C3D91D5089821E508A821F50E8BD205053
:104B50008B822150ABB322508C8223508D82245003
:104B60008E822550C5D92650EBBE27508F82285003
:104B7000C6D92950BBD92A50DFC42B5090822C5063
:104B8000BED92D50C1D92E50C0D92F50918230504E
:104B900092823150938232509482335095823450B5
:104BA0009682355097823650988237509982385085
:104BB0009A8239509B823A50AED53B509C823C50F1
:104BC000B5D63D509D823E50E3C73F509E82405037
:104BD0009F824150A0824250A1824350C8D9445084
:104BE000A2824550A3824650A4824750D9BC485067
:104BF000CAD94950A5824A50A6824B50A7824C5030
:104C0000BCD94D50A8824E50CBD94F50ABC6505056
:104C1000A9825150AA825250AB825350AC82545058
:104C2000AD825550C9D95650AE825750AF825850B8
:104C3000B0825950B1825A50F6D75B50B2825C5064
:104C4000A3CD5D50B3825E50B4825F50B582605098
:104C5000B6826150B7826250B8826350B9826450A4
:104C6000BA826550A1BD6650BB826750BC82685055
:104C7000BD826950BE826A50BF826B50C0826C5048
:104C8000CCD96D50C1826E50C2826F50C3827050B9
:104C9000C4827150C5827250C6827350C7827450EC
:104CA000C8827550C9827650BCC57750B5CD785052
:104CB000CA827950CB827A50CC827B50CDD97C503D
:104CC000CD827D50CE827E50C7D97F50A5B3805013
:104CD000FEBF8150CF828250D0828350D1828450D7
:104CE000D2828550B5B88650D3828750D4828850FE
:104CF000FCC08950D5828A50D6828B50D7828C5086
:104D0000D8828D50F8B08E50D9828F50DA82905070
:104D1000DB829150DC829250DD829350DE8294508F
:104D2000DF829550E0829650E1829750E28298505F
:104D3000E3829950E4829A50E5829B50E6829C502F
:104D4000E7829D50E8829E50E9829F50EA82A050FF
:104D5000EB82A150EC82A250ED82A350F6B4A45095
:104D6000EE82A550CED9A650EF82A750CFD9A85039
:104D7000A2B4A950D0D9AA50F082AB50F182AC5065
:104D8000DFB4AD50F282AE50F382AF50F482B05037
:104D9000F582B150F682B250C1B0B350F782B45030
:104DA000F882B550F982B650FA82B750FB82B850FB
:104DB000FC82B950FD82BA50D1D9BB50B5C9BC50A4
:104DC000FE82BD504083BE504183BF504283C050DD
:104DD0004383C1504483C2504583C3504683C4506B
:104DE0004783C5504883C6504983C7504A83C8503B
:104DF0004B83C9504C83CA504D83CB504E83CC500B
:104E00004F83CD505083CE505183CF50F1CFD050EF
:104E10005283D1505383D2505483D3505583D450AE
:104E20005683D5505783D650D2D9D7505883D850AF
:104E30005983D9505A83DA50C5C1DB505B83DC50AB
:104E40005C83DD505D83DE505E83DF505F83E05026
:104E50006083E1506183E2506283E3506383E450F6
:104E60006483E5506583E650D6D9E750AEC9E85073
:104E70006683E9506783EA506883EB506983EC509E
:104E8000D5D9ED50D4D9EE50D7D9EF506A83F05030
:104E90006B83F1506C83F2506D83F350DBCBF45095
:104EA0006E83F550A9BDF6506F83F7507083F850AC
:104EB0007183F9507283FA507383FB50A7C6FC507C
:104EC0007483FD507583FE507683FF5077830051C5
:104ED00078830151798302517A8303517B83045192
:104EE0007C8305517D830651D3D90751D8D9085108
:104EF0007E83095180830A5181830B51D9D90C518A
:104F000082830D5183830E5184830F518583105109
:104F10008683115187831251E5C813518883145138
:104F2000898315518A8316518B8317518C831851AD
:104F30008D8319518E831A518F831B5190831C517D
:104F400091831D5192831E5193831F51948320514D
:104F500095832151DCC0225196832351978324519C
:104F600098832551998326519A8327519B832851F1
:104F70009C8329519D832A519E832B519F832C51C1
:104F8000A0832D51A1832E51A2832F51A383305191
:104F9000A4833151A5833251A6833351A783345161
:104FA000A8833551A9833651AA833751AB83385131
:104FB000AC833951AD833A51AE833B51AF833C5101
:104FC000B0833D51B1833E51B2833F51F9B6405158
:104FD000A3D84151CAD44251B3834351AAD44451B6
:104FE000D6D04551E4B34651D7D54751B483485143
:104FF000C8CF4951E2B94A51B5834B51CBBF4C514F
:10500000B6834D51E2C34E51B7834F51B8835051CF
:10501000B9835151D2B65251BA835351BB835451C3
:10502000C3CD5551EED95651F0D95751BC83585183
:10503000BD835951BE835A51B3B55B51BF835C5197
:10504000B5B65D51C0835E51C1835F51C28360516B
:10505000C3836151C4836251A4BE6351C58364514B
:10506000C6836551EBC86651C7836751C8836851D1
:10507000ABC86951C9836A51CA836B51CBB06C51BB
:10508000ABB96D51F9C16E51E2D96F51CB837051FB
:10509000BCC07151B2B97251CC837351D8B974513B
:1050A000CBD07551F8B17651E4C67751DFBE785157
:1050B000E4B57951C8D77A51CD837B51F8D17C5171
:1050C000E6BC7D51DECA7E51CE837F51CF838051B5
:1050D000BDBC8151E6D98251E7D88351D083845138
:1050E000D1838551DAC48651D2838751D3838851C5
:1050F000D4B88951BDC88A51D4838B51D5838C5182
:10510000E1B28D51D9D48E51D6838F51D78390512E
:10511000D8839151D9839251B0C39351DA8394517A
:10512000DB839551E1C39651A2DA9751DFC89851BC
:10513000DC839951B4D09A51DD839B51FCBE9C51C4
:10514000A9C59D51DE839E51DF839F51E083A0510D
:10515000DAB9A151E183A251A3DAA351E283A451A8
:10516000A9D4A551A4DAA651E383A751E483A85199
:10517000E583A951E683AA51E783AB51FBD9AC5132
:10518000ACB6AD51E883AE51E983AF51EBB7B05146
:10519000F9B1B151FCD9B251E5B3B351F6BEB45136
:1051A000EA83B551F6BFB651B1D2B751E4C0B85198
:1051B000EB83B951EC83BA51ED83BB51B3B6BC510B
:1051C000FED9BD51FDD9BE51EE83BF51EF83C05111
:1051D000BBBEC151F083C251F183C351F283C451AC
:1051E000E0C6C551F383C651BCD7C751A1DAC85137
:1051F000F483C951B9C1CA51F583CB51F2B5CC5131
:10520000E8C1CD51F683CE51F783CF51F5BCD051D3
:10521000F883D151D5B4D251F983D351FA83D45103
:10522000FB83D551FC83D651FD83D751FE83D851E2
:105230004084D9514184DA514284DB51DDC1DC51D3
:105240004384DD51FDC4DE514484DF514584E05187
:10525000B8BCE151B2B7E2514684E3514784E4510E
:10526000EFB7E5514884E6514984E7514A84E85153
:105270004B84E9514C84EA514D84EB51ECD9EC510B
:105280004E84ED51BEC6EE514F84EF51ADBFF0518B
:10529000CBBBF1515084F2515184F351CAB5F45152
:1052A0005284F551C9DBF651D7D0F7515384F851E8
:1052B000B9CDF951BCB0FA51F6B3FB51F7BBFC5173
:1052C000CADBFD51AFBAFE515484FF51E4D4005201
:1052D000B6B50152F3B50252D6D80352D0C8045223
:1052E0005584055256840652D6B70752D0C7085285
:1052F000D7D8095257840A52AFBF0B5258840C5268
:1053000059840D52BBDB0E52D8D80F525A8410521A
:105310005B841152CCD01252AEBB13525C84145237
:105320005D8415525E841652BEEB1752D0C11852DE
:10533000F5C11952F2D41A52D5B81B52B4B41C524A
:105340005F841D52F5B31E5260841F526184205247
:10535000BEC921526284225263842352648424523F
:10536000D0C5255265842652668427526784285208
:10537000D9C52952FBC02A5268842B52F0B12C5255
:1053800069842D52D9D82E52CEB92F526A84305208
:10539000BDB531526B8432526C843352DAD83452F8
:1053A0006D8435526E843652C6D63752A2CB3852EF
:1053B000AFC83952B2C93A52CCB43B52CCBF3C52BE
:1053C0006F843D52F4B93E5270843F52DBD8405254
:1053D000DCD84152E7B64252C1BC4352EACC4452F7
:1053E0007184455272844652738447527484485281
:1053F0007584495276844A52F7CF4B5277844C5287
:10540000DDD84D52B0C74E5278844F5279845052F5
:10541000D0B95152A3BD52527A8453527B84545214
:10542000DECC55527C845652CAC657527D8458529F
:105430007E84595280845A5281845B5282845C52A9
:10544000E0D85D5283845E52DED85F52848460521D
:1054500085846152DFD862528684635287846452A5
:1054600088846552FEB0665289846752E7BE6852EE
:105470008A846952A3CA6A52F4BC6B528B846C5200
:105480008C846D528D846E528E846F52B1B870527E
:105490008F84715290847252EEB873529184745218
:1054A000928475529384765294847752958478527C
:1054B0009684795297847A5298847B5299847C524C
:1054C0009A847D52E2D87E529B847F52CBBD80521B
:1054D0009C848152E4D88252E3D883529D848452C2
:1054E0009E8485529F848652A0848752A1848852CC
:1054F000FCC58952A2848A52A3848B52A4848C5204
:10550000A5848D52A6848E52A7848F52A88490526F
:10551000E5D89152A9849252AA849352E6D8945223
:10552000AB849552AC849652AD849752AE84985217
:10553000AF849952B0849A52B1849B52A6C19C52B6
:10554000B2849D52B0C89E52ECB09F52A6B9A052F0
:10555000D3BCA152F1CEA252BDDBA352D3C1A452FF
:10556000B384A552B484A652B584A752B684A85277
:10557000AFB6A952FAD6AA52ACC5AB52D9BDAC52FD
:10558000BEDBAD52BFDBAE52B784AF52B884B0526F
:10559000B984B152F8C0B252A2BEB352CDC0B45217
:1055A000BA84B552BB84B652BC84B752BD84B852DB
:1055B000BE84B952BF84BA52C084BB52C184BC52AB
:1055C000C284BD52C384BE52C0DBBF52C6CAC052E1
:1055D000C484C152C584C252C684C352AAB2C45242
:1055E000C784C552C884C652C984C752C2D3C852E0
:1055F000CA84C952E3C3CA52CB84CB52ABD1CC527A
:10560000CC84CD52CD84CE52CE84CF52CF84D052D2
:10561000C2DBD152D084D252D5C0D352D184D4521D
:10562000D284D552D384D652C3DBD752D484D85235
:10563000B1BFD952D584DA52D684DB52D784DC523A
:10564000D884DD52D984DE52DA84DF52BCC4E05201
:10565000DB84E152DC84E252DD84E352DE84E452F6
:10566000DAC7E552DF84E652E084E752E184E8528B
:10567000E284E952E384EA52E484EB52E584EC529A
:10568000E684ED52E784EE52E884EF52E984F0526A
:10569000C4DBF152EA84F252EB84F352EC84F4520C
:1056A000ED84F552EE84F652EF84F752F084F8520E
:1056B000F184F952E8D9FA52D7C9FB52F284FC526C
:1056C000F384FD52F484FE52B4B9FF52F0CE00537D
:1056D000C8D40153F5840253F6840353F78404536A
:1056E000F8840553FCB00653D2B40753F984085329
:1056F000D9D00953FA840A53FB840B53FC840C530E
:10570000FD840D53E9D90E53FE840F53CBDE1053A5
:10571000EBD91153408512534185135342851453DD
:1057200043851553B0D81653AFBB1753B1B11853B7
:1057300044851953D7B31A53CED81B5345851C53F0
:1057400046851D53D1D41E5347851F53488520538A
:10575000B3BD2153EFBF225349852353BBCF2453FD
:105760004A8525534B852653D0D827534C8528533B
:105770004D8529534E852A53CBB72B534F852C5338
:1057800050852D5351852E53D1D82F5352853053E8
:10579000538531535485325355853353568534538D
:1057A0005785355358853653598537535A8538535D
:1057B0005B853953A5C63A53F8C73B53BDD23C531A
:1057C0005C853D535D853E53D2D83F53E4C440537E
:1057D0005E854153AECA42535F854353A7C74453C6
:1057E00060854553A6D8465361854753FDC9485344
:1057F000E7CE4953DCBB4A53EBB04B5362854C5365
:1058000063854D5364854E53AABB4F53ADD050535F
:1058100065855153B0B15253E4D75353BFD7545356
:1058200066855553A5B55653F4C25753CFC4585344
:105830006785595368855A53A9B25B5369855C5390
:10584000B7B25D536A855E53E5B15F53B2DF605313
:10585000BCD56153A8BF6253ACC26353D5D864535F
:10586000B1C265536B856653D4D86753D4CE6853A1
:105870006C856953E0DA6A536D856B53C0CE6C5307
:105880006E856D536F856E53B4D86F53AEC370532E
:10589000A1D37153A3CE725370857353B4BC7453A8
:1058A000B4C87553D1C2765371857753EDBE785322
:1058B000B6D0795372857A53E1DA7B5373857C5382
:1058C00074857D5375857E5376857F53E4C78053F9
:1058D0007785815378858253A7B383537985845321
:1058E000F2B68553FCCC8653FAC087537A85885329
:1058F0007B858953F7C08A537C858B53B9D18C53F0
:10590000E1D18D53C7D88E537D858F537E859053BB
:1059100080859153818592538285935383859453D7
:1059200084859553DEB29653858597538685985323
:10593000E5C0995387859A53F1BA9B5388859C5348
:1059400089859D53C8D89E538A859F53ADD4A05353
:105950008B85A1538C85A253E1CFA353C9D8A453FF
:105960008D85A553CAD8A653C3CFA7538E85A853F8
:10597000F8B3A953C7BEAA538F85AB539085AC53D8
:105980009185AD539285AE53CBD8AF539385B05329
:105990009485B1539585B2539685B3539785B45387
:1059A0009885B5539985B653CCDBB7539A85B853D0
:1059B0009B85B9539C85BA539D85BB53A5C8BC53E1
:1059C0009E85BD539F85BE53A085BF53D8CFC0537E
:1059D000A185C153FEC8C253CEB2C353A285C453DE
:1059E000A385C553A485C653A585C753A685C853AB
:1059F000D6D3C953E6B2CA53B0BCCB53D1D3CC53E0
:105A0000ABCBCD53B4B7CE53A785CF53A885D053D6
:105A1000A985D153A2B7D253AA85D353AB85D4530A
:105A2000E5CAD553AC85D653A1C8D753DCCAD853E1
:105A3000E4B1D953F0D0DA53AD85DB53D1C5DC5393
:105A4000AE85DD53AF85DE53B085DF53C5DBE05354
:105A5000FEB5E153B185E253B285E353DABFE453B7
:105A6000C5B9E553E4BEE653EDC1E753B385E8534A
:105A7000B6DFE953B5DFEA53BBD6EB53D0BDEC53E9
:105A8000D9D5ED53C8B0EE53A3B6EF53C9BFF05309
:105A9000A8CCF153B3DFF253B7CAF353D2D3F453C4
:105AA000B485F553CFD8F653B6D2F753C5BAF853E9
:105AB000BECBF953BECCFA53B585FB53B7DFFC53CD
:105AC000F0B5FD53B4DFFE53B685FF53B7850054E0
:105AD000B8850154F5D30254B9850354D4B30454A2
